:020000022000DC
:106000000000012049A0020071A002008D70020072
:1060100075A0020077A0020079A002000000000035
:106020000000000000000000000000007BA0020053
:106030007DA00200000000007FA0020081A00200FD
:106040006D86020083A00200B9880200019102005F
:10605000D98B020083A0020029870200298A02004E
:10606000D1900200E190020083A0020083A0020010
:1060700083A0020083A0020083A0020083A002008C
:1060800083A00200C96B020083A0020083A002006B
:10609000656C020083A00200319A020083A0020016
:1060A00083A0020083A0020083A0020083A002005C
:1060B000E189020083A0020000000000000000004F
:1060C00083A00200F1890200018A020083A002007D
:1060D00083A0020083A0020083A002000000000051
:1060E00000000000000000000000000000000000B0
:1060F00000000000000000000000000000000000A0
:10610000000000000000000000000000000000008F
:10611000000000000000000000000000000000007F
:10612000000000000000000000000000000000006F
:10613000000000000000000000000000000000005F
:10614000000000000000000000000000000000004F
:10615000000000000000000000000000000000003F
:10616000000000000000000000000000000000002F
:10617000000000000000000000000000000000001F
:10618000000000000000000000000000000000000F
:1061900000000000000000000000000000000000FF
:1061A00000000000000000000000000000000000EF
:1061B00000000000000000000000000000000000DF
:1061C00000000000000000000000000000000000CF
:1061D00000000000000000000000000000000000BF
:1061E00000000000000000000000000000000000AF
:1061F000000000000000000000000000000000009F
:1062000010B5054C237833B9044B13B10448AFF3F0
:1062100000800123237010BD90A200200000000028
:10622000B41A030008B5034B1BB103490348AFF38D
:10623000008008BD0000000094A20020B41A0300F2
:10624000154B002B08BF134B9D46A3F5803A002148
:106250008B460F461348144A121A04F015F80F4BD8
:10626000002B00D098470E4B002B00D09847002001
:10627000002104000D000D48002802D00C4806F053
:106280000DF903F025FF2000290000F001FB03F0C9
:106290000FFF00BF00000800000001200000000008
:1062A0000000000090A2002004B200209DC4020063
:1062B00095D6020038B5054D044645F001054FF46A
:1062C0007A40A847013CFAD138BD00BF4002030024
:1062D00070B5C6B060F07F00104D8DF814000DF160
:1062E0001500144603F036FF00231A460C492868AF
:1062F00001F016F928680134002201A905AEE4B2C4
:106300000430CDE903220196029402F003FE2868CE
:10631000043002F0A1FD46B070BD00BFB0A2002065
:106320003CB10020024A00231370024A53707047A8
:106330004CB1002036B0002010B588B060F07F006E
:10634000114C8DF807108DF80C000DF1070101229A
:106350000DF10D0003F0FEFE00231A460B492068E4
:1063600001F0DEF8206803AB0022049304A90123A6
:106370000430CDE90532079202F0CCFD20680430EC
:1063800002F06AFD08B010BDB0A200203CB10020B0
:10639000172810B5044612DC042812DD142811DD7C
:1063A00007214D20FFF7C8FF033C64B2611F61F075
:1063B0007F01C9B20920BDE81040FFF7BDBF172417
:1063C000EEE7052404214D20FFF7B6FFEEE70000BD
:1063D00010B5054C2378022B05D001210846FFF7A4
:1063E000ABFF0223237010BD4EB1002010B50A4C44
:1063F0002378042B0ED0FFF7EBFF084B084AC3F8B5
:10640000042501210022C3F800215960C3F80C21A2
:106410000423237010BD00BF4EB1002000100040C7
:1064200036B00020114B5A78062A1ED9104AD97866
:1064300011701049187908700F49587908709979C6
:106440000E4B19700E4B1B783BB90E491378097827
:10645000994202D01378FF2B07D10B4A13880133DE
:106460009BB21380094B01221A70704736B000208E
:1064700034B000204DB1002039B1002052B10020CD
:1064800035B0002038B1002036B100204CB10020DA
:10649000CB1E022B37B50C4615D801460B4D11F813
:1064A000013BC5F82435013C224601A8240403F031
:1064B00051FE44F0FF04019BC5F81C350120C5F8CE
:1064C000184503B030BD0020FBE700BF00100040BE
:1064D00070B5134C237803F0FF05EBB9114B1B7813
:1064E000032B11D0104EFFF781FFD6F80C315BB1B2
:1064F000FFF76EFFD6F8003443B90C4A1388013316
:106500009BB21380FFF772FF284670BDFFF78AFF2A
:1065100023780BB9FFF76AFF2578EDB2F4E700BFE7
:106520004CB100204EB100200010004050B10020BE
:1065300070B506460C46FFF7CBFF054680B16EB13D
:1065400064B1084B22785B78991F9142DCBF073B0E
:10655000237022780449304603F0FCFDFFF7E2FE89
:10656000284670BD36B000203DB00020B2F5807FD7
:1065700001D8FFF7ADBE704710B5074C2378032B49
:1065800009D003210120FFF7D7FE40210846FFF77D
:10659000D3FE0323237010BD4EB100200000000085
:1065A00010B510EE100A2DED028BB0EE408A09F006
:1065B00057F917A3D3E9002309F0AAF916A3D3E9E1
:1065C000002309F0CFFA09F07BFC0446C0F3074131
:1065D0000620FFF7B1FEC4F307210720FFF7ACFE4A
:1065E0000820E1B2FFF7A8FEDFED077A074BB4EE13
:1065F000E78AF1EE10FAACBF012200221A70BDEC5E
:10660000028B012010BD00BF00C04244AA980020A8
:106610000000000080842E410000000080844E4075
:106620004FF08043F7B50022C3F8002101221A6021
:10663000D3F80021002AFBD01C4C00220123C4F80F
:10664000FC2FC4F8FC3FC4F810212361D4F81031AA
:10665000002BFBD00125002602274FF6FF73C4F85C
:106660002C65C4F83055C4F83475C4F83C35104B6B
:10667000C4F838350323C4F800320E4BC4F814357F
:10668000FFF7A6FE0C4B186800901B798DF80430BC
:1066900005216846FFF7FCFE2846C4F80875C4F8D3
:1066A0000C65C4F8105503B0F0BD00BF00100040E9
:1066B00021100100080108001C02030038B54FF04A
:1066C000A0444FF40075C4F818551348C4F8085591
:1066D00003F02AFE0A20C4F80C55FFF7EBFD0A2050
:1066E000C4F80855FFF7E6FDFFF79AFF18B90B4805
:1066F00003F01AFEFEE70A4803F016FE9FED090AB2
:10670000FFF74EFF18B9084803F00EFEFEE717200A
:10671000BDE83840FFF73CBE0B0303002103030034
:106720003803030000C064444C030300FB2937B561
:1067300005460C462CD8FFF74BFE00210D20FFF735
:10674000FBFD144B00201978FFF7F6FD124B0020DB
:106750001978FFF7F1FD114B00201978FFF7ECFDD8
:106760000F4B00201978FFF7E7FD2B788DF80730E5
:1067700022460DF107010020FFF7F8FE211D22201F
:10678000C9B2FFF7D9FDFFF7F7FE012003B030BD16
:106790000020FBE7A9980020A8980020ADA20020C7
:1067A000ACA2002038B5044603F06CFC054603F0AB
:1067B00069FC401BA04201D3002003E0FFF788FEE4
:1067C0000028F4D038BD000030B52848C7B003F029
:1067D000ABFD274B02AA03F110051868596814464F
:1067E00003C40833AB422246F7D11868214B20601E
:1067F000B3F90000421C0DF115011A800A2203F0C2
:10680000A7FC00231C488DF81B3003F08DFD0A20E7
:10681000FFF750FD142102A8FFF788FF174803F087
:1068200083FD0A20FFF746FDFB2315488DF807304E
:1068300003F07AFD0A20FFF73DFD4FF47A70FFF771
:10684000B1FF80B10DF1070107A8FFF771FE40B15C
:106850000C4803F069FD4FF47A70FFF72BFD47B049
:1068600030BD0948F5E70948F3E700BF46020300D9
:10687000DE020300AEA200205D02030068020300F6
:106880008A0203009F020300A9020300B80203006A
:106890007FB54FF40041002001F0ECF920B1134A1C
:1068A0004FF4047100F03CF901F008F94FF0A046F4
:1068B0000F48104D03F038FD8023C6F818350E4BF5
:1068C0000E4A1A600E4B0FCB6C4684E80F0085E829
:1068D0000F000323C6F82C374FF40063C6F80835C1
:1068E000FFF7ECFEFFF770FFFCE700BFF2020300CA
:1068F000F90203003CB10020B0A20020AC980020B7
:10690000240203000369C1688B429DBF8268D218CC
:1069100002F1FF3203F1FF3394BF501A581A704747
:106920002DE9F041D0E9027405463E1B40689642CD
:1069300020448846144404D903F00CFCEC60BDE804
:10694000F0813246E41B03F005FC224608EB060109
:106950006868F1E72DE9F843C56806468946174699
:106960004FF000083469B3687068A54228BFE41886
:10697000013C621B5C1BBC4228BF3C46944228BFC2
:10698000144649462844224603F0E4FBB3682544F4
:10699000AB4208BF00253F1BA044A144F560E1D1F4
:1069A0004046BDE8F883000010B5114C114AA261C1
:1069B0000223C4E90433104BE361A2644FF4007373
:1069C0000E4A2362E264002310220D49A362E01DF7
:1069D0006362E362A3656365E365226503F088FD96
:1069E0000849204603F084FD2023A37110BD00BF99
:1069F00054B1002060030300C4A20020B4A2002010
:106A0000690303006D030300F8B5184C182300FB5D
:106A1000033503FB00402544C46A012C0F4616468B
:106A200011D024B1022C1BD000242046F8BD2846EA
:106A3000FFF768FFB042F8D3324639462846FFF7E1
:106A40006FFF3446F1E72846FFF75CFF8642344685
:106A500028BF0446224639462846FFF761FFE4E78F
:106A60002846BDE8F840FFF775BF00BF54B10020CD
:106A700073B50E4B1B7804460D4616460BB9FFF74F
:106A800093FF00230DF107008DF8073000F0A6FA00
:106A9000324629462046FFF7B7FF04469DF8070017
:106AA00000F0CCFA204602B070BD00BF54B1002007
:106AB000FFF77ABF10B511461C461A460020FFF7B3
:106AC000D7FF204610BD000082B001238DF80730AB
:106AD0009DF80730114B1860596044F2010188425B
:106AE0009A6012D044F20201884206D1DA60DA6874
:106AF00012889A61DA685268DA6172B69DF80730D6
:106B0000002BFBD162B602B070471A611A69926815
:106B10005A611A6912689A611A69ECE7C4A40020E4
:106B200000B583B002900091019244F201007146D9
:106B30006A4603F023FA03B000BD0000094A537807
:106B400091780133DBB2994208BF00231178994252
:106B50001FBF03705078182303FB002014BF0430BC
:106B600000207047E4A4002073B5054600240DF111
:106B700007000E468DF8074000F030FA0DF10600D0
:106B8000FFF7DCFF90B10670094B9DF806204560C9
:106B90005A709DF8070000F051FA24B9054B4FF4E4
:106BA0008012C3F80021204602B070BD0424F0E733
:106BB000E4A4002000E100E0024B4FF43C6043F00D
:106BC0000103184780030300F8B51F491F4B002538
:106BD000C1F84051C1F84451C1F84851C1F84C5175
:106BE000C1F80051C1F804511B684BB3D1F80445FA
:106BF00017490968641A24F07F442F461A68A24294
:106C000009D8A41A15441A7CDE691AB11F74D3E995
:106C100005209047AEB90F4A0F4B11781B788B4275
:106C200005D10133DBB2022B08BF002313701278A9
:106C30000A4B43F822500A4B4FF48012C3F800214C
:106C4000F8BD3346DAE700BF0010014004A600207B
:106C500000A60020FDA50020FCA50020F4A5002032
:106C600000E100E02DE9F04F9F4AA0491378097830
:106C70009F4D994285B03CD00133DBB2022B08BF57
:106C8000002313709B4912789B4B0F6853F8220026
:106C90003B1823F07F4300220B602B6816461446F6
:106CA000944613B942B12B6006E0196881420ED9AF
:106CB00002B12B60091A19604FF001082B68DFF848
:106CC00040A201930027BEB9DFF83CB266E0401A4B
:106CD0000C44D968C3F800C0D3F81CE031B13A19AC
:106CE00022F07F42C3E90121DE611E460122734684
:106CF000D7E70026B046E1E73446F6697D4A636887
:106D00001268DFF808C2A068991A21F07F41614536
:106D100000F2A58001442160012222742A68002328
:106D2000C4E90133E361002A40F0A2802C60CAE785
:106D30005A1C9BF80210D2B291428BF8002004BF7B
:106D400000228BF80020182202FB03B31A799C68FA
:106D5000022A1CD0032A12D0012A1FD1207CE8B9B4
:106D6000D96861601A69A2605A69E2609B69A3618F
:106D7000624B1B78002B18BF01466160BEE7002202
:106D80002B681146002B66D142B12B6006E02968C2
:106D90000A468946002A59D1002323749BF8003003
:106DA0009BF801209A42C3D12B682FB9019A9A42CD
:106DB00002D1B8F1000F43D0002B41D0D3F800A08E
:106DC0004F4D4C4BD5F804751C68DFF844813E1BD1
:106DD00098F8003026F07F4603369BB94FF4803395
:106DE000C5F84433C5F80433464B4FF400324FF036
:106DF0000109C3F880211A60C5F80090FFF7DCFE96
:106E000088F80090B2452CBF5444A41924F07F4464
:106E1000C5F84045D5F80435DB1B23F07F43E41B60
:106E2000033324F07F44A3420AD9D5F80435C5F8CA
:106E30004035FFF7C1FE334B4FF40032C3F8002159
:106E40002E4B00221A7005B0BDE8F08F944229D075
:106E50009146D2699EE719740122DB6992E7D31A41
:106E600023F07F43834234BFC31A0023236053E7D8
:106E700021681368994213D8591A1160E26155E7E5
:106E8000091AD8691A4638B1034618688842F7D3F8
:106E9000401A1860184613462160E061DC6112E771
:106EA0001346F2E74C4511D1CB692B6073B9DFF87B
:106EB00044E00120CDE90212CAF80800CEF8003003
:106EC0000E4B1870FFF778FEDDE902121368D269E5
:106ED000C9F81C2012B11068034413602B68994252
:106EE00018BF012758E700BFFCA50020FDA5002022
:106EF00004A6002000A60020F4A50020F0A5002094
:106F00000010014000E100E0E4A40020FEFF7F004B
:106F1000F1A500202DE9F7431E4FBB7805460E462C
:106F20009046A3B398B304292FD943697BB3437C1C
:106F30000024012B0DF107000CBF8946A1468DF8F6
:106F4000074000F04BF80DF10600FFF7F7FDD0B158
:106F500001230370104B4560D3F80435C0E9049851
:106F6000C0E902369DF806307B709DF8070000F0FE
:106F700065F824B9094B4FF48012C3F8002120466C
:106F800003B0BDE8F0830424EFE70724F7E7082403
:106F9000F5E700BFE4A400200010014000E100E09C
:106FA000064A92783AB130B1426922B100220274A5
:106FB0000221FFF7D9BD0820704700BFE4A40020DC
:106FC000EFF30583C3F308032BB9EFF31480C04339
:106FD00000F00100704701207047000070B50446C2
:106FE000FFF7EEFF012803D01049432002F04EFEC8
:106FF000EFF3108672B60E4A9068012398B9936039
:107000000C4B0D4DD3F8801029401160C3F880500F
:10701000D3F8841051604FF0FF32C3F88420207001
:1070200006B962B670BD2370FAE700BF860303009D
:10703000CCB1002000E100E0FC06FFBD10B5044625
:10704000FFF7BEFF012803D00949512002F01EFEC0
:10705000084B9A685AB154B9EFF3108172B6064AD8
:1070600018681060586850609C6001B962B610BD25
:1070700086030300CCB1002000E100E0024B1B6856
:107080000021986803F064B9D09800201EF0040F26
:107090001CBFEFF309800AE0EFF308800549064AB8
:1070A000884201D8904202D88D464FF00000034B31
:1070B000184700000000012000E00020E5700200F9
:1070C000BFF34F8F0549064BCA6802F4E0621343D1
:1070D000CB60BFF34F8F00BFFDE700BF00ED00E0C6
:1070E0000400FA052DE9F347054601F005F800F024
:1070F0001BFE0028FBD12F4B2F4C9F6A2F4BE41A0D
:10710000E408240444F00104002D4ED0AA692C495F
:10711000204600F089FFEB680193AB680093294992
:10712000D5E90023204600F09EFFEB690093264935
:10713000D5E90423204600F08AFF1E4BDB6A98073E
:1071400003D52249204600F06BFFDFF89490DFF86A
:1071500094A000264FF0010808FA06F33B4206D03F
:1071600059F826201AB15146204600F05DFF01363D
:107170001A2EF1D1390605D50E4B15495A6B20460A
:1071800000F052FF3A0405D50A4B12499A6B20468B
:1071900000F04AFF104B1B68DB0700D500BE2846F5
:1071A000FFF78EFF02B0BDE8F0870C49204600F0E3
:1071B00037FFC2E700ED00E0301B0300C81A0300F0
:1071C000DB030300F0030300250403008004030035
:1071D000CF040300EF040300F0ED00E04D040300D2
:1071E0000C050300C404030050E8002F0B4640E8E0
:1071F000003C9CF0000FF7D11046704750E8003F6C
:1072000043EA010240E8002C9CF0000FF6D1104642
:10721000704750E8002F02EA010340E8003C9CF070
:10722000000FF6D11046704750E8003F03EB010213
:1072300040E8002C9CF0000FF6D11046704750E853
:10724000003FA3EB010240E8002C9CF0000FF6D1B8
:10725000104670470121FFF7D1BF0021FFF7D9BFCA
:1072600010B50446002834D003681BB91A49FF2022
:1072700002F00CFD636823B917494FF4807002F0E7
:1072800005FDA36823B9144940F2011002F0FEFC89
:10729000E36823B910494FF4817002F0F7FC238AA8
:1072A00023B90D4940F2031002F0F0FCD4E90123A8
:1072B00021689B1ADBB20A60013BDBB2FF2B22681C
:1072C00002D10020107110BD1168481C10600B70B5
:1072D000F2E70E20F7E700BF340A030037B5054692
:1072E00020B914494FF4927002F0D0FC00240DF143
:1072F00007008DF80740FFF771FE2A686968136878
:107300008B4210D9591E116013F8014C2A8AEB6880
:1073100002FB04342A68AB6811685B1A1179DBB28E
:10732000994238BF13719DF80700FFF787FE20468A
:1073300003B030BD340A030037B50C46054620B90A
:10734000104940F2471002F0A1FC24B90D494FF456
:10735000A47002F09BFC00230DF107008DF80730AC
:10736000FFF73CFE2A681368591C1160EA68A41AEA
:107370002A8AB4FBF2F41C709DF80700FFF75EFE4A
:1073800003B030BD340A030038B5074C051E04F1C4
:10739000080318BF1C4623682BB11A6822605B687B
:1073A00028469847F7E738BD10A6002020B9054BBE
:1073B00001225A70FFF7E8BF012802D1014A9070FC
:1073C000F8E7704708A6002020B9034B01225A7045
:1073D000FFF7DABF704700BF08A6002038B50B4C96
:1073E000237883B90A486360A3602361E36001F0F6
:1073F000F3F8054602F002FB08B901F001F9012398
:107400002370284638BD8525FBE700BF08A600206D
:10741000AD73020013B5164C237823B915494FF408
:10742000857002F033FCE36823B9124940F20B1077
:1074300002F02CFC00230DF107008DF80730FFF758
:10744000CDFDE368013BE360E36853B902F0D6FA8F
:1074500018B10849792002F019FC01F0EFF8002377
:10746000A3709DF80700FFF7E9FD02B010BD00BF53
:1074700008A60020840A0300012813B509D018B11A
:1074800003281CD002B010BD134B0122C3F880208A
:10749000F8E7124C00230DF107008DF80730FFF7D5
:1074A0009DFD23780BB9FFF799FFE3689DF807006E
:1074B0000133E3600123A370FFF7C0FDE2E7074B50
:1074C0001B7823B9064940F2452002F0DFFB01F0AA
:1074D00097F8FFF79FFFD5E700E100E008A600203E
:1074E000840A03007FB503788DF804304368029363
:1074F00083688DF80C30C368049303698DF81430E9
:10750000054A064B01A853F8213052F8211098473C
:1075100007B05DF804FB00BF1CA6002028A60020D1
:10752000F0B50646944616F8047B134A42F827C085
:10753000124A42F82730124B0D460FCB85B06C46ED
:1075400084E80F002B6800932B798DF805306B7958
:107550008DF80630AB680293BCF1000FAB89ADF833
:107560000C30084A3B4608BF00222146304601F055
:1075700065FB05B0F0BD00BF28A600201CA60020BA
:10758000DC0A0300E574020010B5044618B9064988
:10759000312002F07BFBA2682AB16369216820696F
:1075A00098470023A36010BDEC0A03000EB433B566
:1075B000059D044618B91149422002F067FB636932
:1075C0001BB90E49432002F061FB23681BB90B492C
:1075D000442002F05BFB63681BB90849452002F0B8
:1075E00055FB35B106AB01AA29462046019300F0B0
:1075F0006FF802B0BDE8304003B07047EC0A0300FA
:10760000826830B40468551C8560A154D0E9013209
:107610009A4202D330BCFFF7B7BF30BC70470000BE
:107620002DE9F84F9946DDE90A4317468246884618
:107630000A460126BA420FD24E4538BF4E4613F0D5
:10764000010B01D164B900240125B9F1010F1AD948
:1076500009F1FF397D43F8E7B2FBF7F20136E9E7BC
:107660009B070ED5B9F1000F0CBF30252025A6428F
:10767000EAD2013C29465046FFF7C2FF002CF6D162
:10768000E1E72025F3E7B8FBF5F39F42E2D9DFF805
:107690003C90B8FBF5F3504619F8031005FB13882E
:1076A000FFF7AEFFB5FBF7F3BD4207D2BBF1000F0A
:1076B00002D00CB1A64203D3BDE8F88F1D46E8E71F
:1076C00020215046013CFFF79BFFF2E7320B0300FD
:1076D0002DE9F74F88461746054620B9A8494FF4CB
:1076E000A27002F0D3FA6B6923B9A5494FF4A370D5
:1076F00002F0CCFA2B6823B9A14940F2471002F0FE
:10770000C5FA6B6823B99E494FF4A47002F0BEFA23
:10771000B8F1000F00F0318118F8011B49B92B7B3B
:10772000002B00F02A81284603B0BDE8F04FFFF798
:107730002BBF252940F0C080002698F800302D2B63
:10774000424608F1010823D0302B24D02B2B25D022
:1077500000242A2B02F1010123D13B681A1D3A6053
:107760001B680A461C4413782E2B26D101324FF099
:10777000000A104610F8011BA1F1300CBCF1090FF2
:107780001DD80A2303FB0A13A3F1300A0246F0E7CF
:1077900046F00106D1E746F00206CEE746F00406C1
:1077A000CBE711F8013CA3F130000928DBD80A220D
:1077B00002FB0434303C0A46CBE74FF0000A12F8D3
:1077C000011B01F0FB0068289046F8D069290ED013
:1077D0004AD8582964D006D825296DD098F80030A9
:1077E000002B99D19BE7632962D06429F6D13A68CE
:1077F000111D3960D2F8009089EAE972A2EBE972B2
:107800004FF0010B092A5BDCD34538BFD3462CB1BE
:10781000B9F1000F01DB710700D5013CB20702D5B9
:10782000BAF1000F04D0F30702D4002C4ED100248B
:10783000B9F1000F52DAC9F100092D212846FFF7EE
:10784000DFFE06F00302022A05D1BAF1000F02D1D1
:10785000002C47D10024CDE9004653460A22494670
:107860002846FFF7DDFEB9E773294CD014D87029FC
:10787000B4D13B681A1D3A60302128461C68FFF7D6
:10788000BFFE78212846FFF7BBFE00220823CDE982
:10789000003221461022E3E775292BD078299DD1AB
:1078A00039680A1D3A60CDE900465346102228E0A7
:1078B0003B681A1D3A6019782846FFF7A1FE8DE74C
:1078C0000A230BF1010BB2FBF3F29BE7A345AFD206
:1078D00020212846013CFFF793FEA6E77007B0D5AC
:1078E0002B21ABE7A345B6D230212846013CFFF758
:1078F00087FEADE73968CDE900460A1D3A60534678
:107900000A220968ACE73B681A1D3A60F107D3F810
:10791000009020D4B9F1000F25D0484602F050FE67
:107920000646B44200D9C4B909F1FF3920E028461F
:107930000136FFF765FE19F806100029F7D1A642B7
:10794000BFF44CAF002C3FF449AF20212846013C46
:10795000FFF756FEF3E70026EDE720212846013C1D
:10796000FFF74EFEDDE74E46DBE72846FFF748FE11
:1079700019F8011F0029F8D130E703B0BDE8F08FF6
:10798000420B03007047000007B5044B0093044A04
:10799000402300F032F803B05DF804FBA579020043
:1079A00035A600202DE9F84389461446B2B10F4BA5
:1079B0000F4E0325002743F00108224609EB07017B
:1079C0000020FFF721F80744241A48B933782BB177
:1079D0004FF47A40C047013D02D13570BDE8F883CD
:1079E00001233370002CE8D1F8E700BFA00B03009F
:1079F00034A600207047FFF75BB8F0B595B01C4681
:107A0000164608460D4600F042FD1A9B0D93CDE93F
:107A1000086400242346082205A928460A948DF804
:107A20002C400C9400F05AFD079B0293069B039395
:107A30009DF814308DF8114003F00302012A1DD186
:107A4000BDF81440059EC3F3C203C4F383148DF83C
:107A50001030A20008230EA9284600F03FFDC6F30F
:107A6000952608AB0093224602AB0EA9304600F0E3
:107A7000B3FB284600F00FFD15B0F0BD022AF8D187
:107A8000BDF81640C3F3C203A4098DF810300827CF
:107A9000082C264628BF08263B4632460EA9284613
:107AA00000F01CFDA41B08AB02AA31460EA8374407
:107AB00000F0F6FB002CEBD1DBE7000008B5FFF788
:107AC0009AFF0421064800F0EDFA002803DA054980
:107AD000412002F0DBF8044B01225A7108BD00BFBF
:107AE000AC1B0300B40B0300BC980020037813F018
:107AF000040216D003F00303012B03D0022B09D09C
:107B0000012070470A6800880232C0F383100244E3
:107B10000A60F5E70B684288023303EB92130B60AF
:107B2000EEE71046704700002DE9F04F89B00023C2
:107B30000446851C0DF10F000F4690468DF80F305E
:107B4000FFF74CFA494806683E60D0E90132134419
:107B500001339B1B824600F21C4600F5836900F24C
:107B60001447AB421BD30022B8F1000F77D0052396
:107B700063F3070264F38912DAF80010DAF80830C8
:107B80009DF80F000B4003330D444AF82320CAF838
:107B90000050FFF753FA012009B0BDE8F08F012132
:107BA0003046FFF741FB4846FFF754FB3846FFF7E6
:107BB00051FBDAF80400DAF808B0049000EA0B0090
:107BC00003300AEB800004A9FFF790FF03460498F6
:107BD000002BF3D10BEA00020AEB820200F1020C47
:107BE000D2680592013000EA0B0B0AEB8B0B02F016
:107BF0000302012ACDF810C0DBF80C1026D0022AAF
:107C000008D01B4901934FF4BF7002F03FF8019B6D
:107C10009B4608E0BDF81620920903320CEB920255
:107C20004FEA114B04923846FFF717FB10B1049B43
:107C3000CAF8043059463046FFF7F6FADAE901236C
:107C40001344DAF8002001339B1A8AE7BDF8143098
:107C5000C3F3831363444FEA114B0493E3E7062312
:107C600063F3070264F39F5286E700BF48A7002032
:107C7000230C03000B4B0C48FF2210B59A60002226
:107C8000C3F81824C3E90022C3F81424012283F89E
:107C9000202400F0B5FB044610B9044800F032FC83
:107CA000204610BD48A70020601B03007C0C030089
:107CB00030B50A4C71B10A4A0A49121BD208002396
:107CC0009A4201D1002030BD31F82350854202D0C4
:107CD0000133F5E7034654F83300F4E7C81A03000C
:107CE000601B030090A20020094B013903EBC00088
:107CF000032909D8DFE801F00A02040604207047CE
:107D00000079704740797047002070470220704723
:107D1000C81A0300034BD3E90030C31A5842584134
:107D2000704700BF48A700202DE9F04387B0FFF758
:107D3000F1FF0646002840F0FB807E4DC5F8180490
:107D4000BFF34F8F6868AC6802902040033005EBAA
:107D5000800002A9FFF7CAFE029B18B1D5F81824CB
:107D6000002A5FD004EA0302991C013305EB82026A
:107D7000234005EB8303D268DB68049302F003031E
:107D8000022B0392029162D1BDF80E306A484FEA8D
:107D90009318B8F1500FC14628BF4FF0500969F34E
:107DA0008F1309F10801ADF80E3000F041FB0746D2
:107DB000002800F0A88000F06AFB03A90023082235
:107DC000384600F077FB029924EA01060136B60036
:107DD000B14535D95FFA89F97EB3F6B2A9EB060948
:107DE000214003315FFA89F4B146544E05EB81011D
:107DF00008234A46384600F05DFB36B109F1080316
:107E000022463146384600F055FB029B08F1030834
:107E100003EB98030293D5F81834002B4BD1D5F817
:107E200010445BE02A689A4204D86A60304607B082
:107E3000BDE8F08304EA030088E740493446D7E709
:107E40002140033108234A4605EB8101DAE7012B83
:107E500059D1BDF80C303848C3F38311062928BF27
:107E6000062161F3891302318900ADF80C3000F06E
:107E7000DFFA0746002846D000F009FB002308225D
:107E800003A9384600F016FB0026BDF80C20C2F30B
:107E90008312B300964203F10803BCD202994A1C34
:107EA00021400331029205EB81010422384600F0A3
:107EB00001FB0136E9E7384600F0EDFAFFF72AFF4B
:107EC00080F00100C6B2B1E7E3685B7923B12368B3
:107ED00039461B6820469847E3681C68002CF3D19C
:107EE000384600F0D8FA0DF107008DF80740FFF78B
:107EF00075F8D5F818340BB9029B6B609DF8070034
:107F0000FFF79CF8DAE7D5F8104454B90C4B0D484C
:107F10000D49C01AC008000440F0020000F080F8CB
:107F2000CCE7236820469B689847E3681C68ECE729
:107F300000267BE748A70020601B030054A7002011
:107F4000C81A0300201B0300880C03002DE9F74F1B
:107F50002E4C80460F46914601A9012218461E4626
:107F6000D4F808A0FFF7E0FD00283CD0019D0023D5
:107F7000A81CB34203EB00013FD100212448FFF7C6
:107F800033F980F3100B234B234A4FEA18499B1A0D
:107F9000B9EBD30F04D3214940F2A31001F076FED0
:107FA0006B1C03EA0A0304EB830349EA0B42DA6021
:107FB00005EA0A03033314F8232068F3C50204F822
:107FC000232034F8232066F3891224F8232054F860
:107FD000232067F39F2244F8232002F0F80242F0A6
:107FE000010204F8232094F820341BB1FFF79CFE13
:107FF0000028FBD103B0BDE8F08F0AEA010104EBD1
:10800000810159F82320CA600133B2E748A7002054
:1080100064AB0020601B0300C81A0300230C03009C
:1080200000231A46FFF792BF07B50123019201AA68
:10803000FFF78CFF03B05DF804FB07B5CDE9002323
:1080400002236A46FFF782FF03B05DF804FB1FB509
:10805000CDE90123069B039301AA0323FFF776FFD3
:1080600005B05DF804FB1FB5CDE90023069B029324
:10807000079B03936A460423FFF768FF05B05DF88A
:1080800004FB7FB5CDE90123089B0393099B04936F
:108090000A9B059301AA0523FFF758FF07B05DF877
:1080A00004FB000030B5134AD2F8104400232146E7
:1080B00051B9C4682371D2F810445CB9C2F81004F5
:1080C000C2681160184630BDC9680D799D420AD05A
:1080D0000968EDE7E468C16824680C60D2F81024F0
:1080E000D2681060EEE701330A2BE0D14FF0FF3386
:1080F000E8E700BF48A7002038B5094A0123D2F8B5
:10810000104482F820341D4604B938BDE3685D711F
:10811000236820465B689847E3681C68F4E700BF63
:1081200048A7002010B5037A052B0C460FD0437AE0
:1081300023B1084A08492046FFF738FA0749204684
:10814000FFF734FA2046BDE81040FFF71DBA002AB9
:10815000F8D0F3E7CF0C0300D40C0300F40C0300B9
:1081600073B5C38804460D4633B1144A00921449CE
:10817000144A2846FFF71AFA217A05291CD0637A97
:108180004BB1A088FFF7B0FD0F4B104953F82020EA
:108190002846FFF70BFA227A0D4BA08853F822608D
:1081A0000021FFF785FD0B4903463246284602B001
:1081B000BDE87040FFF7FAB902B070BDCF0C030004
:1081C000DF0C0300D70C0300A00C0300D40C030049
:1081D000040D0300F70C03002DE9F04385B01F46A2
:1081E0000C9D002306460C46904695F80C902B7388
:1081F00029463846FFF7B4FFB8F1060F09D8DFE883
:1082000008F00412181F2833400031462846FFF7B3
:10821000CDF9002229463846FFF784FF85F80C90F7
:1082200005B0BDE8F083226831462846FFF7BEF965
:10823000EFE7D4E9002331462846FFF7B7F9E8E72E
:10824000A36800933146D4E900232846FFF7AEF92E
:10825000DFE7E3680193A36800933146D4E9002384
:108260002846FFF7A3F9D4E723690293E368019353
:10827000A36800933146D4E900232846FFF796F916
:10828000C7E76369039323690293E3680193A368D3
:1082900000933146D4E900232846FFF787F9B8E771
:1082A00008292DE9F84F80460E4617461C463BD854
:1082B000002593F80C901D7319461046FFF750FFE8
:1082C000DFF88CA0DFF88CB0AE422FD918F805206B
:1082D00059462046FFF76AF90135082DF4D11949AE
:1082E000194DDFF874B02046FFF760F94FF0000A2F
:1082F000564522D918F80A207E2A1CD812F80B10ED
:1083000011F0970F08BF2E2210492046FFF74EF9B3
:108310000AF1010ABAF1080FEAD1012221463846D2
:10832000FFF700FF84F80C90BDE8F88F5146204617
:10833000FFF73CF9D0E72E22E6E729462046FFF773
:1083400035F9E5E7CA0C0300F0020300CC0C03008A
:10835000EE020300C40C0300011803002DE9F74FDF
:1083600099469DF83030019388461746054618B95E
:108370002249B62001F08AFCEA8895F805B00BFB8B
:1083800002FBABF1040BCB4503D81C49C42001F020
:108390007DFC3E68B5F806A006EB09025A4509F1D6
:1083A000040188BFABEB0906B1FBFAF43E600AFB9F
:1083B000141144B9AAEB0107B74228BF37462EB9BA
:1083C00003B0BDE8F08F2D68013CF2E7019A04315B
:1083D00008EB0403681872B101463A461846F61BCA
:1083E00001F0B8FEB2453C442D6857464FF00001FD
:1083F00028BF3746E3E73A461946F0E7630D030026
:10840000FEF72EBFF8B546790146721E05460023D9
:1084100093422D6803D30024A64202D8F8BD01334D
:10842000F6E70F682846FEF787FF01343946F3E781
:108430002DE9F843CD1C068A0746FEF74FFF043EA0
:1084400035440446B5FBF6F5F0B14FF48073EDB258
:108450008380C680013D076081464FF00008A84533
:1084600012D23846FEF73AFF064648B16379013327
:10847000637108F10108C9F8000007608146EEE762
:108480002046FFF7BFFF34462046BDE8F8830121B0
:108490000430FEF7C9BE10B5012104460430FEF7D2
:1084A000CEFE10F0FF0F04D12046BDE81040FFF7CC
:1084B000A9BF10BD1FB5144603920022009203AA63
:1084C000FFF74CFF039BA34203D00349F62001F0C2
:1084D000DDFB04B010BD00BF630D03001FB51446E3
:1084E00003920122009203AAFFF738FF039BA342E5
:1084F00004D003494FF4807001F0C8FB04B010BDF4
:10850000630D0300826800239360826813618268B0
:1085100053618268D36082685360826813607047D9
:1085200038B50D46044618B90849502001F0AEFB95
:108530001DB90649512001F0A9FB25602B68636035
:108540006A68934204BF0023636038BDBC0D03001A
:1085500010B5044618B90B49632001F097FB236856
:108560001BB90849642001F091FB636843B122689C
:1085700091680B4463605268934204BF00236360B8
:1085800010BD00BFBC0D030010B50D49A1F59472DC
:10859000914201D800200FE08B1ADB1003EBD3735C
:1085A0005B1002EBC30452F83330834205D802D289
:1085B00004F10802ECE7606810BD2146E8E700BF5F
:1085C000600F030008B5FFF7DFFF024B002808BF6C
:1085D000184608BD250E030010B5044618B9064913
:1085E000A02001F053FB054B187918B901221C603B
:1085F0009A8010BD8520FCE71A13030004AC00200C
:1086000008B50B4B1B791BB90A49B92001F03EFB99
:10861000094B1A68D2075FBFE02283F800230122CA
:108620001A604FF080430122C3F8182508BD00BF2F
:1086300004AC00201A13030000E100E008B5084B69
:108640001B791BB90749F32001F020FB064B0122DF
:108650001A604FF08042D2F81834DB03FBD408BD17
:1086600004AC00201A1303000C00004007B5154BA2
:108670001A687AB100221A601B680093009B4FF0C1
:1086800080430122C3F808230F4B587910B95A715F
:108690001B6898470D4B1A6882B100221A601B684C
:1086A0000193019B4FF080430222C3F80823064B3D
:1086B0001B68012003B05DF804EB184703B05DF8B8
:1086C00004FB00BF0001004004AC00200401004096
:1086D00000F1804000F5C040002382B003600368D1
:1086E0000193019B02B0704702494FF4F37001F00F
:1086F000CDBA00BF6D1303001F2838B504460D46E0
:1087000001D9FFF7F1FFA00000F1A040D0F8002749
:1087100022F44032C0F80027D0F8003743EA05437E
:10872000C0F8003738BD00002DE9F04F87B00024B5
:108730005D4D03944FF48072012102F1804303F5F3
:10874000C04390B21B68012B06D1D5F804330B420D
:1087500002D0FFF7BDFF0C430432B2F5907F4FEA21
:108760004101EAD1514B1B68012B0AD14FF4BE7075
:10877000FFF7AEFF4FF0A04344F00044D3F81035AC
:10878000039314F0FF0F1AD0494F002501263442FD
:1087900010D0AB0003F1804303F5C043D3F81005BC
:1087A000D3F8101557F8253023B1C1F30141C0F3B8
:1087B000042098470135082D4FEA4606E7D1002CE2
:1087C0006ADA00224FF0FF33CDE90423384FDFF897
:1087D000E480002635464FF0A04A18F9014B631C8F
:1087E0004FD0E4B2012224F0C00B04F0070302FAD8
:1087F00003F34FEADB0006AA111811F8042C1A4201
:108800003FD007EB0B02A40992F9302057F82290D1
:10881000B9F1000F0AD1032C33D10DF1100E1EF85F
:1088200000C04CEA030C0EF800C001E0032CF4D0A9
:10883000BBF11F0F05D9CDE90031FFF755FFDDE989
:1088400000310BF5E07011F80C1C5AF820001942A9
:10885000C0F3014005D0022813D1032C0BD12146CF
:1088600004E003280DD1032C05D102215846FFF75F
:1088700043FF0135EDB2B9F1000F02D02146584651
:10888000C8470136042EA8D135B14FF0A043039A52
:10889000D3F81035934202D107B0BDE8F08F0393AF
:1088A000049B059393E700BF006000407C6100409B
:1088B0000CAC00205CAC002010B5054C22681AB945
:1088C0000449512001F0E2F92368BDE8104018473F
:1088D00068AC0020BB13030037B50D4630B90F4913
:1088E000772001F0D3F9002003B030BD0C4B984243
:1088F000F9D100230DF107008DF80730FEF76EFB6C
:10890000084B1C7914B901221D601A719DF80700EB
:10891000FEF794FB002CE6D01120E5E7BB13030023
:108920000020004068AC002018B906499B2001F0E7
:10893000ADB9054B984201BF044B00221A601A7171
:10894000704700BFBB1303000020004068AC00204C
:108950000023435082B043580193019B02B07047FB
:1089600070B5D0F8103105460C4653B14FF48871FC
:10897000FFF7EEFF63795A0703D523680BB1012097
:108980009847D5F814315BB14FF48A712846FFF748
:10899000DFFF63791B0703D523680BB102209847DB
:1089A000D5F81C315BB128464FF48E71FFF7D0FF2C
:1089B000607910F0100002D1236803B19847D5F810
:1089C000043163B14FF482712846FFF7C1FF0123E0
:1089D000237123681BB10320BDE87040184770BDA8
:1089E00001490248FFF7BCBF70AC002000C0014045
:1089F00001490248FFF7B4BF78AC002000100240E4
:108A000001490248FFF7ACBF80AC002000200240C3
:108A100000F1804000F5E040002382B0036003686D
:108A20000193019B02B07047F0B5534B534C1B6848
:108A300085B0002B3DD04FF4827094F82E20FFF7C4
:108A4000E7FF2AB394F82F3013BB4D4B1B68002B64
:108A500033D04FF48070FFF7DBFF94F82D20638B49
:108A600091B28B424ED95B1A21899BB26383CB1A98
:108A7000616801EB4301434BC3F82C16C3F8302661
:108A80004FF48270FFF7C4FF3F4B01221A6014E0DD
:108A9000636802932389ADF80C30E36800218DF8F8
:108AA000041023BB2374236801A89847002384F88B
:108AB0002F3094F82E30002BC7D1344B1B685BB19C
:108AC0004FF48870FFF7A4FF0023237402238DF86E
:108AD000043001A8236898472D4B1B6813B34FF44B
:108AE0008A70FFF795FF0023237405B0F0BD208B3B
:108AF000608363602081E160002AD4D1214B012290
:108B00001A60D0E7BCD1E368012184F82F103BB193
:108B1000002161831B49C1F82C36C1F83026AFE72C
:108B20006383ADE766694FF000470125002EDCD076
:108B3000B6FA86F227FA02F34632920026EA0306D4
:108B400002F1804303F5E0431B68002BEED0104692
:108B5000FFF75EFFA2F58C72D30882F00402C2F325
:108B600080028DF808308DF804508DF809202368B4
:108B700001A89847DAE700BF0471004088AC0020E4
:108B8000007100400070004004700040107100400F
:108B90001471004002494FF4F37001F077B800BF40
:108BA0006D1303001F2810B5044601D9FFF7F2FF2B
:108BB00001234FF0A042A340C2F80C3510BD1F287E
:108BC00010B5044601D9FFF7E5FF01234FF0A0429D
:108BD000A340C2F8083510BD13B54FF04023D3F8B9
:108BE00018310BB3114B124C00221A601B68019311
:108BF000019B236823B90F494FF4277001F046F811
:108C0000E07FFF2803D0A37F5BB1FFF7CBFF0023FA
:108C100063772372D4E90031074802B0BDE8104001
:108C20001847FFF7CCFFF2E702B010BD1841004033
:108C3000B8AC002018140300C0AC00202DE9F74F99
:108C40008146CDE900230C4619B97D49AD2001F0DC
:108C50001DF899F804607B4F242303FB06FB07EB08
:108C60000B0A9AF81C10002940F0E380D9F8005054
:108C700075492846FFF730FE8046002840F0DC802A
:108C8000009B47F80B30019BCAF80430237B207807
:108C9000012B00F2BC80FFF785FF94F800A0BAF129
:108CA0001F0F01D9FFF776FF0AF5E07A4FF0A043D6
:108CB000012243F82A2094F801A0BAF1FF0F00F036
:108CC000A9805046FFF76EFFBAF11F0FD34601D9B6
:108CD000FFF760FF0AF5E07A4FF0A043032243F864
:108CE0002A20A378FF2B00F098801F2B9A4603D9E7
:108CF0000093FFF74FFF009B03F5E0734FF0A04296
:108D0000042142F82310242303FB0673A27883F87E
:108D10002020E078D877FF2817D02379002B7FD048
:108D2000FFF740FFE3781F2B03D90093FFF732FFD3
:108D3000009B03F5E0734FF0A042032142F823109B
:108D4000242303FB067322799A772378C5F8083524
:108D5000C5F80CB5C5F810A5A368C5F82435637B24
:108D6000227B003318BF0123022A5CD0032A5DD086
:108D7000012A01D143F00203C5F85435A379C5F89F
:108D8000C03524237343FB5813B14022C5F8042394
:108D90000722C5F800257BB3D9F8003064794FEA83
:108DA000133AA31E012B4FFA8AF506D9631F022B33
:108DB00003D926496B2000F069FF002DACBF05F1F7
:108DC0006043234B4FEA4414B8BF0AF00F0AE4B2E1
:108DD000AABF03F5614303F80A4083F80043D9F8BA
:108DE00000301B0B5AB2012103F01F0301FA03F3F9
:108DF0005209184941F82230242303FB0676002348
:108E0000737701233377404603B0BDE8F08FFFF757
:108E1000D6FE42E74FF0FF3B63E74FF0FF3A72E7C1
:108E2000FFF7CDFE7EE743F00403A5E743F006031A
:108E3000A2E74FF00808E6E74FF01108E3E700BFAC
:108E400018140300B8AC0020D98B0200641403008E
:108E500014ED00E000E100E02DE9F041294D047936
:108E6000242303FB045307461B7F23B9264940F202
:108E7000611000F00BFF24236343E85860B13B68A6
:108E80001B0B5AB20121520903F01F0301FA03F32D
:108E900020321E4941F82230D7F8008098B11C4B8F
:108EA000C8F80833242303FB04535B7F5BB1012321
:108EB000C8F81430D8F80431002BFBD0242303FB6E
:108EC000045300225A77242303FB045393F82060B1
:108ED000FF2E0AD01F2E01D9FFF75CFE06F5E076C3
:108EE0004FF0A043022243F826200026C8F8006570
:108EF0003868FFF719FD242303FB04542677BDE8E7
:108F0000F08100BFB8AC00201814030000E100E0BD
:108F1000520108002DE9F341584F0679242303FB41
:108F2000067380461B7F0D46144623B9544940F210
:108F3000322000F0ABFE2B6833B96B6823B1504987
:108F400040F2332000F0A2FEAB6833B9EB6823B1E6
:108F50004B494FF40D7000F099FE98F804302BB98E
:108F6000EB68FF2B02D86B68FF2B04D9444940F211
:108F7000372000F08BFE24237343FA18517F002919
:108F800079D1FB5823B114F0140F04BF0123537798
:108F900095E80F004FF0240C0CFB067C0CF10C0E36
:108FA0008EE80F009CF81F00FF2804D09CF81E30AC
:108FB000C3B1FFF704FE2A6822B102F06043B3F1A7
:108FC000005F06D1AB6883B103F06043B3F1005F8B
:108FD0000BD0242303FB067600237377102002B006
:108FE000BDE8F081FFF7DEFDE5E7D8F800306968FD
:108FF000C3F84425C3F84815D5E90212C3F834155F
:10900000C3F838250022C3F81821D3F8182101929B
:10901000019A14F0010218BF0122C3F8502514F080
:10902000020218BF0122C3F8402522075CBF0122BB
:109030001A6124227243BA5892B9D3F81821002A2F
:10904000FBD0242303FB0676F07FFF2803D0B47FF8
:109050001CB1FFF7A7FD0020C1E7FFF7B0FDFAE75D
:1090600014F004004FF0400202D0C3F80823F2E7E6
:10907000C3F80423B3E71120B1E700BFB8AC002068
:10908000181403002DE9F743002406460F4600F5A7
:10909000A0754FF48038A146A0002B6800F5A070A1
:1090A00080B26BB1D6F8043308FA04F21A4207D042
:1090B000C5F800902B680193019BD7E900319847D0
:1090C0000134042C05F10405E6D103B0BDE8F083BA
:1090D00001490248FFF7D6BFDCAC00200080004009
:1090E00001490248FFF7CEBFE8AC002000900040E5
:1090F0000023435082B043580193019B02B0704754
:10910000F0B5504C236887B023B94F4940F2452051
:1091100000F0BCFD4D4AD2F824311546A3B14FF4FE
:1091200092711046FFF7E4FFD2F8043163B9A368E7
:10913000C2F808330223A360A368C2F804330123F2
:109140001362536107B0F0BDD5F80431002B49D04C
:109150003F4F3E484FF48271FFF7CAFF0FCF01AE79
:109160000FC63B68336094F82E307BB1237B012B14
:109170000CBFD5F83C25D5F84C250292022B334B79
:109180000CBFD3F83C35D3F84C3503934FF4B07192
:109190002E48FFF7ADFF4FF4AE712C48FFF7A8FF44
:1091A00094F8303013B194F82E303BB1274B0022A5
:1091B000C3F80022A260274AC3F80823234AD2F842
:1091C000C434C2F8C4349A0736D501238DF8003070
:1091D00094F830300BB984F82F30D4E90031684668
:1091E0009847AFE74FF4A4711848FFF781FF237B3E
:1091F00083B9174F0FCF01AE0FC63B68336094F8A9
:109200003030002BDAD1C5F80032A360114BC5F81D
:109210000833D3E74FF40073C5F8003240F202235D
:10922000A36003F1CE73C5F80833A368C5F804330F
:109230000123AB602B6285E713F0040318BF022300
:10924000C4E700BFF4AC0020B314030000300040BA
:1092500000AD002002029C0170B5C0B14AB1168871
:109260000024B44203D305196D789D4208D0A14271
:1092700001D800200BE0055D01352C44A4B2F0E7D5
:10928000A142F6D9A31C1380005D013880B270BDE5
:1092900013B50023ADF8063013460DF1060204465F
:1092A000FFF7DAFF10B1BDF80600204402B010BD90
:1092B00072DF704773DF704738B5012204460D46F0
:1092C000B0F83812D0F83402FFF7E2FF00B10570B1
:1092D00004F13C0204F50D7104F15400BDE838407E
:1092E000FFF7E6BFF8B5077804460D46002F00F0FB
:1092F000048100F24A26A17007220021304600F0C6
:10930000C3FFE38813B1A378012B04D0E3794BB1F9
:10931000A378022B06D1636BA3B1012284F85122FA
:1093200008209847334604F5147113F8012F12B939
:109330008B42FAD117466B1E032B52D8DFE803F09D
:10934000050B0F1284F85132ECE7A3791BB194F8A6
:10935000243003B95FB9E3790BB1002F43D1237AED
:10936000002B42D1637A002B0CBF00250425636BD0
:10937000A570002B3BD0033D012D38D86279002A1F
:1093800035D094F8522292BB84F85422012284F8FA
:1093900053220720984704F13C0518220021284653
:1093A00000F072FFE36A94F82420581E012102287D
:1093B00028BF0B4684F83C1084F8513032B1884203
:1093C00096BFA36A84F8521084F85230A178002323
:1093D00084F8503004291BD8DFE801F0770D2235DE
:1093E00059000025C3E70225C1E70325BFE7002395
:1093F00084F85332CFE7C4F84432C4E9106302233F
:10940000012284F83C30802384F83120A4F84830CD
:10941000A378002B5CD1636B002B6AD1002067E03E
:109420000223002A84F8313014BF0723032384F871
:109430003C302369A4F848300023C4F84432E36880
:1094400026646364E4E763696364A369A4F848304D
:1094500012B1062384F83C306379B3B194F85232E8
:109460009BB994F8543283B1022384F8503004211C
:109470002046FFF721FF0028CAD1052384F83130A8
:1094800004F50D73C4F84432C2E70323F6E7E36939
:109490006364236AA4F8483012B1062384F83C3090
:1094A000637983B194F852326BB994F8543253B162
:1094B000022384F8503004212046FFF7FDFE0028E7
:1094C000A6D10623DAE70423D8E784F831309FE7F2
:1094D0002A46D4F8441204F15400FFF7E9FE38B9E3
:1094E00094F8301094F85400FFF7E4FE002892D06E
:1094F000F8BD94F83100984790E70820F8E710B5D8
:109500000388112B0C460AD0262B1FD0102B05D117
:10951000C37B012B02D18388A1F8483210BD002300
:1095200081F852328288B1F848329A42F6D10B79EA
:10953000002BF3D101212046FFF7D4FE0028EDD007
:10954000A36B002BEAD0BDE810401847037A013B1B
:10955000012BE3D8897805230131B1FBF3F303EB49
:109560008303C91AC9B2E6E770470000034B1A88A3
:1095700082420CBF18460020704700BF44AD002057
:10958000024B9B6903B11847704700BF28AD00200C
:1095900013B50B46497A0F4C024669B9D4E901105C
:1095A0001C7A002C18BF01465868FDF7B3FC08B1BF
:1095B000FFF7E6FF02B010BD002119726369002BAE
:1095C000F8D00121ADF806008DF8041001A89847E5
:1095D000F0E700BF28AD00204B8802889A4213D8DC
:1095E00042889A4210D380888A8840F2F3139842C6
:1095F00094BF031AC31A934206D800F2F3109042A4
:1096000034BF0020012070470020704770B50388E8
:10961000112B014648D002D8102B1ED070BD122B42
:1096200052D0502BFAD12F4BC288DB899A42F5D108
:10963000038A022BF2D186883046FFF797FF054652
:109640000028EBD001F1120000F050F830BB686840
:10965000FDF7A6FC0028E1D009E0C37B012BDDD19A
:109660004FF6FF70FFF782FF054620B90420BDE8E2
:109670007040FFF785BF8E881B4A06800023037267
:109680001368C5F80A300A30536843601031FFF799
:10969000A3FF144B6872DB89002BBFD129463046EB
:1096A000BDE87040FFF774BF8088FFF75FFF044696
:1096B0000028B3D04068FDF773FC08B1FFF760FFE6
:1096C0004FF6FF732380A9E786883046FFF74EFFE9
:1096D00005460028A2D008310A30FFF77DFF6872E6
:1096E000DCE700BF28AD002058AD0020007800F076
:1096F0000100704790DF7047A5DF7047B5DF704706
:109700007FB50023ADF80810ADF80A106A4602A92B
:10971000064603930093ADF80430FFF7EBFF0546D0
:1097200000B3124B124CE41AE408FEF74BFF24047A
:1097300044F00104034632460E492046FEF77DFC04
:10974000BDF80020BDF8023052EA030103D00A49F7
:109750002046FEF772FCBDF804201AB107492046E6
:10976000FEF762FC284604B070BD00BFC81A0300B3
:10977000381B03000F15030059150300981503004B
:1097800013B5034680880C46A0B91A88232A00F036
:10979000A48011D8102A22D0112A51D0A37A4BB11B
:1097A000E1880020FFF7A8FF002840F09C804FF4DC
:1097B0008073638102B010BD3A2A4AD0552A60D026
:1097C000242AEBD11A7A0B694A73002BE6D04DF6A6
:1097D0007A21ADF8040000918DF8042079E00A792F
:1097E0000A73DB7B012B13D0022B14D0E188238971
:1097F0008B4205D20020FFF77FFF70B90123E3728F
:10980000217B637B8B42C9D20020FFF779FFC5E73C
:109810000B88E380EAE74B88FBE7112802D101239C
:10982000A372EDE7FEF7CEFE374A384B38499B1A54
:10983000DB081B04024643F00100FEF7F5FBDFE7FF
:10984000F723CB8017230B8141F6FB3348818B81B3
:10985000A4E75B89CA88934228BF1346172B0A697D
:1098600038BF17230B814AB1C97A39B140F6772145
:109870000091ADF80430694620469047002363818B
:109880008CE7DB88C988A072172B38BF17238B425F
:1098900028BF0B462381FFF731FF60B1FEF792FE30
:1098A000194A1A4B1B499B1ADB081B04024643F05A
:1098B0000100FEF7B9FBE37A002B7FF46FAF236959
:1098C000002B3FF46BAF40F6772200922289ADF86F
:1098D000042069462046984760E7197A237B99421D
:1098E00028BF194691E711283FF464AFFEF76AFEDE
:1098F000054A064B06499B1ADB081B04024643F047
:109900000100FEF791FB55E7C81A0300381B03005E
:10991000EE1503001F160300B0DF704766DF7047C7
:1099200010B5034600214088FFF7F8FF024608B94A
:109930001A7210BD112801D10122F9E75B68BDE858
:109940001040184728B10378DE2B04D14180002055
:1099500070470E20704708207047F0B5054685B067
:109960000C46F1B1E8B10B78DE2B1AD182884B8816
:109970009A4204D10B7A13B10846FFF7D1FF2B8826
:10998000112B32D0512B0ED0012B0AD12B7A012B67
:1099900007D1A9886288914203D123722046FFF73C
:1099A000BFFF05B0F0BDAE886388B342F9D1AF798F
:1099B000022FF6D1AD7B2B1F022BF2D800211022F3
:1099C000684600F061FC052D14BF4FF4C0730023FE
:1099D000694630468DF80070ADF80430FFF79CFF03
:1099E0000028DED063689847DBE76388AA889A423C
:1099F00004BF4FF6FF736380D3E70000014B187874
:109A0000704700BF60AD002007B508496846FEF703
:109A100087FD019B13B903B05DF804FBD3E9002077
:109A200090476846FEF794FDF3E700BF5C1603001D
:109A3000FFF7EABF61DF704730B5134DADF5017D2B
:109A40004FF4FA740DF1020103A8ADF80240FFF7DC
:109A5000F1FF70B9294601A8FEF762FD029B002BB9
:109A6000F0D003A8D3E90021904701A8FEF770FDCC
:109A7000F4E7052804D0054A40F23911FDF750F803
:109A80000DF5017D30BD00BFC41603007016030044
:109A9000024B1B780BB1FFF7CFBF704761AD0020C1
:109AA00076DF70477FDF704786DF70478ADF704759
:109AB0008FDF7047B1DF704733DF704737B50388FA
:109AC0001D2B044600F0AC801DD8132B7CD00AD887
:109AD000102B3DD0112B5DD0604B13B12046AFF35E
:109AE000008003B030BD142B00F08C801B2BF3D111
:109AF000037A012BF0D1FFF7DFFF0028ECD0584AA2
:109B00004FF4CC716DE0502B52D00ED8212B00F0C9
:109B100096803B2BE0D113218088FFF7C1FF0028FE
:109B2000DAD04F4A4FF4D0715BE0522B5CD045D372
:109B3000562BD1D18379002BCED14A4B13211888D3
:109B4000FFF7AEFF0028C7D0454A40F2A71148E012
:109B5000444D818844482980FFF7F4FE20B1404AF3
:109B60004FF49D71FCF7DCFF00231A461946288844
:109B7000FFF7A0FF20B13A4A4FF4A171FCF7D0FFE4
:109B80003A4800F0D1FB3A4B002BA5D02046AFF36A
:109B90000080A1E7334B37484FF6FF721A8000F080
:109BA000C3FB354B002B97D02046AFF3008093E7E3
:109BB000324B002B90D0AFF300808DE7304B002B61
:109BC0008AD0AFF3008087E7264800231A46852114
:109BD0000088FFF767FF00283FF47EAF204A40F27D
:109BE0008111FCF79DFF77E71E4800231A461946AE
:109BF0000088FFF75FFF00283FF46EAF184A40F27D
:109C00008711EEE7174800231A4619460088FFF728
:109C10004BFF00283FF460AF114A40F29111E0E79A
:109C2000184B0BB1AFF3008017490020FFF73EFF40
:109C300000283FF451AF0A4A40F2C711D1E7002390
:109C400001A98088ADF80430FFF732FF00283FF407
:109C500043AF034A40F2D111C3E700BF0000000048
:109C600001170300D8B10020D0AF00203017030047
:109C7000000000004017030000000000000000008A
:109C80000000000000000000C498002038B50D4618
:109C90000446044800F048FB2A4621460248FCF7E7
:109CA0003FFF38BDDC160300EFBEADDE0C4B1B786A
:109CB000062B10D10B4B1B681A070CD10A4B1868E6
:109CC00000F0F003302B08D000F0E000A0F14003DA
:109CD000584258417047002070470120704700BF2C
:109CE000E00F00F0E40F00F0E80F00F0094B1B78E4
:109CF000062B0CD1084B1B681A0708D1074B1868B4
:109D000000F0F000A0F130035842584170470020A5
:109D1000704700BFE00F00F0E40F00F0E80F00F024
:109D200008B5FFF7C3FF28B17D4B7E4A1B68C3F31C
:109D300004231360FFF7DAFF10B17B4B7B4A1A60F4
:109D4000FFF7B4FF28B17A4B7A4A1B68C3F342335A
:109D50001360FFF7CBFF20B1774AD36823F08073FD
:109D6000D360FFF7A3FF40B14FF080430022C3F858
:109D70000C21C3F81021C3F83825FFF7B7FF10B145
:109D80006E4B03221A60FFF7B1FF40B16C4B052206
:109D90001A6001229A6700229A603F225A60694B3A
:109DA0001B78062B50D1684B1B6819074CD1674BA9
:109DB0001B6803F0F003502B46D14FF08052644BE8
:109DC000D2F80414C3F82015D2F80814C3F82415E7
:109DD000D2F80C14C3F82815D2F81014C3F82C15B7
:109DE000D2F81414C3F83015D2F81814C3F8341587
:109DF000D2F81C14C3F84015D2F82014C3F8441547
:109E0000D2F82414C3F84815D2F82814C3F84C1516
:109E1000D2F82C14C3F85015D2F83014C3F85415E6
:109E2000D2F83414C3F86015D2F83814C3F86415A6
:109E3000D2F83C14C3F86815D2F84014C3F86C1576
:109E4000D2F84424C3F87025FFF730FF28B1414B06
:109E5000414A1B6803F04F031360FFF727FF48B127
:109E60004FF08043D3F80024D20744BF6FF00102C3
:109E7000C3F80024394B1B68062B08D1384B1B68EC
:109E8000062B01BF374A136843F480631360364AD8
:109E9000D2F8883043F47003C2F88830BFF34F8F94
:109EA000BFF36F8F4FF01023D3F80022002A03DB9B
:109EB000D3F80432002B2FDA2C4B0122C3F80425EF
:109EC000D3F80024002AFBD04FF010221521C2F84D
:109ED0000012D3F80024002AFBD04FF010231522E3
:109EE000C3F80422214B1A46D3F800140029FBD0F2
:109EF0000021C3F80415D2F80034002BFBD0BFF3C7
:109F00004F8F19491A4BCA6802F4E0621343CB60C1
:109F1000BFF34F8F00BFFDE7164B174A1A6008BD0D
:109F2000240300104035014074C007400DF0ADBA65
:109F3000440200103C050040F0ED00E0A0050040A8
:109F400010560040E00F00F0E40F00F0E80F00F0C2
:109F500000C0004058020010E40E00403001001024
:109F6000340100103C17004000ED00E000E001402B
:109F70000400FA05CC9800200090D0032DE9FF41A1
:109F800006460F46154672B6FEF7B6F8FDF7CCFE4C
:109F90000028FBD1234B244CE41AE40841F20103CE
:109FA00024049E4244F0010428D007D8012E14D086
:109FB0003A461E492046FEF737F812E044F2010304
:109FC0009E421DD044F202039E42F1D12B886A6862
:109FD00017492046FEF731F803E016492046FEF700
:109FE0001FF8154B1B68DB0700D500BE2A46394613
:109FF000304604B0BDE8F041FCF766BD0F49EDE71F
:10A00000D5F808804046FEF7DDFA2B6802970193E9
:10A010006B6800930A49034642462046FEF731F832
:10A020000849DBE7C81A0300201B0300E5170300FB
:10A030009117030052170300F0ED00E06F170300C3
:10A04000AB170300D11703000649074A074B9B1AB9
:10A0500003DD043BC858D050FBDCFFF761FEFCF782
:10A06000EFF80000C41B0300A898002090A2002075
:10A07000FEE7FEE7FEE7FEE7FEE7FEE7FEE7FEE7B8
:10A08000FEE7FEE700B5094B85B01868694600F0A9
:10A0900005FB431C06D0DDE90030DDE9021218445F
:10A0A0000844104405B05DF804FB00BFD0980020C0
:10A0B00008B50021044602F099F9044B1868C36BF7
:10A0C00003B19847204605F065FA00BF0419030064
:10A0D00070B50D4E0D4D761BB61006D00024013420
:10A0E00055F8043B9847A642F9D1094E094D761B15
:10A0F00006F088F8B61006D00024013455F8043B69
:10A100009847A642F9D170BD80A2002080A200200D
:10A110008CA2002080A20020931E222B15D80A2A90
:10A1200010B50B4605D00C46194600F0BBFA204688
:10A1300010BD0028F7DA2D2403F8014B40420C46ED
:10A14000194600F0AFFA204610BD00200870704795
:10A15000FFF7E2BF844641EA000313F003036DD129
:10A16000403A41D351F8043B40F8043B51F8043BDA
:10A1700040F8043B51F8043B40F8043B51F8043BE1
:10A1800040F8043B51F8043B40F8043B51F8043BD1
:10A1900040F8043B51F8043B40F8043B51F8043BC1
:10A1A00040F8043B51F8043B40F8043B51F8043BB1
:10A1B00040F8043B51F8043B40F8043B51F8043BA1
:10A1C00040F8043B51F8043B40F8043B51F8043B91
:10A1D00040F8043B51F8043B40F8043B51F8043B81
:10A1E00040F8043B403ABDD2303211D351F8043B21
:10A1F00040F8043B51F8043B40F8043B51F8043B61
:10A2000040F8043B51F8043B40F8043B103AEDD2CF
:10A210000C3205D351F8043B40F8043B043AF9D220
:10A22000043208D0D2071CBF11F8013B00F8013BF3
:10A2300001D30B8803806046704700BF082A13D300
:10A240008B078DD010F003038AD0C3F10403D21A18
:10A25000DB071CBF11F8013B00F8013B80D331F84C
:10A26000023B20F8023B7BE7043AD9D3013A11F8CC
:10A27000013B00F8013BF9D20B7803704B78437037
:10A280008B78837060467047F0B4860746D0541EC2
:10A29000002A3CD0CAB2034602E014F1FF3436D3A0
:10A2A00003F8012B9D07F8D1032C29D9CDB245EA3B
:10A2B00005250F2C45EA054533D9A4F110063609CA
:10A2C00003F1200707EB061703F1100242E90455DA
:10A2D00042E902551032BA42F8D1721C14F00C0F48
:10A2E00003EB021204F00F0613D0331F23F0030315
:10A2F0000433134442F8045B9342FBD106F0030499
:10A300002CB1C9B21C4403F8011B9C42FBD1F0BC28
:10A31000704734461346002CF3D1F8E71446034641
:10A32000C2E71A462646E0E70FB400B5074983B0F6
:10A3300004AB086853F8042B8168019300F0F8F926
:10A3400003B05DF804EB04B0704700BFD098002064
:10A3500000290CBF022200224FF4806300F000B8F5
:10A360002DE9F043614C256883B004460F469046C2
:10A370001E4615B1AB6B002B7BD0B8F1020F06D097
:10A38000B8F1010F00F2AF80002EC0F2AC80636E16
:10A39000DA0755D52146284603F0EAF8216B41B18A
:10A3A00004F14003994202D0284603F0DDF900236E
:10A3B0002363B4F90C3000221806A261626066D4EF
:10A3C00023F44A6323F00303B8F1020FA38165D09D
:10A3D00001AB6A462146284603F0F2FAA3891843E6
:10A3E000A081002E33D0002F32D0AB6B002B3CD09D
:10A3F000009AB4F90C302760B2421CBF43F40063EA
:10A40000A381B8F1010F04BF43F00103A3819BB204
:10A4100013F00802C4E904762FD0DA0751D5656E2F
:10A420007642002215F00105A661A2602AD19B05A3
:10A4300029D4A06D03F0C2FA284603B0BDE8F0832A
:10A44000A3899B05A6D4A06D03F0B6FAA2E7009EEF
:10A45000304603F02DFB0746002834D0A38943F093
:10A460008003A381AB6B002BC2D1284603F0DCF83C
:10A47000BEE7284603F0D8F87FE7A260656E15F0C6
:10A480000105D4D00025284603B0BDE8F08321693A
:10A49000284603F069F9B4F90C3091E70025616EA4
:10A4A000002004F1430243F00203A060C9074FF00B
:10A4B0000100A3812260C4E90420E4D49B05E2D416
:10A4C000B7E7A660DAE7DDF80090B14506D0484668
:10A4D00003F0EEFA074608B14E46BFE7B4F90C3078
:10A4E0004FF0FF35DBE74FF0FF35CCE7D098002089
:10A4F00080EA0102844612F0030F4FD111F0030FDE
:10A5000032D14DF8044D11F0040F51F8043B0BD03B
:10A51000A3F101329A4312F0803F04BF4CF8043B90
:10A5200051F8043B16D100BF51F8044BA3F101329E
:10A530009A4312F0803FA4F101320BD14CF8043B56
:10A54000A24312F0803F04BF51F8043B4CF8044B87
:10A55000EAD023460CF8013B13F0FF0F4FEA3323F8
:10A56000F8D15DF8044B704711F0010F06D011F8D7
:10A57000012B0CF8012B002A08BF704711F0020FC5
:10A58000BFD031F8022B12F0FF0F16BF2CF8022BB0
:10A590008CF8002012F47F4FB3D1704711F8012BD3
:10A5A0000CF8012B002AF9D1704700BF0000000011
:10A5B000000000000000000000000000000000009B
:10A5C00090F800F06DE9024520F007016FF0000CF3
:10A5D00010F0070491F820F040F049804FF000049B
:10A5E0006FF00700D1E9002391F840F000F1080076
:10A5F00082FA4CF2A4FA8CF283FA4CF3A2FA8CF3AE
:10A600004BBBD1E9022382FA4CF200F10800A4FA14
:10A610008CF283FA4CF3A2FA8CF3E3B9D1E9042368
:10A6200082FA4CF200F10800A4FA8CF283FA4CF39F
:10A63000A2FA8CF37BB9D1E9062301F1200182FA59
:10A640004CF200F10800A4FA8CF283FA4CF3A2FA5F
:10A650008CF3002BC6D0002A04BF04301A4612BA6D
:10A66000B2FA82F2FDE8024500EBD2007047D1E970
:10A67000002304F00305C4F100004FEAC50514F0FF
:10A68000040F91F840F00CFA05F562EA05021CBFD0
:10A6900063EA050362464FF00004A9E7084604F0A8
:10A6A00071BF00BFF0B4DFF884C0164604460D4603
:10A6B000BCE80F008AB06F460FC7BCE80F000FC799
:10A6C0009CE80300B31E47F8040B222B397028D8EE
:10A6D0006B1E9C46002701E00F4604460AA9B4FB06
:10A6E000F6F006FB10420A44A64212F8282C0CF899
:10A6F000012F07F10101EFD900226A54294467B103
:10A7000011F8012D5C785A70981C0133DA432A4401
:10A71000401B3A4490420C70F2DB28460AB0F0BC71
:10A720007047002028700AB0F0BC70470819030079
:10A730002DE9F04FD5B01C468946174605460590D1
:10A7400003F032F9036815931846FFF739FF0894B0
:10A7500013901DB1AB6B002B00F01184D9F864107D
:10A76000B9F90C20CD0793B202D4980540F1548773
:10A7700099040AD4D9F8641042F4005321F400512A
:10A78000A9F80C30C9F864109BB21A0740F1BF80D9
:10A79000D9F81020002A00F0BA8003F01A020A2A21
:10A7A00000F0C38000239FED9C7B1293CDE92933F9
:10A7B00014931693CDE91833179304932BAB289376
:10A7C0009B463B78CDF81C908DED107B002B00F064
:10A7D0006782252B01F0AB803D4603E0252B00F07E
:10A7E000BB8025466B786C1C002BF7D1E61B00F074
:10A7F0005782DDE9293201333244072BCBF8007050
:10A80000CBF80460CDE9293200F3AA800BF1080BE4
:10A81000049A6B7832440492002B00F041820023AA
:10A8200094F8018006938DF88330029304F1010AB5
:10A830004FF0FF392B2620210AF1010AA8F120034D
:10A840005A2B00F2A183DFE813F082029F039F03DB
:10A850007B029F039F039F0301039F039F03F60255
:10A86000DF009F03C4002B039F0324039600960080
:10A8700096009600960096009600960096009F031C
:10A880009F039F039F039F039F039F0345039F0312
:10A89000A80162014503450345039F039F039F03EE
:10A8A0009F035B019F039F034E019F039F039F0331
:10A8B00023019F0315019F039F03CB009F039F0369
:10A8C0009F039F039F039F039F039F0345039F03D2
:10A8D000A801EF004503450345037002EF005B004C
:10A8E0009F03EB029F03D102BD028C025B009F031A
:10A8F00023015F0087039F039F03A5009F035F0061
:10A90000029B43F0200302939AF8008094E74946A3
:10A91000059801F0F9FC002841F08183B9F80C306A
:10A9200003F01A020A2A7FF43DAFB9F90E20002A7B
:10A93000FFF638AFD9F86420D60702D49D0541F15F
:10A94000908123463A464946059801F09BFC0490C5
:10A95000049855B0BDE8F08FE61B3FF460AF48E7C0
:10A9600028AA0799059803F0CDFF002841F0278415
:10A970000DF1AC0B4CE7A8F1300300221AF8018B63
:10A9800002EB820203EB4202A8F13003092BF5D956
:10A99000069253E7224B1493029B9F0625D5089CF1
:10A9A000073424F00703F3E802450893029AD1071D
:10A9B0000AD554EA050307D0302342F002028DF88D
:10A9C000858002928DF88430029B23F480660223F6
:10A9D000D9E19AF80080029B43F0040302932BE72D
:10A9E000104B1493029B9F06D9D4089B53F8044B39
:10A9F0000893029BDE0600F14F86029B5D0640F144
:10AA00004786A4B20025D1E78DF883609AF80080CC
:10AA100012E700BFAFF3008000000000000000005C
:10AA20005419030040190300029EB00640F10B8741
:10AA3000089C073424F007031946F1E80223089123
:10AA400014461D46002A73F1000371DBB9F1FF3F84
:10AA500000F0C58226F08003029354EA050340F01B
:10AA6000BD82B9F1000F41F00E814FF000094E4652
:10AA700054AFBFE2029B9D0643F0100600F18F82A7
:10AA8000089B1A1D089B08921C68002501237AE187
:10AA9000089C54F8047B00258DF88350002F00F0AB
:10AAA0003787B9F1FF3F00F0BC874A462946384650
:10AAB00003F0BEFA0990002801F04A82099BA946DA
:10AAC000DE1BCDE90E9926EAE6739DF883200894F3
:10AAD0000393CDF82490CDF83090002A6FD0039BDB
:10AAE000013303936BE0029B9C0643F0100600F1D8
:10AAF0005F82089B1A1D089B08921C6800255EE275
:10AB0000029B9AF8008043F00803029394E6029BAC
:10AB10009C0643F010068BD4089B1A1D089B0892D4
:10AB20001C68E51722462B46002A73F100038DDAD4
:10AB300064424FF02D0365EB4505B9F1FF3F8DF8F9
:10AB400083304FF0010340F02581012B00F0478254
:10AB5000022B00F0798454A900E03946E20842EA69
:10AB60004572E80804F0070305461446303354EAFA
:10AB7000050201F8013C01F1FF37EED1F20740F187
:10AB80008882302B00F085823023023907F8013C9F
:10AB900054AB02960F465E1A2CE2089C002354F830
:10ABA000042B8DF8EC2001261A4603960894CDE973
:10ABB0000E228DF88330099291460C923BAF029B96
:10ABC00013F002030A9302D0039B02330393029B08
:10ABD0002A9C13F084030B9304D1069B03995D1AFE
:10ABE000002D66DC72B1299A013201340DF1830027
:10ABF0000121072ACDE92924CBE9000100F3B18323
:10AC00000BF1080B0A9B6BB1299B0133023421A97C
:10AC10000222072BCDE92934CBE9001200F3AD83E2
:10AC20000BF1080B0B9B802B00F09582A9EB06051E
:10AC3000002D00F3D382029BDB0500F12E82299BBD
:10AC4000CBF8007001333444072B2A94CBF804600E
:10AC5000299300F325830BF1080B029B5D0705D5B3
:10AC6000069B039A9D1A002D00F3AE83049B069A5F
:10AC700003998A42ACBF9B185B180493002C40F0E8
:10AC8000E78200232993099B1BB10999059802F0DB
:10AC90006BFD0DF1AC0B57463B78002B7FF499AD63
:10ACA0002A9BDDF81C90002B40F0F58600232993A9
:10ACB00075E3102D299A29DD594620461E9610234A
:10ACC000059C079EBB4604E0103D102D01F10801D4
:10ACD00018DD0132BC4F1030072ACDE92920C1E927
:10ACE0000073F1DD28AA3146204603F00BFE002850
:10ACF00040F04F83103D102DDDE929202BA94FF0A6
:10AD00001003E6DC1E9E5F4604468B460132AE4BC6
:10AD10002C44072ACDE92924CBE9003500F32A8603
:10AD20000BF1080B9DF883205CE79AF80080029BEA
:10AD3000B8F1680F00F0E38543F0400302937BE530
:10AD4000029B9AF8008043F00103029374E59DF89A
:10AD500083309AF80080002B7FF46EAD8DF883105D
:10AD60006AE5089C47F6300254F8043BADF88420AD
:10AD7000029A08941C46954B149342F00206002553
:10AD800002234FF078080022B9F1FF3F8DF88320AD
:10AD90003FF4DBAE26F08002029254EA050240F056
:10ADA000DD82B9F1000F40F04883002B7FF45DAEE7
:10ADB00016F0010600F06A8430238DF84F310DF251
:10ADC0004F1717E1029EB00600F1F280029B089A2D
:10ADD000D90652F8044B01F14382029E33465B06CA
:10ADE00040F135860892A4B20025E8E00299089A5D
:10ADF000890602F1040300F15284029AD70600F199
:10AE0000E185029A560600F16486029A950540F1A2
:10AE1000D985089A08931268049B137057463BE73C
:10AE20009AF80080029BB8F16C0F00F05F8543F048
:10AE30001003029300E5089B9AF8008053F8042B56
:10AE40000692002AC0F213850893F5E4059D284672
:10AE500002F0AAFD436817931846FFF7B1FB19905B
:10AE60000446284602F0A0FD836818932021002C98
:10AE70003FF44AAD189B9AF80080002B3FF4DCACFD
:10AE80001B78002B3FF4D8AC029B43F48063029301
:10AE9000D2E4029B9AF8008043F080030293CBE453
:10AEA000524612F8018BB8F12A0F01F0BE81A8F1C9
:10AEB0003003092B92464FF000093FF6BFAC1AF859
:10AEC000018B09EB890903EB4909A8F13003092B30
:10AED000F5D9B3E4089C073424F00703B3EC027BF4
:10AEE00055EC174B089325F000431B938DED1A7A10
:10AEF000DDE91A014FF0FF32354B8DED107B04F088
:10AF0000A1FF002840F0DC834FF0FF32304BDDE939
:10AF10001A0104F079FF002840F0D28300220023B8
:10AF20002046294604F066FF002840F080879DF8FF
:10AF30008320284F284B02980021032620F0800010
:10AF4000039609910290B8F1470FC8BF1F46894682
:10AF50000C91CDE90E11C0E5029EB4061FD4029BF0
:10AF6000089AD80652F8044B01F17481029E7106CA
:10AF700040F177850892A4B20025012303E70598E4
:10AF800002F052FBFFF7EABBB8F1000F3FF488AEC6
:10AF9000002301261A4603968DF8EC8007E6089CEC
:10AFA000073424F00703F3E8024508930123EAE697
:10AFB000089C073424F00703F3E80245089326F4BD
:10AFC00080660023DFE600BF7419030054190300F4
:10AFD000FFFFEF7F3019030034190300029E002D9C
:10AFE00008BF0A2C13D2303402968DF84F41012647
:10AFF0000DF24F1700234E4509930C93CDE90E3304
:10B000003346B8BF4B469DF88320039365E506F4AD
:10B0100080630022CDE902A8CDF824B054AFCB461E
:10B020009246B146DDF860801E4607E004F068FFF6
:10B03000002D08BF0A2C20D304460D460A22002307
:10B040002046294604F05CFF02F1300C07F801CCE1
:10B05000204629460A2200230AF1010A013F002E58
:10B06000E4D098F800C0E245E0D1BAF1FF0FDDD09E
:10B070009D4208BF944280F01E87CDF848A04E46FE
:10B08000CDF86080D946DDF808A0DDF80C80DDF849
:10B0900024B0029654ABDE1BACE7B8F1650F40F369
:10B0A0000A8100220023DDE9100104F099FE002846
:10B0B00000F0DE81299BC24ACBF800200133013425
:10B0C0000122072BCDE92934CBF8042000F3638457
:10B0D0000BF1080B229B129A2A9C934280F2A582C4
:10B0E000299B159ACBF80020139ACBF80420013342
:10B0F0001444072BCDE9293400F3EC830BF1080B42
:10B10000129B5D1E002D7FF7A8AD102D299AAD4B27
:10B1100040F34E841026059FDDF81C80994605E01B
:10B120000BF1080B103D102D40F341840132103417
:10B13000072ACDE92924CBE90096F1DD28AA41466A
:10B14000384603F0DFFB002840F02384DDE92924A2
:10B150000DF1AC0BE6E7069B039A9D1A002D7FF7D5
:10B1600065AD102D299A974B28DD0A965946204641
:10B17000BB46059C079E1F4604E0103D102D01F1C3
:10B18000080116DD013210301023072ACDE92920ED
:10B190000F604B60F1DD28AA3146204603F0B2FB78
:10B1A000002840F0F680103D102DDDE929202BA964
:10B1B000E8DC0A9E3B4604465F468B4601322C443F
:10B1C000072ACDE92924CBE9003500F35583A9EB03
:10B1D0000605002D0BF1080B7FF72DAD102D299AD8
:10B1E000784B29DD0A9659462046BB464FF0100998
:10B1F000059C079E1F4604E0103D102D01F108013B
:10B2000015DD01321030072ACDE92920C1E9007986
:10B21000F2DD28AA3146204603F074FB002840F0F6
:10B22000B880103D102DDDE929202BA9E9DC0A9E0C
:10B230003B4604465F468B4601322C44072ACDE943
:10B240002924CBE9003500F3DA810BF1080BF2E495
:10B2500028AA0799059803F055FB00283FF411AD83
:10B26000DDF81C9096E0299A1599CBF800101399F7
:10B27000CBF8041001320C44072A2A94299200F3D7
:10B28000E1840BF1080B002BC0F2A286129B013265
:10B290001C44072ACDE92924CBE900737FF7DBACF6
:10B2A00028AA0799059803F02DFB0028D8D12A9CDD
:10B2B0000DF1AC0BD1E4129A299B012A04F101048F
:10B2C00003F101050BF1080640F358810123072D16
:10B2D000CBF80070CDE92954CBF8043000F32A8371
:10B2E000139B159A691C1C4407290B91CDE929145D
:10B2F000C6E9002300F32A8308360B9A129D02F157
:10B30000010900230022DDE91001CDF8289006F1A3
:10B31000080B05F1FF3804F063FD002840F041817F
:10B320000A9BC6F8048001374444072B37602A94EF
:10B33000299300F3BF820B9A06F1100302325E4696
:10B340000A929B46169A726014440A9A2A9424AB75
:10B35000072A299233607FF780ACA1E7029EFFF7AE
:10B36000F4BB28AA0799059803F0CCFA00287FF4CB
:10B3700077AF2A9C0DF1AC0B44E428AA07990598F5
:10B3800003F0C0FA00287FF46BAF2A9C0DF1AC0BE0
:10B3900048E4B146099911B1059802F0E5F9D9F8E8
:10B3A0006420B9F80C30D40702D4980540F1DB8250
:10B3B000590600F14086049855B0BDE8F08F00BFF3
:10B3C0007019030084190300102D299B21DD10261C
:10B3D000059FDDF81C8004E0103D102D0BF1080BDB
:10B3E00017DD0133B34A1034072BCDE92934CBE9FB
:10B3F0000026F1DD28AA4146384603F083FA0028EA
:10B4000040F0C782103D102DDDE929340DF1AC0B61
:10B41000E7DC0133A74A2C44072BCDE92934CBE9DB
:10B4200000257FF723AC28AA0799059803F06AFA4C
:10B4300000287FF415AF2A9C18E4012B00F0238428
:10B44000022B029E7FF487AB149854AF230904F0BB
:10B450000F0143EA05732A091C461546435C07F8A9
:10B46000013D54EA0503F1D154AB0296DE1BC1E560
:10B47000229B002B40F3DF800E9B129A9342A8BFC1
:10B480001346002B1D460DDD299BCBF800700133C0
:10B490002C44072B2A94CBF80450299300F3FE8404
:10B4A0000BF1080B0E9B002DA8BF5B1B002B1D464C
:10B4B00000F390820E9B3B449946029B580500F195
:10B4C0001384229B129A934203DB029AD10740F124
:10B4D000F782299A1599CBF800101399CBF804102C
:10B4E00001320C44072A2A94299200F323850BF198
:10B4F000080B129ABD18A5EB0905D31A9D42A8BFE7
:10B500001D46002D0DDD299ACBF8009001322C4408
:10B51000072A2A94CBF80450299200F346850BF1B0
:10B52000080B002DACBF5D1B1D46002D7FF795ABB2
:10B53000102D299A604B40F33B821026059FDDF8C1
:10B540001C80994605E00BF1080B103D102D40F3CF
:10B550002E8201321034072ACDE92924CBE9009646
:10B56000F1DD28AA4146384603F0CCF9002840F026
:10B570001082DDE929240DF1AC0BE6E7029AD2072F
:10B580003FF5A4AE0122072DCBF80070CDE9295478
:10B59000CBF8042000F38E8102330A930BF1100BD9
:10B5A000D0E6B8F1000F7FF7CDAEB8F1100F424BE7
:10B5B00040F335861A464D4623461027DDF81CB069
:10B5C000DDF81490144607E00836A8F11008B8F129
:10B5D000100F40F35E8101351033072DCDE929535B
:10B5E000C6E90047F0DD28AA5946484603F08AF923
:10B5F000002840F01D82DDE929532BAEE5E728AA9B
:10B600000799059803F07EF900287FF429AE2A9C5B
:10B610000DF1AC0BFFF70FBBD9F8580002F0CCF9D5
:10B62000B9F90C2093B2FFF7A3B8029BDD073FF5F1
:10B6300057ADFFF712BB299A2049CBF80010013211
:10B6400001340121072ACDE92924CBF8041000F3A5
:10B6500009840BF1080B002B7FF405AE029B129AB4
:10B6600003F0010313433FF4F8AA299A159BCBF882
:10B670000030139BCBF8043001321C44072A2A9473
:10B68000299200F3DF820BF1080BFFE554AFB1E420
:10B69000029B980500F12D820025FFF787B90499D8
:10B6A00012680893CD1708462946C2E9000157469B
:10B6B000FFF7F2BA7419030084190300701903002C
:10B6C000DDE9100102460B4604F0BCFB002840F007
:10B6D0003A85B8F1610F00F0D084B8F1410F00F065
:10B6E0000C8228F02003B9F1FF3F039300F000859E
:10B6F000472B04D1B9F1000F08BF4FF00109DDE974
:10B7000010450299002D41F48072C0F29583002308
:10B71000CDE90931CDE91C451E930292039B462BCE
:10B7200000F0DF83452B00F0D28426AA23ABCDE9BD
:10B730000032022122AB4A469DED1C0B059800F019
:10B7400047FF039B472B074640F08D850A9BDB078D
:10B7500000F13B84269EF31B1293229B0E93039BC6
:10B76000472B00F09382039B462B00F0FD83039947
:10B770000E9B412903F1FF325FFA88F303BF0F33B9
:10B78000DBB201210021002A8DF89030B8BF0E9B5A
:10B790002292B6BFC3F101022B232D23092A8DF873
:10B7A000913040F3C1840DF19F042046BE4D01E06D
:10B7B00008461A4685FB0231D317C3EBA10303EBFE
:10B7C0008301A2EB41013031632A00F8011C00F132
:10B7D000FF31EDDC3033821EDBB2944201F8013CD4
:10B7E00040F244850DF1920201E011F8013B02F8AC
:10B7F000013BA142F9D10DF1A1030DF192021B1AF7
:10B80000134424AA9B1A1693129B169A012B03EB3E
:10B81000020640F3EE84139B1E440A9B002223F48D
:10B82000806343F48073CDE90E22029326EAE67327
:10B830000C9203931E9B002B40F04F8299469DF87B
:10B840008320FFF74AB9089B1A1D029BD90600F115
:10B850000485029E33465B0640F1EC80089B08920B
:10B86000B3F90040E51722462B46FFF7EBB85242EA
:10B8700006920893FFF7AFB828AA0799059803F036
:10B8800041F800287FF4ECAC2A9C0DF1AC0BFFF7DB
:10B89000CDB922461C4613462A4601320A9206F1C9
:10B8A0000802C6E900380A9B29934444072B2A94CE
:10B8B00040F3008128AA0799059803F023F800288F
:10B8C0007FF4CEACDDE9293401330A930DF1B40BDA
:10B8D0002BAE37E528AA0799059803F013F800283E
:10B8E0007FF4BEAC2A9C0DF1AC0B09E443F02003BD
:10B8F0009AF8018002930AF1010AFEF79DBF43F412
:10B9000000739AF8018002930AF1010AFEF794BFCE
:10B910004E46062E28BF0626B9460C97CDE90E776F
:10B9200009973A4603960894604FFFF7D6B83C460D
:10B93000FEF775BF28AA0799059802F0E3FF0028D3
:10B940007FF48EACDDE929542BAEC9E428AA07990F
:10B95000059802F0D7FF00287FF482ACDDE9293496
:10B960002BAE0B93C9E4D9F8580002F027F8B9F8C8
:10B970000C301DE528AA0799059802F0C3FF00289E
:10B980007FF46EAC9DF883202A9C0DF1AC0BFFF781
:10B9900029B9C146FEE428AA0799059802F0B2FF2A
:10B9A00000287FF45DAC0DF1AC0BFFF793BB4B4669
:10B9B00001322C44072ACDE92924CBE900357FF751
:10B9C0004AA96DE4089A12680893049B13605746CD
:10B9D000FFF762B9102D299A354B50DD1946102614
:10B9E0002346DDF81480DDF81C900C4604E00BF1D2
:10B9F000080B103D102D3FDD01321033072ACDE931
:10BA00002923CBE90046F2DD28AA4946404602F048
:10BA100079FF00287FF4BEACDDE929230DF1AC0BE2
:10BA2000E7E73846FEF7CCFDA9460646FFF749B8DA
:10BA3000D946AFE4029E089B16F4007F51D093F9DB
:10BA400000400892E51722462B46FEF7FBBF029EF8
:10BA5000B70547BF0892E4B2029E08920025FFF79F
:10BA6000AEBA029E089233469B054CBFE4B2029EDA
:10BA700000250123FFF787B921461C460B460132FA
:10BA80002C44072ACDE92924CBE9003500F3EF80C7
:10BA90000BF1080B0EE5059828AA494602F032FF83
:10BAA00000283FF403A97AE4676666666819030014
:10BAB0008419030001330A9302F1080B164641E48E
:10BAC000129ABD18A5EB0905D31A9D42A8BF1D46C1
:10BAD00027E5089A08931268049B13805746FFF7DE
