:020000022000DC
:102000000000012045A40300F814010001000000B5
:10201000DFF804D018F016BA000001204FF02000BD
:1020200080F311884FF0020080F31488BFF36F8FA4
:10203000684680F309884EF00D0E7047EFF3098073
:10204000A0F1300181F309884FF00101EFF305821F
:10205000EFF3118320E9FE4F044618F0EBFA204617
:10206000B0E8FE4F80F3098883F31188704700B50C
:1020700081B0EFF30580A0F10F0018F0DFFA01B096
:1020800000BDEFF3098CACF1200080F309884FF01C
:102090008073034A03492CE90F002CE90F007047B5
:1020A00089A60300A9200200074B00DFEFF3098C8B
:1020B0000CF1200C8CF3098870471CF065BAEFF323
:1020C000098C9CE80F001847AD200200EFF309804F
:1020D000A0F1080181F3098820E91040044618F0B6
:1020E0006FFB2146B1E8104081F3098800287FF496
:1020F000A5AF7047D0F800D0D0F804F008B50DF0C7
:1021000037FE01F05DFD18B910F052FB10F012FB24
:10211000BDE8084002F0FCB908B50A490A4802F0D7
:1021200029F90CF0E9FF0949094802F023F90949A6
:10213000094802F01FF909490948BDE8084002F0C2
:1021400019B900BF90FD0300D893002097FD03004C
:10215000A47400209BFD0300983A0020A2FD030018
:10216000B83B002038B500F065F900233D4A052151
:1021700018461BF0C5F918B13B4AE8211BF0A2FA3A
:1021800000F034FE01F0DAF901F082FD10B100F048
:10219000C3FB01E000F01EFC18F064FD70B918F0FC
:1021A00087FDBFF34F8F3149314BCA6802F4E062BB
:1021B0001343CB60BFF34F8F00BFFDE705F0BEF8C0
:1021C00005F0C0F808F07AFD08F0B0FD00232949B9
:1021D0001A465A54C818B833B3F5667F4270254D75
:1021E000F7D1FFF78BFF10F015FB08B110F09AFA4A
:1021F00010F00AFB88B902F085F960B11E4802F0C0
:1022000069F8FFF789FF02F093F801F0D9FC20B1DB
:1022100002F012F901E018F00DFF08F0F3FE08F0EB
:102220000FFF05F025F805F041F805F0E9FB05F092
:102230001FFC09F003FF09F0F9FE01F035FC08B9B5
:102240000CF062FF0D4B01221A7000242B195A78F2
:102250001AB1D3F8B0001BF0B1FCB834B4F5667F06
:10226000F4D138BD48470020A6FD030000ED00E092
:102270000400FA05C0470020B1FD0300584B0020C0
:102280004FF0A043D3F8042520EA02011040C3F820
:102290000815C3F80C05704740DF70473EDF7047F4
:1022A00043DF704749DF704770474FF0A0434FF05E
:1022B0000042C3F80C2570474FF0A0434FF0004296
:1022C000C3F8082570474FF00040FFF7D9BF4FF023
:1022D000A0434FF48002C3F80C2570474FF0A04391
:1022E0004FF48002C3F8082570474FF48000FFF7D1
:1022F000C7BF4FF0A0434FF08042C3F80C25704792
:102300004FF0A0434FF08042C3F8082570474FF0CC
:102310008040FFF7B5BF704708B50CF0FDFE18F020
:1023200069FB00F0D5FDBFF34F8F0549054BCA6827
:1023300002F4E0621343CB60BFF34F8F00BFFDE7B1
:1023400000ED00E00400FA051B2810B5044607D88C
:10235000134BC340DB0701D5012010BD162807D061
:10236000A4F11E03012B03D9022C06D0002010BDBE
:1023700001F08EFC0028F7D1EEE701F073FB002896
:10238000EAD001F001FC0028E6D001F0A9FB00280A
:10239000E2D101F0B3FB003018BF012010BD00BF37
:1023A00000F7800808B50EF0C5FF08BD0139090B1C
:1023B000013120F47F6089B220F00F000EF09CBA4A
:1023C00092080EF0D1BA13B500230193044628B940
:1023D00018F002FC01AA0146204610E0012806D1AF
:1023E00018F0FAFB01AA01464FF4083007E0022872
:1023F00007D118F0F1FB01AA01464FF4882000F044
:102400007BFC019802B010BD024BC31A58425841E0
:10241000704700BF2A00CADE08B51BF071FA0EF043
:1024200089FF18B1BDE80840FFF736BFBDE8084096
:1024300018F008BA0149024818F0CEBC80969800FE
:102440001723020019F0C6BE00B52DED028B83B034
:102450000EF070FF18B101A8FFF724FF1CE0184B25
:102460001860A3F2045301221A601A46D2F8001130
:10247000144B0029FAD00022C3F80021D3F8082514
:10248000D3F80835920544BF6FEA83536FEA93533C
:1024900001930C4B01225A609DED018ABAEECF8A5E
:1024A00004F04CFF20B1FDEEC87A17EE903A0373AA
:1024B000B0EE480A03B0BDEC028B5DF804FB00BF30
:1024C00004C5004000C00040F7B50EF033FF2F4CAC
:1024D0002F4A304B98B1FFF7E1FE002515601268D6
:1024E0000092009A2C4AD2F804151A6897071FD553
:1024F0002A480668B6B12A4F05603E6012E040BF28
:1025000020BF20BF106012680192019A224AD2F8BF
:1025100004151A6896070BD5204D2E6816B1204F6A
:1025200028603E6022F002021A604FF0FF32226003
:10253000206801F24712451C22F07F421FD0411A49
:1025400021F07F41174DA1F1A406AE420ED91349E7
:10255000086818B1124D286000200860196841F021
:10256000080119604FF0FF33236008E040F28E2429
:10257000A1429FBF1A6842F002021A60024601237C
:10258000002109481BF016F903B0F0BD9C4600205D
:10259000404102404C9700200040024048970020F4
:1025A000509700205CFF3B000047002038B51BF02F
:1025B000CDFB0A23A0FB034503FB01554FF47A72C0
:1025C00000232046294610F039FF38BD30B58FB0C2
:1025D0000EAC002324F82A3D0493144B0193144BB2
:1025E0000093144A144B15491548164D11F0DCFFA1
:1025F000214604A81BF002FBA8B105AABDF80E10E5
:1026000004981BF03BFB70B10D9B089A01930C9B47
:102610000093BDF81810099B0B48002A08BF2A46F2
:1026200011F0C2FFE4E70FB030BD00BFDEFD0300D4
:10263000E3FD0300C1FD0300BCFD030056060400DA
:10264000C6FD0300B7FD0300E9FD0300D0B58EB061
:1026500004A811F09FFF1BF079FB4FF47A74A0FBE4
:10266000046704FB0177642200233046394610F0EA
:10267000E5FE049B02930B9B01930C9BB0FBF4F1D2
:10268000009304FB1102034B034811F08DFF0EB0C1
:10269000D0BD00BF00FE030004FE03002DE9F04F93
:1026A00089B01BF053FB64234FF47A75B0FBF3F24F
:1026B00003FB12066E43B6FBF3F63C23B2FBF3F8C2
:1026C00003FB182841F27072B0FBF2F2B2FBF3F98F
:1026D00003FB192918220446194B1A4FB0FBF3F3D8
:1026E000B0FBF7F7B3FBF2FA02FB1A3A1BF02EFB32
:1026F000A0FB05BC05FB01CC6146642200235846C3
:1027000010F09CFE104A114BB0FBF5F14FF00A0E91
:10271000012F08BF13460EFB04F4059305FB1102BD
:10272000069404970396CDF80880CDF80490CDF870
:1027300000A0074B074811F037FF09B0BDE8F08F44
:10274000407E050000D68300182804004E240400B3
:1027500000FE030031FE03002DE9F04F87B0002892
:102760005CD000F09FFC00F07FFF00F09BFC01F0CC
:1027700075F84FF080434FF47A74D3F80C54D3F8C3
:102780000C24D3F81865D3F8187402F001181BF064
:10279000DDFAA0FB04BC04FB01CC642200236146EB
:1027A000584610F04BFEB0FBF4F904FB1904FFF798
:1027B0004BFE10EE100A10F097F905F00105294BB9
:1027C000DFF8C0E0284ADFF8A8C045F4803A06F0F8
:1027D0000306C7F30047002D0CBF1D467546D045C4
:1027E00008BF62462EB1214B012E0CBF76461E4615
:1027F00000E01E46DFF870E01D4B0392002F14BF6F
:102800001F467746CDE90001059704960295194BBE
:1028100019482246494611F0C7FE20E000F042FC6C
:1028200005461BF093FA4FF47A74A0FB046704FB8F
:102830000177642200233046394610F0FFFD2B6AF1
:102840000393AB6A02932B7801930C4BB0FBF4F12A
:10285000009304FB1102074B094811F0A5FE07B0D5
:10286000BDE8F08F6EFE0300431F040079FE0300F5
:1028700076FE030000FE03007FFE0300EAFE030075
:10288000B6FE030071FE030070B50EF053FDE8B113
:10289000EFF3108572B60E4A0E489468012394B97E
:1028A00093600D4B0D49D3F88060314011600B49A6
:1028B000C3F88010D3F8841051604FF0FF32C3F892
:1028C0008420047000E0037005B962B670BD00BFDB
:1028D00048A60020614B002000E100E0FC06FFBCA0
:1028E00010B50EF027FD80B1084B9A686AB1084A0E
:1028F000117851B9EFF3108272B606481C68046073
:102900005C684460996002B962B610BD48A60020B8
:10291000614B002000E100E04FF0A04303224FF4A0
:102920008001C3F85827C3F808154FF08041C3F859
:102930007827C3F80815C3F87C274FF00042C3F886
:102940000825104B104A1A60104B114A1A60114B9F
:10295000114A1A60114B124A1A60124B124A1A603D
:10296000124B134A1A60134B134A14491A60144B42
:102970000B6014491448086014490A60144A136033
:10298000704700BFEC380020AB220200F83800206E
:10299000B9220200F0380020C722020000390020CE
:1029A000CF220200FC380020DD220200F438002093
:1029B000EB22020008390020F32202000439002033
:1029C00001230200E03800200F230200E438002039
:1029D000E8380020104A114B1360114A1360114A65
:1029E0001360114A1360114A1360114A1360114AAF
:1029F0001360114A1360114A1360114A1360114A9F
:102A000013604FF0A0430222C3F85827C3F8782779
:102A1000C3F87C27704700BFEC380020A9220200D1
:102A2000F8380020F038002000390020FC38002061
:102A3000F43800200839002004390020E038002054
:102A4000E4380020E838002070B5044628B3102987
:102A500023D1134A034600F1100153F8040B42F846
:102A6000040B8B42F9D10EF065FC0E4D28B12B788A
:102A700043F001032B70002070BD2B78DB0703D4DB
:102A800018F0D8F9064600E00126204618F02AFA88
:102A9000002EECD16FF0010070BD4FF0FF3070BD23
:102AA000624B0020604B00202DE9F04F9846444BCC
:102AB0001B788BB0DB0704460F4601927AD50EF0E7
:102AC00039FC064608B906AD00E03E4D0DF1080E92
:102AD000234604F11009744618685968F446ACE8B6
:102AE000030008334B45E646F6D14FF0000B0DF1DD
:102AF000180905F1100A149B9B4508EB0B0E31DAFF
:102B0000002054F820105EF820304B4044F820306C
:102B100001300428F5D1E6B12B4AA446634603CB25
:102B20004B45106051609C4602F10802F6D12748DF
:102B3000FFF7B6FB98B92B46A44618685968E646D5
:102B4000AEE8030008335345F446F6D10BF1100B01
:102B5000D1E72146284618F089F90028EBD16FF01B
:102B6000020029E0002354F8230057F823104140C5
:102B700044F823100133042BF5D1A6B1124A06AF55
:102B8000234603CBBB42106051601C4602F1080291
:102B9000F6D10E48FFF784FB0028E0D1019A2B887C
:102BA0001380002008E02146284618F05FF900282D
:102BB000F4D1D4E74FF0FF300BB0BDE8F08F00BF89
:102BC000604B0020824B0020724B0020624B0020A3
:102BD0002DE9F0471F462C4B1B78DB0788B00646D3
:102BE0008A4614464BD50EF0A5FB054610B90DF1EB
:102BF000100901E0DFF89C90A046C4EB08039F4257
:102C00003BDD514695B1214B0AF1100251F8040BFE
:102C100043F8040B9142F9D11D48FFF741FB50B92D
:102C2000A6B94346EE4608F1100C07E0484618F0F6
:102C30001DF90028F4D16FF0020022E018685968ED
:102C4000724603C2083363459646F7D1A8F10403E0
:102C5000A9F1040108F10C0053F804EF51F8042F16
:102C600098428EEA02021A60F6D10EB1414600E0A7
:102C7000694608F110088A46BFE7002001E04FF0DE
:102C8000FF3008B0BDE8F087604B0020724B002099
:102C9000624B0020824B002008B518F0FBF908BDFC
:102CA000F8B50E4615460C46A31B9D420BDD237856
:102CB0000A2B274602D10D2018F0D4F938780134B8
:102CC00018F0D0F9F0E72846F8BD0000074B1A6865
:102CD0000AB9074A1A601B68064A184490429DBF09
:102CE000024A106018464FF0FF3070475C4B0020DE
:102CF00060A6002000000120F0B5134D2B6800EB0A
:102D0000010EDB4311492B6000264FF0FF342F46A4
:102D1000704510D010F8015B84EA05065D40F6B2FC
:102D2000EDB251F8266051F8255086EA142485EA60
:102D300013230126ECE706B13B603B68E443DB4329
:102D400014603B600020F0BD944B0020F0FE0300B7
:102D500010B500210446236A204698470146002802
:102D6000F9D110BD08484FF6FF7100F6F8720388DC
:102D70008B4207D083782BB103331844C31C934292
:102D8000F5D90020704700BFA44B002073B5144E46
:102D900033680BB3134C2368F3B1134D6B682846AB
:102DA000013340F8043F40F6FC7101AAFFF7A4FF8D
:102DB000019B20682B604FF48051FFF7F7FA68B948
:102DC0004FF4805229462068FFF7FAFA30B9336889
:102DD00022683260236001E04FF0FF3002B070BD26
:102DE0009C5B0020984B00209C4B00202DE9F34772
:102DF000314DDFF8D080DFF8D090DFF8D0A04FF46D
:102E000000344FF0FF37002655F8043C013B0333F4
:102E10000BD94FF48052FF212848C8F80040C9F868
:102E2000004011F065FBFFF7B1FF55F8043C534536
:102E300032D16368012B2FD16368B34224BFC8F835
:102E400000401E46BB429CBFC9F800401F461C4BB9
:102E500005F580559D4204F58054D5D1194B1C6869
:102E600034B31648236803606368436040F6F87221
:102E700004F10801083011F0A1FA134B1A6842B9A5
:102E8000B4F5003F14BF4FF400324FF404321A601F
:102E90000EE094420CD1F3E701AA40F6FC712846FB
:102EA000FFF72AFF55F8042C019B9A42CFD1C3E7C4
:102EB00002B0BDE8F08700BF040002009C4B002078
:102EC000042002009C5B0020984B0020820418A57F
:102ED0000F4B186820F48053B3F5003F10B513D1A1
:102EE0000C4C236823F48053B3F5003F0CD14FF40E
:102EF0008051FFF75BFA4FF480512068FFF756FAD4
:102F0000FFF774FF002010BD4FF0FF3010BD00BF71
:102F10009C5B0020984B00200A4B30B54FF6FF75A4
:102F200003F6F8741988A94208D09A7832B1814220
:102F300006D003321344DA1CA242F3D9002030BD7C
:102F4000184630BDA44B00204FF6FF7398422DE980
:102F5000F04781460F46904603D14FF0FF30BDE861
:102F6000F087FFF7D9FF064618B9FFF7FBFE68BBED
:102F7000F3E784781FB1BC4224D0012500E03D4630
:102F8000FFF7F0FE04F1030A184B06EB0A010028D4
:102F900008BF1846CB1C984201D9884203D1821B36
:102FA000FF21304607E0441A2246304611F006FA67
:102FB0005246FF21301911F09BFA002DD5D1284639
:102FC000BDE8F0872246414603300AE0FB1C074A71
:102FD00003449342C1D8A0F8009087703A46414616
:102FE000033011F0EBF90020BDE8F0879C5B002076
:102FF00010B50C46FFF790FF064B93F8B8302BB195
:1030000020B1837813B12370033010BD00202070ED
:1030100010BD00BFA05B002010B50C46FFF77CFF81
:1030200018B18078031B5842584110BD38B50C4682
:103030001546FFF771FF40B18278AA4205D1C11C45
:10304000204611F0BBF9002038BD4FF0FF3038BDED
:1030500010B5054C402122460120FFF775FF0123E2
:1030600084F8B93010BD00BFA05B002010B5054C3E
:10307000402104F178020320FFF766FF012384F862
:10308000B93010BDA05B002010B5054C382104F10B
:1030900040020220FFF758FF012384F8B93010BD29
:1030A000A05B0020034890F8B830002B08BF002038
:1030B000704700BFA05B002070B5FFF7F3FF044628
:1030C00010B317F037FD2070C0B217F079FD264617
:1030D000002546F8040F284617F07EFD46F8040F39
:1030E0002846FFF770F90135032DF060F3D1094B45
:1030F0002362094B63624FF08173A3622378022B32
:1031000005D1064BA36202E04FF0FF3070BD0020F6
:1031100070BD00BF000701002A00CADE01000201E5
:1031200010B5084C94F8B830024643B1C9B20A2031
:10313000FFF70AFF012384F8B930002010BD4FF0DB
:10314000FF3010BDA05B002001460B20FFF750BFF1
:1031500010B5084C94F8B830024643B1C9B20B2000
:10316000FFF7F2FE012384F8B930002010BD4FF0C4
:10317000FF3010BDA05B002001461420FFF738BFD0
:1031800010B5084C94F8B830024643B1C9B21420C7
:10319000FFF7DAFE012384F8B930002010BD4FF0AC
:1031A000FF3010BDA05B0020044890F8B830002B21
:1031B00000F1400008BF0020704700BFA05B002066
:1031C00038B50B4A92F8B8307BB10346403200F173
:1031D000380518685968144603C40833AB422246C0
:1031E000F7D1FFF751FF002038BD4FF0FF3038BD59
:1031F000A05B002070B50C4C94F8B85085B1256DDB
:1032000075B194F85C605EB1056094F85C0008707C
:10321000B4F858101180B4F95A201A80002070BDFB
:103220004FF0FF3070BD00BFA05B002038B5094CE7
:1032300094F8B85055B1206584F85C10A4F8582073
:10324000A4F85A30FFF720FF002038BD4FF0FF30C0
:1032500038BD00BFA05B002010B5094B93F8B82023
:103260005AB1B3F8542042B1B3F856402CB10280A1
:10327000B3F856300B80002010BD4FF0FF3010BD6A
:10328000A05B0020064B93F8B82032B193F85D3074
:103290001F2B02D80370002070474FF0FF3070479B
:1032A000A05B0020054B93F8B82022B1B3F85E3044
:1032B0000380002070474FF0FF307047A05B002074
:1032C00008B5064B93F8B8202AB1A3F85E00FFF7C3
:1032D000DBFE002008BD4FF0FF3008BDA05B0020E2
:1032E000044890F8B830002B00F1780008BF0020A7
:1032F000704700BFA05B0020054B93F8B8201AB1BF
:10330000DB6A0360002070474FF0FF30704700BF5A
:10331000A05B002008B5064B93F8B82022B1D86214
:10332000FFF796FE002008BD4FF0FF3008BD00BF3C
:10333000A05B002020F0007323F400432BB9044A63
:10334000116808431060184670474FF0FF3070470F
:103350000C390020054B93F8B82022B1D3F8803007
:103360000360002070474FF0FF307047A05B0020E3
:1033700008B5064B93F8B8202AB1C3F88000FFF7D0
:1033800075FE002008BD4FF0FF3008BDA05B002097
:1033900038B50D4C94F8B8509DB110B10068C4F820
:1033A000840011B10968C4F8881012B11268C4F819
:1033B0008C2013B11B7884F89430FFF757FE00205F
:1033C00038BD4FF0FF3038BDA05B0020064B93F8AE
:1033D000B8202AB19A6F0260DB6F0B600020704743
:1033E0004FF0FF30704700BFA05B002008B5064BD0
:1033F00093F8B8202AB19867D967FFF737FE002005
:1034000008BD4FF0FF3008BDA05B00200A4B93F8C9
:10341000B8101A4639B10023D11891F8981031B973
:103420000133102BF8D10023037018467047102386
:1034300003700248704700BFA05B0020385C00208A
:1034400008B510220021034811F052F8FFF70EFED4
:10345000002008BD385C00200A4A92F8B8100346E4
:1034600069B192F8A820012A4FF0000003D0022A87
:1034700003D0012201E0187070471A7070474FF0B6
:10348000FF307047A05B0020044B93F8B90020B1D7
:10349000002283F8B920FFF779BC7047A05B0020B9
:1034A00013B5014604460A20FFF7A2FD0346F8B90A
:1034B00003F000FB03F0BFFA442382B28DF8003022
:1034C000042157230DF102008DF8013001F050FA6C
:1034D00006216A460A20FFF737FD074B012283F8D1
:1034E000B920FFF7D1FF21460A20FFF781FD0346EF
:1034F000184602B010BD00BFA05B002008B50E4BFF
:1035000093F8B82092B1012807D004D3022810D133
:1035100083F8A80004E0012200E0002283F8A8203C
:10352000FFF7A4FDBDE80840FFF7AEBF4FF0FF3046
:1035300008BD6FF0010008BDA05B002070B5434CD2
:103540000021C022204610F0D3FF40210120FFF7C8
:1035500063FD38B338210220FFF75EFD10B3402130
:103560000320FFF759FDE8B1402221460120FFF773
:103570005DFDB8B9226A364B9A4213D1334C4022D2
:1035800021460120FFF752FD00285EDB314BE26A45
:103590001A6004F1400138220220FFF747FD00289D
:1035A00044DA70BD2C4BE362294B2362FFF750FDD8
:1035B000052384F84030022384F8413084F84730F2
:1035C000032384F848308123A4F84C3001230025DC
:1035D0000922142684F84930FF2384F85D3084F8EA
:1035E000442084F8452084F8426084F8435084F8ED
:1035F000465084F84A502565A4F85450A4F8565013
:10360000A4F85E50FFF740FD32462946134810F0FB
:103610006FFF134BA367134BE367C4F88050FFF7AA
:1036200025FDFFF731FF0028A8DA70BD402204F124
:1036300078010320FFF7FAFC002806DB012384F859
:10364000B830FFF739FD00EAE07070BDA05B0020E4
:1036500000070100605C002040A3C113245C00202F
:10366000A0860100809698002DE9F74306461AF0DF
:103670006DFB4FF47A74A0FB048904FB019964226A
:103680000023404649460FF0D9FE684BB0FBF4F1E9
:1036900004FB1102664810F087FF1AF057FBA0FBED
:1036A000048904FB019964220023404649460FF037
:1036B000C5FE736801933378B0FBF4F1009304FB0B
:1036C00011025A4B5B4810F06FFF1AF03FFBA0FB52
:1036D000048904FB019964220023404649460FF007
:1036E000ADFE554B0193554BB0FBF4F1009304FB39
:1036F00011024E4B524810F057FF1AF027FBA0FB67
:10370000048904FB019964220023404649460FF0D6
:1037100095FE336AB0FBF4F1009304FB1102434BB6
:10372000484810F041FF1AF011FBA0FB048904FB8C
:10373000019964220023404649460FF07FFEB36A98
:10374000B0FBF4F1009304FB1102384B3E4810F03B
:103750002BFF1AF0FBFAA0FB048904FB01996422F9
:103760000023404649460FF069FE736AB0FBF4F14E
:10377000009304FB11022D4B344810F015FF1AF092
:10378000E5FAA0FB048904FB01996422002340466A
:1037900049460FF053FEF36AB0FBF4F1009304FBCB
:1037A0001102224B2A4810F0FFFE371D00251AF0A7
:1037B000CDFAA0FB048904FB019964220023404652
:1037C00049460FF03BFE57F8043FB0FBF4F101937C
:1037D000009504FB1102154B1E48013510F0E4FE64
:1037E000032DE4D106F1100400254FF47A761AF087
:1037F000ADFAA0FB068906FB01996422002340462E
:1038000049460FF01BFE54F8043FB0FBF6F101935C
:10381000009506FB1102054B0F48013510F0C4FE60
:10382000032DE4D103B0BDE8F08300BF00FE030028
:10383000F0020400050304003E03040041030400F9
:103840002103040049030400680304008603040004
:10385000A4030400BF030400E2030400F7B5044618
:103860001AF074FA4FF47A75A0FB056705FB01772F
:1038700064220023304639460FF0E0FD4F4BB0FB89
:10388000F5F1009305FB11024D4B4E4810F08CFEF4
:10389000E36A9B0702D54C4810F086FEE36A5F0797
:1038A00002D54A4810F080FEE36A1E0702D5484858
:1038B00010F07AFEE36A13F0300301D1454802E0CC
:1038C000102B02D1444810F06FFEE36A5D0602D56A
:1038D000424810F069FEE36AD80502D5404810F06E
:1038E00063FEE36A990502D53E4810F05DFEE36A87
:1038F0005A0502D53C4810F057FEE36A1B0502D575
:103900003A4810F051FEE36ADF0402D5384810F05F
:103910004BFEE36A9E0402D5364810F045FEE36A8A
:103920005D0402D5344810F03FFEE36A180402D566
:10393000324810F039FEE36A190102D5304810F020
:1039400033FEE36A9A0002D52E4810F02DFEE36A9A
:10395000DB0002D52C4810F027FEE36ADF0302D516
:103960002A4810F021FEE36A9E0302D5284810F091
:103970001BFEE36A5D0302D5264810F015FEE36ADC
:10398000980102D5244810F00FFEE36A590202D5CF
:10399000224810F009FEE36A1A0202D5204810F00E
:1039A00003FEE36ADB0102D51E4810F0FDFD0A208C
:1039B00003B0BDE8F04010F00BBE00BF19040400D6
:1039C00000FE0300050404001D040400210404009B
:1039D000270404002F040400340404003804040005
:1039E0003D04040043040400490404004E040400A0
:1039F00052040400580404005D040400840404001C
:103A000063040400680404006D04040072040400EC
:103A1000780404007E040400830404008804040085
:103A20008D04040092040400044A054B10681B68CE
:103A3000184018BFC0F34000704700BF0C39002089
:103A4000605C0020054B064A1B681068184004D0D3
:103A500010F00E0F0CBF012000207047605C0020AA
:103A60000C390020064B074A1B681068184006D026
:103A700040F60E030340A3F50063584258417047D7
:103A8000605C00200C390020054B064A1B6810685A
:103A9000184004D010F4C06F14BF012000207047FC
:103AA000605C00200C390020044A054B10681B683C
:103AB000184018BFC0F3C000704700BF0C39002089
:103AC000605C0020044A054B10681B68184018BF52
:103AD000C0F38000704700BF0C390020605C0020FC
:103AE000044A054B10681B68184018BFC0F34020FB
:103AF000704700BF0C390020605C0020044A054B71
:103B000010681B68184018BFC0F38020704700BFC2
:103B10000C390020605C0020044A054B10681B68CB
:103B2000184018BFC0F3C020704700BF0C390020F8
:103B3000605C0020044A054B10681B68184018BFE1
:103B4000C0F38030704700BF0C390020605C00205B
:103B5000044A054B10681B68184018BFC0F3C030FA
:103B6000704700BF0C390020605C0020044A054B00
:103B700010681B68184018BFC0F30030704700BFC2
:103B80000C390020605C0020044A054B10681B685B
:103B9000184018BFC0F34060704700BF0C390020C8
:103BA000605C0020044A054B10681B68184018BF71
:103BB000C0F30070704700BF0C390020605C00202B
:103BC000044A054B10681B68184018BFC0F34070CA
:103BD000704700BF0C390020605C0020044A054B90
:103BE00010681B68184018BFC0F3C060704700BF62
:103BF0000C390020605C0020102938B50BD1144B23
:103C000093F8B8303BB1431E00F10F0213F8011FC7
:103C100021B99342FAD14FF0FF3038BD0D4C034625
:103C200000F1100518685968224603C20833AB42F8
:103C30001446F7D1FFF71AFAFFF7D0FF30B1102181
:103C400004480EF091F800EAE07038BD38BD00BFBE
:103C5000A05B0020385C0020044A054B10681B68FC
:103C6000184018BFC0F38040704700BF0C390020D7
:103C7000605C0020044A054B10681B68184018BFA0
:103C8000C0F38010704700BF0C390020605C00203A
:103C9000044A054B10681B68184018BFC0F3002089
:103CA000704700BF0C390020605C0020064B074ABB
:103CB0001B681068184005D000F03000A0F1100318
:103CC00058425841704700BF605C00200C3900200A
:103CD000054B064A1B681068184004D010F0300FDE
:103CE0000CBF012000207047605C00200C390020D0
:103CF00007B501A8FFF700FB002809DB019820F4B5
:103D0000606020F0080040F006000190FFF702FB21
:103D100003B05DF804FB07B501A8FFF7EDFA002832
:103D200009DB019820F4606020F00C0040F00200F4
:103D30000190FFF7EFFA03B05DF804FB07B501A8A7
:103D4000FFF7DAFA002809DB019820F4606020F020
:103D50000E0040F420400190FFF7DCFA03B05DF85C
:103D600004FB07B501A8FFF7C7FA002809DB019893
:103D700020F4C16020F0060040F428400190FFF7D5
:103D8000C9FA03B05DF804FB07B5014601A8FFF7C7
:103D9000B3FA00280CDB019B23F4C06311B143F498
:103DA000007301E043F4806301930198FFF7B2FAD6
:103DB00003B05DF804FB000008B5FFF79FFE30B9C3
:103DC000034A136823F4C06343F40073136008BD0F
:103DD000605C002007B501A8FFF78EFA002807DB1A
:103DE000019B0548184040F00A000190FFF792FA45
:103DF00003B05DF804FB00BFFBF1FFFD014B0022A7
:103E00001A7070476C5C002010B5074CD4F87C31F8
:103E1000142B08D003F11B0204EBC20201335060E3
:103E20009160C4F87C3110BD985C0020054BD3F83C
:103E3000A80028B1D3F8D400012818BF00F1FF3042
:103E4000704700BF985C00200A289DBF2A30024BB3
:103E500053F8200000207047985C0020014B186048
:103E6000704700BF945C0020014B7B229A7670471C
:103E7000985C002010B5044C237823B9142000214D
:103E800019F0B0FEF8E710BD845C0020014810F086
:103E9000DDBB00BF980404002DE9F04107460E4643
:103EA000012505F18054013C240104F1100844452A
:103EB00001DAB4420BDB0A2010F08AFBB44205F1B0
:103EC0000105EEDB0A20BDE8F04110F081BB395D51
:103ED000024810F069FB0134E9E700BF6A050400FD
:103EE0000A2810B51CD82A300E4B53F82040BCB11C
:103EF0000D490222204610F051FE014608B9102259
:103F000004E023786F2B06D1082200212046BDE86B
:103F1000104011F04DB82046BDE810400FF064BCD1
:103F2000002010BD985C00207205040000F01ABD4E
:103F300010B50B4C00F000FD206818B106F01AFE19
:103F4000002323604FF4C0720021064810F0D0FA1D
:103F5000054B00221A70BDE810400EF01FBB00BFD9
:103F6000185E0020985C0020845C002070B50C4C2A
:103F70000C4E2C2200210546204610F0B9FA4FF4D1
:103F8000C0720021304610F0B3FA074BA6622362DC
:103F900064620DB1054B1D60BDE8704000F0A2BC2D
:103FA000189E0020985C0020B13F020010390020CC
:103FB0002DE9F041A2B0846A17F06CF802060346BE
:103FC00005D517F037F817F01FF8002305E020B1EA
:103FD0000D2802D117F046F80A23E361002B00F008
:103FE0002381257F0A2D08D1D4F8A0301BB12344AA
:103FF000002283F820200A2046E0082D1BD1D4F8A7
:10400000A030002B00F01081D4F8A420002A00F08A
:104010000B81013BC4F8A03023440021013A83F80E
:1040200020102846C4F8A42017F01CF8202017F010
:1040300019F82846E0E01B2D00F0F680092D00F06D
:10404000F380032D0BD100230D20C4F8A030C4F859
:10405000A43084F8203017F005F80A2037E0D4F8AF
:10406000A4305A1C2344C4F8A42083F82050D4F868
:10407000A0309A4284BF0133C4F8A030D4F8A030F5
:104080007F2B284640F2B88016F0ECFFD4F8A05001
:10409000002D3AD0002301936A1E02E0019B0133F8
:1040A0000193019B9D4224D9019B234493F8203026
:1040B000092B18D1019B9A42F0D10D2016F0D2FFA6
:1040C0008024202016F0CEFF013CFAD10D2016F0FE
:1040D000C9FF574B186810F067FA564B1B68986871
:1040E0000FF078FCA0E0019B234493F82030202BB4
:1040F000E0D02A4604F1200102A810F05FF922ABBB
:104100001D44002305F8803C0BE094F8D830002BC8
:104110005FD0802204F1200102A810F04FF98DF841
:1041200087500023C4F8D4300193019A0A2A07DC8F
:10413000019A2A3244F82230019A01320192F4E7BE
:104140003D4902A810F094FD00285BD0D4F8D4308B
:104150005A1C2A33C4F8D42044F82300D4F8A87099
:10416000002F4FD0354B93F81A802646D6F8DC50F6
:10417000002D47D0286840B12B7B434503D83946F2
:1041800010F022FB18B11035F4E70836EEE72A49A3
:1041900010F06EFDA0B1D4F8D4305A1C2A33C4F804
:1041A000D42044F823002449002010F061FDD4F805
:1041B000D4305A1C2A33C4F8D42044F82300F0B970
:1041C000AB68FBB198470023C4F8D430012384F8CE
:1041D000D8301B4B1B781BB1154B186810F0E4F955
:1041E000144B1B6898680FF0F5FB0023C4F8A4304B
:1041F000C4F8A030E37617E016F034FF14E00A2A82
:10420000D1D9DDE794F82030002BE2D002A810F0DD
:10421000CBF90C4810F0C8F90B4810F0C5F90A208A
:1042200010F0D6F90023D2E7002022B0BDE8F081DB
:104230001039002010410020761E0400985C0020F8
:104240006C5C00206D20040075050400194A38B527
:1042500001231370184B1B68154603B19847174B81
:10426000174C186810F0A0F9164B1B6898680FF0EF
:10427000B1FB23681BB9144806F04AFC2060206893
:1042800008B106F019FC114B01221A702B783BB1D2
:104290000F48FEF75DFD0120002119F0A3FCF5E7B2
:1042A000206808B106F01BFC0EF070F9BDE838403C
:1042B00019F06EBC6C5C0020945C0020103900206A
:1042C000185E00201041002088050400845C002056
:1042D000189E0020024B1B6803B11847704700BFAF
:1042E0008C5C0020024B1B6803B11847704700BF6D
:1042F000745C0020024B1B6803B11847704700BF75
:10430000785C002008B5084B1B785BB9074B1B781D
:1043100043B1FFF7EFFF0EF077FA18B9BDE8084098
:1043200016F088BE08BD00BF6C5C0020845C0020D5
:10433000024B1B6803B11847704700BF805C002028
:10434000024B1B6803B11847704700BF1C5E00207A
:1043500008B5FFF7F5FF0248BDE8084010F076B950
:104360008B050400024B1B6803B11847704700BF60
:10437000705C0020024B1B6803B11847704700BFF8
:104380007C5C0020024B186800B10047704700BFFA
:10439000685C0020024B1B6803B118471846704741
:1043A0002C5E0020FFF7F6BF024B1B6803B11847D5
:1043B00018467047885C0020024B1B6803B1184701
:1043C000704700BF285E002008B508B90E4B18687A
:1043D000FFF788FF0D48FFF7EFFF0D490D48FFF786
:1043E000C9FF0D490D48FFF7C5FF0D490D48FFF7FF
:1043F000C1FF0D490D48FFF7BDFF0D490D48BDE850
:104400000840FFF7B7BF00BF103900208D3E020003
:1044100090050400345E00209405040074390020E7
:1044200099050400C43900209D050400543900207A
:104430004D0F0400445E0020024B1B6803B1184777
:10444000704700BF205E002070B5FFF79BFF022879
:104450000CD10120FFF79EFF40B105221C4910F04E
:104460009DFB18B9BDE87040FFF7E6BF19481A4D2B
:1044700010F0ECF8194810F0E9F82E46D5F8DC40B9
:10448000F4B10C34012354F80C2C9AB1B17E22788B
:1044900091420DD323B1D5F8E010114810F084F803
:1044A00054F8082C54F80C1C0E4810F07DF800232A
:1044B0001034E8E713B90A2010F08AF80835DDE770
:1044C000094810F0C3F80948BDE8704010F0BEB8C4
:1044D000A3050400A8050400985C0020CB05040097
:1044E000DF050400420F0400F80504000306040081
:1044F000034B987EA0F17B0358425841704700BFA0
:10450000985C0020014B1878704700BF245E0020A3
:10451000184B194A1A60194B194A1A60194B1A4A52
:104520001A601A4B1A4A1A601A4B1B4A1A601B4B24
:104530001B4A1A601B4B1C4A1A601C4B1C4A1A600F
:104540001C4B1D4A1A601D4B1D4A1A601D4B1E4A0A
:104550001A601E4B1E4A1A601E4B1F4A1A601F4BE0
:104560001F4A1A601F4B204A1A60204B01221A7002
:10457000704700BF745C00206D3F02008C5C00201F
:10458000C9430200785C0020313F0200305E002009
:10459000753E0200805C00202D3F02001C5E002062
:1045A000FD3D0200705C0020054302007C5C0020A1
:1045B000093E0200685C00202D3E0200905C002055
:1045C000A54302002C5E0020493E0200885C0020CA
:1045D000E13E0200645C0020993E0200285E00205B
:1045E0005D3E0200205E0020693E0200245E002045
:1045F00030B54FF080530024196E5B6E85B044EAED
:104600000102CDE900239DE8030002AD85E8030027
:1046100007480FF0C9FF295D064801340FF0C4FFB9
:10462000082CF8D10A2005B0BDE830400FF0D0BF0B
:104630003B0604004006040038B50546FFF7A2FE1D
:10464000022805D00020FFF7A5FE0146414822E0E0
:104650000120FFF79FFE10B10120FFF7A5FE0446E1
:10466000FDF772FE20B93C48BDE838400FF0EEBFC0
:10467000032D6ED8DFE805F002132F3D4FF0A04266
:1046800004F5E073032142F823100123A3403348CB
:10469000C2F80C352146BDE838400FF085BFA300B5
:1046A00003F1A0430022C3F80027D3F800372C48B9
:1046B00013F0010F4FF0A04317BF0122D3F81025CC
:1046C000D3F80435A24015BF1A40E240E24002F0A0
:1046D0000102214639E04FF0A04204F5E0730321C6
:1046E00042F823100123A340C2F8083521461D4893
:1046F000D1E74FF0A04304F5E0724FF0A04053F82B
:104700002220D20749BFD3F80435D3F8102501225F
:10471000A24048BF1A404FF0010303FA04F1D0F859
:10472000043558BFE24021EA030548BFE24003EAEE
:10473000010358BF02F00102C0F80855B2FA82F234
:10474000C0F80C35084852092146BDE838400FF042
:104750002BBF38BD590604006A0604007806040021
:10476000830604008F0604009A0604000320FFF766
:1047700063BF0220FFF760BF0120FFF75DBF00208D
:10478000FFF75ABFBFF34F8F0549064BCA6802F4C3
:10479000E0621343CB60BFF34F8F00BFFDE700BF64
:1047A00000ED00E00400FA0508B5FFF7EBFFFDF7A8
:1047B0004DBFFDF70BBF06F033BAFDF76FBF00002A
:1047C00008B516F0B7F9012806D10CF0EBFD022070
:1047D00016F0C0F9064807E0022807D10CF0E2FD08
:1047E000012016F0B7F903480FF030FFFFF7CAFFBA
:1047F000DB060400E506040010B5002002F05AF9BB
:104800000446D0F8040E17F03DFFD4F8043E4FF0F4
:10481000A04203F5E073022142F823104FF40C612B
:104820000522A4F8A01DA4F8A22D204600F070FADD
:10483000204600224FF0FF3100F0D2FED4F8003EB7
:1048400098472046BDE8104000F060BA0AF064BC0A
:1048500008B512480FF0FAFE0DF098FE16F094FB22
:1048600016F04EFD16F0B2FA4FF0A0430222C3F844
:104870002C27C3F80C27FDF7CFFDFEF7ABF816F099
:10488000B3F800F1FF1000F57F4020F07F4015F0F5
:10489000F9FFFDF719FEFFF775FF00BFEF060400F3
:1048A00008B5FFF7A9FF0AF037FCFFF7D1FFFDF7C6
:1048B00033BD10B5FFF71CFE044630B1FDF74CFFC9
:1048C000FDF7ECFEFDF7C2FE01E0FDF745FF2046D7
:1048D00002F0A2FA204608F0C3FFBDE810400BF03A
:1048E0003FBA00001FB54FF4C0600FF06DFA0B4BDC
:1048F0000B4918600B4B03930B4B02934FF4C063AF
:104900008DE809000022094B102019F02FF9084901
:10491000084805B05DF804EBFFF72CBD545E00209D
:104920004D420200585E0020005F00208805040010
:104930004F0804001439002038B5084C23685BB1D7
:10494000074D286819F04CF9286819F023F92068F8
:104950000FF042FA0023236038BD00BF545E0020F0
:10496000005F0020014B186819F028B9005F002093
:1049700010B5014430240B1A002B0EDD4AB102F0B1
:104980000F03092BCCBF3733303301F8013C120938
:1049900001E001F8014C0139EDE710BD70B50D469D
:1049A00014460021064628460FF0A2FD64000021AF
:1049B000A1421CD0705CA0F16103052B02D8A0F1CC
:1049C00057030AE0A0F13003DAB2092A05D9A0F1B1
:1049D0004103052B0DD8A0F13703CA074FEA610246
:1049E00058BF1B01A85C0343AB540131E0E7002032
:1049F00070BD4FF0FF3070BDD0F8A80D7047D0F8F3
:104A0000AC0D70471FB52AB961F07F018DF80C100D
:104A1000012111E07F2A61F03F018DF80C1083BF66
:104A200062F07F01D2098DF80D108DF80D2092BF34
:104A300002218DF80E200321069A009203AA01F0AC
:104A4000A9F905B05DF804FB13B514461A460B44EA
:104A5000B3F5806F06DC8B1E00940921FFF7D2FFAF
:104A6000002001E04FF0FF3002B010BD1FB51AB9B1
:104A70008DF80C10012111E07F2A41F040018DF8E2
:104A80000C1083BF62F07F01D2098DF80D108DF8F4
:104A90000D2092BF02218DF80E200321069A00926C
:104AA00003AA01F082F905B05DF804FB13B51C46BA
:104AB0000091134611212246FFF7D8FF02B010BD26
:104AC00007B50523009100221721FFF7CFFF03B0A0
:104AD0005DF804FB07B50523009100221521FFF7BF
:104AE000C5FF03B05DF804FB07B505230091002264
:104AF0000621FFF7BBFF03B05DF804FB1FB503AC55
:104B00000094042392B289B2FFF7B0FF48B903239F
:104B10004FF0FF30E25C13F1FF3302EB0020F9D2DB
:104B200001E04FF0FF3004B010BD00221146FFF746
:104B3000E5BF1FB503AB009392B2022389B2FFF722
:104B400095FF38B99DF80D009DF80C3003EB00205F
:104B500080B201E04FF6FF7005B05DF804FB1FB5B1
:104B60000DF10F03009392B2012389B2FFF77EFF8C
:104B70009DF80F0005B05DF804FB1FB504AC92B2C0
:104B800004F8013D89B200940123FFF73BFF04B014
:104B900010BD1FB58DF80C301B0A8DF80D3003AB1E
:104BA000009392B2022389B2FFF72CFF05B05DF8A3
:104BB00004FB0B4641F604022E21FFF7EABF0B4629
:104BC00000221821FFF7E5BF1FB51C0A8DF80C3035
:104BD0008DF80D401C0C1B0E8DF80F3003AB0093AD
:104BE00092B2042389B28DF80E40FFF70BFF04B098
:104BF00010BD13B500F55663044600930B22012344
:104C00002A21FFF7FFFED4F8643D00221E21204632
:104C100002B0BDE81040FFF7D7BF08B5D0F8B43DEB
:104C20000B4343EA825308210022FFF7CDFF002007
:104C300008BD000070B500220C4604210546FFF7B0
:104C40005DFF3CB1094A04F4FF73024043F00103E5
:104C5000134301E0064B0340C5F8BC3D2846002243
:104C60000421BDE87040FFF7AFBF00BF01FE47F071
:104C7000FEFF47F00B4602220321FFF78ABF0B46D7
:104C800000220321FFF785BF30B585B004AC0B0AC5
:104C900004F8041D8DF80D300094022304222D2108
:104CA0000546FFF7AFFE03238DF80C300094012377
:104CB00006222D212846FFF7A5FE00238DF80C3093
:104CC0000094012306222D212846FFF79BFE0A228D
:104CD0002D212846FFF712FF05B030BD30B585B055
:104CE00004AC002304F8043D05460094012302228D
:104CF0002C21FFF787FE0222009401232C21284655
:104D00008DF80C20FFF77EFE05B030BDFFF7E6BF43
:104D100030B50B4685B015462C2100220446FFF71E
:104D200038FF04AB062203F8045D2C2100932046D3
:104D30000123FFF767FE05B030BD30B585B004AB89
:104D40006D2203F8012D0D46009340F60602012363
:104D50002E210446FFF756FE15B140F2076301E02D
:104D600041F2076341F606022E212046FFF711FFAC
:104D700005B030BD2DE9F0430E784F784A79854B68
:104D8000013F042E85B004460D4633F81280C0F86A
:104D9000D87D05D0F31FD3F1000949EB030901E0E9
:104DA0004FF001092B7884F8B03DEA79D4F8BC3D86
:104DB00032B943F48003C4F8BC3D4FEAD80803E09D
:104DC00023F48003C4F8BC3D2B7A84F8B13D2B7AE0
:104DD000D4F8BC2D1B0403F440331343C4F8BC3D8A
:104DE000002204212046FFF7EFFE434642F604026C
:104DF0005FFA87F82E212046FFF7CBFE414620467A
:104E0000FFF79BFF644B9F5D644B07EB87021344E6
:104E10000093072205232B212046FFF7F3FD604B6B
:104E20004B4400930B22012328212046FFF7EAFD83
:104E30005C4B0C2253F8273028212046FFF7C4FE94
:104E4000EA79AB7903EB4203574A272132F8133052
:104E500020460222FFF79DFE544B042233F81830FF
:104E600027212046FFF795FEEB7933B9642306220C
:104E700027212046FFF78DFE1BE0AB78042B16BFE1
:104E8000282310238DF80F304FF0060218BF20237F
:104E90004FF027010DF10F07204608BF8DF80F30A6
:104EA000FFF777FE00970123262227212046FFF7F0
:104EB000A9FDEB783E4A03EB8803272152F8233003
:104EC00020460822FFF780FE6B8941F2410293429F
:104ED00004D0202227212046FFF75BFE6B8933B9DF
:104EE00041F24103202227212046FFF752FE314F95
:104EF0003B6807EB48070C2223212046FFF764FE9E
:104F00000422BB8823212046FFF743FEAA7962B121
:104F1000EA79294B134400930022212101232046E2
:104F2000FFF770FD0122032100E01146687906F0C9
:104F30000F03360143EAC063F6B21E436B7828794B
:104F40009B0403F4402380051E4300F0F86009052C
:104F5000064301F4401153040E4303F4003333437A
:104F600000221F212046FFF72FFEAA786B781343FB
:104F7000EA79520342F4004242EA0343C4F8B43DE2
:104F8000002208212046FFF71FFE002005B0BDE8E3
:104F9000F08300BF0C090400C80804009008040056
:104FA0003E090400F4080400BC080400AE08040034
:104FB000D4080400B4080400D008040070B500222E
:104FC0000D4604210446FFF799FDC4F8BC0D15B148
:104FD00020F4802001E040F48020C4F8BC0DD4F817
:104FE000BC3D204600220421BDE87040FFF7ECBD27
:104FF000D0F8BC3D39B123F48053C0F8BC3D012347
:1050000080F8B83D05E043F48053C0F8BC3D80F81B
:10501000B81DD0F8BC3D00220421FFF7D5BD1FB557
:10502000D0F8BC3D11B143F0005301E023F0005330
:10503000C0F8BC3D04AB90F8BF2D03F8012D04214E
:10504000009303220123FFF7DDFC05B05DF804FBAC
:10505000C0F8E01DC0F8E42D7047F0B585B003AC92
:1050600011F0010705460E4600944FF0020330D0C0
:1050700000222621FFF7FAFC9DF80D2004AB42F038
:10508000140203F8032D009301231A462621284613
:10509000FFF7B8FC01230222362100942846FFF7CF
:1050A000E5FC9DF80C30009463F07B038DF80C3028
:1050B0000222012336212846FFF7A4FC10238DF895
:1050C0000C3001238DF80D30009402232822362164
:1050D00013E03A462621FFF7C9FC9DF80D300094F5
:1050E00023F015038DF80D309DF80C3023F04003AC
:1050F0008DF80C303A46022326212846FFF782FC21
:10510000B30713D50F238DF80C302A220123362143
:1051100000942846FFF776FC00238DF80C300094AD
:1051200001232A2236212846FFF76CFC05B0F0BD8A
:105130007FB503AC0E4602230094002236210546BB
:10514000FFF794FC0D2E4AD8DFE806F00F0716494A
:105150004949491D2C4949373C4100238DF80C3001
:105160009DF80D3023F0010319E09DF80C3023F079
:10517000030343F0010330E09DF80C3023F00303F8
:1051800043F0020329E09DF80C3023F04C0343F078
:1051900048038DF80C309DF80D3063F07F038DF8D7
:1051A0000D301CE09DF80C3023F04C038DF80C30D2
:1051B0009DF80D3003F07F03F1E79DF80D3043F0CB
:1051C0000203ECE79DF80D3023F00203E7E79DF8BA
:1051D0000C3023F0300343F020038DF80C300094A2
:1051E0000123002236212846FFF70CFC0DF10D03A8
:1051F000009301231A4636212846FFF703FC04B02A
:1052000070BD30B585B003238DF80D3004AB01259A
:1052100003F8045D04460093002202233621FFF7C1
:10522000F1FB4FF4004306222D212046FFF7B1FC8D
:105230004FF47A7015F082FA20462946FFF778FF7E
:10524000002005B030BD0000F0B5002585B0042772
:1052500080F8D45D80F8B85DC0F8D85DC0F8DC5D3A
:1052600080F8D55DC0F8E05DC0F8E45D04460E4608
:105270008DF80E70FFF759FC374BC4F8A40D984217
:1052800065D129462046FFF753FF0DF10E032A464C
:105290000093242101232046FFF7B4FB1E21204662
:1052A000FFF7F2FC3207C0F3072084F8B20D05D5F2
:1052B00039462046FFF7E8FCC4F8DC0D94F8DC3DE5
:1052C0005BB104AB022203F8012D2D2100931222C1
:1052D00001232046FFF796FB01E0C4F8DC3D0621E0
:1052E0002046FFF7D1FC0721C4F8A80D2046FFF7A0
:1052F000CBFC0821C4F8AC0D2046FFF7C5FC092102
:1053000084F8D60D2046FFF7BFFC330584F8D70D8F
:1053100003D52046FFF775FF0CE005223621204615
:10532000FFF707FC4FF6FF530340052236212046C6
:10533000FFF72FFC01212046FFF7FAFE002204218F
:105340002046FFF7DBFBC4F8BC0D002001E04FF066
:10535000FF3005B0F0BD00BF3001CADE10B500213E
:105360000446FFF7E5FE2046002304223621BDE86F
:105370001040FFF70EBC0B4601220A21FFF724BCA8
:105380007FB501F0020304460D4603F0FF020DF164
:105390000F0613B98DF80F200BE080238DF80F3026
:1053A0000096012300220D21FFF72CFB012384F836
:1053B000D53D15F0010F9DF80F3005F0040526D0FE
:1053C00015B943F0060301E043F007038DF80F30F1
:1053D000002201230D2100962046FFF713FB032234
:1053E0000F212046FFF7A5FB10F481601FD040235A
:1053F0008DF80F300096012300220D212046FFF783
:1054000001FB002384F8D53D4FF0FF300FE015B9C4
:1054100043F0020301E043F003038DF80F300096E0
:10542000012300220D212046FFF7ECFA002004B0F2
:1054300070BD08B502220F21FFF77BFB00F01000C2
:1054400008BD1FB504AB402203F8012D0D210093C8
:1054500000220123FFF7D6FA05B05DF804FB1FB563
:1054600004AB082203F8012D0D2100930022012333
:10547000FFF7C8FA05B05DF804FB1FB50DF10E0388
:105480000093032201230F210446FFF7EFFA9DF852
:105490000E3083EA43031B0609D504AA012302F850
:1054A000013D0D21009220460322FFF7ABFA04B024
:1054B00010BD0000F0B585B004AD402300220E21E0
:1054C000044605F8013DFFF719FB074600F04BFCC9
:1054D000002306461A460E212046FFF775FB00956D
:1054E000012300220D212046FFF78CFA0C4B0022ED
:1054F0000F212046FFF768FB2046FFF7BEFF3B4623
:1055000000220E212046FFF75FFB304600F02DFC05
:10551000002384F8D53D84F82A3D05B0F0BD00BFD6
:10552000F8FF273430B5002285B00D4691420CBFFC
:105530004FF480734FF440730D2104468DF80F2013
:10554000FFF727FB0DB9002011E00DF10F030093C9
:10555000032201230F212046FFF788FA9DF80F3020
:105560001B07F0D52046FFF76CFF4FF0FF3005B06A
:1055700030BD7FB50DF10F050E46009501230322C6
:1055800004210446FFF772FA86B1334600220C214B
:105590002046FFF7FEFA9DF80F3043F010038DF818
:1055A0000F30D4F8BC3D43F0805309E09DF80F3034
:1055B00023F010038DF80F30D4F8BC3D23F0805356
:1055C000C4F8BC3D00950123032204212046FFF7C7
:1055D00019FA04B070BD0B4624222721FFF7D9BA6F
:1055E000F8B5174604460D4600F0BDFB00220646FE
:1055F0000E212046FFF782FA17B140EA050301E0C9
:1056000020EA0503204600220E21FFF7DDFA30468E
:10561000BDE8F84000F0A9BB30B585B004ACE0238C
:1056200004F8013D03220094012336210546FFF7CB
:10563000E9F9F0238DF80F3000940123032236217D
:105640002846FFF7DFF905B030BD00007FB5002226
:1056500080F8C42D0F210446FFF750FA4205054695
:10566000C4F8C00D2BD594F8B86D46BB00F4606348
:10567000B3F5606F23D02046FFF71CFF2046FFF7ED
:10568000CBFF25F06F45D4F8BC3D25F47F0525F40C
:105690007F459B0025F0070507D54FF48073324600
:1056A0000D212046FFF775FA09E0032384F8C43D75
:1056B000D4F8E43D1BB1214604F55C60984715F42D
:1056C000804173D06E0563D515F480120BD020464F
:1056D000FFF7F0FE2046FFF79FFFD4F8BC3D9D008A
:1056E0004ED40523B8E010212046FFF722FA94F8A3
:1056F000B13D13B1C0F3090001E000F07F000223C7
:10570000A4F8C60D84F8C43D00224FF4DE430F21F7
:105710002046FFF759FA94F8B83D002B00F09E8020
:105720000DF10F02012300920F21032220468DF874
:105730000E30FFF79BF99DF80F30C3F3801384F808
:10574000293DD4F8E43D1BB1214604F55C6098473F
:105750002046FFF76EFE48B90DF10E0300930322B9
:1057600001230D212046FFF74DF986E02046FFF783
:10577000A1FE2046FFF750FFD4F8BC3D98007CD531
:105780004FF4807300220D212046FFF702FA74E0E7
:10579000D4F8BC3D990005D42046FFF78BFE204687
:1057A000FFF73AFF002384F8D53D48E0344A2A4009
:1057B00072B1344B0A4620460F21FFF705FA2A063C
:1057C0004CBF01230D2384F8C43DD4F8E03D47E0ED
:1057D00015F4003612D033460F212046FFF7F4F9B6
:1057E000042384F8C43DD4F8E43D1BB1214604F5FC
:1057F0005C609847002384F8D53D3EE0224A2A4069
:10580000A2B313460F2132462046FFF7DDF994F884
:10581000B83D84F8D56D4BB1D4F8BC3D9B00204613
:1058200002D5FFF747FE01E0FFF727FE2046FFF70E
:10583000F3FEEE0401D508230EE0280401D503236E
:105840000AE0E90301D5092306E06A0101D50A232C
:1058500002E0AB02F3D50B2384F8C43DD4F8E43D59
:105860005BB1214604F55C60984706E015F0805373
:1058700003D00F212046FFF7A7F904B070BD00BF89
:1058800080000010F8000010009027247FB504ADC0
:105890000026044605F8046DFFF760FD33463246E6
:1058A0002C212046FFF775F9012306222C210095B3
:1058B0002046FFF7A7F82046FFF710FA00950123CE
:1058C000032236212046FFF7D1F89DF80C300095D1
:1058D00003F00F038DF80C300322012336212046FC
:1058E000FFF790F84FF47A7014F028FF9DF80C3011
:1058F000009563F00F038DF80C300322012336214D
:105900002046FFF77FF884F8D56D04B070BD7FB5F1
:105910000DF10F050C46009501230E222B210646A2
:10592000FFF7A4F89DF80F30009523F01F0304F053
:105930001F041C430E2201232B2130468DF80F40FB
:10594000FFF760F804B070BDF0B585B004AC8023FB
:1059500004F8043D0F460123112228210094054636
:10596000FFF750F80A238DF80C301222012328216A
:1059700000942846FFF746F80F238DF80C3000946A
:105980000123122228212846FFF73CF8012F4FF06F
:1059900000061DD13B46324600942A2128468DF848
:1059A0000C60FFF72FF83B4632462A210094284628
:1059B0008DF80C70FFF726F84FF47A7014F0BEFEE5
:1059C0000094022303222A212846FFF74FF821E002
:1059D00031462846FFF7ACFB0127012332462A2136
:1059E000009428468DF80C60FFF70CF83B463246D1
:1059F0002A21009428468DF80C70FFF703F82A211D
:105A00000094022303222846FFF730F8394628463F
:105A1000FFF78EFB0022009401232A2128469DF8DF
:105A20000C609DF80D708DF80C20FEF7EBFF46EA38
:105A3000072005B0F0BD000008B590F8D70D081A92
:105A40000DF040F807A3D3E900230DF0A1F80022E0
:105A5000034B0CF0EBFE0DF093FB00EE100A08BDBB
:105A6000000037403D0AD7A3703DF23F0000000020
:105A700008B590F8D63D9FED0E7AC91A07EE901A38
:105A8000F8EEE77A67EE877A17EE900A0DF02CF8B9
:105A900005A3D3E900230CF0C9FE0DF071FB00EE65
:105AA000100A08BDAFF300806666666666660A4047
:105AB0001069BD3B2DE9F74F00228A463621044686
:105AC000FFF74DF80422362183462046FFF731F8D0
:105AD0000022009028212046FFF710F801230190B2
:105AE000002236212046FFF748F800230422362101
:105AF0002046FFF74EF82B4B002228212046FFF7C7
:105B000063F82223002236212046FFF736F880254D
:105B100007264FF496794FF000082F467F083D4343
:105B2000EBB20B222A212046FFF727F8BC230822DC
:105B30002A212046FFF721F8BD2308222A212046EA
:105B4000FFF71BF80A2014F0F9FD09222A2120464C
:105B5000FEF7EFFFC0F30B00CAEB0003002BB8BF4A
:105B60005B424B45BCBFA846994650458CBF3D4360
:105B7000BD43013ED2D15B46324620463621FEF778
:105B8000FCFF009B042236212046FFF702F8019B10
:105B9000324628212046FFF717F8404603B0BDE8FB
:105BA000F08F00BF00A71F0000222DE9F04107463B
:105BB000104627FA02F5C5F3421C05F01F064FF008
:105BC000010E0D467319A3F10408B8F1100F0EF180
:105BD000FF3406D9142BCCBF053D05350EF1010E5F
:105BE000F0E76444E4B2DBB243EA44139340083282
:105BF000202A40EA0300DCD1BDE8F081F8B51A4B59
:105C00001C5C1A4B2DED028B0D4603EBC40451ECCA
:105C1000100B53EC112BF0EE628AB0EE428A0CF0BE
:105C200003FED4E900230CF0B3FF9FED112A38EEF8
:105C3000428A064668EE287A0F4617EE900A0CF064
:105C400053FF32463B460CF0F1FD0B4602460CF08A
:105C5000EDFD0DF04DFABDEC028B01462846BDE886
:105C6000F840FFF7A1BF00BFC808040060080400A7
:105C70003333534038B50446D0F8F03D4FF0005070
:105C80000D46984720460021FFF752FA2946204644
:105C9000FEF7FAFF012105462046FFF749FAD4F83E
:105CA000F03D4FF000409847284638BD38B50D46C6
:105CB0001C211446FFF7DEFF431E03339FBF80B253
:105CC00028802080002088BF4FF0FF3038BD38B5D5
:105CD0000D461C211446FFF7CDFF431E03339FBF23
:105CE000000C28802080002088BF4FF0FF3038BD96
:105CF0002DE9F84389461921984606461746FFF7CD
:105D0000B9FF1D2105463046FFF7B4FF1E210446AA
:105D10003046FFF7AFFF6B1E033311D8631E03330A
:105D20000ED8431E03330BD8230CC9F80050A8F833
:105D30000030089B000C1C8038700020BDE8F88300
:105D40004FF0FF30BDE8F88310B50C461E21FFF779
:105D500091FF30F47F431DBF00F01F002070002032
:105D60004FF0FF3010BD01207047704710B5002282
:105D700004460421FEF7C2FE20464FF4B053002231
:105D80000421BDE81040FEF71FBF08B5FFF7EEFF86
:105D9000002008BD38B50D46D0F8F84D114628460C
:105DA0001A46049BA047002038BD38B50D46D0F8F0
:105DB000F44D114628461A46049BA047002038BDE2
:105DC0004FF04023C3F82405002070472DE9F0432D
:105DD000984683181646DA1D85B022F0070202AFF6
:105DE000ADEB020D0D4A8E46044692E803000DF11C
:105DF00008099BB287E80300009371464B46224690
:105E0000384615F057FF324609EB040140460EF0C4
:105E1000D5FA00200C37BD46BDE8F08354080400D5
:105E20002DE9F04384189046E21D85B022F0070268
:105E300002AFADEB020D02AE994605460246304672
:105E40000EF0BCFA4246494670190EF0B7FA084BFC
:105E500093E80300A2B287E803000092334631467C
:105E6000384615F027FF00200C37BD46BDE8F0830B
:105E70005408040070B54FF0A04403254FF40036D9
:105E8000C4F844574FF4FF70C4F80C6514F056FC86
:105E90000023C4F84457C4F80865C4F86037D4F840
:105EA0006037DB074CBFD4F80405D4F81005C0F305
:105EB000006080F0010058B1C4F844570220C4F8D3
:105EC0000C6514F03BFCC4F84457C4F80865E6E7D9
:105ED00000F0F0FD064E054632242846FEF725FE6A
:105EE000B04204D0012014F029FC013CF5D170BD72
:105EF0003001CADE704709B9FFF738BF70470000AC
:105F000008B551EC100B04A3D3E900230CF040FEBC
:105F10000DF0D2FA08BD00BF000000403333EF405F
:105F200037B500240D46694600948DF80440FEF70D
:105F3000DBFD9DF801209DF800309DF8041003EB77
:105F400002239DF8022003EB02439DF8032003EB9C
:105F50000263E01841F10001C5E9000103B030BD62
:105F600007B56946FFF7DCFF0098019B000A40EA8D
:105F7000036003B05DF804FB37B5144602A90022A4
:105F80001D46002361E90223FFF7CAFFDDE9002374
:105F9000A41A65EB0305DDE90623A41A65EB0305E6
:105FA000084AFF232B407F216FF48030994202EA98
:105FB000040208BF904226BF100C40EA03400020B4
:105FC00003B030BD0000FFFF10B50446FFF772FAC2
:105FD00094F89C3D3BB1002384F89C3D2046FFF79C
:105FE0003EFAFCF77DFC04F5616017F0CBFE002360
:105FF00084F89A3D94F8993D23F0200384F8993D64
:1060000010BD2DE9F04797B21FFA83F8894615466F
:10601000394642460446FEF700FE061E41DB94F870
:106020009C3DB3B3002642F2117A0136564523D087
:1060300000220F212046FEF761FD10F0100217D15B
:10604000142EF2D919212046FEF758FD00F47F00E6
:10605000B0F5003FE9D0B0F5802FE6D02046FFF73D
:10606000B3FF94F8993D43F0400384F8993D06E06E
:1060700042F210739E420CD12046FFF7A5FF01F0BB
:106080005DF910B1838D013383854FF0FF30BDE89A
:10609000F08743464A4639462046FEF7D5FC061EA1
:1060A0000BDA01F04BF910B1836A013383622046A9
:1060B000FFF78AFF3046BDE8F08794F89C3D3BB17E
:1060C000002384F89C3D2046FFF7C9F9FCF708FC43
:1060D0002846BDE8F087002A2DE9734F4FF00001F4
:1060E00073F100040546904699460A9E80F8991D72
:1060F00018DB7EB940F2851A4FF0000BCDE900ABFA
:10610000FFF73AFF30B901F019F930B3836A013370
:10611000836222E04FEA182141EA09612846FFF72D
:106120002AF9012126B1012341F0040185F89C3DA3
:106130002846FFF725F9044658B101F0FFF810B1E1
:10614000836A013383622846FFF73EFF4FF0FF3436
:1061500005E026B1FCF798FB01E06FF00104204652
:1061600002B0BDE8708FD0F8203E10B5002B044679
:10617000D4BF04F5616000F6186017F001FE94F8D2
:10618000993D9B0603D5B4F89634012B06D001F057
:10619000D5F830B1836A0133836202E0B4F8980421
:1061A00001E04FF0FF300023A4F8963494F8993DB5
:1061B00023F0200384F8993D10BD11F0010110B5C2
:1061C000044606D0110A41EA0361FFF7D4F8012121
:1061D0002046BDE81040FFF7A5B9F8B50C46069972
:1061E000054616461F4639B14FF47A73594340F2BB
:1061F0000243B1FBF3F189B2FFF7BBF914F00101DF
:1062000006D0310A41EA07612846FFF7B4F80121B8
:106210002846BDE8F840FFF785B900000438C0B251
:1062200030289ABF024B33F810000020704700BF9F
:1062300040090400000000002DE9F0432DED028B21
:1062400085B098460E9C231D064691460093002279
:1062500008230D461221FEF709FC072215213046BE
:10626000FEF767FC0022608010213046FEF746FCF6
:10627000E18862882389494302FB021203FB03235E
:1062800000EE103A000DA081B8EEC00A01F0F8F956
:10629000A3895B43B0EE408A00EE103AB8EEC00A24
:1062A00001F0EEF93C4B93ED027B38EE400AF2EE42
:1062B000048A8DED027B60EE287A17EE900A0CF0CE
:1062C00013FCDDE902230CF0AFFAC8E90001608994
:1062D0000CF0F8FB00224FF082430CF059FC0CF05C
:1062E0004FFF00EE100A01F0CBF9A3895B43B0EE3B
:1062F000408A00EE103AB8EEC00A01F0C1F938EE5B
:10630000400A60EE287A17EE900A0CF0EDFBDDE90A
:1063100002230CF089FA06460F46C9E900670246D7
:106320000B46D8E900010CF07FFA19A3D3E900234A
:1063300080468946304639460CF09CFE08B1002361
:1063400011E00022154B304639460CF06FFA024638
:106350000B460CF06BFA0CF0F3FEC0B23F2801D8EC
:10636000287001E03F232B700D4B00224046494628
:106370000CF094FE2B7810B143F0400301E063F081
:106380007F032B7005B0BDEC028BBDE8F08300BF2E
:106390000000000000405AC0F80B040000405A40C2
:1063A000000024C00000000038B506222DED028B4D
:1063B00012210446FEF7BDFB0222054610212046AD
:1063C000FEF7B7FBC0F30B1428460CF07BFB002252
:1063D0004FF082430CF0DCFB0CF0D2FE00EE100A12
:1063E00001F04EF904FB04F3B0EE408A00EE103ADF
:1063F000B8EEC00A01F044F938EE400AF2EE047A31
:1064000060EE277A17EE900A0CF06EFB124BD3E980
:1064100002230CF009FA0022104B04460D460CF042
:1064200047FE60B90AA3D3E90023204629460CF0B1
:1064300021FE38B9204629460CF05AFE04E06FF0E0
:10644000290001E06FF06800BDEC028B38BD00BF91
:106450000000000000405AC0F80B0400000045C0D6
:10646000002200F65451FEF785BC10B5044600F535
:106470005661FEF7BEFB94F85D1D2046BDE8104056
:10648000FEF79CBDF8B50D46002107461646FFF7FE
:106490005BFA044668B1C1B23846FFF7E9FAC4F3C3
:1064A000072186ED000A3846FFF7C6FA85ED000A97
:1064B000F8BD002333602B60F8BD00000000000031
:1064C0002DE9F0472DED028B002288B00023044611
:1064D0008846CDE90423CDE90623FDF763FB0028B8
:1064E00000F0D380D4F8803D002B00F0CE80B4F8CB
:1064F000843D002B00F0C980B4F9863D002B00F0EC
:10650000C48004A92046FFF70BFD17F0FFF9D4F86B
:10651000F03D82464FF000509847002303AA02A99D
:106520002046FFF7AFFF9DED038A18EE100A0CF02E
:10653000DBFA5BA3D3E900230CF0BAFD08B900260F
:1065400065E004F55966D6ED007AF5EE407ADDEDAA
:10655000027AF1EE10FA04F68C5708BFC7ED007A04
:1065600097ED007A08BF86ED008A77EEC77AB0EE25
:10657000007AF0EEE77AF4EEC77AF1EE10FA12DC68
:10658000D6ED007A38EE678AF0EEC87A17EE900AF8
:106590000CF0AAFA44A3D3E900230CF089FD10B94A
:1065A000B8F1000FCBD0B4F8841D2046FFF782FA73
:1065B0005FFA80F9B9F1000FC1D0DDED027AB4F9CC
:1065C000860DFDEEE77A04F69458CDED007A0CF0D6
:1065D00079FABDF90050CDE9000128460CF072FAB5
:1065E000D8ED002A9DED032A41EC100B9DED001B18
:1065F000D4F8801D94F8540DFFF700FB029B84F83B
:10660000609DC4F8640D3B60039B33600126D4F8A1
:10661000F03D4FF00040984706A92046FFF780FC68
:1066200017F074F9DDE906230746DDE90401121AC3
:1066300063EB0103104603F0FF010CF073FA1CA397
:10664000D3E900230CF0A4FACAEB0707804627F031
:106650007F40013089460CF025FA02460B46404641
:1066600049460CF0E1F80CF043FD07467EB104F515
:1066700056612046FEF7BDFAA4F8885D00F05EFE84
:1066800028B1C38B0133C38301E06FF00047384664
:1066900008B0BDEC028BBDE8F08700BFAFF300800F
:1066A0009A999999999901409A9999999999B93F83
:1066B0002A87AD890669F03E73B50379A1F896344F
:1066C0000679012E0C462AD1002569462046009500
:1066D0008DF80450FEF7F4F99DF801109DF8003094
:1066E00003EB01239DF8021003EB01439DF8031017
:1066F00003EB01639DF80410E81804F5576241F1BB
:106700000001C2E9000194F89D3DA4F896644BB1E4
:1067100014F06AF984F89D5DC4F8780D02E0052351
:10672000A1F8963494F8993D43F0200384F8993DFC
:1067300002B070BDF0B591F8295D02794FF488631D
:1067400003FB051385B083F8A128C288A3F8A2280B
:106750000379042B0C4600F09C800B2B00F0A080EA
:10676000022B91F8283D40F096801BB10021204675
:10677000FEF7D8FE94F89D3D33B114F035F90023AF
:10678000C4F87C0D84F89D3D002702A9204602979D
:106790008DF80C70FEF79EF99DF809109DF80830F1
:1067A00003EB01239DF80A1003EB01439DF80B1046
:1067B0004FF4886603EB01639DF80C1006FB05425D
:1067C000F81841F1000102F6A80ECEE90001B2F876
:1067D000A218A2F8A418B4F82C3D1BB1994288BFA6
:1067E000A2F8A2386E43A21906F594610023B2F80C
:1067F000A22821442046FEF759F994F89B3D012B2D
:1068000012D106F50D6306F6C80206F6D80106F5A4
:106810000B66264423440096224421442046FFF779
:106820000BFD002384F89B3D94F89E3D012B4FF413
:10683000886607D12046FFF7B7FD06FB054686F8B8
:10684000D90804E006FB0546002386F8D9384FF442
:10685000886303FB054393F8A024C52AB3F8A22854
:1068600008D10C2A01D11F2210E00E3A202A0CD8A0
:1068700020220BE0052A08D194F8272D93F8A214C2
:1068800091420CBF1E221D2200E0022283F8A128A3
:1068900006E091F8283D1BB100212046FEF742FE9C
:1068A00094F8292D012303FA02F294F8993D134339
:1068B00084F8993D002384F89E3D05B0F0BD38B5BD
:1068C00090F89F5D04461DBB012380F89F3DD0F8E2
:1068D000040E15F0D7FED4F8043E4FF0A04203F5A5
:1068E000E073022142F8231020462A464FF0FF3180
:1068F000FEF776FE204605224FF40C61FEF708FAFB
:10690000D4F8003E98472046BDE83840FEF7FEB96F
:1069100038BD0000D0F8FC3D10B50446984720462D
:10692000FEF703F9234B98423DD12046FEF7AEFF18
:1069300000212046FFF7DFFA40F608012046FEF767
:1069400083FC98BB2046FEF7F0F8C4F84C0D2046B7
:10695000FEF752F8C4F8480D2046FEF750F8012221
:10696000C4F8500D14492046FEF73AFEFDF790F9A1
:1069700018B101212046FEF770FB2046D4F8E82D1F
:10698000D4F8EC1DFEF764FB0020802384F8993DC9
:1069900084F8A10841F2883384F8E10C84F89A0D58
:1069A000A4F8243D10BD4FF0FF3010BD6FF0010082
:1069B00010BD00BF3001CADE80D023341FB54FF0B8
:1069C00080530446196E586E00220A430346CDE9EF
:1069D00000239DE8030002AB83E80300D4F8482DB0
:1069E0009DF80A108DF80820100A01F0F001C2F39A
:1069F00003420A438DF80A20CA228DF80E20DE22B7
:106A00008DF809008DF80F2003CBC4F8360DC4F8BB
:106A10003A1DD4F8361D204689B2FEF730F94FF002
:106A2000FF33A4F83E3DA4F8403DA4F8423DA4F84D
:106A3000443D04B010BD0346D0F8360DD3F83A1DDE
:106A4000704730B590F8993D9A0606D523F020039B
:106A500080F8993D90F8960430BD032103EA0104C3
:106A6000F4B101391CD090F82A2D013202F0010254
:106A700043FA02F5ED0780F82A2DF1D50121914066
:106A800023EA010380F8993D4FF488635A4302F5E5
:106A9000946303440244C0F8203D92F8A10830BD3D
:106AA0001A0643BF03F07F0380F8993D8020002041
:106AB00030BD00000028024818BF0020704700BF0A
:106AC000085F0020F0B5044687B0FFF75EF9D4F800
:106AD000F03D4FF0005098472046FFF71BFF051E82
:106AE0001DDA17F033F94FF47A74A0FB046704FB46
:106AF000017764220023304639460CF09FFC214B7D
:106B00000393214B029340F23C4301931F4BB0FB94
:106B1000F4F1009304951E4B04FB110228E0D4F815
:106B2000F03D4FF000409847D4F84C2D194B9A4255
:106B300024D017F00BF94FF47A75A0FB056705FB1D
:106B4000017764220023304639460CF077FCD4F8F4
:106B50004C3D04930B4B03930B4B029340F2454384
:106B600001930A4B00930A4BB0FBF5F105FB1102B0
:106B700009480DF019FD4FF0FF3000E0002007B08C
:106B8000F0BD00BFD5090400DB090400A209040020
:106B9000AE0904003001CADEB209040000000000A2
:106BA0002DE9F04F90F8553D012B95B0044604D0E7
:106BB000022B0CBF4027002700E0102794F8560D49
:106BC000FFF72CFB94F8573D032B9CBF884A12F823
:106BD000038094F85B3D88BF4FF00008022B9CBFF8
:106BE000844A32F8139094F85C3D824688BF4FF097
:106BF00000092BB1804A814E032B18BF164600E0D6
:106C00007F4E17F0A3F84FF47A75A0FB05BC05FB87
:106C100001CC61466422002358460CF00FFC94F826
:106C20005D3D0B93B4F85E3D0A9394F85A3D07938B
:106C300094F8593D069394F8583D059394F8543DC3
:106C40000193704BB0FBF5F1099605FB1102CDF8ED
:106C50000CA002970093CDF820906B4BCDF81080DC
:106C60006A480DF0A1FC17F071F8A0FB056705FB61
:106C7000017730463946642200230CF0DFFBB0FB7D
:106C8000F5F605FB1607D4F8645D94F860AD4FEA9D
:106C9000557BBBF1070F4FEA156018D000F01F00BD
:106CA0000BF000FF00225A4B0BF072FF80460BEBFB
:106CB0004B00C0F1120089460BF0F4FE02460B4671
:106CC000404649460BF0B2FDCDE90E0103E09FEDD1
:106CD000467B8DED0E7BC5F3425BBBF1070F4FEAA0
:106CE000154018D000F01F000BF0DCFE0022484BCE
:106CF0000BF04EFF80460BEB4B00C0F112008946B3
:106D00000BF0D0FE02460B46404649460BF08EFD86
:106D1000CDE9100103E09FED347B8DED107BC5F3D1
:106D2000423BBBF1070F4FEA152018D000F01F00BF
:106D30000BF0B8FE0022364B0BF02AFF80460BEB1F
:106D40004B00C0F1120089460BF0ACFE02460B4628
:106D5000404649460BF06AFD8046894603E04FF005
:106D600000084FF00009C5F3421BBBF1070F16D016
:106D700005F01F000BF096FE0022254B0BF008FFDC
:106D8000CDE912010BEB4B00C0F112000BF08AFEB3
:106D900002460B46DDE912010BF048FD01E0002040
:106DA00000219DED107BB4F9863D0D938DED067BA2
:106DB0009DED0E7BB4F8843D0C93124B0093CDE90E
:106DC0000A01CDE908898DED047B0295CDF804A078
:106DD0000D4B10483A4631460DF0E6FB15B0BDE8C4
:106DE000F08F00BFAFF30080000000000000000043
:106DF000EA0B0400EE0B0400E7090400E3090400B9
:106E0000DF090400DB09040000FE0300EA090400B6
:106E10000000E03F4B0A04002DE9F043384C394EA6
:106E200087B0002847D02046FFF7BAFE16F08EFF45
:106E30004FF47A75A0FB058905FB019964220023B4
:106E4000404649460CF0FAFA8046FCF705FFB8FBCD
:106E5000F5F1B4F8683D0593B4F86A3D0493002752
:106E600094F88B3D039305FB1182274B02908DE82C
:106E7000C00026480DF098FB16F068FFA0FB0589BE
:106E800005FB019964220023404649460CF0D6FADE
:106E9000D4F8503D0493D4F8483D0393D4F84C3DC6
:106EA000B0FBF5F1029305FB11028DE8C000164B13
:106EB00017480DF079FB16F049FF4FF47A75A0FBE7
:106EC000058905FB019964220023404649460CF0E0
:106ED000B5FAD4F83A3D0393B4F8343DD4F8362DDE
:106EE00002930023B0FBF5F10492019305FB11021C
:106EF0000096054B07480DF057FB07B0BDE8F0833F
:106F0000085F0020DB09040000FE0300B00A040053
:106F1000F10A0400290B040018B100F6086016F00D
:106F200033BF7047F0B58BB0FCF73EF9054608B9A2
:106F3000002407E10020FFF7BDFD04460028F7D03C
:106F400040F6286200210DF0D3FA904BC4F8F03DD2
:106F50008F4BC4F8F43D8F4BC4F8F83D8E4BC4F80A
:106F6000FC3D8E4BC4F8003E1323C4F8043E8C4B0A
:106F7000C4F8E83D8B4BC4F8EC3D2B7884F8543DC5
:106F80006B7884F8553DAB7884F8563DEB7884F8FF
:106F9000573D6B7984F8583D2B7984F8593DAB798E
:106FA00084F85A3DEB7984F85B3D2B7A84F85C3D9C
:106FB000AB89A4F85E3D6B7A84F85D3D2046FFF70F
:106FC00081FD0028B4DB06AD2B460DF1160205A9A4
:106FD00008A8FCF70FF9002813DA00950DF1160345
:106FE00005AA08A92046FEF783FE002809DA6E4BA1
:106FF0000893C0238DF814300023ADF81630ADF897
:107000001830BDF81610089B9DF81420A4F8841DB4
:10701000BDF81810A4F8861DC4F8803D84F88A2DA8
:1070200084F8602DC4F8643D07A90DF11A00FCF73F
:1070300013F9002814DAFCF76FFD07AA0DF11A0105
:1070400018B12046FEF743FE02E02046FEF72EFE72
:107050000028BEBF44F25803ADF81A30ADF81C301A
:10706000BDF81A30A4F86A3DBDF81C30A4F8683D9C
:107070000DF11500FCF706F9002809DA0DF11501EC
:107080002046FEF761FE0028BCBF0F238DF81530A7
:107090009DF8153084F88B3D0DF11E00FCF702F9C8
:1070A00018B9BDF81E30A4F8343D2046FFF7D8F9D2
:1070B0002046FFF7DAF9B4F86A1D2046FDF77FFD98
:1070C000B4F8681D2046FDF774FD94F88B1D20462A
:1070D000FEF71DFCB4F8341D2046FDF7CBFD20461D
:1070E000FFF76CFCFCF77AFD0146204600F0F0F853
:1070F000002104F6086016F03FFE002104F56160EF
:1071000016F03AFE002104F6186016F035FE002352
:1071100094F8040E254A00930121234615F0FCFB48
:107120001020FBF7F9FE30B18378042B03D1D0F89F
:107130000300099001E01E4B099304F69453099A49
:107140001A60FCB916F002FE4FF47A75A0FB0567D1
:1071500005FB017764220023304639460CF06EF9B6
:10716000144B0293D6230193134BB0FBF5F100931C
:1071700005FB11020394114B11480DF015FA4FF065
:10718000FF3000E000200BB0F0BD00BFC15D020089
:10719000CD5D0200215E0200755E0200F55E020018
:1071A00035670200B966020085654525196F020042
:1071B00048E13AC0DB090400080C0400AE090400F1
:1071C000160C0400F8B54FF0A0440323C4F8603750
:1071D0004FF08073C4F80C350220002513F0AEFA8E
:1071E000C4F86057FFF79EFEA8423EDB2846FFF733
:1071F00061FC1E4B012205461A6000F60866304607
:1072000016F0BEFD01270021D5F8042E02F5E0732B
:1072100054F82330DB0709D5D4F8043507FA02F017
:107220000340D34014BF0123002304E0D4F81035F9
:10723000D34003F0010323B12846FEF707FA0121EA
:10724000E2E749B1D5F8203E002BCCBF05F6186027
:1072500005F5616016F098FD00F070F810B18369D3
:1072600001338361FBF7EEF8C9E7F8BDDC6D002060
:107270001FB5094B0393094B02934FF4C06301936D
:10728000074B00930022074B0749052016F06EFCC0
:1072900005B05DF804FB00BF306D0020D86D002004
:1072A000E06D0020DB090400C5710200014B186885
:1072B00016F084BCD86D002010B5044C236823B9A7
:1072C0000220002116F08EFCF8E710BDDC6D0020D6
:1072D00041230370882310B5437009B1492303701B
:1072E00090F8273DD0F83E4DA0F805400133DBB2C1
:1072F000422480F8273D8370B0F8343DA0F8033075
:1073000080F80144D0F8363DD0F83A2DA0F8073087
:10731000882480F8024411B14A2180F80114C52163
:1073200080F80614C0F80834C0F80C2480F8121451
:10733000C0F81434C0F8182410BD0000004870478D
:10734000E0730020C42200210DF0D2B8836A426AA3
:10735000B0F848101A44D0F8A8301A44436E1A44C2
:10736000836E1A44036F1A44836F1A44D0F888302E
:107370001A44D0F898301344828D1344028F13447A
:10738000428F1344B0F84C200B441A44B0F85030EC
:10739000808A13441844704770B5044601688148D8
:1073A0000DF002F9A0680BF09FFB02460B467E48E9
:1073B0000DF0FAF8218A7D480DF0F6F8618A7C48D4
:1073C0000DF0F2F8A18A7B480DF0EEF894F90D105B
:1073D00079480DF0E9F8A17B78480DF0E5F894F9CB
:1073E0000F1077480DF0E0F8A16976480DF0DCF851
:1073F000A18B75480DF0D8F8E18B74480DF0D4F8E6
:10740000216A73480DF0D0F8616A72480DF0CCF82B
:10741000A16A71480DF0C8F8A18D70480DF0C4F84C
:10742000E16B6F480DF0C0F8618F6E480DF0BCF84D
:10743000216C6D480DF0B8F8216B6C480DF0B4F874
:10744000218F6B480DF0B0F8616B6A480DF0ACF815
:10745000B4F8461068480DF0A7F8B4F8441067482F
:107460000DF0A2F8B4F8481065480DF09DF8B4F896
:107470004A1064480DF098F8B4F84C1062480DF0CA
:1074800093F8B4F84E1061480DF08EF8B4F852102D
:107490005F480DF089F8B4F850105E480DF084F89C
:1074A000B4F854105C480DF07FF8E18A5B480DF0A9
:1074B0007BF8A16D5A480DF077F8E16D59480DF051
:1074C00073F8B4F8561058480DF06EF8B4F8601020
:1074D00056480DF069F8B4F8621055480DF064F89C
:1074E000616E54480DF060F8A16E53480DF05CF8E1
:1074F000E16E52480DF058F8216F51480DF054F8E4
:10750000616F50480DF050F8A16F4F480DF04CF8E6
:10751000E16F4E480DF048F8D4F880104C480DF05B
:1075200043F8D4F884104B480DF03EF8D4F8881096
:1075300049480DF039F8D4F88C1048480DF034F86B
:10754000D4F8901046480DF02FF8D4F89410454820
:107550000DF02AF8D4F8981043480DF025F8264687
:10756000E18D42480DF020F8D4F8A41040480DF009
:107570001BF856F8A81F3F480DF016F8002556F8DE
:10758000043F3D4829461A4601350DF00DF8062DF9
:10759000F5D12046FFF7DAFEBDE8704001463748D6
:1075A0000DF002B83E0C04004A0C04005C0C040010
:1075B0006C0C04007C0C0400890C0400960C040084
:1075C000A70C0400B70C0400C60C0400D40C040083
:1075D0004F0D0400E20C04003E0D0400EE0C04000C
:1075E000FB0C04000A0D04001A0D0400290D040010
:1075F000390D04004A0D04005A0D0400680D040002
:10760000760D0400830D0400930D0400A40D040006
:10761000B40D0400C30D0400D30D0400E20D0400FA
:10762000F00D0400FB0D0400080E0400130E04000E
:10763000270E04003B0E04004A0E0400590E0400FD
:10764000670E0400760E0400840E0400960E0400FB
:10765000A80E0400BA0E0400CC0E0400990E04001B
:10766000AB0E0400BD0E0400DB0E0400E80E0400A7
:10767000F40E0400000F04000D0F0400200F04009E
:10768000B8EE407ADFED057A9FED050AA7EE270AEE
:10769000DFED047A20EE270A704700BF00000034B7
:1076A000A9E2FDC29B209A3E2DE9F041B1F100080C
:1076B000044616462CDD002A2ADD751C20220021F6
:1076C0006D000CF015FF28460CF07EFB0746A0610C
:1076D00010B32A4600214FEA88050CF009FF28461E
:1076E0000CF072FB606130B938460CF075FB6FF03E
:1076F0000200BDE8F0812A4600210CF0F9FE204688
:1077000016F054FBA4F81C80E6830020BDE8F0814D
:107710004FF0FF30BDE8F0816FF00100BDE8F0816F
:10772000C28B01322DE9F0415200054600218069EB
:107730000CF0DEFE00242646A046AB8B9C4212DAFB
:107740006B6953F82430A7005BB1586808B10CF09E
:1077500043FB6B69D8590CF03FFB6B6943F807801A
:1077600001360134E9E73046BDE8F0812DE9F84300
:107770000F469046054610B90020BDE8F883002961
:10778000FAD0002AF8DD8269C38B168832F81330EC
:10779000F1430B44818B01390B401BB2002BEBD022
:1077A000446908200CF010FB44F826006C6954F87A
:1077B0002690B9F1000FDFD040460CF005FBC9F868
:1077C000040054F82600446894B1A0F800804246B2
:1077D000394620460CF0F2FD6B69A96953F8260082
:1077E0000B885A1CAB8B013B13400B80BDE8F88320
:1077F0000CF0F2FA6B6943F82640BDE710B5A8B16A
:10780000C38B8B420FDD836903EB410233F81130E8
:1078100054881A1B838B013B13401BB22BB1436965
:1078200053F8240010BD002010BD184610BD30B51F
:10783000E8B1C38B8B421ADDE2B98369808B03EB1D
:10784000410433F811306588013800B25B1B0340F6
:107850001BB28BB90139224600290BDB32F8023DFD
:1078600054881B1B03401BB243B90139F4E74FF0A6
:10787000FF3030BD002030BD104630BD012030BD8E
:1078800070B5044658B3C28B8A4228DD4D00836927
:10789000023533F811005E5BA38B801B013B18405F
:1078A00000B2F0B101318A4210D1636953F8263039
:1078B00063B1586808B10CF08FFA636953F8260079
:1078C0000CF08AFA6369002243F82620A1694B5B19
:1078D0005A1CA38B013B13404B53002070BD4FF04B
:1078E000FF3070BD08B5FFF7E7FC044A13680133A9
:1078F000136006F005FB06F0CFFAFAE7B48000202B
:10790000F0B5374C85B04FF49D62002120460CF055
:10791000EFFDFCF789F848B14FF4F8700CF054FA19
:107920004FF4F872C4F8E00400210DE0FCF7BCF855
:107930000546FCF7A9F80543EED1E0200CF044FA27
:10794000E022C4F8E00429460CF0D2FDD4F8E0347B
:10795000F3B916F0FBF94FF47A75A0FB056705FB48
:10796000017764220023304639460BF067FD1D4B3A
:1079700003931D4B0293342301931C4BB0FBF5F191
:10798000009305FB11021A4B1A480CF00DFE04E09F
:107990001948134B836201F037F806F077FA06F0C6
:1079A00087FAFFF789FC0020FFF784F8134A136871
:1079B00001330546136000F561662846FFF741F87C
:1079C00085F89A0D18B10C4800F05EF8F5E7D4F888
:1079D000843003B19847304616F0D2F9EDE700BF86
:1079E000709E00204A0F0400510F0400650F040030
:1079F000AE0904002D0F0400449E0020B480002036
:107A00002DE9FF41124B134E134D144C00274FF438
:107A1000C0681F60FCF7D0F90396029500943A46BF
:107A2000CDF804800E4B0F490520A8360435444498
:107A300016F09CF803960295CDF8048000940A4B4A
:107A40000A493A46062016F091F804B0BDE8F081E4
:107A5000B4800020C0800020B8800020B4740020D2
:107A6000560F0400017902005D0F0400E578020062
:107A700010B5044C206816F0A1F86068BDE810400D
:107A800016F09CB8B880002038B504460020FFF7F7
:107A900011F800210546236A204698470146002830
:107AA000F9D185F89A0D38BD03460020586018605A
:107AB000C3F807109A717047F8B5056804460026A8
:107AC000A3889E420BDA55B1686C2F6C08B10CF09C
:107AD00083F928460CF080F901363D46F0E7002393
