:020000022000DC
:1060000000000120F1AA020019AB0200DD780200B5
:106010001DAB02001FAB020021AB0200000000001C
:1060200000000000000000000000000023AB0200A0
:1060300025AB02000000000027AB020029AB0200E4
:10604000BD8E02002BAB020061930200A99B0200EF
:10605000819602002BAB0200D1910200D194020084
:10606000799B0200899B02002BAB02002BAB020044
:106070002BAB02002BAB02002BAB02002BAB0200C0
:106080002BAB0200197402002BAB02002BAB0200F9
:10609000B57402002BAB0200D9A402002BAB0200A6
:1060A0002BAB02002BAB02002BAB02002BAB020090
:1060B000899402002BAB02000000000000000000E9
:1060C0002BAB020099940200A99402002BAB0200B2
:1060D0002BAB02002BAB02002BAB02000000000038
:1060E00000000000000000000000000000000000B0
:1060F00000000000000000000000000000000000A0
:10610000000000000000000000000000000000008F
:10611000000000000000000000000000000000007F
:10612000000000000000000000000000000000006F
:10613000000000000000000000000000000000005F
:10614000000000000000000000000000000000004F
:10615000000000000000000000000000000000003F
:10616000000000000000000000000000000000002F
:10617000000000000000000000000000000000001F
:10618000000000000000000000000000000000000F
:1061900000000000000000000000000000000000FF
:1061A00000000000000000000000000000000000EF
:1061B00000000000000000000000000000000000DF
:1061C00000000000000000000000000000000000CF
:1061D00000000000000000000000000000000000BF
:1061E00000000000000000000000000000000000AF
:1061F000000000000000000000000000000000009F
:1062000010B5054C237833B9044B13B10448AFF3F0
:1062100000800123237010BD90A200200000000028
:106220004427030008B5034B1BB103490348AFF3F0
:10623000008008BD0000000094A200204427030055
:10624000154B002B08BF134B9D46A3F5803A002148
:106250008B460F461348144A121A05F0BFFB0F4B2A
:10626000002B00D098470E4B002B00D09847002001
:10627000002104000D000D48002802D00C4807F052
:1062800031FD04F087FF2000290000F009FE04F032
:106290004DFC00BF000008000000012000000000CD
:1062A0000000000090A2002040B20020E5DC0200C7
:1062B0008DEC0200014B01221A707047AEA2002043
:1062C000014B02221A707047AEA200201FB50430A5
:1062D000CDE90012029300229DF81830039369461D
:1062E00003F06CFB05B05DF804FB000008B5034843
:1062F00005F0D0FB024B01221A7008BDD30D03003C
:106300004CB0002030B5C5B060F07F000D4C8DF86A
:106310000C000DF10D00154605F0C6FA00231A46D3
:106320000949206801F024FD00236A1C0093D2B2C1
:1063300003A92068FFF7CAFF2068043003F0E0FAE1
:1063400045B030BDB4A2002068B1002070B5114C3A
:10635000C4B0002315460E468DF80B001A460E49B0
:10636000206801F005FD6B1CDBB20DF10B01009301
:10637000012203AB2068FFF7A9FF2068043003F077
:10638000BFFA2A460DF10D01304605F08DFA44B0F2
:1063900070BD00BFB4A2002068B1002038B5054D23
:1063A000044645F001054FF47A40A847013CFAD174
:1063B00038BD00BF400D0300024A00231370024A9B
:1063C0005370704778B1002060B0002010B5C6B09F
:1063D00060F07F000F4C8DF80F108DF814000DF158
:1063E0000F0101220DF1150005F05EFA00231A4697
:1063F0000949206801F0BCFC00230093022205A992
:106400002068FFF763FF2068043003F079FA46B094
:1064100010BD00BFB4A2002068B10020172810B53D
:10642000044612DC042812DD142811DD07214D205A
:10643000FFF7CCFF033C64B2611F61F07F01C9B27A
:106440000920BDE81040FFF7C1BF1724EEE705247F
:1064500004214D20FFF7BAFFEEE7000010B5054C10
:106460002378022B05D001210846FFF7AFFF022356
:10647000237010BD7AB1002010B5074C2378042B8F
:1064800009D005210120FFF7A1FF00214020FFF7DF
:106490009DFF0423237010BD7AB10020114B5A7860
:1064A000032A1ED9104AD97811701049187908703A
:1064B0000F495879087099790E4B19700E4B1B785B
:1064C0003BB90E4913780978994202D01378FF2B13
:1064D00007D10B4A138801339BB21380094B012269
:1064E0001A70704760B0002049B0002079B10020D8
:1064F00065B100208EB100204DB0002062B10020B7
:1065000060B1002078B1002008B5064B1B78032B42
:1065100005D0FFF7B1FF044B1878C0B208BD0020CA
:10652000FCE700BF7AB1002078B1002070B50646C4
:106530000C46FFF7E9FF054680B16EB164B1084B28
:1065400022785B78D91E9142DCBF043B237022780D
:106550000449304605F0A8F9FFF72EFF284670BD24
:1065600060B0002064B00020B2F5807F01D8FFF752
:10657000C9BE7047B2F5807F01D8FFF7E7BE70470C
:1065800010B50D4C0D4986B000238DF80F001A464A
:10659000206801F0EDFB02230093012205AB0DF111
:1065A0000F012068FFF792FE2068043003F0A8F97D
:1065B0009DF8150006B010BDB4A2002068B10020FF
:1065C00010B51220FFF7DCFF204B1A78042A28D1DF
:1065D000410626D51320FFF7D3FF04461020FFF70E
:1065E000CFFF01460D20FFF7F1FE2246184900209B
:1065F000FFF7C0FF174BFF2112201C70FFF7E6FECC
:10660000FFF74CFF144B1B780BB1FFF727FFFF215F
:106610001220FFF7DBFEFF211220BDE81040FFF73C
:10662000D5BE1A78032A07D1020705D50B4A13886D
:1066300001339BB21380E8E71B78052BE7D14307B2
:10664000E5D5074B00F001001870DEE77AB10020B5
:1066500060B0002048B0002078B100204EB000208B
:1066600063B1002010B5074C2378032B09D0032118
:106670000120FFF7ABFE40210846FFF7A7FE0323EA
:10668000237010BD7AB1002010B510EE100A2DED68
:10669000028BB0EE408A09F051FE17A3D3E9002324
:1066A00009F0A4FE16A3D3E9002309F0C9FF0AF0FC
:1066B00075F90446C0F307410620FFF787FEC4F3CF
:1066C00007210720FFF782FE0820E1B2FFF77EFED8
:1066D000DFED077A074BB4EEE78AF1EE10FAACBFB4
:1066E000012200221A70BDEC028B012010BD00BFF8
:1066F00000C04244AA9800200000000080842E417F
:106700000000000080844E40024A1378032BFCD026
:10671000012070477AB1002010B5010A04462020FC
:10672000FFF754FEE1B22120BDE81040FFF74EBE56
:1067300008B580210120FFF749FE0A20FFF72EFE51
:106740000120FFF71DFF802815D100210E20FFF743
:106750003DFE00210F20FFF739FEFFF77FFE0820E6
:10676000FFF7DAFF9FED050AFFF78EFF0D20FFF719
:1067700055FE012008BD0020FCE700BF00C06444B6
:10678000FB2938B505460C462CD8FFF7BDFFFFF7AF
:1067900065FE00210D20FFF719FE134B002019782C
:1067A000FFF714FE114B00201978FFF70FFE104B76
:1067B00000201978FFF70AFE0E4B00201978FFF72A
:1067C00005FE224629460020FFF7CEFE211DC9B254
:1067D0002220FFF7FBFDFFF745FF074805F05AF9B8
:1067E000012038BD0020FCE7A9980020A8980020CF
:1067F000ADA20020ACA20020550F0300F8B50C4F4D
:1068000006460024B44201D300250FE0C820FFF75C
:10681000C5FD384605F03EF9FFF776FEC834A4B250
:1068200005460028EED0034805F034F92846F8BDA7
:106830005D0F03006A0F030030B52C48C7B005F0A8
:1068400029F92B4B02AA03F1080518685968144668
:1068500003C40833AB422246F7D118689B88A38053
:10686000244B2060B3F90000421C1A800DF1150181
:106870000A220024CDF81640ADF81A4004F0CAFCF4
:106880001D488DF81B4005F005F90A20FFF786FD2D
:10689000142102A8FFF774FF184805F0FBF80A203E
:1068A000FFF77CFDFFF730FFFB2315488DF807301D
:1068B00005F0F0F84FF47A70FFF7A0FFA0B10DF1EA
:1068C000070107A8FFF732FE50B10E4805F0E2F8C5
:1068D00007A90D4805F0DEF80C4B1C7047B030BD21
:1068E0000B4805F0D7F8F9E70A48FAE7B80E0300B5
:1068F000F80C0300B0A20020F60D0300020E030006
:10690000250E03003B0E0300460E0300AEA200203E
:106910004A0E03005A0E030030B52F48C7B005F0E9
:10692000B9F82E4B02AA03F10805186859681446F5
:1069300003C40833AB422246F7D1186899889B7983
:10694000A371274BA1802060B3F90000421C1A807C
:106950000DF115010A220024CDF817408DF81B40D7
:1069600004F058FC1F488DF81B4005F093F80A20EE
:10697000FFF714FD142102A8FFF702FF1A4805F0E3
:1069800089F80A20FFF70AFDFFF7BEFEFB23174830
:106990008DF8073005F07EF84FF4FA70FFF7FEFC33
:1069A0004FF47A70FFF72AFFA0B10DF1070107A895
:1069B000FFF7BCFD50B10E4805F06CF807A90D4873
:1069C00005F068F80C4B1C7047B030BD0B4805F063
:1069D00061F8F9E70A48FAE7950E03000C0D030089
:1069E000B0A20020F60D0300020E0300250E0300E6
:1069F0003B0E0300460E0300AEA200204A0E030029
:106A00005A0E03000144884200D1704703785B00AE
:106A100000F8013BF7E70000F0B585B0344B039375
:106A20000421074603A8FFF7EDFF0024314805F0D5
:106A300031F800942346042203A93846FFF746FCA8
:106A400005462D4805F026F8002D40D02B4A4FF47E
:106A50005C71284600F08CFC204605B0F0BD26B1E4
:106A6000264A40F279313046F4E70A20FFF796FCD7
:106A700032463146009502AB3846FFF727FC064602
:106A80009DF80840002CEAD021469DF809201C48BA
:106A900005F000F89DF8080004F03EFC9DF8083071
:106AA000009300220446034611463846FFF70EFCC9
:106AB00030B1124A40F2833100F05AFC0024CBE797
:106AC000A378627821780F4804F0E4FFC4E7022439
:106AD000094804F0DFFF2A46294602AB00943846F5
:106AE000FFF7F4FB0646084804F0D4FF2546C7E745
:106AF0000502DE004A0D03004D0D0300500D03009A
:106B0000660D0300630D03006D0D03002DE9F047D2
:106B1000ADF5047D0C239E4EADF8103000231A46CF
:106B20009C4900240546306801F022F900940222B5
:106B3000234604A93068FFF7C9FB0246002840F04D
:106B400024810224009403AB11463068FFF7BEFB9A
:106B50009DF80C10074681B39DF80D208E4804F077
:106B600099FF9DF80C300093002244AC2346114657
:106B70003068FFF7ABFB0746207805F041F9804607
:106B8000E7B9DFF81CA2A1469DF80C309F421EDB3E
:106B9000824804F07FFF1FFA88F84FF47A70FFF7FD
:106BA000FDFBB8F1140F19D83068043002F0A8FECC
:106BB00001200DF5047DBDE8F0870FB10020F8E756
:106BC0000A20FFF7EBFB009403AB3A46BCE719F849
:106BD000011B5046013704F05DFFD5E7E378412BF8
:106BE00026D1A17963792A6803EB0123E17903EBCC
:106BF0000143217A03EB01631360A17A637A2A6867
:106C000003EB0123E17A03EB0143217B03EB0163F7
:106C10005360A17B637B2A6803EB0123E17B03EBD9
:106C20000143217C03EB016393602B68627C1A7340
:106C3000A37C3068482B00F104003BD194F814C0C9
:106C400085F804C0002185F86C1005F1240805F1D1
:106C50005C0E15270635CBB29C45FAB202D802F07D
:106C60004FFEABE700239946D618F6B24FEAC30AA7
:106C7000A65D013306FA0AF64E44082B1FFA86F980
:106C8000F2D10832002325F8029BD2B21E4602F14F
:106C90000109A25C9A400833202B16445FFA89F25E
:106CA000F5D1E31948F8046B1B7B0EF8013B013169
:106CB0000D37D0E7492B7FF479AF217D297185F815
:106CC0006C1005F1240E05F15C0C05F1060805EBCE
:106CD00001111523A942C2D05A1CD2B203F10209F4
:106CE000A65CE25C02EB0626002228F8026B5FFA43
:106CF00089F9164614F809709740083209F1010A1B
:106D0000202A3E445FFA8AF9F4D14EF8046B9A1DAA
:106D1000DE1DF6B2D2B2A719A25C0CF8012B97F8CF
:106D20000190A25DBE7802EB092202EB0642FE78DA
:106D300002EB066203F10B06F6B2A7192A6797F871
:106D40000190A25DBE7802EB092202EB0642FE78BA
:106D500002EB066203F10F06F6B2A7196A6797F80D
:106D60000190A25DBE7802EB092202EB0642FE789A
:106D700002EB0662AA6703F11302D2B21433A25CDB
:106D800085F87C20DBB21035A4E7204611E700BF70
:106D9000B4A200207CB10020660D03003519030069
:106DA000460D03002DE9F04FDFB006AB33480A93E0
:106DB00004F070FE0AA8FFF7A9FE00F0BFF9304CFE
:106DC00006460021204605F089F8002E31D10A9BA5
:106DD0002C481A7B04929A6803925A6802921B68A4
:106DE0000193A3680093D4E9002304F053FE0A9BA7
:106DF00025481A7B04929A6803925A6802921B688B
:106E00000193A3680093D4E9002304F043FEDFF864
:106E100088A0DFF888B00DF14C0821AF0AAC0DF165
:106E20002E0935469DF82C30AB4206DC174804F09D
:106E300031FE30465FB0BDE8F08F2946144804F0BB
:106E400029FE39F8021B504604F024FE9DF89430C8
:106E5000AB4208DD94F87C300093D4E91D23216F08
:106E6000584604F017FE17F8012B58F8041B094880
:106E700004F010FE01351034D4E700BF700D03009C
:106E800050B00020830D03009F0D0300351903004F
:106E9000BA0D0300C80D0300BF0D0300AC0D0300C5
:106EA000F0B54FF4004189B0002001F00BFB20B198
:106EB000624A40F2C34100F05BFA01F027FA6048F1
:106EC00004F0E8FD02F066F820B15C4A40F21531AA
:106ED00000F04EFA40F201336D46ADF80030594AE9
:106EE0000223294603208DF8023002F08BF8564A1F
:106EF0002946172002F086F820B1504A4FF4477116
:106F000000F036FA40F2023304ACADF810304F4ACC
:106F1000022321460D208DF8123002F073F84C4AFE
:106F200021460E2002F06EF820B1444A40F223318F
:106F300000F01EFA0121032002F0EEF801210D20DD
:106F400002F0EAF801210E2002F0E6F8414E424F2D
:106F50000121172002F0E0F8404B3B6096E80F005B
:106F6000103685E80F0096E80F0084E80F0095E8DA
:106F70000F003B4E3B4D86E80F0094E80F004FF0AA
:106F8000A04485E80F004FF000464FF00065C4F8BC
:106F900018653548C4F81855C4F80865C4F808558C
:106FA00004F078FDC4F80C650A20C4F80C55FFF70E
:106FB000F5F9C4F808650A20C4F80855FFF7EEF99A
:106FC000FFF7B6FB18B9294804F064FDFEE728482E
:106FD00004F060FD9FED270AFFF756FB18B926481D
:106FE00004F058FDFEE71720FFF718FA3868234E23
:106FF000FFF712FD05462B78402B14D1AB7893B9DF
:107000001F4C2546FFF7CEFE4FF47A70FFF7C6F906
:107010002378012B01D1FFF70FFC2B78022BF1D144
:10702000FFF77AFCEEE7304604F034FD284604F022
:107030007BF93868FFF7F0FC0546DCE7500D0300EC
:10704000DA0E0300C1650200ED620200B5620200C3
:10705000C1620200200D0300B4A20020AC98002001
:1070600068B100207CB10020EC0E0300030F030088
:107070001B0F030000C06444300F0300450F0300E2
:10708000AEA200202DE9F0410746224E224D0028F5
:107090003AD13368214801333360214CDFF89880BE
:1070A00004F0F8FC226801322260D8F80020A2B96E
:1070B0001C4804F0EFFC22681B48052104F0EAFCA0
:1070C00032681948052104F0E5FC2A6817480521B3
:1070D00004F0E0FC0123C8F80030154804F0DAFCA5
:1070E00022681148052104F0D5FC32680E480521BC
:1070F00004F0D0FC2A680D48052104F0CBFC381CB4
:1071000018BF0120BDE8F0812B680A4801332B60CD
:10711000C3E700BFC4A20020C0A20020700F03007C
:10712000BCA20020740F0300890F03008F0F03001F
:10713000950F0300830F0300B8A2002010B504468A
:10714000034804F0A7FC2046BDE81040FFF79ABFB3
:10715000980F03000369C1688B429DBF8268D218F3
:1071600002F1FF3203F1FF3394BF501A581A7047EF
:107170002DE9F041D0E9027405463E1B4068964275
:1071800020448846144404D904F08EFBEC60BDE82A
:10719000F0813246E41B04F087FB224608EB06012F
:1071A0006868F1E72DE9F843C56806468946174641
:1071B0004FF000083469B3687068A54228BFE4182E
:1071C000013C621B5C1BBC4228BF3C46944228BF6A
:1071D000144649462844224604F066FBB368254419
:1071E000AB4208BF00253F1BA044A144F560E1D19C
:1071F0004046BDE8F883000010B5114C114AA26169
:107200000223C4E90433104BE361A2644FF400731A
:107210000E4A2362E264002310220D49A362E01D9E
:107220006362E362A3656365E365226504F06EFD56
:107230000849204604F06AFD2023A37110BD00BF59
:1072400090B10020A60F0300D8A20020C8A2002001
:10725000AF0F0300B30F0300F8B5184C182300FB61
:10726000033503FB00402544C46A012C0F46164633
:1072700011D024B1022C1BD000242046F8BD284692
:10728000FFF768FFB042F8D3324639462846FFF789
:107290006FFF3446F1E72846FFF75CFF864234462D
:1072A00028BF0446224639462846FFF761FFE4E737
:1072B0002846BDE8F840FFF775BF00BF90B1002039
:1072C00073B50E4B1B7804460D4616460BB9FFF7F7
:1072D00093FF00230DF107008DF8073000F0A6FAA8
:1072E000324629462046FFF7B7FF04469DF80700BF
:1072F00000F0CCFA204602B070BD00BF90B1002073
:10730000FFF77ABF10B511461C461A460020FFF75A
:10731000D7FF204610BD000082B001238DF8073052
:107320009DF80730114B1860596044F20101884202
:107330009A6012D044F20201884206D1DA60DA681B
:1073400012889A61DA685268DA6172B69DF807307D
:10735000002BFBD162B602B070471A611A699268BD
:107360005A611A6912689A611A69ECE7D8A4002078
:1073700000B583B002900091019244F20100714681
:107380006A4603F04FFB03B000BD0000094A537882
:1073900091780133DBB2994208BF002311789942FA
:1073A0001FBF03705078182303FB002014BF043064
:1073B00000207047F8A4002073B5054600240DF1A5
:1073C00007000E468DF8074000F030FA0DF1060078
:1073D000FFF7DCFF90B10670094B9DF80620456071
:1073E0005A709DF8070000F051FA24B9054B4FF48C
:1073F0008012C3F80021204602B070BD0424F0E7DB
:10740000F8A4002000E100E0024B4FF43C6043F0A0
:1074100001031847C00F0300F8B51F491F4B002593
:10742000C1F84051C1F84451C1F84851C1F84C511C
:10743000C1F80051C1F804511B684BB3D1F80445A1
:1074400017490968641A24F07F442F461A68A2423B
:1074500009D8A41A15441A7CDE691AB11F74D3E93D
:1074600005209047AEB90F4A0F4B11781B788B421D
:1074700005D10133DBB2022B08BF00231370127851
:107480000A4B43F822500A4B4FF48012C3F80021F4
:10749000F8BD3346DAE700BF0010014018A600200F
:1074A00014A6002011A6002010A6002008A6002087
:1074B00000E100E02DE9F04F9F4AA04913780978D8
:1074C0009F4D994285B03CD00133DBB2022B08BFFF
:1074D000002313709B4912789B4B0F6853F82200CE
:1074E0003B1823F07F4300220B602B68164614469E
:1074F000944613B942B12B6006E0196881420ED957
:1075000002B12B60091A19604FF001082B68DFF8EF
:1075100040A201930027BEB9DFF83CB266E0401AF2
:107520000C44D968C3F800C0D3F81CE031B13A1953
:1075300022F07F42C3E90121DE611E46012273462B
:10754000D7E70026B046E1E73446F6697D4A63682E
:107550001268DFF808C2A068991A21F07F416145DE
:1075600000F2A58001442160012222742A680023D0
:10757000C4E90133E361002A40F0A2802C60CAE72D
:107580005A1C9BF80210D2B291428BF8002004BF23
:1075900000228BF80020182202FB03B31A799C68A2
:1075A000022A1CD0032A12D0012A1FD1207CE8B95C
:1075B000D96861601A69A2605A69E2609B69A36137
:1075C000624B1B78002B18BF01466160BEE70022AA
:1075D0002B681146002B66D142B12B6006E029686A
:1075E0000A468946002A59D1002323749BF80030AB
:1075F0009BF801209A42C3D12B682FB9019A9A4275
:1076000002D1B8F1000F43D0002B41D0D3F800A035
:107610004F4D4C4BD5F804751C68DFF844813E1B78
:1076200098F8003026F07F4603369BB94FF480333C
:10763000C5F84433C5F80433464B4FF400324FF0DD
:107640000109C3F880211A60C5F80090FFF7DCFE3D
:1076500088F80090B2452CBF5444A41924F07F440C
:10766000C5F84045D5F80435DB1B23F07F43E41B08
:10767000033324F07F44A3420AD9D5F80435C5F872
:107680004035FFF7C1FE334B4FF40032C3F8002101
:107690002E4B00221A7005B0BDE8F08F944229D01D
:1076A0009146D2699EE719740122DB6992E7D31AE9
:1076B00023F07F43834234BFC31A0023236053E780
:1076C00021681368994213D8591A1160E26155E78D
:1076D000091AD8691A4638B1034618688842F7D3A0
:1076E000401A1860184613462160E061DC6112E719
:1076F0001346F2E74C4511D1CB692B6073B9DFF823
:1077000044E00120CDE90212CAF80800CEF80030AA
:107710000E4B1870FFF778FEDDE902121368D2698C
:10772000C9F81C2012B11068034413602B689942F9
:1077300018BF012758E700BF10A6002011A600209F
:1077400018A6002014A6002008A6002004A60020E9
:107750000010014000E100E0F8A40020FEFF7F00DF
:1077600005A600202DE9F7431E4FBB7805460E46BF
:107770009046A3B398B304292FD943697BB3437CC4
:107780000024012B0DF107000CBF8946A1468DF89E
:10779000074000F04BF80DF10600FFF7F7FDD0B100
:1077A00001230370104B4560D3F80435C0E90498F9
:1077B000C0E902369DF806307B709DF8070000F0A6
:1077C00065F824B9094B4FF48012C3F80021204614
:1077D00003B0BDE8F0830424EFE70724F7E70824AB
:1077E000F5E700BFF8A400200010014000E100E030
:1077F000064A92783AB130B1426922B1002202744D
:107800000221FFF7D9BD0820704700BFF8A400206F
:10781000EFF30583C3F308032BB9EFF31480C043E0
:1078200000F00100704701207047000070B5044669
:10783000FFF7EEFF012803D01049432002F07AFF42
:10784000EFF3108672B60E4A9068012398B99360E0
:107850000C4B0D4DD3F8801029401160C3F88050B7
:10786000D3F8841051604FF0FF32C3F884202070A9
:1078700006B962B670BD2370FAE700BFC60F0300F9
:1078800008B2002000E100E0FC06FFBD10B5044690
:10789000FFF7BEFF012803D00949512002F04AFF3B
:1078A000084B9A685AB154B9EFF3108172B6064A80
:1078B00018681060586850609C6001B962B610BDCD
:1078C000C60F030008B2002000E100E0024B1B6875
:1078D0000021986804F004B9D09800201EF0040F2D
:1078E0001CBFEFF309800AE0EFF308800549064A60
:1078F000884201D8904202D88D464FF00000034BD9
:10790000184700000000012000E000203579020047
:10791000BFF34F8F0549064BCA6802F4E062134378
:10792000CB60BFF34F8F00BFFDE700BF00ED00E06D
:107930000400FA052DE9F347054601F005F800F0CB
:107940001BFE0028FBD12F4B2F4C9F6A2F4BE41AB4
:10795000E408240444F00104002D4ED0AA692C4907
:10796000204600F089FFEB680193AB68009329493A
:10797000D5E90023204600F09EFFEB6900932649DD
:10798000D5E90423204600F08AFF1E4BDB6A9807E6
:1079900003D52249204600F06BFFDFF89490DFF812
:1079A00094A000264FF0010808FA06F33B4206D0E7
:1079B00059F826201AB15146204600F05DFF0136E5
:1079C0001A2EF1D1390605D50E4B15495A6B2046B2
:1079D00000F052FF3A0405D50A4B12499A6B204633
:1079E00000F04AFF104B1B68DB0700D500BE28469D
:1079F000FFF78EFF02B0BDE8F0870C49204600F08B
:107A000037FFC2E700ED00E0C0270300582703005E
:107A10001B1003003010030065100300C0100300AA
:107A20000F1103002F110300F0ED00E08D10030093
:107A30004C1103000411030050E8002F0B4640E8EE
:107A4000003C9CF0000FF7D11046704750E8003F13
:107A500043EA010240E8002C9CF0000FF6D11046EA
:107A6000704750E8002F02EA010340E8003C9CF018
:107A7000000FF6D11046704750E8003F03EB0102BB
:107A800040E8002C9CF0000FF6D11046704750E8FB
:107A9000003FA3EB010240E8002C9CF0000FF6D160
:107AA000104670470121FFF7D1BF0021FFF7D9BF72
:107AB00010B50446002834D003681BB91A49FF20CA
:107AC00002F038FE636823B917494FF4807002F062
:107AD00031FEA36823B9144940F2011002F02AFED6
:107AE000E36823B910494FF4817002F023FE238A22
:107AF00023B90D4940F2031002F01CFED4E9012322
:107B000021689B1ADBB20A60013BDBB2FF2B2268C3
:107B100002D10020107110BD1168481C10600B705C
:107B2000F2E70E20F7E700BF7416030037B50546ED
:107B300020B914494FF4927002F0FCFD00240DF1BD
:107B400007008DF80740FFF771FE2A68696813681F
:107B50008B4210D9591E116013F8014C2A8AEB6828
:107B600002FB04342A68AB6811685B1A1179DBB236
:107B7000994238BF13719DF80700FFF787FE204632
:107B800003B030BD7416030037B50C46054620B966
:107B9000104940F2471002F0CDFD24B90D494FF4D1
:107BA000A47002F0C7FD00230DF107008DF8073027
:107BB000FFF73CFE2A681368591C1160EA68A41A92
:107BC0002A8AB4FBF2F41C709DF80700FFF75EFEF2
:107BD00003B030BD7416030038B5074C051E04F120
:107BE000080318BF1C4623682BB11A6822605B6823
:107BF00028469847F7E738BD24A6002020B9054B52
:107C000001225A70FFF7E8BF012802D1014A9070A3
:107C1000F8E770471CA6002020B9034B01225A70D8
:107C2000FFF7DABF704700BF1CA6002038B50B4C29
:107C3000237883B90A486360A3602361E36001F09D
:107C4000F3F8054602F02EFC08B901F001F9012312
:107C50002370284638BD8525FBE700BF1CA6002001
:107C6000FD7B020013B5164C237823B915494FF458
:107C7000857002F05FFDE36823B9124940F20B10F2
:107C800002F058FD00230DF107008DF80730FFF7D3
:107C9000CDFDE368013BE360E36853B902F002FC09
:107CA00018B10849792002F045FD01F0EFF80023F2
:107CB000A3709DF80700FFF7E9FD02B010BD00BFFB
:107CC0001CA60020C4160300012813B509D018B162
:107CD00003281CD002B010BD134B0122C3F8802032
:107CE000F8E7124C00230DF107008DF80730FFF77D
:107CF0009DFD23780BB9FFF799FFE3689DF8070016
:107D00000133E3600123A370FFF7C0FDE2E7074BF7
:107D10001B7823B9064940F2452002F00BFD01F023
:107D200097F8FFF79FFFD5E700E100E01CA60020D1
:107D3000C41603007FB503788DF8043043680293BE
:107D400083688DF80C30C368049303698DF8143090
:107D5000054A064B01A853F8213052F821109847E4
:107D600007B05DF804FB00BF30A600203CA6002051
:107D7000F0B50646944616F8047B134A42F827C02D
:107D8000124A42F82730124B0D460FCB85B06C4695
:107D900084E80F002B6800932B798DF805306B7900
:107DA0008DF80630AB680293BCF1000FAB89ADF8DB
:107DB0000C30084A3B4608BF00222146304601F0FD
:107DC00091FC05B0F0BD00BF3CA6002030A600200D
:107DD0001C170300357D020010B5044618B906498A
:107DE000312002F0A7FCA2682AB1636921682069EA
:107DF00098470023A36010BD2C1703000EB433B5C1
:107E0000059D044618B91149422002F093FC6369AC
:107E10001BB90E49432002F08DFC23681BB90B49A6
:107E2000442002F087FC63681BB90849452002F032
:107E300081FC35B106AB01AA29462046019300F02A
:107E40006FF802B0BDE8304003B070472C17030054
:107E5000826830B40468551C8560A154D0E90132B1
:107E60009A4202D330BCFFF7B7BF30BC7047000066
:107E70002DE9F84F9946DDE90A43174682468846C0
:107E80000A460126BA420FD24E4538BF4E4613F07D
:107E9000010B01D164B900240125B9F1010F1AD9F0
:107EA00009F1FF397D43F8E7B2FBF7F20136E9E764
:107EB0009B070ED5B9F1000F0CBF30252025A64237
:107EC000EAD2013C29465046FFF7C2FF002CF6D10A
:107ED000E1E72025F3E7B8FBF5F39F42E2D9DFF8AD
:107EE0003C90B8FBF5F3504619F8031005FB1388D6
:107EF000FFF7AEFFB5FBF7F3BD4207D2BBF1000FB2
:107F000002D00CB1A64203D3BDE8F88F1D46E8E7C6
:107F100020215046013CFFF79BFFF2E77217030058
:107F20002DE9F74F88461746054620B9A8494FF472
:107F3000A27002F0FFFB6B6923B9A5494FF4A3704F
:107F400002F0F8FB2B6823B9A14940F2471002F078
:107F5000F1FB6B6823B99E494FF4A47002F0EAFB71
:107F6000B8F1000F00F0318118F8011B49B92B7BE3
:107F7000002B00F02A81284603B0BDE8F04FFFF740
:107F80002BBF252940F0C080002698F800302D2B0B
:107F9000424608F1010823D0302B24D02B2B25D0CA
:107FA00000242A2B02F1010123D13B681A1D3A60FB
:107FB0001B680A461C4413782E2B26D101324FF041
:107FC000000A104610F8011BA1F1300CBCF1090F9A
:107FD0001DD80A2303FB0A13A3F1300A0246F0E777
:107FE00046F00106D1E746F00206CEE746F0040669
:107FF000CBE711F8013CA3F130000928DBD80A22B5
:1080000002FB0434303C0A46CBE74FF0000A12F87A
:10801000011B01F0FB0068289046F8D069290ED0BA
:108020004AD8582964D006D825296DD098F8003050
:10803000002B99D19BE7632962D06429F6D13A6875
:10804000111D3960D2F8009089EAE972A2EBE97259
:108050004FF0010B092A5BDCD34538BFD3462CB166
:10806000B9F1000F01DB710700D5013CB20702D561
:10807000BAF1000F04D0F30702D4002C4ED1002433
:10808000B9F1000F52DAC9F100092D212846FFF796
:10809000DFFE06F00302022A05D1BAF1000F02D179
:1080A000002C47D10024CDE9004653460A22494618
:1080B0002846FFF7DDFEB9E773294CD014D87029A4
:1080C000B4D13B681A1D3A60302128461C68FFF77E
:1080D000BFFE78212846FFF7BBFE00220823CDE92A
:1080E000003221461022E3E775292BD078299DD153
:1080F00039680A1D3A60CDE900465346102228E04F
:108100003B681A1D3A6019782846FFF7A1FE8DE7F3
:108110000A230BF1010BB2FBF3F29BE7A345AFD2AD
:1081200020212846013CFFF793FEA6E77007B0D553
:108130002B21ABE7A345B6D230212846013CFFF7FF
:1081400087FEADE73968CDE900460A1D3A6053461F
:108150000A220968ACE73B681A1D3A60F107D3F8B8
:10816000009020D4B9F1000F25D0484603F048FE16
:108170000646B44200D9C4B909F1FF3920E02846C7
:108180000136FFF765FE19F806100029F7D1A6425F
:10819000BFF44CAF002C3FF449AF20212846013CEE
:1081A000FFF756FEF3E70026EDE720212846013CC5
:1081B000FFF74EFEDDE74E46DBE72846FFF748FEB9
:1081C00019F8011F0029F8D130E703B0BDE8F08F9E
:1081D000821703007047000007B5044B0093044A60
:1081E000402300F032F803B05DF804FBF581020093
:1081F00049A600202DE9F84389461446B2B10F4B39
:108200000F4E0325002743F00108224609EB070122
:108210000020FFF721F80744241A48B933782BB11E
:108220004FF47A40C047013D02D13570BDE8F88374
:1082300001233370002CE8D1F8E700BFE0170300FA
:1082400048A600207047FFF75BB8F0B595B01C4614
:10825000164608460D4600F042FD1A9B0D93CDE9E7
:10826000086400242346082205A928460A948DF8AC
:108270002C400C9400F05AFD079B0293069B03933D
:108280009DF814308DF8114003F00302012A1DD12E
:10829000BDF81440059EC3F3C203C4F383148DF8E4
:1082A0001030A20008230EA9284600F03FFDC6F3B7
:1082B000952608AB0093224602AB0EA9304600F08B
:1082C000B3FB284600F00FFD15B0F0BD022AF8D12F
:1082D000BDF81640C3F3C203A4098DF81030082777
:1082E000082C264628BF08263B4632460EA92846BB
:1082F00000F01CFDA41B08AB02AA31460EA83744AF
:1083000000F0F6FB002CEBD1DBE7000008B5FFF72F
:108310009AFF0421064800F0EDFA002803DA054927
:10832000412002F007FA044B01225A7108BD00BF38
:108330003C280300F4170300BC980020037813F0D6
:10834000040216D003F00303012B03D0022B09D043
:10835000012070470A6800880232C0F3831002448B
:108360000A60F5E70B684288023303EB92130B6057
:10837000EEE71046704700002DE9F04F89B000236A
:108380000446851C0DF10F000F4690468DF80F3006
:10839000FFF74CFA494806683E60D0E901321344C1
:1083A00001339B1B824600F21C4600F5836900F2F4
:1083B0001447AB421BD30022B8F1000F77D005233E
:1083C00063F3070264F38912DAF80010DAF8083070
:1083D0009DF80F000B4003330D444AF82320CAF8E0
:1083E0000050FFF753FA012009B0BDE8F08F0121DA
:1083F0003046FFF741FB4846FFF754FB3846FFF78E
:1084000051FBDAF80400DAF808B0049000EA0B0037
:1084100003300AEB800004A9FFF790FF034604989D
:10842000002BF3D10BEA00020AEB820200F1020CEE
:10843000D2680592013000EA0B0B0AEB8B0B02F0BD
:108440000302012ACDF810C0DBF80C1026D0022A56
:1084500008D01B4901934FF4BF7002F06BF9019BE8
:108460009B4608E0BDF81620920903320CEB9202FD
:108470004FEA114B04923846FFF717FB10B1049BEB
:10848000CAF8043059463046FFF7F6FADAE9012314
:108490001344DAF8002001339B1A8AE7BDF8143040
:1084A000C3F3831363444FEA114B0493E3E70623BA
:1084B00063F3070264F39F5286E700BF5CA70020C6
:1084C000631803000B4B0C48FF2210B59A60002282
:1084D000C3F81824C3E90022C3F81424012283F846
:1084E000202400F0B5FB044610B9044800F032FC2B
:1084F000204610BD5CA70020F0270300BC18030035
:1085000030B50A4C71B10A4A0A49121BD20800233D
:108510009A4201D1002030BD31F82350854202D06B
:108520000133F5E7034654F83300F4E75827030016
:10853000F027030090A20020094B013903EBC00093
:10854000032909D8DFE801F00A0204060420704775
:1085500000797047407970470020704702207047CB
:1085600058270300034BD3E90030C31A584258413F
:10857000704700BF5CA700202DE9F04387B0FFF7EC
:10858000F1FF0646002840F0FB807E4DC5F8180438
:10859000BFF34F8F6868AC6802902040033005EB52
:1085A000800002A9FFF7CAFE029B18B1D5F8182473
:1085B000002A5FD004EA0302991C013305EB820212
:1085C000234005EB8303D268DB68049302F00303C6
:1085D000022B0392029162D1BDF80E306A484FEA35
:1085E0009318B8F1500FC14628BF4FF0500969F3F6
:1085F0008F1309F10801ADF80E3000F041FB07467A
:10860000002800F0A88000F06AFB03A900230822DC
:10861000384600F077FB029924EA01060136B600DD
:10862000B14535D95FFA89F97EB3F6B2A9EB0609EF
:10863000214003315FFA89F4B146544E05EB8101C4
:1086400008234A46384600F05DFB36B109F10803BD
:1086500022463146384600F055FB029B08F10308DC
:1086600003EB98030293D5F81834002B4BD1D5F8BF
:1086700010445BE02A689A4204D86A60304607B02A
:10868000BDE8F08304EA030088E740493446D7E7B1
:108690002140033108234A4605EB8101DAE7012B2B
:1086A00059D1BDF80C303848C3F38311062928BFCF
:1086B000062161F3891302318900ADF80C3000F016
:1086C000DFFA0746002846D000F009FB0023082205
:1086D00003A9384600F016FB0026BDF80C20C2F3B3
:1086E0008312B300964203F10803BCD202994A1CDC
:1086F00021400331029205EB81010422384600F04B
:1087000001FB0136E9E7384600F0EDFAFFF72AFFF2
:1087100080F00100C6B2B1E7E3685B7923B123685A
:1087200039461B6820469847E3681C68002CF3D143
:10873000384600F0D8FA0DF107008DF80740FFF732
:1087400075F8D5F818340BB9029B6B609DF80700DB
:10875000FFF79CF8DAE7D5F8104454B90C4B0D48F4
:108760000D49C01AC008000440F0020000F080F873
:10877000CCE7236820469B689847E3681C68ECE7D1
:1087800000267BE75CA70020F027030068A70020F5
:1087900058270300B0270300C81803002DE9F74F3E
:1087A0002E4C80460F46914601A9012218461E46CE
:1087B000D4F808A0FFF7E0FD00283CD0019D00237D
:1087C000A81CB34203EB00013FD100212448FFF76E
:1087D00033F980F3100B234B234A4FEA18499B1AB5
:1087E000B9EBD30F04D3214940F2A31001F0A2FF4B
:1087F0006B1C03EA0A0304EB830349EA0B42DA60C9
:1088000005EA0A03033314F8232068F3C50204F8C9
:10881000232034F8232066F3891224F8232054F807
:10882000232067F39F2244F8232002F0F80242F04D
:10883000010204F8232094F820341BB1FFF79CFEBA
:108840000028FBD103B0BDE8F08F0AEA010104EB78
:10885000810159F82320CA600133B2E75CA70020E8
:1088600078AB0020F02703005827030063180300AB
:1088700000231A46FFF792BF07B50123019201AA10
:10888000FFF78CFF03B05DF804FB07B5CDE90023CB
:1088900002236A46FFF782FF03B05DF804FB1FB5B1
:1088A000CDE90123069B039301AA0323FFF776FF7B
:1088B00005B05DF804FB1FB5CDE90023069B0293CC
:1088C000079B03936A460423FFF768FF05B05DF832
:1088D00004FB7FB5CDE90123089B0393099B049317
:1088E0000A9B059301AA0523FFF758FF07B05DF81F
:1088F00004FB000030B5134AD2F81044002321468F
:1089000051B9C4682371D2F810445CB9C2F810049C
:10891000C2681160184630BDC9680D799D420AD001
:108920000968EDE7E468C16824680C60D2F8102497
:10893000D2681060EEE701330A2BE0D14FF0FF332D
:10894000E8E700BF5CA7002038B5094A0123D2F848
:10895000104482F820341D4604B938BDE3685D71C7
:10896000236820465B689847E3681C68F4E700BF0B
:108970005CA7002010B5037A052B0C460FD0437A74
:1089800023B1084A08492046FFF738FA074920462C
:10899000FFF734FA2046BDE81040FFF71DBA002A61
:1089A000F8D0F3E70F19030014190300341903007A
:1089B00073B5C38804460D4633B1144A0092144976
:1089C000144A2846FFF71AFA217A05291CD0637A3F
:1089D0004BB1A088FFF7B0FD0F4B104953F8202092
:1089E0002846FFF70BFA227A0D4BA08853F8226035
:1089F0000021FFF785FD0B4903463246284602B0A9
:108A0000BDE87040FFF7FAB902B070BD0F1903005E
:108A10001F19030017190300E018030014190300BD
:108A200044190300371903002DE9F04385B01F46B0
:108A30000C9D002306460C46904695F80C902B732F
:108A400029463846FFF7B4FFB8F1060F09D8DFE82A
:108A500008F00412181F2833400031462846FFF75B
:108A6000CDF9002229463846FFF784FF85F80C909F
:108A700005B0BDE8F083226831462846FFF7BEF90D
:108A8000EFE7D4E9002331462846FFF7B7F9E8E7D6
:108A9000A36800933146D4E900232846FFF7AEF9D6
:108AA000DFE7E3680193A36800933146D4E900232C
:108AB0002846FFF7A3F9D4E723690293E3680193FB
:108AC000A36800933146D4E900232846FFF796F9BE
:108AD000C7E76369039323690293E3680193A3687B
:108AE00000933146D4E900232846FFF787F9B8E719
:108AF00008292DE9F84F80460E4617461C463BD8FC
:108B0000002593F80C901D7319461046FFF750FF8F
:108B1000DFF88CA0DFF88CB0AE422FD918F8052012
:108B200059462046FFF76AF90135082DF4D1194955
:108B3000194DDFF874B02046FFF760F94FF0000AD6
:108B4000564522D918F80A207E2A1CD812F80B1094
:108B500011F0970F08BF2E2210492046FFF74EF95B
:108B60000AF1010ABAF1080FEAD10122214638467A
:108B7000FFF700FF84F80C90BDE8F88F51462046BF
:108B8000FFF73CF9D0E72E22E6E729462046FFF71B
:108B900035F9E5E70A190300930E03000C190300E9
:108BA000910E030004190300912403002DE9F74FEF
:108BB00099469DF83030019388461746054618B906
:108BC0002249B62001F0B6FDEA8895F805B00BFB06
:108BD00002FBABF1040BCB4503D81C49C42001F0C8
:108BE000A9FD3E68B5F806A006EB09025A4509F151
:108BF000040188BFABEB0906B1FBFAF43E600AFB47
:108C0000141144B9AAEB0107B74228BF37462EB961
:108C100003B0BDE8F08F2D68013CF2E7019A043102
:108C200008EB0403681872B101463A461846F61B71
:108C300002F03AFEB2453C442D6857464FF0000121
:108C400028BF3746E3E73A461946F0E7A319030081
:108C5000FEF72EBFF8B546790146721E0546002381
:108C600093422D6803D30024A64202D8F8BD0133F5
:108C7000F6E70F682846FEF787FF01343946F3E729
:108C80002DE9F843CD1C068A0746FEF74FFF043E48
:108C900035440446B5FBF6F5F0B14FF48073EDB200
:108CA0008380C680013D076081464FF00008A845DB
:108CB00012D23846FEF73AFF064648B163790133CF
:108CC000637108F10108C9F8000007608146EEE70A
:108CD0002046FFF7BFFF34462046BDE8F883012158
:108CE0000430FEF7C9BE10B5012104460430FEF77A
:108CF000CEFE10F0FF0F04D12046BDE81040FFF774
:108D0000A9BF10BD1FB5144603920022009203AA0A
:108D1000FFF74CFF039BA34203D00349F62001F069
:108D200009FD04B010BD00BFA31903001FB5144610
:108D300003920122009203AAFFF738FF039BA3428C
:108D400004D003494FF4807001F0F4FC04B010BD6E
:108D5000A31903008268002393608268136182680C
:108D600053618268D3608268536082681360704781
:108D700038B50D46044618B90849502001F0DAFC10
:108D80001DB90649512001F0D5FC25602B686360B0
:108D90006A68934204BF0023636038BDFC19030076
:108DA00010B5044618B90B49632001F0C3FC2368D1
:108DB0001BB90849642001F0BDFC636843B1226817
:108DC00091680B4463605268934204BF0023636060
:108DD00010BD00BFFC19030010B50D49A1F5947238
:108DE000914201D800200FE08B1ADB1003EBD37304
:108DF0005B1002EBC30452F83330834205D802D231
:108E000004F10802ECE7606810BD2146E8E700BF06
:108E1000A01B030008B5FFF7DFFF024B002808BFC7
:108E2000184608BD651A030010B5044618B906496E
:108E3000A02001F07FFC054B187918B901221C60B5
:108E40009A8010BD8520FCE75A1F030018AC002053
:108E500008B50B4B1B791BB90A49B92001F06AFC14
:108E6000094B1A68D2075FBFE02283F80023012272
:108E70001A604FF080430122C3F8182508BD00BFD7
:108E800018AC00205A1F030000E100E008B5084BB1
:108E90001B791BB90749F32001F04CFC064B01225A
:108EA0001A604FF08042D2F81834DB03FBD408BDBF
:108EB00018AC00205A1F03000C00004007B5154BEA
:108EC0001A687AB100221A601B680093009B4FF069
:108ED00080430122C3F808230F4B587910B95A7107
:108EE0001B6898470D4B1A6882B100221A601B68F4
:108EF0000193019B4FF080430222C3F80823064BE5
:108F00001B68012003B05DF804EB184703B05DF85F
:108F100004FB00BF0001004018AC00200401004029
:108F200000F1804000F5C040002382B00360036878
:108F30000193019B02B07047054B4FF0FF320728A9
:108F400043F8202084BF1B1883F84820704700BFD7
:108F500020AC002002494FF4F37001F0EBBB00BFDE
:108F6000AD1F03001F2838B504460D4601D9FFF791
:108F7000F1FFA00000F1A040D0F8002722F4403219
:108F8000C0F80027D0F8003743EA0543C0F800379F
:108F900038BD000010B5174C94F8583043BB04F1AD
:108FA00030032021FF22013911F0FF0103F8012BCA
:108FB000F9D1C8B2FFF7C0FF01310C29F9D1042261
:108FC00000210D4802F00AFD0C4BE02283F8062335
:108FD00040221A604FF4BE70FFF7A2FF084B4FF01B
:108FE0000042C3F80423012384F85830002010BD48
:108FF0000820FCE720AC002074AC002000E100E079
:10900000006000401F282DE9F04105460F469046BC
:1090100004D93E4940F2072001F08CFB3C4E731905
:1090200093F93030002B6FDABB78C3F34003002B89
:1090300015BF0024082408210C218C4202D10420F1
:10904000BDE8F08156F82420013243D1721946F868
:10905000248082F8304013B9331983F84850BB7824
:109060005A0717D4D90737D51F2D01D9FFF772FF3B
:10907000AB0003F1A043D3F8002722F00202C3F8AB
:1090800000272449EA0805F0070001238340885C93
:1090900003438B54B8783A7810F002002BD0A40028
:1090A00004F1804404F5C0442D02D4F8103523F4B3
:1090B000473323F44073C4F810351204D4F8103544
:1090C00005F4F85502F4403215431D43C4F8105519
:1090D0000020B5E70134B0E71F2D97F8018001D9D2
:1090E000FFF738FF05F5E0734FF0A0414FEA880223
:1090F00041F82320C5E7083C344494F8505045EA31
:10910000821284F850209BE7082099E7F01F0300A3
:1091100020AC002074AC00201F28F8B505460E4690
:1091200004D9284940F2372001F004FB264C63198A
:1091300093F93030002B04DA22494FF40E7001F01D
:10914000F9FA671997F93020072A1ADD224492F8B4
:1091500048309B09032B10D11F2D01D9FFF7FAFED0
:109160004FF0A043D3F81035EB40DB0707D40221C2
:109170002846BDE8F840FFF7F5BE012BF7D00321E4
:10918000F6E7D3B2072B1CD8930003F1804303F515
:10919000C04302F14000D3F81015800041F00101F6
:1091A000C3F8101580B2FFF7BBFE56B197F9303007
:1091B00054F823302BB1012303FA02F2034BC3F816
:1091C0000423F8BDF01F030020AC00200060004025
:1091D0002DE9F04F87B000245D4D03944FF4807269
:1091E000012102F1804303F5C04390B21B68012BBB
:1091F00006D1D5F804330B4202D0FFF791FE0C43A1
:109200000432B2F5907F4FEA4101EAD1514B1B681D
:10921000012B0AD14FF4BE70FFF782FE4FF0A0433E
:1092200044F00044D3F81035039314F0FF0F1AD024
:10923000494F00250126344210D0AB0003F1804392
:1092400003F5C043D3F81005D3F8101557F82530AF
:1092500023B1C1F30141C0F3042098470135082D23
:109260004FEA4606E7D1002C6ADA00224FF0FF33BE
:10927000CDE90423384FDFF8E480002635464FF06F
:10928000A04A18F9014B631C4FD0E4B2012224F02C
:10929000C00B04F0070302FA03F34FEADB0006AA4F
:1092A000111811F8042C1A423FD007EB0B02A40945
:1092B00092F9302057F82290B9F1000F0AD1032C0F
:1092C00033D10DF1100E1EF800C04CEA030C0EF85D
:1092D00000C001E0032CF4D0BBF11F0F05D9CDE98C
:1092E0000031FFF737FEDDE900310BF5E07011F8D2
:1092F0000C1C5AF820001942C0F3014005D0022886
:1093000013D1032C0BD1214604E003280DD1032CEB
:1093100005D102215846FFF725FE0135EDB2B9F11E
:10932000000F02D021465846C8470136042EA8D166
:1093300035B14FF0A043039AD3F81035934202D1D0
:1093400007B0BDE8F08F0393049B059393E700BF3C
:10935000006000407C61004020AC002070AC002028
:1093600010B5054C22681AB90449512001F0E2F900
:109370002368BDE8104018477CAC0020492003005A
:1093800037B50D4630B90F49772001F0D3F90020E9
:1093900003B030BD0C4B9842F9D100230DF107000A
:1093A0008DF80730FEF742FA084B1C7914B90122F8
:1093B0001D601A719DF80700FEF768FA002CE6D0D0
:1093C0001120E5E749200300002000407CAC00208C
:1093D00018B906499B2001F0ADB9054B984201BF71
:1093E000044B00221A601A71704700BF4920030025
:1093F000002000407CAC00200023435082B0435842
:109400000193019B02B0704770B5D0F8103105464A
:109410000C4653B14FF48871FFF7EEFF63795A079A
:1094200003D523680BB101209847D5F814315BB1FF
:109430004FF48A712846FFF7DFFF63791B0703D5D6
:1094400023680BB102209847D5F81C315BB1284640
:109450004FF48E71FFF7D0FF607910F0100002D149
:10946000236803B19847D5F8043163B14FF4827192
:109470002846FFF7C1FF0123237123681BB1032096
:10948000BDE87040184770BD01490248FFF7BCBFF6
:1094900084AC002000C0014001490248FFF7B4BF7E
:1094A0008CAC00200010024001490248FFF7ACBF1D
:1094B00094AC00200020024000F1804000F5E04024
:1094C000002382B0036003680193019B02B07047E0
:1094D000F0B5534B534C1B6885B0002B3DD04FF477
:1094E000827094F82E20FFF7E7FF2AB394F82F300C
:1094F00013BB4D4B1B68002B33D04FF48070FFF72C
:10950000DBFF94F82D20638B91B28B424ED95B1A0E
:1095100021899BB26383CB1A616801EB4301434B02
:10952000C3F82C16C3F830264FF48270FFF7C4FF3F
:109530003F4B01221A6014E0636802932389ADF85F
:109540000C30E36800218DF8041023BB23742368DA
:1095500001A89847002384F82F3094F82E30002B70
:10956000C7D1344B1B685BB14FF48870FFF7A4FF81
:109570000023237402238DF8043001A82368984740
:109580002D4B1B6813B34FF48A70FFF795FF002330
:10959000237405B0F0BD208B608363602081E1609F
:1095A000002AD4D1214B01221A60D0E7BCD1E36854
:1095B000012184F82F103BB1002161831B49C1F8C0
:1095C0002C36C1F83026AFE76383ADE766694FF00C
:1095D00000470125002EDCD0B6FA86F227FA02F306
:1095E0004632920026EA030602F1804303F5E04387
:1095F0001B68002BEED01046FFF75EFFA2F58C72C1
:10960000D30882F00402C2F380028DF808308DF88E
:1096100004508DF80920236801A89847DAE700BFB5
:10962000047100409CAC00200071004000700040BC
:1096300004700040107100401471004002494FF462
:10964000F37001F077B800BFAD1F03001F2810B5FD
:10965000044601D9FFF7F2FF01234FF0A042A340D7
:10966000C2F80C3510BD1F2810B5044601D9FFF70C
:10967000E5FF01234FF0A042A340C2F8083510BD1A
:1096800013B54FF04023D3F818310BB3114B124CE4
:1096900000221A601B680193019B236823B90F49BC
:1096A0004FF4277001F046F8E07FFF2803D0A37F36
:1096B0005BB1FFF7CBFF002363772372D4E900315E
:1096C000074802B0BDE810401847FFF7CCFFF2E7AB
:1096D00002B010BD18410040CCAC0020A620030011
:1096E000D4AC00202DE9F74F8146CDE900230C468C
:1096F00019B97D49AD2001F01DF899F804607B4F40
:10970000242303FB06FB07EB0B0A9AF81C10002925
:1097100040F0E380D9F8005075492846FFF730FE45
:109720008046002840F0DC80009B47F80B30019B0E
:10973000CAF80430237B2078012B00F2BC80FFF7AD
:1097400085FF94F800A0BAF11F0F01D9FFF776FF4B
:109750000AF5E07A4FF0A043012243F82A2094F85A
:1097600001A0BAF1FF0F00F0A9805046FFF76EFF8D
:10977000BAF11F0FD34601D9FFF760FF0AF5E07A6F
:109780004FF0A043032243F82A20A378FF2B00F0D8
:1097900098801F2B9A4603D90093FFF74FFF009B39
:1097A00003F5E0734FF0A042042142F82310242374
:1097B00003FB0673A27883F82020E078D877FF288F
:1097C00017D02379002B7FD0FFF740FFE3781F2BC2
:1097D00003D90093FFF732FF009B03F5E0734FF0CE
:1097E000A042032142F82310242303FB06732279AD
:1097F0009A772378C5F80835C5F80CB5C5F810A5D3
:10980000A368C5F82435637B227B003318BF01238E
:10981000022A5CD0032A5DD0012A01D143F0020361
:10982000C5F85435A379C5F8C03524237343FB58D4
:1098300013B14022C5F804230722C5F800257BB3E5
:10984000D9F8003064794FEA133AA31E012B4FFA7E
:109850008AF506D9631F022B03D926496B2000F035
:1098600069FF002DACBF05F16043234B4FEA441460
:10987000B8BF0AF00F0AE4B2AABF03F5614303F8C8
:109880000A4083F80043D9F800301B0B5AB201217B
:1098900003F01F0301FA03F35209184941F822307B
:1098A000242303FB06760023737701233377404696
:1098B00003B0BDE8F08FFFF7D6FE42E74FF0FF3B65
:1098C00063E74FF0FF3A72E7FFF7CDFE7EE743F024
:1098D0000403A5E743F00603A2E74FF00808E6E714
:1098E0004FF01108E3E700BFA6200300CCAC002036
:1098F00081960200F220030014ED00E000E100E098
:109900002DE9F041294D0479242303FB0453074634
:109910001B7F23B9264940F2611000F00BFF24237E
:109920006343E85860B13B681B0B5AB201215209EE
:1099300003F01F0301FA03F320321E4941F82230DD
:10994000D7F8008098B11C4BC8F80833242303FBD8
:1099500004535B7F5BB10123C8F81430D8F804319D
:10996000002BFBD0242303FB045300225A7724232B
:1099700003FB045393F82060FF2E0AD01F2E01D959
:10998000FFF75CFE06F5E0764FF0A043022243F8B5
:1099900026200026C8F800653868FFF719FD242343
:1099A00003FB04542677BDE8F08100BFCCAC002057
:1099B000A620030000E100E0520108002DE9F34178
:1099C000584F0679242303FB067380461B7F0D4600
:1099D000144623B9544940F2322000F0ABFE2B6804
:1099E00033B96B6823B1504940F2332000F0A2FE36
:1099F000AB6833B9EB6823B14B494FF40D7000F0FD
:109A000099FE98F804302BB9EB68FF2B02D86B68ED
:109A1000FF2B04D9444940F2372000F08BFE242369
:109A20007343FA18517F002979D1FB5823B114F000
:109A3000140F04BF0123537795E80F004FF0240C57
:109A40000CFB067C0CF10C0E8EE80F009CF81F003E
:109A5000FF2804D09CF81E30C3B1FFF704FE2A682B
:109A600022B102F06043B3F1005F06D1AB6883B16D
:109A700003F06043B3F1005F0BD0242303FB0676B1
:109A800000237377102002B0BDE8F081FFF7DEFD00
:109A9000E5E7D8F800306968C3F84425C3F84815ED
:109AA000D5E90212C3F83415C3F838250022C3F8EB
:109AB0001821D3F818210192019A14F0010218BF5D
:109AC0000122C3F8502514F0020218BF0122C3F886
:109AD000402522075CBF01221A6124227243BA5832
:109AE00092B9D3F81821002AFBD0242303FB067671
:109AF000F07FFF2803D0B47F1CB1FFF7A7FD002043
:109B0000C1E7FFF7B0FDFAE714F004004FF04002A0
:109B100002D0C3F80823F2E7C3F80423B3E7112007
:109B2000B1E700BFCCAC0020A62003002DE9F7432D
:109B3000002406460F4600F5A0754FF48038A14674
:109B4000A0002B6800F5A07080B26BB1D6F804338A
:109B500008FA04F21A4207D0C5F800902B68019366
:109B6000019BD7E9003198470134042C05F1040525
:109B7000E6D103B0BDE8F08301490248FFF7D6BF44
:109B8000F0AC00200080004001490248FFF7CEBF42
:109B9000FCAC0020009000400023435082B04358AA
:109BA0000193019B02B07047F0B5504C236887B019
:109BB00023B94F4940F2452000F0BCFD4D4AD2F890
:109BC00024311546A3B14FF492711046FFF7E4FF1C
:109BD000D2F8043163B9A368C2F808330223A36042
:109BE000A368C2F8043301231362536107B0F0BDC8
:109BF000D5F80431002B49D03F4F3E484FF48271D5
:109C0000FFF7CAFF0FCF01AE0FC63B68336094F871
:109C10002E307BB1237B012B0CBFD5F83C25D5F82A
:109C20004C250292022B334B0CBFD3F83C35D3F8B2
:109C30004C3503934FF4B0712E48FFF7ADFF4FF44E
:109C4000AE712C48FFF7A8FF94F8303013B194F8A8
:109C50002E303BB1274B0022C3F80022A260274AD6
:109C6000C3F80823234AD2F8C434C2F8C4349A078C
:109C700036D501238DF8003094F830300BB984F8D4
:109C80002F30D4E9003168469847AFE74FF4A4710C
:109C90001848FFF781FF237B83B9174F0FCF01AE21
:109CA0000FC63B68336094F83030002BDAD1C5F82A
:109CB0000032A360114BC5F80833D3E74FF40073AB
:109CC000C5F8003240F20223A36003F1CE73C5F859
:109CD0000833A368C5F804330123AB602B6285E722
:109CE00013F0040318BF0223C4E700BF08AD00202F
:109CF000412103000030004014AD002002029C010D
:109D000070B5C0B14AB116880024B44203D3051916
:109D10006D789D4208D0A14201D800200BE0055D7E
:109D200001352C44A4B2F0E7A142F6D9A31C13805C
:109D3000005D013880B270BD13B50023ADF8063068
:109D400013460DF106020446FFF7DAFF10B1BDF825
:109D50000600204402B010BD72DF704773DF704709
:109D600038B5012204460D46B0F83812D0F8340256
:109D7000FFF7E2FF00B1057004F13C0204F50D713C
:109D800004F15400BDE83840FFF7E6BFF8B50778A6
:109D900004460D46002F00F0048100F24A26A1700F
:109DA00007220021304601F019FEE38813B1A378A1
:109DB000012B04D0E3794BB1A378022B06D1636B5E
:109DC000A3B1012284F8512208209847334604F5B4
:109DD000147113F8012F12B98B42FAD117466B1E7A
:109DE000032B52D8DFE803F0050B0F1284F8513231
:109DF000ECE7A3791BB194F8243003B95FB9E37998
:109E00000BB1002F43D1237A002B42D1637A002B70
:109E10000CBF00250425636BA570002B3BD0033DD0
:109E2000012D38D86279002A35D094F8522292BB9D
:109E300084F85422012284F853220720984704F121
:109E40003C0518220021284601F0C8FDE36A94F879
:109E50002420581E0121022828BF0B4684F83C10FC
:109E600084F8513032B1884296BFA36A84F8521008
:109E700084F85230A178002384F8503004291BD88C
:109E8000DFE801F0770D223559000025C3E70225F0
:109E9000C1E70325BFE7002384F85332CFE7C4F8B6
:109EA0004432C4E910630223012284F83C30802349
:109EB00084F83120A4F84830A378002B5CD1636B80
:109EC000002B6AD1002067E00223002A84F8313099
:109ED00014BF0723032384F83C302369A4F84830D7
:109EE0000023C4F84432E36826646364E4E76369EA
:109EF0006364A369A4F8483012B1062384F83C30A7
:109F00006379B3B194F852329BB994F8543283B167
:109F1000022384F8503004212046FFF721FF002857
:109F2000CAD1052384F8313004F50D73C4F84432E6
:109F3000C2E70323F6E7E3696364236AA4F84830C1
:109F400012B1062384F83C30637983B194F852321D
:109F50006BB994F8543253B1022384F85030042181
:109F60002046FFF7FDFE0028A6D10623DAE70423EA
:109F7000D8E784F831309FE72A46D4F8441204F138
:109F80005400FFF7E9FE38B994F8301094F8540003
:109F9000FFF7E4FE002892D0F8BD94F8310098470E
:109FA00090E70820F8E710B50388112B0C460AD07B
:109FB000262B1FD0102B05D1C37B012B02D1838808
:109FC000A1F8483210BD002381F852328288B1F8DE
:109FD00048329A42F6D10B79002BF3D10121204669
:109FE000FFF7D4FE0028EDD0A36B002BEAD0BDE82C
:109FF00010401847037A013B012BE3D889780523E9
:10A000000131B1FBF3F303EB8303C91AC9B2E6E7ED
:10A0100070470000034B1A8882420CBF184600208C
:10A02000704700BF58AD0020024B9B6903B1184731
:10A03000704700BF3CAD002013B50B46497A0F4C6A
:10A04000024669B9D4E901101C7A002C18BF0146F8
:10A050005868FDF787FB08B1FFF7E6FF02B010BDB7
:10A06000002119726369002BF8D00121ADF80600B8
:10A070008DF8041001A89847F0E700BF3CAD002020
:10A080004B8802889A4213D842889A4210D380881B
:10A090008A8840F2F313984294BF031AC31A93427A
:10A0A00006D800F2F310904234BF00200120704720
:10A0B0000020704770B50388112B014648D002D8A4
:10A0C000102B1ED070BD122B52D0502BFAD12F4B1B
:10A0D000C288DB899A42F5D1038A022BF2D18688A5
:10A0E0003046FFF797FF05460028EBD001F112003C
:10A0F00000F050F830BB6868FDF77AFB0028E1D02B
:10A1000009E0C37B012BDDD14FF6FF70FFF782FF23
:10A11000054620B90420BDE87040FFF785BF8E8852
:10A120001B4A0680002303721368C5F80A300A3000
:10A13000536843601031FFF7A3FF144B6872DB894B
:10A14000002BBFD129463046BDE87040FFF774BFF1
:10A150008088FFF75FFF04460028B3D04068FDF712
:10A1600047FB08B1FFF760FF4FF6FF732380A9E7B5
:10A1700086883046FFF74EFF05460028A2D00831FA
:10A180000A30FFF77DFF6872DCE700BF3CAD0020BE
:10A190006CAD0020007800F00100704790DF704740
:10A1A000A5DF7047B5DF70477FB50023ADF8081015
:10A1B000ADF80A106A4602A9064603930093ADF86B
:10A1C0000430FFF7EBFF054600B3124B124CE41AC4
:10A1D000E408FEF71FFE240444F00104034632465F
:10A1E0000E492046FEF751FBBDF80020BDF80230B5
:10A1F00052EA030103D00A492046FEF746FBBDF8A8
:10A2000004201AB107492046FEF736FB284604B061
:10A2100070BD00BF58270300C82703009D2103001D
:10A22000E72103002622030013B5034680880C466D
:10A23000A0B91A88232A00F0A48011D8102A22D0AD
:10A24000112A51D0A37A4BB1E1880020FFF7A8FF73
:10A25000002840F09C804FF48073638102B010BDF1
:10A260003A2A4AD0552A60D0242AEBD11A7A0B69AF
:10A270004A73002BE6D04DF67A21ADF80400009128
:10A280008DF8042079E00A790A73DB7B012B13D067
:10A29000022B14D0E18823898B4205D20020FFF7DE
:10A2A0007FFF70B90123E372217B637B8B42C9D2AC
:10A2B0000020FFF779FFC5E70B88E380EAE74B88CA
:10A2C000FBE7112802D10123A372EDE7FEF7A2FDFF
:10A2D000374A384B38499B1ADB081B04024643F0C7
:10A2E0000100FEF7C9FADFE7F723CB8017230B81C4
:10A2F00041F6FB3348818B81A4E75B89CA8893428E
:10A3000028BF1346172B0A6938BF17230B814AB1A0
:10A31000C97A39B140F677210091ADF80430694629
:10A3200020469047002363818CE7DB88C988A072B0
:10A33000172B38BF17238B4228BF0B462381FFF70B
:10A3400031FF60B1FEF766FD194A1A4B1B499B1A93
:10A35000DB081B04024643F00100FEF78DFAE37AA6
:10A36000002B7FF46FAF2369002B3FF46BAF40F6F7
:10A37000772200922289ADF804206946204698474A
:10A3800060E7197A237B994228BF194691E7112883
:10A390003FF464AFFEF73EFD054A064B06499B1AA3
:10A3A000DB081B04024643F00100FEF765FA55E79F
:10A3B00058270300C82703007C220300AD220300B6
:10A3C000B0DF704766DF704710B503460021408854
:10A3D000FFF7F8FF024608B91A7210BD112801D123
:10A3E0000122F9E75B68BDE81040184728B10378FF
:10A3F000DE2B04D14180002070470E2070470820DA
:10A400007047F0B5054685B00C46F1B1E8B10B7860
:10A41000DE2B1AD182884B889A4204D10B7A13B171
:10A420000846FFF7D1FF2B88112B32D0512B0ED0CD
:10A43000012B0AD12B7A012B07D1A988628891427E
:10A4400003D123722046FFF7BFFF05B0F0BDAE88F1
:10A450006388B342F9D1AF79022FF6D1AD7B2B1FC0
:10A46000022BF2D800211022684601F0B7FA052D20
:10A4700014BF4FF4C0730023694630468DF8007056
:10A48000ADF80430FFF79CFF0028DED063689847E2
:10A49000DBE76388AA889A4204BF4FF6FF736380A4
:10A4A000D3E70000014B1878704700BF74AD00205F
:10A4B00007B508496846FEF75BFC019B13B903B07A
:10A4C0005DF804FBD3E9002090476846FEF768FC7E
:10A4D000F3E700BFEC220300FFF7EABF61DF70473C
:10A4E00030B5134DADF5017D4FF4FA740DF1020155
:10A4F00003A8ADF80240FFF7F1FF70B9294601A8A3
:10A50000FEF736FC029B002BF0D003A8D3E9002114
:10A51000904701A8FEF744FCF4E7052804D0054A5B
:10A5200040F23911FCF724FF0DF5017D30BD00BF6D
:10A530005423030000230300024B1B780BB1FFF7E9
:10A54000CFBF704775AD002076DF70477FDF704763
:10A5500086DF70478ADF70478FDF7047B1DF704753
:10A5600033DF704737B503881D2B044600F0AC80FD
:10A570001DD8132B7CD00AD8102B3DD0112B5DD0C9
:10A58000604B13B12046AFF3008003B030BD142BF5
:10A5900000F08C801B2BF3D1037A012BF0D1FFF755
:10A5A000DFFF0028ECD0584A4FF4CC716DE0502BFF
:10A5B00052D00ED8212B00F096803B2BE0D11321F6
:10A5C0008088FFF7C1FF0028DAD04F4A4FF4D071DE
:10A5D0005BE0522B5CD045D3562BD1D18379002B35
:10A5E000CED14A4B13211888FFF7AEFF0028C7D001
:10A5F000454A40F2A71148E0444D818844482980EB
:10A60000FFF7F4FE20B1404A4FF49D71FCF7B0FE15
:10A6100000231A4619462888FFF7A0FF20B13A4ABE
:10A620004FF4A171FCF7A4FE3A4801F033FA3A4B1B
:10A63000002BA5D02046AFF30080A1E7334B37486D
:10A640004FF6FF721A8001F025FA354B002B97D098
:10A650002046AFF3008093E7324B002B90D0AFF34E
:10A6600000808DE7304B002B8AD0AFF3008087E766
:10A67000264800231A4685210088FFF767FF002837
:10A680003FF47EAF204A40F28111FCF771FE77E77C
:10A690001E4800231A4619460088FFF75FFF00286E
:10A6A0003FF46EAF184A40F28711EEE717480023D7
:10A6B0001A4619460088FFF74BFF00283FF460AFA9
:10A6C000114A40F29111E0E7184B0BB1AFF3008053
:10A6D00017490020FFF73EFF00283FF451AF0A4A18
:10A6E00040F2C711D1E7002301A98088ADF80430FA
:10A6F000FFF732FF00283FF443AF034A40F2D11185
:10A70000C3E700BF000000009123030014B2002043
:10A71000E4AF0020C023030000000000D0230300AA
:10A720000000000000000000000000000000000029
:10A73000C498002038B50D460446044801F0AAF933
:10A740002A4621460248FCF713FE38BD6C2303005D
:10A75000EFBEADDE0C4B1B78062B10D10B4B1B68EC
:10A760001A070CD10A4B186800F0F003302B08D000
:10A7700000F0E000A0F1400358425841704700202B
:10A7800070470120704700BFE00F00F0E40F00F0B9
:10A79000E80F00F0094B1B78062B0CD1084B1B6807
:10A7A0001A0708D1074B186800F0F000A0F1300339
:10A7B0005842584170470020704700BFE00F00F03A
:10A7C000E40F00F0E80F00F008B5FFF7C3FF28B171
:10A7D0007D4B7E4A1B68C3F304231360FFF7DAFF47
:10A7E00010B17B4B7B4A1A60FFF7B4FF28B17A4B5C
:10A7F0007A4A1B68C3F342331360FFF7CBFF20B1E3
:10A80000774AD36823F08073D360FFF7A3FF40B18A
:10A810004FF080430022C3F80C21C3F81021C3F885
:10A820003825FFF7B7FF10B16E4B03221A60FFF710
:10A83000B1FF40B16C4B05221A6001229A670022D9
:10A840009A603F225A60694B1B78062B50D1684BA7
:10A850001B6819074CD1674B1B6803F0F003502BA2
:10A8600046D14FF08052644BD2F80414C3F820153F
:10A87000D2F80814C3F82415D2F80C14C3F828151C
:10A88000D2F81014C3F82C15D2F81414C3F83015EC
:10A89000D2F81814C3F83415D2F81C14C3F84015B4
:10A8A000D2F82014C3F84415D2F82414C3F848157C
:10A8B000D2F82814C3F84C15D2F82C14C3F850154C
:10A8C000D2F83014C3F85415D2F83414C3F8601514
:10A8D000D2F83814C3F86415D2F83C14C3F86815DC
:10A8E000D2F84014C3F86C15D2F84424C3F870258C
:10A8F000FFF730FF28B1414B414A1B6803F04F037B
:10A900001360FFF727FF48B14FF08043D3F80024CE
:10A91000D20744BF6FF00102C3F80024394B1B6813
:10A92000062B08D1384B1B68062B01BF374A13682A
:10A9300043F480631360364AD2F8883043F47003DE
:10A94000C2F88830BFF34F8FBFF36F8F4FF01023E3
:10A95000D3F80022002A03DBD3F80432002B2FDACD
:10A960002C4B0122C3F80425D3F80024002AFBD085
:10A970004FF010221521C2F80012D3F80024002A4B
:10A98000FBD04FF010231522C3F80422214B1A46A6
:10A99000D3F800140029FBD00021C3F80415D2F825
:10A9A0000034002BFBD0BFF34F8F19491A4BCA68F4
:10A9B00002F4E0621343CB60BFF34F8F00BFFDE7AB
:10A9C000164B174A1A6008BD240300104035014099
:10A9D00074C007400DF0ADBA440200103C050040C1
:10A9E000F0ED00E0A005004010560040E00F00F040
:10A9F000E40F00F0E80F00F000C000405802001023
:10AA0000E40E004030010010340100103C170040FB
:10AA100000ED00E000E001400400FA05CC980020C1
:10AA20000090D0032DE9FF4106460F46154672B649
:10AA3000FDF78AFFFDF7A0FD0028FBD1234B244C36
:10AA4000E41AE40841F2010324049E4244F00104A4
:10AA500028D007D8012E14D03A461E492046FDF7CB
:10AA60000BFF12E044F201039E421DD044F20203A8
:10AA70009E42F1D12B886A6817492046FDF705FFF1
:10AA800003E016492046FDF7F3FE154B1B68DB0774
:10AA900000D500BE2A463946304604B0BDE8F04134
:10AAA000FCF73ABC0F49EDE7D5F808804046FEF7C1
:10AAB000B1F92B68029701936B6800930A4903462A
:10AAC00042462046FDF705FF0849DBE7582703000B
:10AAD000B02703007524030021240300E2230300B0
:10AAE000F0ED00E0FF2303003B240300612403009A
:10AAF0000649074A074B9B1A03DD043BC858D05050
:10AB0000FBDCFFF761FEFBF79BFB00005428030012
:10AB1000A898002090A20020FEE7FEE7FEE7FEE7EF
:10AB2000FEE7FEE7FEE7FEE7FEE7FEE708B50021E9
:10AB3000044603F07FF8044B1868C36B03B19847D1
:10AB4000204605F095FA00BF9425030070B5002952
:10AB50004AD005460C4610B1836B002B47D0636E7C
:10AB6000B4F90C20D80732D5002A3DD0214628461A
:10AB700000F054F8E36A064633B1E1692846984785
:10AB80000028B8BF4FF0FF36A3891A063CD4216BCA
:10AB900041B104F14003994202D0284600F0C6F9C1
:10ABA00000232363616C21B1284600F0BFF9002324
:10ABB000636400F05FF9636E0022DB07A28128D591
:10ABC000A06D00F02BFB00F05BF9304670BD9105E5
:10ABD000CCD4A06D00F024FBB4F90C30002BC5D10F
:10ABE000666E16F001060AD00026304670BD00F0F1
:10ABF00017F9636EB4F90C20D807B5D4E7E7A06D58
:10AC000000F010FB304670BD2169284600F08EF937
:10AC1000BDE7A06D00F006FBD2E700BFB1F90C3034
:10AC20009AB22DE9F0410C461107804648D462687B
:10AC300043F40063002AA3815DDDA56A002D57D08F
:10AC400000229BB2D8F80060E169C8F8002013F434
:10AC5000805254D101234046A847431C024665D088
:10AC6000A389A56AE1695F0705D56068236B121A9D
:10AC70000BB1E36BD21A00234046A847451C48D1CC
:10AC8000D8F80020B4F90C30002A5CD01D2A01D07D
:10AC9000162A64D122690021C4E9002123F400634B
:10ACA000A381216BC8F8006011B304F140039942FD
:10ACB00002D0404600F03AF900202063BDE8F08160
:10ACC0002669AEB12568266091070CBF6369002331
:10ACD000AD1BA3600AE02B463246676AE169404635
:10ACE000B8470028A5EB000506440ADD002DF2DC7C
:10ACF0000020BDE8F081E26B002A9EDCF8E7226DBF
:10AD0000B1E7A38943F04003A3814FF0FF30BDE8D2
:10AD1000F081B4F90C302269226023F40063002230
:10AD20006260DA04A381BCD52065BAE7D8F80030A8
:10AD3000002B95D01D2B0FD0162B0DD0A38943F0DF
:10AD40004003A381D5E723F400632169A381DB04D9
:10AD5000C4E90012A5D5E7E7C8F80060C8E743F0EA
:10AD60004003A381C5E700BF38B50D46044608B1CE
:10AD7000836BA3B1B5F90C00B8B16B6EDB0701D4DE
:10AD8000810515D520462946FFF748FF6B6EDA0787
:10AD9000044602D4AB899B050ED5204638BD00F091
:10ADA0003FF8B5F90C000028E7D10446204638BD2D
:10ADB000A86D00F035FAE5E7A86D00F033FA2046FB
:10ADC00038BD00BF10B5002304468181C281C0E9AF
:10ADD000003383604366C0E9043383611946082267
:10ADE0005C3000F0FBFD07480749084A084BE36266
:10ADF000C4E90740C4E9091204F15800BDE8104055
:10AE000000F00ABA81BC0200A5BC0200E5BC020049
:10AE100005BD0200014900F093B900BF4DAB02002F
:10AE200010B50446114800F0FBF9A26BC2B904F555
:10AE30003B730F48C4F8E0220321C4E9B913E0636F
:10AE400004216068FFF7BEFF01220921A068FFF717
:10AE5000B9FF02221221E068FFF7B4FF0123A363C8
:10AE60000248BDE8104000F0DDB900BF24B2002068
:10AE700015AE0200014800F0D3B900BF38B200207F
:10AE8000014800F0CFB900BF38B20020F8B5244F18
:10AE90000C46064600F0F2FDBB685D68C4F57E61B5
:10AEA0000F3125F00305294421F47F6121F00F01C2
:10AEB000A1F58054B4F5805F07DB0021304600F037
:10AEC000FDFDBB682B44984204D0304600F0DCFD09
:10AED0000020F8BD6142304600F0F0FD01300DD099
:10AEE000104BBA6819682D1B45F001053046091B47
:10AEF0005560196000F0C8FD0120F8BD0021304602
:10AF000000F0DCFDBA68831A0F2BDEDD064C054924
:10AF1000246843F00103001B53600860D5E700BFBD
:10AF2000009D002010B0002008A1002000295DD065
:10AF3000F8B50F46064600F0A1FD57F804CC734C57
:10AF40002CF00103A7F10800C218A16855689142CE
:10AF500025F003057FD01CF0010F556002EB0501C1
:10AF600033D157F808EC4968A0EB0E0004F1080C47
:10AF700087686745734401F0010160D0D0F80CE0A8
:10AF8000C7F80CE0CEF80870002900F0898043F083
:10AF9000010141601360B3F5007F30D2DB08591C1A
:10AFA00065689A10012393402B4304EBC10254F8C7
:10AFB00031506360083AC0E9025244F83100E86059
:10AFC0003046BDE8F84000F05FBD4968C9070ED4BF
:10AFD0002B4404F1080C9168614543F0010567D0EA
:10AFE000D268CA6091604560C350D4E7704743F0AF
:10AFF0000101B3F5007F47F8041C1360CED35A0A51
:10B00000042A42D89A0902F13907FF0002F13801F7
:10B01000E519E259083D954251D0516821F00301EC
:10B02000994202D992689542F7D1D568C0E90225C4
:10B03000A860D0603046BDE8F84000F025BD00298A
:10B040005ED1D2E902122B4443F00104CA60916040
:10B050004460C350B4E71CF0010F2B4407D157F8EC
:10B06000082C801A1344D0E90212CA609160284A61
:10B07000126843F001019A424160A060A0D8254BBC
:10B0800030461968FFF702FF9AE7142A0AD9542AB2
:10B090001DD81A0B02F16F07FF0002F16E01B7E72E
:10B0A0002B4498E702F15C07FF0002F15B01AFE778
:10B0B000C4E90400C0E902CC4560C35080E763687E
:10B0C0008910012707FA01F119436160AEE7B2F573
:10B0D000AA7F06D8DA0B02F17807FF0002F17701A8
:10B0E00096E740F254518A4206D89A0C02F17D0745
:10B0F000FF0002F17C018BE74FF47E777E2187E72A
:10B1000043F00101416013605AE700BF009D002039
:10B110000CA1002040B0002038B50B46074C054676
:10B12000114618460023236004F06CFF431C00D036
:10B1300038BD2368002BFBD02B6038BD3CB200200B
:10B140002DE9F84310F538771FD0884606464FF0B2
:10B150000009D7E90154013D11D4A389012B05F160
:10B16000FF3508D9B4F90E3001332146304602D0FC
:10B17000C04749EA00096B1C04F16804EDD13F683F
:10B18000002FE6D14846BDE8F883B9464846BDE8F9
:10B19000F88300BF70B50D4E0D4D761BB61006D06E
:10B1A0000024013455F8043B9847A642F9D1094ED2
:10B1B000094D761B05F094FDB61006D0002401342D
:10B1C00055F8043B9847A642F9D170BD80A20020F3
:10B1D00080A200208CA2002080A20020931E222B9F
:10B1E00015D80A2A10B50B4605D00C46194600F0B2
:10B1F0007DFE204610BD0028F7DA2D2403F8014B10
:10B2000040420C46194600F071FE204610BD002059
:10B2100008707047FFF7E2BF704700BF704700BF7C
:10B22000704700BF704700BF70B50C46B1F90E10F3
:10B23000002996B015461E4614DB6A46FFF76CFFE0
:10B2400000280FDB019A02F47042A2F50052B2FA14
:10B2500082F252094FF480634FF4006032602B6039
:10B2600016B070BDA289002312F08000336004D0B4
:10B27000402218462A6016B070BD4FF480632B60E0
:10B2800016B070BD8A8992070B4606D501F14302BC
:10B2900001211A60C3E90421704770B582B001AB87
:10B2A0006A460C460646FFF7BFFF00990546304642
:10B2B00000F042F8B4F90C3070B11649F163019A0C
:10B2C0000099206043F08003A381C4E904018AB996
:10B2D0002B43A38102B070BD9A05FBD423F0030376
:10B2E00004F1430243F002030121A3812260C4E977
:10B2F0000421EFE73046B4F90E1003F0F5FC10B965
:10B30000B4F90C30E4E7A38923F0030343F001030D
:10B310001BB2DDE715AE0200024B0146186800F0D3
:10B320000BB800BFD0980020024B01461868FFF709
:10B33000FDBD00BFD09800202DE9F04F01F10B05B5
:10B34000162D83B0064623D8102900F2B98000F0EC
:10B3500095FB102518230220BA4F3B44A3F10802A5
:10B360005C68944200F0B980636823F003032344CF
:10B37000D4E902515A68E96042F0010230468D601A
:10B380005A6000F081FB0834204603B0BDE8F08F1E
:10B3900035F0070500F19480A94200F2918000F099
:10B3A0006DFBB5F5FC7FC0F0A2816B0A00F08F80C9
:10B3B000042B00F27881AB0903F1390003F1380C5A
:10B3C000C300A04F3B44A3F108015C68A14206D131
:10B3D0000CE0002A80F22781E468A14206D063686D
:10B3E00023F003035A1B0F2AF3DD60463C69DFF8A4
:10B3F00068C264457CD0636823F003035A1B0F2A9C
:10B4000000F38381002AC7E904CC80F27481B3F58C
:10B41000007F80F02581DB08591C7A6857F831805D
:10B42000C4F808804FF0010E9B100EFA03F307EBEF
:10B43000C10E1343AEF10802E2607B6047F8314071
:10B44000C8F80C408210012494409C4256D81C42FB
:10B4500006D120F0030064001C4200F10400FAD081
:10B4600007EBC009CE468046DEF80C309E4507D17A
:10B4700025E1002A80F22C81DB689E4500F01F81C7
:10B48000596821F003014A1B0F2AF2DDD3E9028E2D
:10B490005C1945F001055D6042F00105C8F80CE05B
:10B4A0003046CEF80880C7E90444C4E902CC6560A0
:10B4B0005A50009300F0E8FA009B03F1080402E000
:10B4C0000C2333600024204603B0BDE8F08F4FF416
:10B4D000007340204FF03F0C73E7DC68A34208BFC5
:10B4E00002307FF441AF3C69DFF86CC1644582D122
:10B4F0007B688210012494409C42A8D9BC68636890
:10B5000023F00308A84503D3A8EB05030F2B7ADC2F
:10B51000DFF848914C4BD9F800201B6801322B44CE
:10B5200004EB080A00F03C8103F580530F3323F449
:10B530007F6B2BF00F0B5946304600F0BFFA411CD1
:10B54000024600F0FC80824500F2F7803F4B18680D
:10B5500058441860014600F05781D9F80000019363
:10B5600001301BBFA2EB0A0A5144C9F80020196040
:10B5700012F0070A00F02081CAF108010A44CAF556
:10B58000805193440831A1EB0B01C1F30B094946EB
:10B590003046009200F092FA421CDDE9002300F0F0
:10B5A0005881801A00EB090B1868BA604BF0010152
:10B5B0004844BC425160186000F03281B8F10F0F6E
:10B5C00040F230816168A8F10C0C2CF0070C01F0FE
:10B5D000010104EB0C0E41EA0C014FF00508BCF12F
:10B5E0000F0F6160CEE9018800F23B81516814467B
:10B5F000174B1A68824238BF1860164B1A6882428D
:10B6000038BF18609DE0621943F0010345F0010561
:10B6100065603046BA60536000F036FA0834204660
:10B6200003B0BDE8F08F2344E1685A68A56842F092
:10B630000102E96030468D605A6000F025FA083456
:10B6400041E700BF009D002040B0002010B0002066
:10B6500038B000203CB00020089D002008A1002048
:10B660005A0A042A63D9142A00F2B78002F15C0155
:10B67000C9005B3207EB010E7958AEF1080E8E451A
:10B6800000F091804A6822F003029A4202D9896848
:10B690008E45F7D1D1F80CE07B68C4E9021ECEF8E4
:10B6A0000840CC60CEE6142B59D9542B00F29D8073
:10B6B0002B0B03F16F0003F16E0CC30081E608F160
:10B6C000010818F0030F0EF1080E7FF4CDAE51E023
:10B6D00019441C464A68DB6854F8085F42F00102CE
:10B6E0004A603046EB609D6000F0CEF9EBE6E8087A
:10B6F00005F1080330E6234430465A6842F001025F
:10B700005A60083400F0C0F9DDE6611945F0010E19
:10B7100042F00105C4F804E03046C7E90411C1E96C
:10B7200002CC4D60E25000F0AFF90834CBE69A0944
:10B7300002F13901C90038329CE7BC425FD0BC68D5
:10B74000616821F0030BAB45ABEB050302D30F2B74
:10B750003FF759AF304600F097F90024B3E603F104
:10B760005C0003F15B0CC3002BE659F808394B452C
:10B7700040F0968010F0030F00F1FF30F5D17B68A8
:10B7800023EA04037B6064009C423FF6B7AE1CB919
:10B79000B4E6640008F104081C42FAD040465FE6B3
:10B7A00003F1100BC7E67B6892104FF0010808FA0E
:10B7B00002F213437B6070E702EB0B004042C0F3E0
:10B7C0000B0949463046009200F078F9431CDDE948
:10B7D00000237FF4E6AED146E6E6542A25D81A0BBC
:10B7E00002F16F01C9006E3244E7B3F5AA7F25D894
:10B7F000EB0B03F1780003F1770CC300E1E5294B73
:10B80000196859441960A8E6CAF30B0CBCF1000F83
:10B810007FF4A3AEC344BC684BF001016160E7E66E
:10B820001446E5E60123536094E7B2F5AA7F23D8D6
:10B83000DA0B02F17801C90077321BE740F254526B
:10B84000934223D8AB0C03F17D0003F17C0CC300C1
:10B85000B7E5AAF1080AD344ABEB020B4FF000099D
:10B86000A2E604F1080130460093FFF75FFBBC68D5
:10B87000009B61681868BBE640F254518A420BD8BD
:10B880009A0C02F17D01C9007C32F3E64FF47E731D
:10B890007F204FF07E0C94E54FF47E717E22E9E626
:10B8A0007B6870E710B00020844641EA000313F083
:10B8B00003036DD1403A41D351F8043B40F8043BB7
:10B8C00051F8043B40F8043B51F8043B40F8043B7A
:10B8D00051F8043B40F8043B51F8043B40F8043B6A
:10B8E00051F8043B40F8043B51F8043B40F8043B5A
:10B8F00051F8043B40F8043B51F8043B40F8043B4A
:10B9000051F8043B40F8043B51F8043B40F8043B39
:10B9100051F8043B40F8043B51F8043B40F8043B29
:10B9200051F8043B40F8043B51F8043B40F8043B19
:10B9300051F8043B40F8043B403ABDD2303211D3B9
:10B9400051F8043B40F8043B51F8043B40F8043BF9
:10B9500051F8043B40F8043B51F8043B40F8043BE9
:10B96000103AEDD20C3205D351F8043B40F8043BB9
:10B97000043AF9D2043208D0D2071CBF11F8013BB7
:10B9800000F8013B01D30B8803806046704700BF7D
:10B99000082A13D38B078DD010F003038AD0C3F18C
:10B9A0000403D21ADB071CBF11F8013B00F8013B6E
:10B9B00080D331F8023B20F8023B7BE7043AD9D32D
:10B9C000013A11F8013B00F8013BF9D20B78037002
:10B9D0004B7843708B78837060467047F0B486076D
:10B9E00046D0541E002A3CD0CAB2034602E014F1ED
:10B9F000FF3436D303F8012B9D07F8D1032C29D946
:10BA0000CDB245EA05250F2C45EA054533D9A4F109
:10BA10001006360903F1200707EB061703F11002A1
:10BA200042E9045542E902551032BA42F8D1721C7B
:10BA300014F00C0F03EB021204F00F0613D0331FA7
:10BA400023F003030433134442F8045B9342FBD115
:10BA500006F003042CB1C9B21C4403F8011B9C423C
:10BA6000FBD1F0BC704734461346002CF3D1F8E705
:10BA700014460346C2E71A462646E0E70148FFF7A8
:10BA8000CFBB00BF28B200200148FFF7CBBB00BFEF
:10BA900028B200200FB400B5074983B004AB086892
:10BAA00053F8042B8168019300F066FA03B05DF847
:10BAB00004EB04B0704700BFD098002038B5074CA5
:10BAC000002305460846236004F0C4FA431C00D056
:10BAD00038BD2368002BFBD02B6038BD3CB2002062
