:020000021000EC
:10F0000000000120FDF4010025F5010027F50100B5
:10F0100029F501002BF501002DF50100000000008D
:10F020000000000000000000000000002FF50100BB
:10F0300031F501000000000033F5010035F5010055
:10F0400037F5010037F5010037F5010037F501000C
:10F0500037F5010037F5010037F5010037F50100FC
:10F0600037F5010037F5010037F5010037F50100EC
:10F0700037F5010037F5010037F5010037F50100DC
:10F0800045F5010037F5010037F5010037F50100BE
:10F0900037F5010037F5010037F5010037F50100BC
:10F0A00037F5010037F5010037F5010037F50100AC
:10F0B00037F5010037F501000000000000000000F6
:10F0C00037F5010037F5010037F5010037F501008C
:10F0D00037F5010037F5010037F50100044B05480D
:10F0E0001B1A062B02D9044B03B11847704700BF07
:10F0F0003F1400203C140020000000000549064891
:10F10000091A891001EBD171491002D0034B03B1E8
:10F11000184770473C1400203C14002000000000F9
:10F1200010B5064C237843B9FFF7D8FF044B13B151
:10F130000448AFF300800123237010BD3C1400206D
:10F1400000000000A4FE010008B5084B1BB10849EF
:10F150000848AFF300800848036813B9BDE80840C9
:10F16000CCE7064B002BF9D09847F7E700000000EA
:10F1700040140020A4FE010038140020000000000C
:10F18000134B002B08BF114B9D46A3F5803A00217D
:10F190008B460F461148124A121A00F07BF80D4BAD
:10F1A000002B00D098470C4B002B00D09847002034
:10F1B000002104000D000B4800F016F800F042F8A2
:10F1C0002000290000F004FB00F014F80000080003
:10F1D0000000012000000000000000003C1400209E
:10F1E000F41400201DF20100002301461A461846BF
:10F1F00000F09EB808B5074B044613B1002100F09B
:10F20000FFF8054B1868836A03B19847204600F061
:10F2100073F900BF01F4010090FE010038B5074DFD
:10F22000074C2C1BA41005D0013C55F8043D984711
:10F23000002CF9D1BDE8384000F024BE381400207D
:10F240003414002070B50F4E0F4D761BB61018BF4A
:10F25000002405D0013455F8043B9847A642F9D163
:10F260000A4E0B4D761B00F007FEB61018BF0024A7
:10F2700006D0013455F8043B9847A642F9D170BD39
:10F2800070BD00BF30140020301400203414002062
:10F290003014002070B4840746D0541E002A41D098
:10F2A000CDB2034602E0621EE4B3144603F8015BEC
:10F2B0009A07F8D1032C2ED9CDB245EA05250F2C9B
:10F2C00045EA054519D903F110022646103E0F2ED6
:10F2D00042F8105C42F80C5C42F8085C42F8045CAE
:10F2E00002F11002F2D8A4F1100222F00F0204F091
:10F2F0000F041032032C13440DD91E462246043A43
:10F30000032A46F8045BFAD8221F22F003020432D3
:10F31000134404F003042CB1C9B21C4403F8011BCC
:10F32000A342FBD170BC704714460346C2E700BF3E
:10F330002DE9F0472E4E34680746884691469A4696
:10F34000002C37D065681F2D13DD2A4B002B4AD0C7
:10F350008C20AFF300800446002844D0336803605B
:10F36000002330604360C0F8883077BB3D460123FE
:10F3700013E08FB1D4F8880028B3D0F8001140F81A
:10F3800025900126AE4000EB85033143022FC0F8E3
:10F390000011C3F880A007D06B1C02356360002009
:10F3A00044F82580BDE8F087D0F804311E43C0F84A
:10F3B0000461F1E7104B114C3460002BC2D01B6884
:10F3C000C4F88830BEE70B4B6BB14FF48470AFF3D9
:10F3D000008040B100216568C0F80011C0F8041138
:10F3E000C4F88800CBE74FF0FF30BDE8F08700BFDE
:10F3F000E414002000000000000000005814002069
:10F400002DE9F04F83B00F460190394BD3F80090AF
:10F41000B9F1000F32D09B46D9F80450D9F8888052
:10F420006C1E11D4AD002E1D4E4445444FB3B8F1AF
:10F43000000F02D0EB6F9F4223D0013C631CA5F16B
:10F440000405A6F10406F1D12A4BBBB1D9F804306A
:10F45000002B44D1D9F80030002B42D0CBF800303B
:10F46000B8F1000F02D04046AFF300804846AFF33A
:10F470000080DBF80090B9F1000FCDD103B0BDE8FA
:10F48000F08FD9F804303268013BA34216BF002345
:10F49000C9F804403360002ACFD0D9F804A0B8F1ED
:10F4A000000F16D0D8F800110123A3400B4210D052
:10F4B000D8F804110B420ED155F8041C019890475E
:10F4C000D9F804309A45A0D1DBF800304B45B4D0D0
:10F4D0009BE79047F4E755F8040C9047F0E7D9F81C
:10F4E0000030CB469946B9F1000F95D1C6E700BF71
:10F4F000E414002000000000FEE700BF0649074AB0
:10F50000074B9B1A03DD043BC858D050FBDC00F0CE
:10F5100017F8FFF735FE0000B0FE0100C813002009
:10F520003C140020FEE7FEE7FEE7FEE7FEE7FEE70D
:10F53000FEE7FEE7FEE7FEE7D0F800D0D0F804F0E3
:10F54000704700BF094BD3F80433DB0700D4704782
:10F5500000B5074B074A0021196083B01B6801936F
:10F560001368019A984703B05DF804FB000001405E
:10F5700000010140EC14002010B5124B124C1A7817
:10F5800021600AB1082010BD01221A70B0B10378C1
:10F590000E4CC4F80C354368590CD803B1F57A7F8A
:10F5A00008BF002801D3072010BD4FF47A72002352
:10F5B00000F0D6FAC4F80405002010BD0346044844
:10F5C000E6E700BFF0140020EC140020000001402A
:10F5D00098FE0100014B01221A60704700000140B3
:10F5E0000B4A1368072B01D90420704710B4591C2B
:10F5F000084C03701160D4F80825012101FA03F3C7
:10F600001343C4F8083500205DF8044B704700BF71
:10F61000E814002000000140704700BFF0B54FF033
:10F620001024C1B0D4F88050D4F88470D4F8886025
:10F63000D4F88C40A84272D03C4D0024C5F8044553
:10F64000D5F80044002CFBD0ADF104052E46002473
:10F650004FF0102E04F1200701345EF8277046F8B1
:10F66000047F202C4FF01027F4D1304CD7F800E263
:10F67000D7F80462D7F80C72009002200191029230
:10F6800003932146C4F80405D1F80024274B002A2F
:10F69000FAD00122C3F814251A46D2F80014234BDD
:10F6A0000029FAD00122C3F80425D3F80024002A47
:10F6B000FBD01E4A00214FF0102401F1200355F821
:10F6C000040F44F82300D2F80034002BFBD00131A2
:10F6D0002029F2D14FF01023144AC3F800E2D2F8E7
:10F6E0000034002BFBD04FF01023104AC3F8046203
:10F6F000D2F80034002BFBD04FF010230B49C3F895
:10F700000C72D1F80024094B002AFAD00022C3F869
:10F710000425D3F80024002AFBD041B0F0BDB94243
:10F720008AD1B24288D1A34286D1F6E700E00140F7
:10F7300038B54FF01023D3F88000D3F88410D3F8F5
:10F740008820D3F88C30541E092C08D95C1E092C53
:10F750001FD91E4CA24224D04FF4882405E05D1E20
:10F76000092D0ED922464FF40834002A08BF4FF065
:10F77000FF32002B08BF4FF0FF33FFF74FFF20464B
:10F7800038BD884209D3E4B94FF408344FF0FF3252
:10F79000F3E723464FF48824E7E74FF488242B4609
:10F7A000E7E7934204D01D464FF408342B46E0E7C8
:10F7B000154688422CBF4FF408344FF488242B465A
:10F7C000D7E722464FF40834D3E700BFD8C7B6A521
:10F7D0002DE9F043002383B002494FF0A0450324F4
:10F7E00006E000BF000040C0D20748BF45F82040F7
:10F7F0000133202B41FA03F203F5E070F4D1704994
:10F80000DFF8C8916F4D704E4FF0A0440020FFF715
:10F81000B3FE00270DF1070046F2A818FFF7E0FE3F
:10F82000FFF7D8FEFFF784FFD9F80030C4F80C5575
:10F830004246C4F8087500BF00BF00BF00BF00BF4C
:10F8400000BF00BF00BFB3422FD000BF00BF00BF4A
:10F8500000BF00BF00BF00BF00BF00BF00BF00BFB0
:10F8600000BF00BF00BF00BF00BF00BF00BF00BFA0
:10F8700000BF00BF00BF00BF00BF00BF00BF00BF90
:10F8800000BF00BF00BF00BF00BF00BF00BF00BF80
:10F8900000BF00BF00BF00BF00BF00BF00BF00BF70
:10F8A00000BF00BF00BF00BF00BF013AC3D1C4F812
:10F8B00008554246C4F80C7500BF00BF00BF00BF2A
:10F8C00000BF00BF00BF00BFB3422FD000BF00BFCA
:10F8D00000BF00BF00BF00BF00BF00BF00BF00BF30
:10F8E00000BF00BF00BF00BF00BF00BF00BF00BF20
:10F8F00000BF00BF00BF00BF00BF00BF00BF00BF10
:10F9000000BF00BF00BF00BF00BF00BF00BF00BFFF
:10F9100000BF00BF00BF00BF00BF00BF00BF00BFEF
:10F9200000BF00BF00BF00BF00BF00BF013AC3D18E
:10F93000C4F80C554246C4F8087500BF00BF00BFAC
:10F9400000BF00BF00BF00BF00BFB3422FD000BF49
:10F9500000BF00BF00BF00BF00BF00BF00BF00BFAF
:10F9600000BF00BF00BF00BF00BF00BF00BF00BF9F
:10F9700000BF00BF00BF00BF00BF00BF00BF00BF8F
:10F9800000BF00BF00BF00BF00BF00BF00BF00BF7F
:10F9900000BF00BF00BF00BF00BF00BF00BF00BF6F
:10F9A00000BF00BF00BF00BF00BF00BF00BF013AE3
:10F9B000C3D1C4F808554246C4F80C7508E000BF2E
:10F9C00019F60100000040C00024F4002C140020AF
:10F9D00000BF00BF00BF00BF00BF00BF00BF00BF2F
:10F9E000B3422FD000BF00BF00BF00BF00BF00BFA9
:10F9F00000BF00BF00BF00BF00BF00BF00BF00BF0F
:10FA000000BF00BF00BF00BF00BF00BF00BF00BFFE
:10FA100000BF00BF00BF00BF00BF00BF00BF00BFEE
:10FA200000BF00BF00BF00BF00BF00BF00BF00BFDE
:10FA300000BF00BF00BF00BF00BF00BF00BF00BFCE
:10FA400000BF00BF013AC3D1FFF776FDD9F800C06F
:10FA5000234630463C464146C3F80C550A46C3F897
:10FA6000084500BF00BF00BF00BF00BF00BF00BF10
:10FA700000BF84452FD000BF00BF00BF00BF00BF44
:10FA800000BF00BF00BF00BF00BF00BF00BF00BF7E
:10FA900000BF00BF00BF00BF00BF00BF00BF00BF6E
:10FAA00000BF00BF00BF00BF00BF00BF00BF00BF5E
:10FAB00000BF00BF00BF00BF00BF00BF00BF00BF4E
:10FAC00000BF00BF00BF00BF00BF00BF00BF00BF3E
:10FAD00000BF00BF00BF013AC3D1C3F808550A46B2
:10FAE000C3F80C4500BF00BF00BF00BF00BF00BF90
:10FAF00000BF00BF84452FD000BF00BF00BF00BFC4
:10FB000000BF00BF00BF00BF00BF00BF00BF00BFFD
:10FB100000BF00BF00BF00BF00BF00BF00BF00BFED
:10FB200000BF00BF00BF00BF00BF00BF00BF00BFDD
:10FB300000BF00BF00BF00BF00BF00BF00BF00BFCD
:10FB400000BF00BF00BF00BF00BF00BF00BF00BFBD
:10FB500000BF00BF00BF00BF013AC3D17CE700BFB8
:10FB600053B94AB9002908BF00281CBF4FF0FF3124
:10FB70004FF0FF3000F07EB9ADF1080C6DE904CE16
:10FB800000F006F8DDF804E0DDE9022304B0704778
:10FB90002DE9F0478C460E460446089D002B50D1B7
:10FBA0008A4217466CD9B2FA82FEBEF1000F0BD022
:10FBB000CEF1200420FA04F401FA0EF644EA060C11
:10FBC00002FA0EF700FA0EF44FEA1749220CBCFBBA
:10FBD000F9F01FFA87F809FB10C642EA064600FB57
:10FBE00008F3B34209D9F61900F1FF3280F02281FF
:10FBF000B34240F21F8102383E44F61AA2B2B6FB6D
:10FC0000F9F309FB136642EA064403FB08F8A04532
:10FC100009D9E41903F1FF3280F00A81A04540F2CE
:10FC20000781023B3C44C8EB040443EA0040002146
:10FC3000002D62D024FA0EF400232C606B60BDE826
:10FC4000F0878B4207D9002D55D0002185E841006F
:10FC50000846BDE8F087B3FA83F1002940F09080B0
:10FC6000B34202D3824200F2F880841A66EB0306A4
:10FC70000120B446002D40D085E81010BDE8F08783
:10FC800012B90127B7FBF2F7B7FA87FEBEF1000FF2
:10FC900035D1F31B4FEA17481FFA87FC0121B3FB4C
:10FCA000F8F0220C08FB103642EA06460CFB00F383
:10FCB000B34207D9F61900F1FF3202D2B34200F283
:10FCC000CE801046F61AA2B2B6FBF8F308FB136614
:10FCD00042EA06440CFB03FCA44507D9E41903F1EE
:10FCE000FF3202D2A44500F2B5801346CCEB0404E7
:10FCF00043EA00409CE729462846BDE8F087CEF15C
:10FD0000200106FA0EF307FA0EF720FA01F94FEA7E
:10FD10001748CE4049EA0309B6FBF8FA4FEA1944FE
:10FD200008FB1A661FFA87FC44EA06430AFB0CF23A
:10FD30009A4200FA0EF40AD9DB190AF1FF3180F079
:10FD400087809A4240F28480AAF1020A3B449B1ABF
:10FD50001FFA89F9B3FBF8F108FB113349EA0343B1
:10FD600001FB0CF69E4207D9DB1901F1FF326BD281
:10FD70009E4269D902393B449B1B41EA0A418EE706
:10FD8000C1F1200E22FA0EF48B40234320FA0EF725
:10FD900006FA01F44FEA134C26FA0EF63C43B6FB82
:10FDA000FCF9270C0CFB19661FFA83F847EA064694
:10FDB00009FB08F7B74202FA01F200FA01FA08D982
:10FDC000F61809F1FF3041D2B7423FD9A9F1020933
:10FDD0001E44F61BA0B2B6FBFCF40CFB146640EA12
:10FDE000064704FB08F8B84507D9FF1804F1FF30AF
:10FDF00028D2B84526D9023C1F4444EA0940C8EB42
:10FE00000707A0FB02894F4544464E4614D329D02C
:10FE100065B3BAEB040367EB060707FA0EFECB40A7
:10FE2000CF404EEA030385E888000021BDE8F08753
:10FE30001346F8E61046E0E6B8EB020469EB030669
:10FE40000138E5E70446D8E7114695E78146C0E763
:10FE50008A467CE7023B3C4448E708460AE702380A
:10FE60003E442FE7C245E7D33E46D1E72946BDE8E9
:10FE7000F08700BF704700BFF8B500BFF8BC08BCF2
:10FE80009E467047F8B500BFF8BC08BC9E46704758
:10FE9000CC1300204300000000000000E02E000012
:10FEA0000600000000000000D8F2FF7F0100000003
:10FEB000CC13002000000000000000000000000043
:10FEC0000000000000000000000000000000000032
:10FED0000000000094FE010000000000000000008F
:10FEE0000000000000000000000000000000000012
:10FEF0000000000000000000000000000000000002
:10FF000000000000000000000000000000000000F1
:10FF1000000000000090D00349F1010021F1010030
:04FF200000000000DD
:040000031000F000F9
:00000001FF
