:020000022000DC
:10600000000001209DA10200C5A10200C56B020095
:10601000C9A10200CBA10200CDA102000000000036
:10602000000000000000000000000000CFA10200FE
:10603000D1A1020000000000D3A10200D5A10200FE
:1060400051800200D7A102009D82020075860200E5
:1060500095850200D7A102000D810200E5830200B0
:106060004586020055860200D7A10200D7A1020092
:10607000D7A10200D7A10200D7A10200D7A1020038
:10608000D7A1020055660200D7A10200D7A10200E5
:10609000F1660200D7A10200859B0200D7A1020091
:1060A000D7A10200D7A10200D7A10200D7A1020008
:1060B0009D830200D7A10200000000000000000044
:1060C000D7A10200AD830200BD830200D7A1020068
:1060D000D7A10200D7A10200D7A102000000000052
:1060E00000000000000000000000000000000000B0
:1060F00000000000000000000000000000000000A0
:10610000000000000000000000000000000000008F
:10611000000000000000000000000000000000007F
:10612000000000000000000000000000000000006F
:10613000000000000000000000000000000000005F
:10614000000000000000000000000000000000004F
:10615000000000000000000000000000000000003F
:10616000000000000000000000000000000000002F
:10617000000000000000000000000000000000001F
:10618000000000000000000000000000000000000F
:1061900000000000000000000000000000000000FF
:1061A00000000000000000000000000000000000EF
:1061B00000000000000000000000000000000000DF
:1061C00000000000000000000000000000000000CF
:1061D00000000000000000000000000000000000BF
:1061E00000000000000000000000000000000000AF
:1061F000000000000000000000000000000000009F
:1062000010B5054C237833B9044B13B10448AFF3F0
:1062100000800123237010BD70A200200000000048
:106220009C19030008B5034B1BB103490348AFF3A6
:10623000008008BD0000000074A200209C1903002B
:10624000154B002B08BF134B9D46A3F5803A002148
:106250008B460F461348144A121A04F08BF80F4B62
:10626000002B00D098470E4B002B00D09847002001
:10627000002104000D000D48002802D00C4806F053
:1062800045F903F0B9FF2000290000F04BF803F0B6
:10629000A3FF00BF00000800000001200000000074
:1062A0000000000070A20020B8B400200DC502005C
:1062B00005D7020020BF40BF20BF70477FB5164CF6
:1062C000164E4FF47A72002120464FF47A7504F08E
:1062D00051F8002301220DF10F0100950F4801F044
:1062E00093FD0F4804F096F89DF80F3004F8013B39
:1062F0009DF80F300A2B01D104B070BD002300952A
:1063000001220DF10F01304601F07EFD9DF80F30A6
:1063100004F8013BECE700BF20B00020940203002A
:106320006602030038B500F0B7FD044640B1134AD9
:10633000862100F03BF9114A8821204600F036F909
:10634000002000F0C5FD00F02BFB18B10B4A8C219A
:1063500000F02CF90A4A0B490B4801F0B9FC18B1BE
:10636000064A922100F022F9084D094CFFF7A6FFDA
:106370002946204604F04EF8F8E700BF5C0203000F
:10638000780203003C0203009402030020B00020C6
:10639000630203000369C1688B429DBF8268D21803
:1063A00002F1FF3203F1FF3394BF501A581A7047BD
:1063B0002DE9F041D0E9027405463E1B4068964243
:1063C00020448846144404D903F03AFFEC60BDE849
:1063D000F0813246E41B03F033FF224608EB06014E
:1063E0006868F1E72DE9F843C5680646894617460F
:1063F0004FF000083469B3687068A54228BFE418FC
:10640000013C621B5C1BBC4228BF3C46944228BF37
:10641000144649462844224603F012FFB368254437
:10642000AB4208BF00253F1BA044A144F560E1D169
:106430004046BDE8F883000010B5114C114AA26136
:106440000223C4E90433104BE361A2644FF40073E8
:106450000E4A2362E264002310220D49A362E01D6C
:106460006362E362A3656365E365226504F0B6F8E1
:106470000849204604F0B2F82023A37110BD00BFE4
:1064800008B40020BC0203004CA300203CA3002061
:10649000C5020300C9020300F8B5184C182300FB1D
:1064A000033503FB00402544C46A012C0F46164601
:1064B00011D024B1022C1BD000242046F8BD284660
:1064C000FFF768FFB042F8D3324639462846FFF757
:1064D0006FFF3446F1E72846FFF75CFF86423446FB
:1064E00028BF0446224639462846FFF761FFE4E705
:1064F0002846BDE8F840FFF775BF00BF08B400208C
:1065000073B50E4B1B7804460D4616460BB9FFF7C4
:1065100093FF00230DF107008DF8073000F0FAFA21
:10652000324629462046FFF7B7FF04469DF807008C
:1065300000F020FB204602B070BD00BF08B4002070
:1065400010B511461C461A460020FFF7D9FF204619
:1065500010BD000082B001238DF807309DF8073090
:10656000114B1860596044F2010188429A6012D0C0
:1065700044F20201884206D1DA60DA6812889A6130
:10658000DA685268DA6172B69DF80730002BFBD1E9
:1065900062B602B070471A611A6992685A611A6944
:1065A00012689A611A69ECE74CA5002000B583B027
:1065B00002900091019244F2010071466A4603F094
:1065C00087FD03B000BD0000094A5378917801337C
:1065D000DBB2994208BF0023117899421FBF0370B4
:1065E0005078182303FB002014BF043000207047AC
:1065F0006CA5002073B5054600240DF107000E467A
:106600008DF8074000F086FA0DF10600FFF7DCFF79
:1066100090B10670094B9DF8062045605A709DF8B0
:10662000070000F0A7FA24B9054B4FF48012C3F815
:106630000021204602B070BD0424F0E76CA50020C4
:1066400000E100E0024B4FF43C6043F001031847C7
:10665000D0020300F8B51F491F4B0025C1F8405177
:10666000C1F84451C1F84851C1F84C51C1F800512A
:10667000C1F804511B684BB3D1F8044517490968A8
:10668000641A24F07F442F461A68A24209D8A41A3B
:1066900015441A7CDE691AB11F74D3E905209047AE
:1066A000AEB90F4A0F4B11781B788B4205D10133DD
:1066B000DBB2022B08BF0023137012780A4B43F899
:1066C00022500A4B4FF48012C3F80021F8BD334624
:1066D000DAE700BF001001408CA6002088A6002049
:1066E00085A6002084A600207CA6002000E100E012
:1066F0002DE9F04F9F4AA049137809789F4D9942A0
:1067000085B03CD00133DBB2022B08BF00231370ED
:106710009B4912789B4B0F6853F822003B1823F0DB
:106720007F4300220B602B6816461446944613B92B
:1067300042B12B6006E0196881420ED902B12B608C
:10674000091A19604FF001082B68DFF840A2019385
:106750000027BEB9DFF83CB266E0401A0C44D968A5
:10676000C3F800C0D3F81CE031B13A1922F07F42DF
:10677000C3E90121DE611E4601227346D7E70026E8
:10678000B046E1E73446F6697D4A63681268DFF88F
:1067900008C2A068991A21F07F41614500F2A580E6
:1067A00001442160012222742A680023C4E90133D4
:1067B000E361002A40F0A2802C60CAE75A1C9BF8D3
:1067C0000210D2B291428BF8002004BF00228BF855
:1067D0000020182202FB03B31A799C68022A1CD0FD
:1067E000032A12D0012A1FD1207CE8B9D968616040
:1067F0001A69A2605A69E2609B69A361624B1B78C7
:10680000002B18BF01466160BEE700222B681146CD
:10681000002B66D142B12B6006E029680A46894602
:10682000002A59D1002323749BF800309BF80120E3
:106830009A42C3D12B682FB9019A9A4202D1B8F17A
:10684000000F43D0002B41D0D3F800A04F4D4C4B4C
:10685000D5F804751C68DFF844813E1B98F80030B9
:1068600026F07F4603369BB94FF48033C5F8443396
:10687000C5F80433464B4FF400324FF00109C3F81A
:1068800080211A60C5F80090FFF7DCFE88F80090C0
:10689000B2452CBF5444A41924F07F44C5F84045A8
:1068A000D5F80435DB1B23F07F43E41B033324F0CE
:1068B0007F44A3420AD9D5F80435C5F84035FFF71F
:1068C000C1FE334B4FF40032C3F800212E4B00229F
:1068D0001A7005B0BDE8F08F944229D09146D26974
:1068E0009EE719740122DB6992E7D31A23F07F43F4
:1068F000834234BFC31A0023236053E7216813681F
:10690000994213D8591A1160E26155E7091AD869FA
:106910001A4638B1034618688842F7D3401A1860FF
:10692000184613462160E061DC6112E71346F2E786
:106930004C4511D1CB692B6073B9DFF844E00120DD
:10694000CDE90212CAF80800CEF800300E4B1870DC
:10695000FFF778FEDDE902121368D269C9F81C203E
:1069600012B11068034413602B68994218BF0127C5
:1069700058E700BF84A6002085A600208CA6002032
:1069800088A600207CA6002078A6002000100140E8
:1069900000E100E06CA50020FEFF7F0079A600204A
:1069A000F8B5194E194D1A4F4FF40033C6F8803020
:1069B00001244FF48033C5F84833C5F808336C60C0
:1069C000FFF740FEAC6000243C60FFF73BFE114B3C
:1069D0001C70114B0B221C809A70104B1C60104BCA
:1069E0001C70104B4FF480121C70E023C6F88021FD
:1069F00086F814333260C5F8084586F81133D5F8A7
:106A000004353B602046F8BD00E100E00010014085
:106A100088A6002079A600206CA500208CA6002066
:106A200084A6002085A60020074B9B784BB132B18D
:106A300028B10368187C20B959745A61704707203F
:106A400070470820704700BF6CA500202DE9F74370
:106A50001E4FBB7805460E469046A3B398B3042953
:106A60002FD943697BB3437C0024012B0DF1070030
:106A70000CBF8946A1468DF8074000F04BF80DF198
:106A80000600FFF7A1FDD0B101230370104B456054
:106A9000D3F80435C0E90498C0E902369DF8063001
:106AA0007B709DF8070000F065F824B9094B4FF49E
:106AB0008012C3F80021204603B0BDE8F08304240F
:106AC000EFE70724F7E70824F5E700BF6CA50020EF
:106AD0000010014000E100E0064A92783AB130B17E
:106AE000426922B1002202740221FFF783BD08200F
:106AF000704700BF6CA50020EFF30583C3F30803C4
:106B00002BB9EFF31480C04300F00100704701205F
:106B10007047000070B50446FFF7EEFF012803D070
:106B20001049432003F05CF9EFF3108672B60E4A69
:106B30009068012398B993600C4B0D4DD3F88010E9
:106B400029401160C3F88050D3F8841051604FF091
:106B5000FF32C3F88420207006B962B670BD23707E
:106B6000FAE700BFD602030080B4002000E100E095
:106B7000FC06FFBD10B50446FFF7BEFF012803D099
:106B80000949512003F02CF9084B9A685AB154B9BD
:106B9000EFF3108172B6064A1868106058685060AA
:106BA0009C6001B962B610BDD602030080B400201B
:106BB00000E100E0024B1B680021986803F03EBC36
:106BC000B49800201EF0040F1CBFEFF309800AE008
:106BD000EFF308800549064A884201D8904202D85E
:106BE0008D464FF00000034B1847000000000120C5
:106BF00000E000201D6C0200BFF34F8F0549064BDB
:106C0000CA6802F4E0621343CB60BFF34F8F00BF4A
:106C1000FDE700BF00ED00E00400FA052DE9F347B1
:106C2000054600F0FDFC00F03DFB0028FBD12F4B9A
:106C30002F4C9F6A2F4BE41AE408240444F001040B
:106C4000002D4ED0AA692C49204600F0ABFCEB6821
:106C50000193AB6800932949D5E90023204600F051
:106C6000C0FCEB6900932649D5E90423204600F0D7
:106C7000ACFC1E4BDB6A980703D52249204600F086
:106C80008DFCDFF89490DFF894A000264FF0010807
:106C900008FA06F33B4206D059F826201AB15146AD
:106CA000204600F07FFC01361A2EF1D1390605D5B9
:106CB0000E4B15495A6B204600F074FC3A0405D57A
:106CC0000A4B12499A6B204600F06CFC104B1B6873
:106CD000DB0700D500BE2846FFF78EFF02B0BDE8F7
:106CE000F0870C49204600F059FCC2E700ED00E0B7
:106CF000181A0300B01903002B030300400303001C
:106D000075030300D00303001F0403003F040300C6
:106D1000F0ED00E09D0303005C0403001404030095
:106D200050E8002F0B4640E8003C9CF0000FF7D1E4
:106D30001046704750E8003F43EA010240E8002C4B
:106D40009CF0000FF6D11046704750E8002F02EA81
:106D5000010340E8003C9CF0000FF6D1104670475C
:106D600050E8003F03EB010240E8002C9CF0000FCC
:106D7000F6D11046704750E8003FA3EB010240E80F
:106D8000002C9CF0000FF6D1104670470121FFF750
:106D9000D1BF0021FFF7D9BF37B5054620B9144947
:106DA0004FF4927003F01CF800240DF107008DF8E9
:106DB0000740FFF7AFFE2A68696813688B4210D955
:106DC000591E116013F8014C2A8AEB6802FB043447
:106DD0002A68AB6811685B1A1179DBB2994238BF37
:106DE00013719DF80700FFF7C5FE204603B030BDC4
:106DF0008409030037B50C46054620B9104940F216
:106E0000471002F0EDFF24B90D494FF4A47002F0D1
:106E1000E7FF00230DF107008DF80730FFF77AFE3A
:106E20002A681368591C1160EA68A41A2A8AB4FBFC
:106E3000F2F41C709DF80700FFF79CFE03B030BD14
:106E40008409030038B5074C051E04F1080318BF78
:106E50001C4623682BB11A6822605B682846984755
:106E6000F7E738BD98A6002020B9054B01225A70DB
:106E7000FFF7E8BF012802D1014A9070F8E7704798
:106E800090A6002020B9034B01225A70FFF7DABF09
:106E9000704700BF90A6002038B50B4C237883B90B
:106EA0000A486360A3602361E36001F051F805467E
:106EB00002F04EFE08B901F05FF801232370284666
:106EC00038BD8525FBE700BF90A60020696E020053
:106ED00037B51E4C237805461BB91D49E92002F041
:106EE0007FFFA37803F0FF02D3B115B16B680120D7
:106EF000984700230DF107008DF80730FFF70AFED1
:106F0000E3689DF807000133E360FFF733FEE368B1
:106F100023B90F4940F2051002F062FF03B030BD03
:106F20000DF107008DF80720FFF7F4FD25B1226968
:106F300013463BB92A602561E368002BE0D101F0DC
:106F400039F8DDE79D42F7D01B68F2E790A60020F4
:106F5000D409030013B5164C237823B915494FF40F
:106F6000857002F03DFFE36823B9124940F20B102F
:106F700002F036FF00230DF107008DF80730FFF710
:106F8000C9FDE368013BE360E36853B902F0E0FD4B
:106F900018B10849792002F023FF01F041F80023DD
:106FA000A3709DF80700FFF7E5FD02B010BD00BF1C
:106FB00090A60020D4090300012813B509D018B108
:106FC00003281CD002B010BD134B0122C3F880204F
:106FD000F8E7124C00230DF107008DF80730FFF79A
:106FE00099FD23780BB9FFF757FFE3689DF8070079
:106FF0000133E3600123A370FFF7BCFDE2E7074B19
:107000001B7823B9064940F2452002F0E9FE00F062
:10701000B3FFFFF79FFFD5E700E100E090A6002057
:10702000D40903001FB503788DF80030436801933D
:1070300083688DF80830C3680393054A054B68469A
:1070400053F8213052F82110984705B05DF804FB41
:10705000A4A60020A8A600201FB503788DF8003054
:107060004368019383688DF80830C3680393054A29
:10707000054B684653F8213052F82110984705B067
:107080005DF804FBA4A60020A8A60020F0B5194BCB
:10709000067891F81DE043F82620174B94460A69BC
:1070A00043F82620154B03F806E00C4607460FCCA4
:1070B00089B06D460FC594E80F0085E80F0004966F
:1070C000BEF1000F0AD0BCF1000F0D4A694608BF9F
:1070D0000022381D01F036FF09B0F0BDBCF1000FF1
:1070E000084A694608BF002207F10C0001F064FC61
:1070F000F2E700BFA8A60020A4A600208CB40020C0
:107100002570020059700200037813F0040216D0B3
:1071100003F00303012B03D0022B09D00120704799
:107120000A6800880232C0F3831002440A60F5E75F
:107130000B684288023303EB92130B60EEE71046B4
:10714000704700002DE9F04F89B000230446851CEC
:107150000DF10F000F4690468DF80F30FFF7DAFC67
:10716000494806683E60D0E90132134401339B1B55
:10717000824600F21C4600F5836900F21447AB42D8
:107180001BD30022B8F1000F77D0052363F3070269
:1071900064F38912DAF80010DAF808309DF80F006D
:1071A0000B4003330D444AF82320CAF80050FFF780
:1071B000E1FC012009B0BDE8F08F01213046FFF766
:1071C000CFFD4846FFF7E2FD3846FFF7DFFDDAF86E
:1071D0000400DAF808B0049000EA0B0003300AEB70
:1071E000800004A9FFF790FF03460498002BF3D119
:1071F0000BEA00020AEB820200F1020CD26805924F
:10720000013000EA0B0B0AEB8B0B02F00302012AA0
:10721000CDF810C0DBF80C1026D0022A08D01B498C
:1072200001934FF4BF7002F0DBFD019B9B4608E029
:10723000BDF81620920903320CEB92024FEA114B73
:1072400004923846FFF7A5FD10B1049BCAF804303C
:1072500059463046FFF784FDDAE901231344DAF892
:10726000002001339B1A8AE7BDF81430C3F383135F
:1072700063444FEA114B0493E3E7062363F30702E9
:1072800064F39F5286E700BF7CA70020360A030004
:10729000034BD3E90030C31A58425841704700BF2E
:1072A0007CA700202DE9F04387B0FFF7F1FF0646E9
:1072B000002840F0FB807E4DC5F81804BFF34F8FC7
:1072C0006868AC6802902040033005EB800002A99A
:1072D000FFF71AFF029B18B1D5F81824002A5FD0D7
:1072E00004EA0302991C013305EB8202234005EBFB
:1072F0008303D268DB68049302F00303022B03923A
:10730000029162D1BDF80E306A484FEA9318B8F185
:10731000500FC14628BF4FF0500969F38F1309F190
:107320000801ADF80E3000F0F9F90746002800F02A
:10733000A88000F022FA03A900230822384600F0B2
:107340002FFA029924EA01060136B600B14535D973
:107350005FFA89F97EB3F6B2A9EB06092140033141
:107360005FFA89F4B146544E05EB810108234A4681
:10737000384600F015FA36B109F1080322463146C5
:10738000384600F00DFA029B08F1030803EB98035E
:107390000293D5F81834002B4BD1D5F810445BE09C
:1073A0002A689A4204D86A60304607B0BDE8F08384
:1073B00004EA030088E740493446D7E72140033117
:1073C00008234A4605EB8101DAE7012B59D1BDF8C4
:1073D0000C303848C3F38311062928BF062161F316
:1073E000891302318900ADF80C3000F097F9074697
:1073F000002846D000F0C1F90023082203A938462E
:1074000000F0CEF90026BDF80C20C2F38312B300C1
:10741000964203F10803BCD202994A1C2140033171
:10742000029205EB81010422384600F0B9F90136D9
:10743000E9E7384600F0A5F9FFF72AFF80F00100E0
:10744000C6B2B1E7E3685B7923B1236839461B68AC
:1074500020469847E3681C68002CF3D1384600F0BA
:1074600090F90DF107008DF80740FFF753FBD5F8B1
:1074700018340BB9029B6B609DF80700FFF77AFB8D
:10748000DAE7D5F8104454B90C4B0D480D49C01A31
:10749000C008000440F0020000F080F8CCE7236848
:1074A00020469B689847E3681C68ECE700267BE76A
:1074B0007CA70020481A030088A70020B019030009
:1074C000081A03008D0A03002DE9F74F2E4C804661
:1074D0000F46914601A9012218461E46D4F808A07D
:1074E000FFF730FE00283CD0019D0023A81CB342CA
:1074F00003EB00013FD100212448FFF711FC80F38A
:10750000100B234B234A4FEA18499B1AB9EBD30FB0
:1075100004D3214940F2A31002F062FC6B1C03EA81
:107520000A0304EB830349EA0B42DA6005EA0A0323
:10753000033314F8232068F3C50204F8232034F839
:10754000232066F3891224F8232054F8232067F3BC
:107550009F2244F8232002F0F80242F0010204F8CE
:10756000232094F820341BB1FFF79CFE0028FBD1A8
:1075700003B0BDE8F08F0AEA010104EB810159F87C
:107580002320CA600133B2E77CA7002098AB00201B
:10759000481A0300B0190300360A030000231A46F4
:1075A000FFF792BF07B50123019201AAFFF78CFFF5
:1075B00003B05DF804FB07B5CDE9002302236A465A
:1075C000FFF782FF03B05DF804FB1FB5CDE901238F
:1075D000069B039301AA0323FFF776FF05B05DF82E
:1075E00004FB1FB5CDE90023069B0293079B039381
:1075F0006A460423FFF768FF05B05DF804FB7FB51A
:10760000CDE90123089B0393099B04930A9B0593EF
:1076100001AA0523FFF758FF07B05DF804FB00003F
:1076200038B5094A0123D2F8104482F820341D46A7
:1076300004B938BDE3685D71236820465B689847EC
:10764000E3681C68F4E700BF7CA700202DE9F74F32
:1076500099469DF83030019388461746054618B97B
:107660002249B62002F0BCFBEA8895F805B00BFB76
:1076700002FBABF1040BCB4503D81C49C42002F03C
:10768000AFFB3E68B5F806A006EB09025A4509F1C2
:10769000040188BFABEB0906B1FBFAF43E600AFBBC
:1076A000141144B9AAEB0107B74228BF37462EB9D7
:1076B00003B0BDE8F08F2D68013CF2E7019A043178
:1076C00008EB0403681872B101463A461846F61BE7
:1076D00002F0B6FDB2453C442D6857464FF000011C
:1076E00028BF3746E3E73A461946F0E7A20A030007
:1076F000F8B546790146721E0546002393422D686F
:1077000003D30024A64202D8F8BD0133F6E70F6880
:107710002846FFF76FFB01343946F3E72DE9F843BC
:10772000CD1C068A0746FFF737FB043E3544044666
:10773000B5FBF6F5F0B14FF48073EDB28380C680EF
:10774000013D076081464FF00008A84512D2384637
:10775000FFF722FB064648B163790133637108F1F4
:107760000108C9F8000007608146EEE72046FFF7F0
:10777000BFFF34462046BDE8F88301210430FFF7FF
:10778000EFBA10B5012104460430FFF7F4FA10F007
:10779000FF0F04D12046BDE81040FFF7A9BF10BD80
:1077A0001FB5144603920022009203AAFFF74EFF72
:1077B000039BA34203D00349F62002F011FB04B05F
:1077C00010BD00BFA20A030002681368526893420A
:1077D00091BFD01A80680130801888BFC01A7047E6
:1077E00038B50C46054618B90449772002F0F8FA76
:1077F000AB68A3428CBF601C002038BDFB0A0300AD
:107800002DE9F84303681D685C68A54284BF83685E
:1078100001331746884694BF641B5C1BC2684168ED
:10782000BC42064605FB02110CD37A43404602F0E7
:1078300007FDB3683D449D4288BF002533681D6045
:10784000BDE8F88304FB02F94A46404602F0F8FC22
:10785000F26871683C1B624308EB090002F0F0FC1F
:1078600033681C60ECE7000073B50E46144605460D
:1078700020B9124940F2D51002F0B2FA26B90F49E8
:107880004FF4EB7002F0ACFAACB100230DF107003D
:107890008DF80730FFF73EF92846FFF795FF844241
:1078A00028BF0446224628463146FFF7A9FF9DF827
:1078B0000700FFF75FF9204602B070BDFB0A030026
:1078C00037B5044620B90B4940F2EF1002F088FAB0
:1078D00000250DF107008DF80750FFF71BF90C226A
:1078E0002946206802F046FD9DF80700FFF742F99F
:1078F00003B030BDFB0A030013B5044620B90B49A1
:1079000040F2FD1002F06CFA00230DF107008DF833
:107910000730FFF7FFF82046FFF756FF04469DF8B3
:107920000700FFF727F9204602B010BDFB0A03004D
:1079300038B5044620B9054940F2122002F050FA49
:107940002046A568FFF7D8FF281A38BDFB0A0300B8
:107950002DE9F047044616468946FFF7E9FF2368FC
:10796000A2685D6802F101088246A8EB0507586825
:10797000E2686368B74202FB003017D3724349469E
:1079800002F05EFC2268A168536833448B4296BFC4
:1079900053680026F61856602046FFF715FF236847
:1079A0009A68824238BF9860BDE8F08757433A46EC
:1079B000494602F045FC3544E2686068A5EB0805DD
:1079C0006A4309EB070102F03BFC2368B2455D60A6
:1079D000E2D2256820466968FFF702FF2860DBE7EE
:1079E00073B50E461446054620B916494FF4B470D7
:1079F00002F0F6F926B9134940F2691002F0F0F9E5
:107A0000ACB100230DF107008DF80730FFF782F8C5
:107A10002B7C7BB9AB689C4228BF1C46284622467B
:107A20003146FFF795FF9DF80700FFF7A3F82046C2
:107A300002B070BD2846FFF77BFF844228BF044692
:107A4000ECE700BFFB0A030038B50D46044618B941
:107A50000849502002F0C4F91DB90649512002F02E
:107A6000BFF925602B6863606A68934204BF0023F6
:107A7000636038BD490B030010B5044618B90B49C3
:107A8000632002F0ADF923681BB90849642002F0B5
:107A9000A7F9636843B1226891680B446360526838
:107AA000934204BF0023636010BD00BF490B030075
:107AB00043691B68DB6803B11847704701230370F3
:107AC0007047000010B5044618B90849922002F02A
:107AD00087F92368012B03D00449932002F080F931
:107AE000BFF35F8F0023236010BD00BFB20B030004
:107AF00010B4074C0378E35C23B104305DF8044B09
:107B000001F02CBB0C305DF8044B01F059B800BFFC
:107B10008CB4002010B4074C0378E35C23B104302C
:107B20005DF8044B01F08EBB0C305DF8044B01F0A6
:107B3000B7B800BF8CB4002070B50578012D06469B
:107B40000C4604D069B249B3022D25D070BD4B69F3
:107B5000027A1B6841685B681868FFF741FF337A57
:107B6000834205D903212046BDE87040FFF7A0BF3E
:107B700029462046FFF79CFF63691B689B682046E7
:107B80005A7A5968FFF7C6FF0028DFD010499B20BA
:107B9000BDE8704002F024B92946E4E763691B6838
:107BA0005A689D6856682046FFF782FF2A7A29683E
:107BB0003046FFF759FE0028C8D0C2B229682046D7
:107BC000FFF796FF0028C1D00149B220E0E700BFCF
:107BD0004C0C030010B5044618B90749852002F083
:107BE000FFF801212046FFF79BF8BFF35F8FB0FA43
:107BF00080F0400910BD00BFB20B030003681A7883
:107C000012B11B6903B11847704700002DE970439A
:107C100004464FF4FA784FF400404FF00009E0FBBF
:107C20000189164600234FF47A724046494608F00F
:107C300077F90428054604D8012333700020BDE8F5
:107C40007083074A00212046FEF7EEFE0028F6D199
:107C5000324629462068BDE87043FEF7F7BE00BFF4
:107C6000BD7A02002DE9F04743691B680646187883
:107C70000F46144618BBFF2A28BFFF24DFF84C909C
:107C80002546274406F10C0A337819F80330A7EB90
:107C9000050883B1301D01F06DFB00B115B9601B03
:107CA000BDE8F087012241463046FFF733FF002848
:107CB000F5D1013DE8E7504601F088F8EDE75B6853
:107CC000BDE8F0471868FFF7CFBD00BF8CB40020B7
:107CD000F0B50E4689B01546044608B101B11AB98F
:107CE0004449BF2002F07CF863691B68002B7ED1F9
:107CF0002B783BB16B680BB1AB681BB93D49C92010
:107D000002F06EF831462022684602F099FA2B788C
:107D10000494991E4A424A41002B8DF81D20694661
:107D2000354A204608BF0022FFF7B0F90646002872
:107D300038D163691D6063691B685B6843B158682B
:107D4000FFF7BEFD63691B685B681868FFF7B8FD45
:107D5000656915F1080F03D12849722002F040F837
:107D60000023AB60BFF35F8F67693A1D1D4603D1E7
:107D70002249722002F034F87D60BFF35F8F63699F
:107D800003221A73009B013301BF6269137B23F046
:107D900002031373019A6369013206D11A7B22F040
:107DA00001021A73304609B0F0BD1B681B78022B24
:107DB00009D163691B689B6820465A7A5968FFF7A6
:107DC000A9FE0646EEE723780D4AD35C53B10D4970
:107DD00040F25A2002F004F863691B681B78002BFC
:107DE000E7D1DFE704F10C0000F0F8FFF4E78526A7
:107DF000D8E700BF4C0C0300397B0200B20B030034
:107E00008CB40020FE0B03002DE9F74F0C9F8A462F
:107E100016469846044620B9374940F2A31001F0AF
:107E2000DFFF60690368002B5DD0037BDA075CD558
:107E3000002E3DD00830FFF7CDFE002857D000239C
:107E40008DF804307B1C35D1354651462A462046F4
:107E5000FFF708FFB5EB0009834682440ED09DF87A
:107E600004306069002B3AD003681B7833B1237863
:107E7000224AD35C73B3201D01F084FAB8F1000FDD
:107E800003D05E44761BC8F800609DF804302BB91F
:107E9000013703D0E3691868FEF71EFE60690830F9
:107EA000FFF710FEB9F1000F02D09DF8043003BBBC
:107EB00000250BE001AA3946E069FFF7A7FE054659
:107EC0000028C1D060690830FFF7FCFD284603B0E8
:107ED000BDE8F08F04F10C0000F096FFCEE7FFF74D
:107EE0008DFE4D46B1E78025F0E70825EEE7112528
:107EF000ECE70D25EAE700BF4C0C03008CB4002032
:107F000010B50D49A1F59472914201D800200FE0FF
:107F10008B1ADB1003EBD3735B1002EBC30452F834
:107F20003330834205D802D204F10802ECE76068DE
:107F300010BD2146E8E700BFD80D030008B5FFF7E4
:107F4000DFFF024B002808BF184608BD9C0C030049
:107F500010B5044618B90649A02001F041FF054BB1
:107F6000187918B901221C609A8010BD8520FCE7A1
:107F700092110300A0AB002008B50B4B1B791BB975
:107F80000A49B92001F02CFF094B1A68D2075FBFDC
:107F9000E02283F8002301221A604FF0804301227F
:107FA000C3F8182508BD00BFA0AB00209211030044
:107FB00000E100E037B5144B1B791BB91349E620EB
:107FC00001F00EFF124B00221A601B680193019B07
:107FD0004FF080430222C3F804230E4AD06840F0D9
:107FE0008073D3600C4B1C6844F0010119605D681C
:107FF0005968491BB1F50A5FFAD31C60074BD06082
:1080000001221A6003B030BDA0AB00209211030022
:1080100004010040F0ED00E0001000E00800004026
:1080200008B5084B1B791BB90749F32001F0D8FEAE
:10803000064B01221A604FF08042D2F81834DB035D
:10804000FBD408BDA0AB0020921103000C0000403F
:1080500007B5154B1A687AB100221A601B680093A5
:10806000009B4FF080430122C3F808230F4B58793F
:1080700010B95A711B6898470D4B1A6882B10022DB
:108080001A601B680193019B4FF080430222C3F8E2
:108090000823064B1B68012003B05DF804EB18476A
:1080A00003B05DF804FB00BF00010040A0AB00205E
:1080B0000401004000F1804000F5C040002382B080
:1080C000036003680193019B02B0704702494FF4BB
:1080D000F37001F085BE00BFE51103001F2838B51D
:1080E00004460D4601D9FFF7F1FFA00000F1A040C2
:1080F000D0F8002722F44032C0F80027D0F800372B
:1081000043EA0543C0F8003738BD00002DE9F04FC1
:1081100087B000245D4D03944FF48072012102F179
:10812000804303F5C04390B21B68012B06D1D5F8FC
:1081300004330B4202D0FFF7BDFF0C430432B2F50B
:10814000907F4FEA4101EAD1514B1B68012B0AD1C4
:108150004FF4BE70FFF7AEFF4FF0A04344F0004471
:10816000D3F81035039314F0FF0F1AD0494F0025B0
:108170000126344210D0AB0003F1804303F5C04325
:10818000D3F81005D3F8101557F8253023B1C1F3F3
:108190000141C0F3042098470135082D4FEA4606F7
:1081A000E7D1002C6ADA00224FF0FF33CDE9042337
:1081B000384FDFF8E480002635464FF0A04A18F922
:1081C000014B631C4FD0E4B2012224F0C00B04F039
:1081D000070302FA03F34FEADB0006AA111811F8AD
:1081E000042C1A423FD007EB0B02A40992F930206D
:1081F00057F82290B9F1000F0AD1032C33D10DF1B9
:10820000100E1EF800C04CEA030C0EF800C001E08E
:10821000032CF4D0BBF11F0F05D9CDE90031FFF7D6
:1082200055FFDDE900310BF5E07011F80C1C5AF830
:1082300020001942C0F3014005D0022813D1032CBD
:108240000BD1214604E003280DD1032C05D10221D6
:108250005846FFF743FF0135EDB2B9F1000F02D0E8
:1082600021465846C8470136042EA8D135B14FF0F3
:10827000A043039AD3F81035934202D107B0BDE86A
:10828000F08F0393049B059393E700BF00600040C9
:108290007C610040A8AB0020F8AB002010B5054C75
:1082A00022681AB90449512001F09AFD2368BDE8FB
:1082B0001040184704AC00203312030037B50D46B8
:1082C00030B90F49772001F08BFD002003B030BD9D
:1082D0000C4B9842F9D100230DF107008DF80730BF
:1082E000FEF718FC084B1C7914B901221D601A71A5
:1082F0009DF80700FEF73EFC002CE6D01120E5E7D4
:10830000331203000020004004AC0020002343503F
:1083100082B043580193019B02B0704770B5D0F80A
:10832000103105460C4653B14FF48871FFF7EEFF4C
:1083300063795A0703D523680BB101209847D5F814
:1083400014315BB14FF48A712846FFF7DFFF637980
:108350001B0703D523680BB102209847D5F81C31C1
:108360005BB128464FF48E71FFF7D0FF607910F0B3
:10837000100002D1236803B19847D5F8043163B1E6
:108380004FF482712846FFF7C1FF01232371236850
:108390001BB10320BDE87040184770BD0149024879
:1083A000FFF7BCBF0CAC002000C0014001490248EF
:1083B000FFF7B4BF14AC002000100240014902488E
:1083C000FFF7ACBF1CAC00200020024000F1804051
:1083D00000F5E040002382B0036003680193019B35
:1083E00002B07047F0B5534B534C1B6885B0002B5F
:1083F0003DD04FF4827094F82E20FFF7E7FF2AB3A8
:1084000094F82F3013BB4D4B1B68002B33D04FF427
:108410008070FFF7DBFF94F82D20638B91B28B42C5
:108420004ED95B1A21899BB26383CB1A616801EB39
:108430004301434BC3F82C16C3F830264FF4827027
:10844000FFF7C4FF3F4B01221A6014E063680293F8
:108450002389ADF80C30E36800218DF8041023BBAC
:108460002374236801A89847002384F82F3094F8D8
:108470002E30002BC7D1344B1B685BB14FF4887092
:10848000FFF7A4FF0023237402238DF8043001A812
:10849000236898472D4B1B6813B34FF48A70FFF77E
:1084A00095FF0023237405B0F0BD208B60836360CB
:1084B0002081E160002AD4D1214B01221A60D0E74B
:1084C000BCD1E368012184F82F103BB10021618306
:1084D0001B49C1F82C36C1F83026AFE76383ADE7FE
:1084E00066694FF000470125002EDCD0B6FA86F20F
:1084F00027FA02F34632920026EA030602F180438D
:1085000003F5E0431B68002BEED01046FFF75EFF3B
:10851000A2F58C72D30882F00402C2F380028DF8B7
:1085200008308DF804508DF80920236801A8984779
:10853000DAE700BF0471004024AC00200071004065
:108540000070004004700040107100401471004041
:1085500002494FF4F37001F043BC00BFE511030082
:108560001F2810B5044601D9FFF7F2FF01234FF091
:10857000A042A340C2F80C3510BD1F2810B5044618
:1085800001D9FFF7E5FF01234FF0A042A340C2F855
:10859000083510BD13B54FF04023D3F818310BB395
:1085A000114B124C00221A601B680193019B236837
:1085B00023B90F494FF4277001F012FCE07FFF2828
:1085C00003D0A37F5BB1FFF7CBFF00236377237258
:1085D000D4E90031074802B0BDE810401847FFF762
:1085E000CCFFF2E702B010BD1841004054AC0020AF
:1085F000901203005CAC00202DE9F74300240646EE
:108600000F4600F5A0754FF48038A146A0002B68F6
:1086100000F5A07080B26BB1D6F8043308FA04F20A
:108620001A4207D0C5F800902B680193019BD7E947
:10863000003198470134042C05F10405E6D103B05C
:10864000BDE8F08301490248FFF7D6BF78AC0020AF
:108650000080004001490248FFF7CEBF84AC0020F3
:10866000009000400023435082B043580193019B87
:1086700002B07047F0B5504C236887B023B94F491A
:1086800040F2452001F0ACFB4D4AD2F824311546AA
:10869000A3B14FF492711046FFF7E4FFD2F8043112
:1086A00063B9A368C2F808330223A360A368C2F8C1
:1086B000043301231362536107B0F0BDD5F80431D0
:1086C000002B49D03F4F3E484FF48271FFF7CAFF5D
:1086D0000FCF01AE0FC63B68336094F82E307BB1EC
:1086E000237B012B0CBFD5F83C25D5F84C250292F5
:1086F000022B334B0CBFD3F83C35D3F84C350393E6
:108700004FF4B0712E48FFF7ADFF4FF4AE712C4817
:10871000FFF7A8FF94F8303013B194F82E303BB136
:10872000274B0022C3F80022A260274AC3F808237F
:10873000234AD2F8C434C2F8C4349A0736D5012388
:108740008DF8003094F830300BB984F82F30D4E92C
:10875000003168469847AFE74FF4A4711848FFF717
:1087600081FF237B83B9174F0FCF01AE0FC63B6844
:10877000336094F83030002BDAD1C5F80032A360B2
:10878000114BC5F80833D3E74FF40073C5F8003236
:1087900040F20223A36003F1CE73C5F80833A36847
:1087A000C5F804330123AB602B6285E713F00403A3
:1087B00018BF0223C4E700BF90AC0020E7120300FB
:1087C000003000409CAC002002029C01002343507A
:1087D00082B043580193019B02B070470A4610B51E
:1087E0004FF48E71FFF7F2FF136A9168C95C136A48
:1087F00001331362C0F81C1510BD08B502464FF4D2
:1088000092710068FFF7E2FF4FF484711068FFF780
:10881000DDFF136801221A6008BD10B58B690A4696
:108820004FF4847123B9FFF7D1FFD0F8183510BD8C
:10883000FFF7CCFF536AD168D0F81805C854536AC3
:1088400001335362F3E7000002494FF4F37001F083
:10885000C7BA00BFE51103001FB501238DF8003032
:10886000044BCDE90110D3E900126846904705B0EA
:108870005DF804FBC4AC002030B54D4AD2F8043397
:1088800013F4007F85B015464FD0D2F82431002B69
:108890004BD04FF492711046FFF798FF4FF40173DD
:1088A000C2F80833434B93F8291009B901215160EC
:1088B0003F4902228DF80020D1F88024C1F880249D
:1088C00003929A690292DA6801920022C3E90622B1
:1088D0006846D3E9001290473548D0F81C315BB1A7
:1088E00034490A6A4B699A420A464CD291F82830B8
:1088F000002B48D1FFF772FF2D4AD2F8443193B1D3
:108900004FF4A2711046FFF761FF2A4B93F829102C
:1089100009B1012111609A692AB100229A61586A4D
:10892000D968FFF799FF05B030BDD5F804335B0770
:10893000D2D5D5F80831002BCED01E4C1C4821468C
:10894000FFF76BFF636AA2699A422346C4D1E269CA
:1089500052B12369E168E3600023606AA261E361C8
:108960006362FFF779FFB7E794F829200AB901227B
:108970006A600F4A4FF40171C2F8081300229A612D
:10898000586AD968EDE74FF48E710948FFF71EFF6A
:1089900051690029B0D00023029191688DF8003010
:1089A000019153616846D2E900139847A4E700BFDC
:1089B00000200040C4AC00202DE9F84F0546924647
:1089C0000C4619B97749AA2001F00AFA764B2E799C
:1089D0002C2202FB0632984692F82A20002A40F008
:1089E000DD8072492868FFF769FC0746002840F0DF
:1089F000D780D4F80090B9F1FF3F18D0B9F11F0F1C
:108A000001D9FFF721FF4FF0A043012202FA09F23A
:108A1000C3F80825D4F800B0BBF11F0F994601D95F
:108A2000FFF712FF0BF5E07B032349F82B30D4F856
:108A30000490B9F1FF3F0BD0B9F11F0F01D9FFF737
:108A400003FF09F5E0794FF0A043002243F8292005
:108A50002B68A269C3F82425217D637D2A680B4316
:108A6000C2F86C35D4E900212B68C3F81415C3F89B
:108A70000C25237D012B35D1D4F80890B9F1FF3FA7
:108A80000BD0B9F11F0F01D9FFF7DEFE09F5E07930
:108A90004FF0A043002243F82920D4F80C90B9F1FC
:108AA000FF3F18D0B9F11F0F01D9FFF7CDFE4FF0EE
:108AB000A043012202FA09F2C3F80825D4F80CB049
:108AC000BBF11F0F994601D9FFF7BEFE0BF5E07B06
:108AD000032349F82B30D4E902212B68C3F8081589
:108AE000C3F810252C23734308EB0302C2F804A03B
:108AF000226948F80320BAF1000F3CD04FF48E7180
:108B00002868247FFFF762FE4FF4A2712868FFF700
:108B10005DFE2B68264AC3F804232B684FEA133AFC
:108B2000A31E012B4FFA8AF906D9631F022B03D922
:108B300020496B2001F054F9B9F1000FACBF09F1E5
:108B400060431D4B4FEA4414B8BF0AF00F0AE4B269
:108B5000AABF03F5614303F80A4083F800432B687A
:108B60001B0B5AB2012103F01F0301FA03F3520950
:108B7000124941F822302B680422C3F800252C2327
:108B800003FB06830022C3E9062283F829205A61E9
:108B9000012283F82A203846BDE8F88F0827FAE733
:108BA0001127F8E738130300C4AC002079880200CD
:108BB000800002008413030014ED00E000E100E0F7
:108BC0002DE9F84F344E90F804802C2303FB086302
:108BD000074693F82A30012B8A46934604D02F4942
:108BE00040F2151001F0FCF8BAF1000F04D12B4946
:108BF0004FF48B7001F0F4F8BBF1000F04D127495A
:108C000040F2171001F0ECF83B792C2404FB0363CD
:108C10005D69002D3BD108FB04694FF48E71C9F8E2
:108C20002050C9F814B0C9F808A089F8285038684D
:108C3000FFF7CCFD3B6801229A6049463868FFF790
:108C4000CDFDD9F804304C461BBB3D68226A6369F0
:108C50009A4211D33B68D3F81C21002AFBD0012291
:108C6000DA6000202C2303FB086600237361BDE853
:108C7000F88F94F8283043B9D5F81C31002BF8D080
:108C800049462846FFF7AAFDE0E70F20EAE7112052
:108C9000EDE72846EBE700BFC4AC00203813030023
:108CA0002DE9F843474E05792C2303FB056307465E
:108CB00093F82A30012B8846144604D0424940F2EA
:108CC000691001F08DF8B8F1000F04D13E494FF45E
:108CD000B57001F085F824B93B4940F26B1001F002
:108CE0007FF82C2303FB0563596821B13B684FF4DF
:108CF0000172C3F808232C2303FB05639A6952B160
:108D0000DA69002A3FD021B13B684FF40172C3F801
:108D10000423112035E09C61C3F80C805A62DA61AB
:108D20002C2303FB056393F829301BB912B938468D
:108D3000FFF763FD4FF02C0909FB05683868D8F888
:108D40000430002B35D14FF4A271FFF73FFDC1462F
:108D50003868D0F82431D0F80821D0F84441BAB9A5
:108D60000CB9002BF4D02C2202FB05650022AA616D
:108D700023BB2CBB95F829103B680122B9B11A60BE
:108D80000020BDE8F883C3F81080DC610122C7E74A
:108D9000002BE8D1002CE6D14946FFF73EFDD8F87C
:108DA0002430D8F818209A42D2D82346DBE75A60FC
:108DB000E6E74FF40173C0F80433E1E70320E0E78E
:108DC0000F20DEE7C4AC0020381303000368D3F89B
:108DD0000801003018BF01207047000070B502790B
:108DE000084C2C2505FB0242064692F829303BB977
:108DF000FFF703FD337905FB0343012283F82920A4
:108E000070BD00BFC4AC002003684FF40172C3F80A
:108E10000823036801225A6070470023435082B040
:108E200043580193019B02B07047000002494FF480
:108E3000F37000F0D5BF00BFE51103001FB501239B
:108E40008DF80030044BCDE90110D3E900126846DB
:108E5000904705B05DF804FBF0AC00207FB5374AC1
:108E6000D2F82461002E48D010464FF49271FFF7DB
:108E7000D4FF02238DF80030D2F88034C2F8803459
:108E80000393D2F83C3502932D4BDA68019200220D
:108E9000C3E906226846D3E900129047274AD2F870
:108EA00044317BB14FF4A2711046FFF7B6FF244B5B
:108EB000996939B10021C3E90611D968D2F83C0596
:108EC000FFF7BCFF1D4AD2F82031A3B14FF49071D7
:108ED0001046FFF7A2FF1A4B596961B1D2F84C1541
:108EE0000291002299688DF8002001915A6168462C
:108EF000D3E90012904704B070BDD2F81031002BB6
:108F0000CCD04FF488711046FFF787FF0C4BD2F896
:108F10003C0599698842C1D1DC69D96864B1D2F84D
:108F2000005225F02005C2F800521A699C61DA60EF
:108F3000DE61FFF783FFB1E79C61FAE700200040A4
:108F4000F0AC00202DE9F84F054692460C4619B9C1
:108F50007B49CD2000F044FF7A4B2E79242202FB7E
:108F60000632984692F82020002A40F0E5807649A3
:108F70002868FFF7A3F90746002840F0DF80D4F8FF
:108F80000090B9F1FF3F18D0B9F11F0F01D9FFF7D9
:108F90004DFF4FF0A043012202FA09F2C3F8082561
:108FA000D4F800B0BBF11F0F994601D9FFF73EFF7F
:108FB0000BF5E07B032349F82B30D4F80490B9F18A
:108FC000FF3F0BD0B9F11F0F01D9FFF72FFF09F5B4
:108FD000E0794FF0A043002243F829202B68A269D2
:108FE000C3F82425217D637D2A680B43C2F86C35C4
:108FF000D4E900122B68C3F80C15C3F81425237D9F
:10900000012B35D1D4F80890B9F1FF3F0BD0B9F15D
:109010001F0F01D9FFF70AFF09F5E0794FF0A043D0
:10902000002243F82920D4F80C90B9F1FF3F18D062
:10903000B9F11F0F01D9FFF7F9FE4FF0A04301224C
:1090400002FA09F2C3F80825D4F80CB0BBF11F0FDF
:10905000994601D9FFF7EAFE0BF5E07B032349F8B7
:109060002B30D4E902212B68C3F80815C3F810256A
:109070002423734308EB0302C2F804A0226948F8D2
:109080000320BAF1000F46D04FF488712868247F7E
:10909000FFF7C3FE4FF490712868FFF7BEFE4FF450
:1090A00092712868FFF7B9FE4FF4A2712868FFF7A4
:1090B000B4FE2B68254AC3F804232B684FEA133A01
:1090C000A31E012B4FFA8AF906D9631F022B03D97D
:1090D0001F496B2000F084FEB9F1000FACBF09F10D
:1090E00060431C4B4FEA4414B8BF0AF00F0AE4B2C5
:1090F000AABF03F5614303F80A4083F800432B68D5
:109100001B0B5AB2012103F01F0301FA03F35209AA
:10911000114941F822302B680822C3F80025242386
:1091200003FB06830022C3E906225A61012283F869
:1091300020203846BDE8F88F0827FAE71127F8E71E
:10914000CD130300F0AC00205D8E0200100302007E
:109150008413030014ED00E000E100E02DE9F84382
:10916000364E0779242303FB0763044693F8203027
:10917000012B8846914604D031494FF4927000F09B
:109180002FFEB8F1000F04D12D4940F2251000F058
:1091900027FEB9F1000F04D129494FF4937000F074
:1091A0001FFE237913B9B9F1FF0F04D9244940F206
:1091B000271000F015FE08F06043B3F1005F37D1CF
:1091C0002379242505FB03635A69002A32D105FB64
:1091D00007654FF49071C5F81490C5F808802068B1
:1091E000FFF71BFE4FF4AC712068FFF716FE2368F3
:1091F0006969A868C3F84405C3F8481523680121C4
:1092000099606B68C3B92268D2F82011D2F858313E
:1092100049B9002BF8D00F20242303FB0766002355
:109220007361BDE8F883002B14BF0F200020F3E723
:109230001020F6E71120F4E71046F2E7F0AC00202A
:10924000CD1303002DE9F041484E0479242303FB9C
:109250000463054693F82030012B8846174604D056
:1092600043494FF4B77000F0BBFDB8F1000F04D1D3
:109270003F4940F26F1000F0B3FD27B93C494FF46D
:10928000B87000F0ADFD2B790BB9FF2F04D9384928
:1092900040F2711000F0A4FD08F06043B3F1005FEC
:1092A00062D1242303FB0463596821B12B684FF476
:1092B0000472C3F80823242303FB04639A6952B1A0
:1092C000DA69002A3ED021B12B684FF40472C3F84A
:1092D0000423112034E09F61C3F80C80DA614FF45D
:1092E00088712868FFF799FD4FF4A2712868FFF78D
:1092F00094FD2B68C3F83485C3F838752B6832BBEE
:1093000001221A6029792B68242202FB016252682B
:1093100022BBD3F81001D3F84421D3F824411043E1
:1093200002D1002CF5D00246242303FB0166002362
:109330009C4214BF032018469A42B36118BF0F2005
:10934000BDE8F081C3F81080DF610122C7E7D3F8E0
:10935000002242F02002C3F80022D3E74FF4047247
:10936000C3F804230020EBE71020E9E7F0AC00206D
:10937000CD1303000368D3F81001003018BF01209B
:10938000704700000379084A242101FB0323DB69AD
:1093900033B10268D2F8003223F02003C2F8003261
:1093A000036801225A607047F0AC002070B5C0B16C
:1093B0004AB116880024B44203D305196D789D4242
:1093C00008D0A14201D800200BE0055D01352C44F6
:1093D000A4B2F0E7A142F6D9A31C1380005D0138C6
:1093E00080B270BD13B50023ADF8063013460DF101
:1093F00006020446FFF7DAFF10B1BDF8060020446C
:1094000002B010BD72DF704773DF704738B50122BC
:1094100004460D46B0F83812D0F83402FFF7E2FFE8
:1094200000B1057004F13C0204F50D7104F1540023
:10943000BDE83840FFF7E6BFF8B5077804460D46AB
:10944000002F00F0048100F24A26A17007220021BB
:10945000304600F08FFFE38813B1A378012B04D0CE
:10946000E3794BB1A378022B06D1636BA3B1012240
:1094700084F8512208209847334604F5147113F8F4
:10948000012F12B98B42FAD117466B1E032B52D80B
:10949000DFE803F0050B0F1284F85132ECE7A379F3
:1094A0001BB194F8243003B95FB9E3790BB1002FF5
:1094B00043D1237A002B42D1637A002B0CBF0025C5
:1094C0000425636BA570002B3BD0033D012D38D8DC
:1094D0006279002A35D094F8522292BB84F8542243
:1094E000012284F853220720984704F13C051822F2
:1094F0000021284600F03EFFE36A94F82420581E1D
:109500000121022828BF0B4684F83C1084F8513012
:1095100032B1884296BFA36A84F8521084F8523060
:10952000A178002384F8503004291BD8DFE801F02B
:10953000770D223559000025C3E70225C1E7032531
:10954000BFE7002384F85332CFE7C4F84432C4E9BC
:1095500010630223012284F83C30802384F83120F8
:10956000A4F84830A378002B5CD1636B002B6AD140
:10957000002067E00223002A84F8313014BF07235B
:10958000032384F83C302369A4F848300023C4F84E
:109590004432E36826646364E4E763696364A3694F
:1095A000A4F8483012B1062384F83C306379B3B193
:1095B00094F852329BB994F8543283B1022384F860
:1095C000503004212046FFF721FF0028CAD105238F
:1095D00084F8313004F50D73C4F84432C2E7032334
:1095E000F6E7E3696364236AA4F8483012B10623FE
:1095F00084F83C30637983B194F852326BB994F8B3
:10960000543253B1022384F8503004212046FFF72E
:10961000FDFE0028A6D10623DAE70423D8E784F864
:1096200031309FE72A46D4F8441204F15400FFF782
:10963000E9FE38B994F8301094F85400FFF7E4FECE
:10964000002892D0F8BD94F83100984790E70820A0
:10965000F8E710B50388112B0C460AD0262B1FD033
:10966000102B05D1C37B012B02D18388A1F848328E
:1096700010BD002381F852328288B1F848329A42F4
:10968000F6D10B79002BF3D101212046FFF7D4FE50
:109690000028EDD0A36B002BEAD0BDE8104018479E
:1096A000037A013B012BE3D8897805230131B1FB13
:1096B000F3F303EB8303C91AC9B2E6E7704700006E
:1096C000034B1A8882420CBF18460020704700BF27
:1096D00030AD0020024B9B6903B11847704700BFB3
:1096E00014AD002013B50B46497A0F4C024669B9F8
:1096F000D4E901101C7A002C18BF01465868FDF708
:10970000A5F908B1FFF7E6FF02B010BD00211972FC
:109710006369002BF8D00121ADF806008DF8041024
:1097200001A89847F0E700BF14AD00204B880288DD
:109730009A4213D842889A4210D380888A8840F28D
:10974000F313984294BF031AC31A934206D800F247
:10975000F310904234BF0020012070470020704772
:1097600070B50388112B014648D002D8102B1ED0AB
:1097700070BD122B52D0502BFAD12F4BC288DB89EF
:109780009A42F5D1038A022BF2D186883046FFF740
:1097900097FF05460028EBD001F1120000F050F8C9
:1097A00030BB6868FDF798F90028E1D009E0C37B79
:1097B000012BDDD14FF6FF70FFF782FF054620B980
:1097C0000420BDE87040FFF785BF8E881B4A0680E5
:1097D000002303721368C5F80A300A3053684360E7
:1097E0001031FFF7A3FF144B6872DB89002BBFD148
:1097F00029463046BDE87040FFF774BF8088FFF708
:109800005FFF04460028B3D04068FDF765F908B152
:10981000FFF760FF4FF6FF732380A9E78688304685
:10982000FFF74EFF05460028A2D008310A30FFF7A7
:109830007DFF6872DCE700BF14AD002044AD00205E
:10984000007800F00100704790DF7047A5DF704797
:10985000B5DF70477FB50023ADF80810ADF80A10EA
:109860006A4602A9064603930093ADF80430FFF759
:10987000EBFF054600B3124B124CE41AE408FEF766
:109880005DFB240444F00104034632460E492046A1
:10989000FDF791FEBDF80020BDF8023052EA030149
:1098A00003D00A492046FDF786FEBDF804201AB110
:1098B00007492046FDF776FE284604B070BD00BF7C
:1098C000B0190300201A0300201403006A140300D7
:1098D000A914030013B5034680880C46A0B91A8862
:1098E000232A00F0A48011D8102A22D0112A51D0A6
:1098F000A37A4BB1E1880020FFF7A8FF002840F0D1
:109900009C804FF48073638102B010BD3A2A4AD024
:10991000552A60D0242AEBD11A7A0B694A73002B9E
:10992000E6D04DF67A21ADF8040000918DF80420C0
:1099300079E00A790A73DB7B012B13D0022B14D058
:10994000E18823898B4205D20020FFF77FFF70B9A1
:109950000123E372217B637B8B42C9D20020FFF796
:1099600079FFC5E70B88E380EAE74B88FBE711281E
:1099700002D10123A372EDE7FEF7E0FA374A384B34
:1099800038499B1ADB081B04024643F00100FDF72F
:1099900009FEDFE7F723CB8017230B8141F6FB336A
:1099A00048818B81A4E75B89CA88934228BF13460C
:1099B000172B0A6938BF17230B814AB1C97A39B10D
:1099C00040F677210091ADF8043069462046904773
:1099D000002363818CE7DB88C988A072172B38BF0E
:1099E00017238B4228BF0B462381FFF731FF60B15D
:1099F000FEF7A4FA194A1A4B1B499B1ADB081B04F1
:109A0000024643F00100FDF7CDFDE37A002B7FF421
:109A10006FAF2369002B3FF46BAF40F677220092C3
:109A20002289ADF8042069462046984760E7197AF4
:109A3000237B994228BF194691E711283FF464AF70
:109A4000FEF77CFA054A064B06499B1ADB081B0405
:109A5000024643F00100FDF7A5FD55E7B0190300EC
:109A6000201A0300FF14030030150300B0DF704715
:109A700066DF704710B5034600214088FFF7F8FF06
:109A8000024608B91A7210BD112801D10122F9E766
:109A90005B68BDE81040184728B10378DE2B04D17D
:109AA0004180002070470E20704708207047F0B5B5
:109AB000054685B00C46F1B1E8B10B78DE2B1AD122
:109AC00082884B889A4204D10B7A13B10846FFF77B
:109AD000D1FF2B88112B32D0512B0ED0012B0AD164
:109AE0002B7A012B07D1A9886288914203D1237276
:109AF0002046FFF7BFFF05B0F0BDAE886388B342D4
:109B0000F9D1AF79022FF6D1AD7B2B1F022BF2D802
:109B100000211022684600F02DFC052D14BF4FF4E3
:109B2000C0730023694630468DF80070ADF80430EC
:109B3000FFF79CFF0028DED063689847DBE7638867
:109B4000AA889A4204BF4FF6FF736380D3E70000F0
:109B5000014B1878704700BF4CAD002007B508498D
:109B60006846FDF771FF019B13B903B05DF804FB74
:109B7000D3E9002090476846FDF77EFFF3E700BF7A
:109B80006C150300FFF7EABF61DF704730B5134D76
:109B9000ADF5017D4FF4FA740DF1020103A8ADF8A3
:109BA0000240FFF7F1FF70B9294601A8FDF74CFF0D
:109BB000029B002BF0D003A8D3E90021904701A815
:109BC000FDF75AFFF4E7052804D0054A40F23911A1
:109BD000FCF7ECFC0DF5017D30BD00BFD415030092
:109BE00080150300024B1B780BB1FFF7CFBF704706
:109BF0004DAD002076DF70477FDF704786DF70470E
:109C00008ADF70478FDF7047B1DF704733DF7047FF
:109C100037B503881D2B044600F0AC801DD8132BEC
:109C20007CD00AD8102B3DD0112B5DD0604B13B1E6
:109C30002046AFF3008003B030BD142B00F08C80C1
:109C40001B2BF3D1037A012BF0D1FFF7DFFF0028A4
:109C5000ECD0584A4FF4CC716DE0502B52D00ED856
:109C6000212B00F096803B2BE0D113218088FFF759
:109C7000C1FF0028DAD04F4A4FF4D0715BE0522B7D
:109C80005CD045D3562BD1D18379002BCED14A4B12
:109C900013211888FFF7AEFF0028C7D0454A40F2CD
:109CA000A71148E0444D818844482980FFF7F4FE1D
:109CB00020B1404A4FF49D71FCF778FC00231A460E
:109CC00019462888FFF7A0FF20B13A4A4FF4A17146
:109CD000FCF76CFC3A4800F09DFB3A4B002BA5D0FA
:109CE0002046AFF30080A1E7334B37484FF6FF72B1
:109CF0001A8000F08FFB354B002B97D02046AFF336
:109D0000008093E7324B002B90D0AFF300808DE7BB
:109D1000304B002B8AD0AFF3008087E72648002322
:109D20001A4685210088FFF767FF00283FF47EAFC1
:109D3000204A40F28111FCF739FC77E71E480023E6
:109D40001A4619460088FFF75FFF00283FF46EAF00
:109D5000184A40F28711EEE7174800231A461946C1
:109D60000088FFF74BFF00283FF460AF114A40F234
:109D70009111E0E7184B0BB1AFF3008017490020B9
:109D8000FFF73EFF00283FF451AF0A4A40F2C711E7
:109D9000D1E7002301A98088ADF80430FFF732FF36
:109DA00000283FF443AF034A40F2D111C3E700BF9C
:109DB00000000000111603008EB40020BCAF00208C
:109DC00040160300000000005016030000000000D1
:109DD000000000000000000000000000A898002023
:109DE00038B50D460446044800F014FB2A462146C7
:109DF0000248FCF7DBFB38BDEC150300EFBEADDE1F
:109E00000C4B1B78062B10D10B4B1B681A070CD17F
:109E10000A4B186800F0F003302B08D000F0E00087
:109E2000A0F140035842584170470020704701207C
:109E3000704700BFE00F00F0E40F00F0E80F00F003
:109E4000094B1B78062B0CD1084B1B681A0708D14D
:109E5000074B186800F0F000A0F130035842584159
:109E600070470020704700BFE00F00F0E40F00F0E3
:109E7000E80F00F008B5FFF7C3FF28B17D4B7E4A1D
:109E80001B68C3F304231360FFF7DAFF10B17B4BA9
:109E90007B4A1A60FFF7B4FF28B17A4B7A4A1B68F5
:109EA000C3F342331360FFF7CBFF20B1774AD36887
:109EB00023F08073D360FFF7A3FF40B14FF08043DE
:109EC0000022C3F80C21C3F81021C3F83825FFF78E
:109ED000B7FF10B16E4B03221A60FFF7B1FF40B11C
:109EE0006C4B05221A6001229A6700229A603F2279
:109EF0005A60694B1B78062B50D1684B1B681907B9
:109F00004CD1674B1B6803F0F003502B46D14FF048
:109F10008052644BD2F80414C3F82015D2F8081408
:109F2000C3F82415D2F80C14C3F82815D2F810146D
:109F3000C3F82C15D2F81414C3F83015D2F818143D
:109F4000C3F83415D2F81C14C3F84015D2F8201405
:109F5000C3F84415D2F82414C3F84815D2F82814CD
:109F6000C3F84C15D2F82C14C3F85015D2F830149D
:109F7000C3F85415D2F83414C3F86015D2F8381465
:109F8000C3F86415D2F83C14C3F86815D2F840142D
:109F9000C3F86C15D2F84424C3F87025FFF730FFDE
:109FA00028B1414B414A1B6803F04F031360FFF790
:109FB00027FF48B14FF08043D3F80024D20744BFB5
:109FC0006FF00102C3F80024394B1B68062B08D13F
:109FD000384B1B68062B01BF374A136843F4806374
:109FE0001360364AD2F8883043F47003C2F88830E0
:109FF000BFF34F8FBFF36F8F4FF01023D3F80022C2
:10A00000002A03DBD3F80432002B2FDA2C4B012279
:10A01000C3F80425D3F80024002AFBD04FF0102207
:10A020001521C2F80012D3F80024002AFBD04FF00B
:10A0300010231522C3F80422214B1A46D3F800142A
:10A040000029FBD00021C3F80415D2F80034002BFE
:10A05000FBD0BFF34F8F19491A4BCA6802F4E06274
:10A060001343CB60BFF34F8F00BFFDE7164B174A7A
:10A070001A6008BD240300104035014074C0074039
:10A080000DF0ADBA440200103C050040F0ED00E0D8
:10A09000A005004010560040E00F00F0E40F00F073
:10A0A000E80F00F000C0004058020010E40E00402D
:10A0B00030010010340100103C17004000ED00E0BA
:10A0C00000E001400400FA05B09800200090D003A1
:10A0D0002DE9FF4106460F46154672B6FDF7A0FA78
:10A0E000FDF7E0F80028FBD1234B244CE41AE408E8
:10A0F00041F2010324049E4244F0010428D007D811
:10A10000012E14D03A461E492046FDF74BFA12E0C4
:10A1100044F201039E421DD044F202039E42F1D15B
:10A120002B886A6817492046FDF745FA03E016496F
:10A130002046FDF733FA154B1B68DB0700D500BE40
:10A140002A463946304604B0BDE8F041FCF702BA71
:10A150000F49EDE7D5F808804046FDF7EFFE2B6884
:10A16000029701936B6800930A49034642462046D2
:10A17000FDF745FA0849DBE7B0190300081A0300A8
:10A18000F5160300A116030062160300F0ED00E0CF
:10A190007F160300BB160300E11603000649074AB9
:10A1A000074B9B1A03DD043BC858D050FBDCFFF77C
:10A1B00061FEFCF745F80000C41A0300A8980020CF
:10A1C00070A20020FEE7FEE7FEE7FEE7FEE7FEE7FF
:10A1D000FEE7FEE7FEE7FEE708B50021044602F0D1
:10A1E0003DF9044B1868C36B03B19847204605F04E
:10A1F00001FA00BF1418030070B50D4E0D4D761B0B
:10A20000B61006D00024013455F8043B9847A64206
:10A21000F9D1094E094D761B06F004F8B61006D0A8
:10A220000024013455F8043B9847A642F9D170BD8B
:10A2300060A2002060A200206CA2002060A200208A
:10A24000844641EA000313F003036DD1403A41D341
:10A2500051F8043B40F8043B51F8043B40F8043B00
:10A2600051F8043B40F8043B51F8043B40F8043BF0
:10A2700051F8043B40F8043B51F8043B40F8043BE0
:10A2800051F8043B40F8043B51F8043B40F8043BD0
:10A2900051F8043B40F8043B51F8043B40F8043BC0
:10A2A00051F8043B40F8043B51F8043B40F8043BB0
:10A2B00051F8043B40F8043B51F8043B40F8043BA0
:10A2C00051F8043B40F8043B51F8043B40F8043B90
:10A2D000403ABDD2303211D351F8043B40F8043B30
:10A2E00051F8043B40F8043B51F8043B40F8043B70
:10A2F00051F8043B40F8043B103AEDD20C3205D340
:10A3000051F8043B40F8043B043AF9D2043208D037
:10A31000D2071CBF11F8013B00F8013B01D30B88A9
:10A3200003806046704700BF082A13D38B078DD087
:10A3300010F003038AD0C3F10403D21ADB071CBF59
:10A3400011F8013B00F8013B80D331F8023B20F8C3
:10A35000023B7BE7043AD9D3013A11F8013B00F8FC
:10A36000013BF9D20B7803704B7843708B78837084
:10A3700060467047F0B4860746D0541E002A3CD091
:10A38000CAB2034602E014F1FF3436D303F8012BBE
:10A390009D07F8D1032C29D9CDB245EA05250F2C0C
:10A3A00045EA054533D9A4F11006360903F1200723
:10A3B00007EB061703F1100242E9045542E9025582
:10A3C0001032BA42F8D1721C14F00C0F03EB0212D7
:10A3D00004F00F0613D0331F23F003030433134498
:10A3E00042F8045B9342FBD106F003042CB1C9B2DE
:10A3F0001C4403F8011B9C42FBD1F0BC704734465F
:10A400001346002CF3D1F8E714460346C2E71A4678
:10A410002646E0E70FB400B5074983B004AB0868EF
:10A4200053F8042B8168019300F0BAF903B05DF88A
:10A4300004EB04B0704700BFB498002000290CBFA3
:10A44000022200224FF4806300F000B82DE9F043AF
:10A45000614C256883B004460F4690461E4615B1F0
:10A46000AB6B002B7BD0B8F1020F06D0B8F1010F17
:10A4700000F2AF80002EC0F2AC80636EDA0755D5D3
:10A480002146284603F0ACF8216B41B104F14003AA
:10A49000994202D0284603F09FF900232363B4F9C0
:10A4A0000C3000221806A261626066D423F44A636D
:10A4B00023F00303B8F1020FA38165D001AB6A4614
:10A4C0002146284603F0B4FAA3891843A081002E40
:10A4D00033D0002F32D0AB6B002B3CD0009AB4F9B4
:10A4E0000C302760B2421CBF43F40063A381B8F173
:10A4F000010F04BF43F00103A3819BB213F00802D4
:10A50000C4E904762FD0DA0751D5656E7642002271
:10A5100015F00105A661A2602AD19B0529D4A06D82
:10A5200003F084FA284603B0BDE8F083A3899B05B5
:10A53000A6D4A06D03F078FAA2E7009E304603F09F
:10A54000EFFA0746002834D0A38943F08003A381A3
:10A55000AB6B002BC2D1284603F09EF8BEE728461D
:10A5600003F09AF87FE7A260656E15F00105D4D07C
:10A570000025284603B0BDE8F0832169284603F092
:10A580002BF9B4F90C3091E70025616E002004F13D
:10A59000430243F00203A060C9074FF00100A3810A
:10A5A0002260C4E90420E4D49B05E2D4B7E7A660A6
:10A5B000DAE7DDF80090B14506D0484603F0B0FA7E
:10A5C000074608B14E46BFE7B4F90C304FF0FF35EF
:10A5D000DBE74FF0FF35CCE7B498002080EA0102BA
:10A5E000844612F0030F4FD111F0030F32D14DF812
:10A5F000044D11F0040F51F8043B0BD0A3F10132CC
:10A600009A4312F0803F04BF4CF8043B51F8043BDE
:10A6100016D100BF51F8044BA3F101329A4312F056
:10A62000803FA4F101320BD14CF8043BA24312F05D
:10A63000803F04BF51F8043B4CF8044BEAD023465A
:10A640000CF8013B13F0FF0F4FEA3323F8D15DF80C
:10A65000044B704711F0010F06D011F8012B0CF8D4
:10A66000012B002A08BF704711F0020FBFD031F84C
:10A67000022B12F0FF0F16BF2CF8022B8CF80020D3
:10A6800012F47F4FB3D1704711F8012B0CF8012B56
:10A69000002AF9D1704700BF000000000000000050
:10A6A00000000000000000000000000000000000AA
:10A6B000000000000000000000000000000000009A
:10A6C00090F800F06DE9024520F007016FF0000CF2
:10A6D00010F0070491F820F040F049804FF000049A
:10A6E0006FF00700D1E9002391F840F000F1080075
:10A6F00082FA4CF2A4FA8CF283FA4CF3A2FA8CF3AD
:10A700004BBBD1E9022382FA4CF200F10800A4FA13
:10A710008CF283FA4CF3A2FA8CF3E3B9D1E9042367
:10A7200082FA4CF200F10800A4FA8CF283FA4CF39E
:10A73000A2FA8CF37BB9D1E9062301F1200182FA58
:10A740004CF200F10800A4FA8CF283FA4CF3A2FA5E
:10A750008CF3002BC6D0002A04BF04301A4612BA6C
:10A76000B2FA82F2FDE8024500EBD2007047D1E96F
:10A77000002304F00305C4F100004FEAC50514F0FE
:10A78000040F91F840F00CFA05F562EA05021CBFCF
:10A7900063EA050362464FF00004A9E700000000E9
:10A7A0002DE9F04FD5B01C46894617460546059061
:10A7B00003F032F9036815931846FFF781FF0894F8
:10A7C00013901DB1AB6B002B00F01184D9F864100D
:10A7D000B9F90C20CD0793B202D4980540F1548703
:10A7E00099040AD4D9F8641042F4005321F40051BA
:10A7F000A9F80C30C9F864109BB21A0740F1BF8069
:10A80000D9F81020002A00F0BA8003F01A020A2AB0
:10A8100000F0C38000239FED9C7B1293CDE9293388
:10A8200014931693CDE91833179304932BAB289305
:10A830009B463B78CDF81C908DED107B002B00F0F3
:10A840006782252B01F0AB803D4603E0252B00F00D
:10A85000BB8025466B786C1C002BF7D1E61B00F003
:10A860005782DDE9293201333244072BCBF80070DF
:10A87000CBF80460CDE9293200F3AA800BF1080B74
:10A88000049A6B7832440492002B00F0418200233A
:10A8900094F8018006938DF88330029304F1010A45
:10A8A0004FF0FF392B2620210AF1010AA8F12003DD
:10A8B0005A2B00F2A183DFE813F082029F039F036B
:10A8C0007B029F039F039F0301039F039F03F602E5
:10A8D000DF009F03C4002B039F0324039600960010
:10A8E00096009600960096009600960096009F03AC
:10A8F0009F039F039F039F039F039F0345039F03A2
:10A90000A80162014503450345039F039F039F037D
:10A910009F035B019F039F034E019F039F039F03C0
:10A9200023019F0315019F039F03CB009F039F03F8
:10A930009F039F039F039F039F039F0345039F0361
:10A94000A801EF004503450345037002EF005B00DB
:10A950009F03EB029F03D102BD028C025B009F03A9
:10A9600023015F0087039F039F03A5009F035F00F0
:10A97000029B43F0200302939AF8008094E7494633
:10A98000059801F0F9FC002841F08183B9F80C30FA
:10A9900003F01A020A2A7FF43DAFB9F90E20002A0B
:10A9A000FFF638AFD9F86420D60702D49D0541F1EF
:10A9B000908123463A464946059801F09BFC049055
:10A9C000049855B0BDE8F08FE61B3FF460AF48E750
:10A9D00028AA0799059803F0CDFF002841F02784A5
:10A9E0000DF1AC0B4CE7A8F1300300221AF8018BF3
:10A9F00002EB820203EB4202A8F13003092BF5D9E6
:10AA0000069253E7224B1493029B9F0625D5089C80
:10AA1000073424F00703F3E802450893029AD107AC
:10AA20000AD554EA050307D0302342F002028DF81C
:10AA3000858002928DF88430029B23F48066022385
:10AA4000D9E19AF80080029B43F0040302932BE7BC
:10AA5000104B1493029B9F06D9D4089B53F8044BC8
:10AA60000893029BDE0600F14F86029B5D0640F1D3
:10AA70004786A4B20025D1E78DF883609AF800805C
:10AA800012E700BFAFF300800000000000000000EC
:10AA90003C18030028180300029EB00640F10B8703
:10AAA000089C073424F007031946F1E802230891B3
:10AAB00014461D46002A73F1000371DBB9F1FF3F14
:10AAC00000F0C58226F08003029354EA050340F0AB
:10AAD000BD82B9F1000F41F00E814FF000094E46E2
:10AAE00054AFBFE2029B9D0643F0100600F18F8237
:10AAF000089B1A1D089B08921C68002501237AE117
:10AB0000089C54F8047B00258DF88350002F00F03A
:10AB10003787B9F1FF3F00F0BC874A4629463846DF
:10AB200003F0BEFA0990002801F04A82099BA94669
:10AB3000DE1BCDE90E9926EAE6739DF88320089482
:10AB40000393CDF82490CDF83090002A6FD0039B6A
:10AB5000013303936BE0029B9C0643F0100600F167
:10AB60005F82089B1A1D089B08921C6800255EE204
:10AB7000029B9AF8008043F00803029394E6029B3C
:10AB80009C0643F010068BD4089B1A1D089B089264
:10AB90001C68E51722462B46002A73F100038DDA64
:10ABA00064424FF02D0365EB4505B9F1FF3F8DF889
:10ABB00083304FF0010340F02581012B00F04782E4
:10ABC000022B00F0798454A900E03946E20842EAF9
:10ABD0004572E80804F0070305461446303354EA8A
:10ABE000050201F8013C01F1FF37EED1F20740F117
:10ABF0008882302B00F085823023023907F8013C2F
:10AC000054AB02960F465E1A2CE2089C002354F8BF
:10AC1000042B8DF8EC2001261A4603960894CDE902
:10AC20000E228DF88330099291460C923BAF029B25
:10AC300013F002030A9302D0039B02330393029B97
:10AC40002A9C13F084030B9304D1069B03995D1A8D
:10AC5000002D66DC72B1299A013201340DF18300B6
:10AC60000121072ACDE92924CBE9000100F3B183B2
:10AC70000BF1080B0A9B6BB1299B0133023421A90C
:10AC80000222072BCDE92934CBE9001200F3AD8372
:10AC90000BF1080B0B9B802B00F09582A9EB0605AE
:10ACA000002D00F3D382029BDB0500F12E82299B4D
:10ACB000CBF8007001333444072B2A94CBF804609E
:10ACC000299300F325830BF1080B029B5D0705D543
:10ACD000069B039A9D1A002D00F3AE83049B069AEF
:10ACE00003998A42ACBF9B185B180493002C40F078
:10ACF000E78200232993099B1BB10999059802F06B
:10AD00006BFD0DF1AC0B57463B78002B7FF499ADF2
:10AD10002A9BDDF81C90002B40F0F5860023299338
:10AD200075E3102D299A29DD594620461E961023D9
:10AD3000059C079EBB4604E0103D102D01F1080163
:10AD400018DD0132BC4F1030072ACDE92920C1E9B6
:10AD50000073F1DD28AA3146204603F00BFE0028DF
:10AD600040F04F83103D102DDDE929202BA94FF035
:10AD70001003E6DC1E9E5F4604468B460132AE4B56
:10AD80002C44072ACDE92924CBE9003500F32A8693
:10AD90000BF1080B9DF883205CE79AF80080029B7A
:10ADA000B8F1680F00F0E38543F0400302937BE5C0
:10ADB000029B9AF8008043F00103029374E59DF82A
:10ADC00083309AF80080002B7FF46EAD8DF88310ED
:10ADD0006AE5089C47F6300254F8043BADF884203D
:10ADE000029A08941C46954B149342F002060025E3
:10ADF00002234FF078080022B9F1FF3F8DF883203D
:10AE00003FF4DBAE26F08002029254EA050240F0E5
:10AE1000DD82B9F1000F40F04883002B7FF45DAE76
:10AE200016F0010600F06A8430238DF84F310DF2E0
:10AE30004F1717E1029EB00600F1F280029B089ABC
:10AE4000D90652F8044B01F14382029E33465B0659
:10AE500040F135860892A4B20025E8E00299089AEC
:10AE6000890602F1040300F15284029AD70600F128
:10AE7000E185029A560600F16486029A950540F132
:10AE8000D985089A08931268049B137057463BE7CC
:10AE90009AF80080029BB8F16C0F00F05F8543F0D8
:10AEA0001003029300E5089B9AF8008053F8042BE6
:10AEB0000692002AC0F213850893F5E4059D284602
:10AEC00002F0AAFD436817931846FFF7F9FB1990A3
:10AED0000446284602F0A0FD836818932021002C28
:10AEE0003FF44AAD189B9AF80080002B3FF4DCAC8D
:10AEF0001B78002B3FF4D8AC029B43F48063029391
:10AF0000D2E4029B9AF8008043F080030293CBE4E2
:10AF1000524612F8018BB8F12A0F01F0BE81A8F158
:10AF20003003092B92464FF000093FF6BFAC1AF8E8
:10AF3000018B09EB890903EB4909A8F13003092BBF
:10AF4000F5D9B3E4089C073424F00703B3EC027B83
:10AF500055EC174B089325F000431B938DED1A7A9F
:10AF6000DDE91A014FF0FF32354B8DED107B04F017
:10AF700099FF002840F0DC834FF0FF32304BDDE9D1
:10AF80001A0104F071FF002840F0D2830022002350
:10AF90002046294604F05EFF002840F080879DF897
:10AFA0008320284F284B02980021032620F08000A0
:10AFB000039609910290B8F1470FC8BF1F46894612
:10AFC0000C91CDE90E11C0E5029EB4061FD4029B80
:10AFD000089AD80652F8044B01F17481029E71065A
:10AFE00040F177850892A4B20025012303E7059874
:10AFF00002F052FBFFF7EABBB8F1000F3FF488AE56
:10B00000002301261A4603968DF8EC8007E6089C7B
:10B01000073424F00703F3E8024508930123EAE626
:10B02000089C073424F00703F3E80245089326F44C
:10B0300080660023DFE600BF5C1803003C180300B5
:10B04000FFFFEF7F181803001C180300029E002D5D
:10B0500008BF0A2C13D2303402968DF84F410126D6
:10B060000DF24F1700234E4509930C93CDE90E3393
:10B070003346B8BF4B469DF88320039365E506F43D
:10B0800080630022CDE902A8CDF824B054AFCB46AE
:10B090009246B146DDF860801E4607E004F040FFAE
:10B0A000002D08BF0A2C20D304460D460A22002397
:10B0B0002046294604F034FF02F1300C07F801CC99
:10B0C000204629460A2200230AF1010A013F002EE8
:10B0D000E4D098F800C0E245E0D1BAF1FF0FDDD02E
:10B0E0009D4208BF944280F01E87CDF848A04E468E
:10B0F000CDF86080D946DDF808A0DDF80C80DDF8D9
:10B1000024B0029654ABDE1BACE7B8F1650F40F3F8
:10B110000A8100220023DDE9100104F091FE0028DD
:10B1200000F0DE81299BC24ACBF8002001330134B4
:10B130000122072BCDE92934CBF8042000F36384E6
:10B140000BF1080B229B129A2A9C934280F2A58253
:10B15000299B159ACBF80020139ACBF804200133D1
:10B160001444072BCDE9293400F3EC830BF1080BD1
:10B17000129B5D1E002D7FF7A8AD102D299AAD4BB7
:10B1800040F34E841026059FDDF81C80994605E0AB
:10B190000BF1080B103D102D40F3418401321034A7
:10B1A000072ACDE92924CBE90096F1DD28AA4146FA
:10B1B000384603F0DFFB002840F02384DDE9292432
:10B1C0000DF1AC0BE6E7069B039A9D1A002D7FF765
:10B1D00065AD102D299A974B28DD0A9659462046D1
:10B1E000BB46059C079E1F4604E0103D102D01F153
:10B1F000080116DD013210301023072ACDE929207D
:10B200000F604B60F1DD28AA3146204603F0B2FB07
:10B21000002840F0F680103D102DDDE929202BA9F3
:10B22000E8DC0A9E3B4604465F468B4601322C44CE
:10B23000072ACDE92924CBE9003500F35583A9EB92
:10B240000605002D0BF1080B7FF72DAD102D299A67
:10B25000784B29DD0A9659462046BB464FF0100927
:10B26000059C079E1F4604E0103D102D01F10801CA
:10B2700015DD01321030072ACDE92920C1E9007916
:10B28000F2DD28AA3146204603F074FB002840F086
:10B29000B880103D102DDDE929202BA9E9DC0A9E9C
:10B2A0003B4604465F468B4601322C44072ACDE9D3
:10B2B0002924CBE9003500F3DA810BF1080BF2E425
:10B2C00028AA0799059803F055FB00283FF411AD13
:10B2D000DDF81C9096E0299A1599CBF80010139987
:10B2E000CBF8041001320C44072A2A94299200F367
:10B2F000E1840BF1080B002BC0F2A286129B0132F5
:10B300001C44072ACDE92924CBE900737FF7DBAC85
:10B3100028AA0799059803F02DFB0028D8D12A9C6C
:10B320000DF1AC0BD1E4129A299B012A04F101041E
:10B3300003F101050BF1080640F358810123072DA5
:10B34000CBF80070CDE92954CBF8043000F32A8300
:10B35000139B159A691C1C4407290B91CDE92914EC
:10B36000C6E9002300F32A8308360B9A129D02F1E6
:10B37000010900230022DDE91001CDF8289006F133
:10B38000080B05F1FF3804F05BFD002840F0418117
:10B390000A9BC6F8048001374444072B37602A947F
:10B3A000299300F3BF820B9A06F1100302325E4626
:10B3B0000A929B46169A726014440A9A2A9424AB05
:10B3C000072A299233607FF780ACA1E7029EFFF73E
:10B3D000F4BB28AA0799059803F0CCFA00287FF45B
:10B3E00077AF2A9C0DF1AC0B44E428AA0799059885
:10B3F00003F0C0FA00287FF46BAF2A9C0DF1AC0B70
:10B4000048E4B146099911B1059802F0E5F9D9F877
:10B410006420B9F80C30D40702D4980540F1DB82DF
:10B42000590600F14086049855B0BDE8F08F00BF82
:10B43000581803006C180300102D299B21DD1026DD
:10B44000059FDDF81C8004E0103D102D0BF1080B6A
:10B4500017DD0133B34A1034072BCDE92934CBE98A
:10B460000026F1DD28AA4146384603F083FA002879
:10B4700040F0C782103D102DDDE929340DF1AC0BF1
:10B48000E7DC0133A74A2C44072BCDE92934CBE96B
:10B4900000257FF723AC28AA0799059803F06AFADC
:10B4A00000287FF415AF2A9C18E4012B00F02384B8
:10B4B000022B029E7FF487AB149854AF230904F04B
:10B4C0000F0143EA05732A091C461546435C07F839
:10B4D000013D54EA0503F1D154AB0296DE1BC1E5F0
:10B4E000229B002B40F3DF800E9B129A9342A8BF51
:10B4F0001346002B1D460DDD299BCBF80070013350
:10B500002C44072B2A94CBF80450299300F3FE8493
:10B510000BF1080B0E9B002DA8BF5B1B002B1D46DB
:10B5200000F390820E9B3B449946029B580500F124
:10B530001384229B129A934203DB029AD10740F1B3
:10B54000F782299A1599CBF800101399CBF80410BB
:10B5500001320C44072A2A94299200F323850BF127
:10B56000080B129ABD18A5EB0905D31A9D42A8BF76
:10B570001D46002D0DDD299ACBF8009001322C4498
:10B58000072A2A94CBF80450299200F346850BF140
:10B59000080B002DACBF5D1B1D46002D7FF795AB42
:10B5A000102D299A604B40F33B821026059FDDF851
:10B5B0001C80994605E00BF1080B103D102D40F35F
:10B5C0002E8201321034072ACDE92924CBE90096D6
:10B5D000F1DD28AA4146384603F0CCF9002840F0B6
:10B5E0001082DDE929240DF1AC0BE6E7029AD207BF
:10B5F0003FF5A4AE0122072DCBF80070CDE9295408
:10B60000CBF8042000F38E8102330A930BF1100B68
:10B61000D0E6B8F1000F7FF7CDAEB8F1100F424B76
:10B6200040F335861A464D4623461027DDF81CB0F8
:10B63000DDF81490144607E00836A8F11008B8F1B8
:10B64000100F40F35E8101351033072DCDE92953EA
:10B65000C6E90047F0DD28AA5946484603F08AF9B2
:10B66000002840F01D82DDE929532BAEE5E728AA2A
:10B670000799059803F07EF900287FF429AE2A9CEB
:10B680000DF1AC0BFFF70FBBD9F8580002F0CCF965
:10B69000B9F90C2093B2FFF7A3B8029BDD073FF581
:10B6A00057ADFFF712BB299A2049CBF800100132A1
:10B6B00001340121072ACDE92924CBF8041000F335
:10B6C00009840BF1080B002B7FF405AE029B129A44
:10B6D00003F0010313433FF4F8AA299A159BCBF812
:10B6E0000030139BCBF8043001321C44072A2A9403
:10B6F000299200F3DF820BF1080BFFE554AFB1E4B0
:10B70000029B980500F12D820025FFF787B9049967
:10B7100012680893CD1708462946C2E9000157462A
:10B72000FFF7F2BA5C1803006C1803005818030006
:10B73000DDE9100102460B4604F0B4FB002840F09E
:10B740003A85B8F1610F00F0D084B8F1410F00F0F4
:10B750000C8228F02003B9F1FF3F039300F000852D
:10B76000472B04D1B9F1000F08BF4FF00109DDE903
:10B7700010450299002D41F48072C0F29583002398
:10B78000CDE90931CDE91C451E930292039B462B5E
:10B7900000F0DF83452B00F0D28426AA23ABCDE94D
:10B7A0000032022122AB4A469DED1C0B059800F0A9
:10B7B00047FF039B472B074640F08D850A9BDB071D
:10B7C00000F13B84269EF31B1293229B0E93039B56
:10B7D000472B00F09382039B462B00F0FD830399D7
:10B7E0000E9B412903F1FF325FFA88F303BF0F3349
:10B7F000DBB201210021002A8DF89030B8BF0E9BEA
:10B800002292B6BFC3F101022B232D23092A8DF802
:10B81000913040F3C1840DF19F042046BE4D01E0FC
:10B8200008461A4685FB0231D317C3EBA10303EB8D
:10B830008301A2EB41013031632A00F8011C00F1C1
:10B84000FF31EDDC3033821EDBB2944201F8013C63
:10B8500040F244850DF1920201E011F8013B02F83B
:10B86000013BA142F9D10DF1A1030DF192021B1A86
:10B87000134424AA9B1A1693129B169A012B03EBCE
:10B88000020640F3EE84139B1E440A9B002223F41D
:10B89000806343F48073CDE90E22029326EAE673B7
:10B8A0000C9203931E9B002B40F04F8299469DF80B
:10B8B0008320FFF74AB9089B1A1D029BD90600F1A5
:10B8C0000485029E33465B0640F1EC80089B08929B
:10B8D000B3F90040E51722462B46FFF7EBB852427A
:10B8E00006920893FFF7AFB828AA0799059803F0C6
:10B8F00041F800287FF4ECAC2A9C0DF1AC0BFFF76B
:10B90000CDB922461C4613462A4601320A9206F158
:10B910000802C6E900380A9B29934444072B2A945D
:10B9200040F3008128AA0799059803F023F800281E
:10B930007FF4CEACDDE9293401330A930DF1B40B69
:10B940002BAE37E528AA0799059803F013F80028CD
:10B950007FF4BEAC2A9C0DF1AC0B09E443F020034C
:10B960009AF8018002930AF1010AFEF79DBF43F4A1
:10B9700000739AF8018002930AF1010AFEF794BF5E
:10B980004E46062E28BF0626B9460C97CDE90E77FF
:10B9900009973A4603960894604FFFF7D6B83C469D
:10B9A000FEF775BF28AA0799059802F0E3FF002863
:10B9B0007FF48EACDDE929542BAEC9E428AA07999F
:10B9C000059802F0D7FF00287FF482ACDDE9293426
:10B9D0002BAE0B93C9E4D9F8580002F027F8B9F858
:10B9E0000C301DE528AA0799059802F0C3FF00282E
:10B9F0007FF46EAC9DF883202A9C0DF1AC0BFFF711
:10BA000029B9C146FEE428AA0799059802F0B2FFB9
:10BA100000287FF45DAC0DF1AC0BFFF793BB4B46F8
:10BA200001322C44072ACDE92924CBE900357FF7E0
:10BA30004AA96DE4089A12680893049B136057465C
:10BA4000FFF762B9102D299A354B50DD19461026A3
:10BA50002346DDF81480DDF81C900C4604E00BF161
:10BA6000080B103D102D3FDD01321033072ACDE9C0
:10BA70002923CBE90046F2DD28AA4946404602F0D8
:10BA800079FF00287FF4BEACDDE929230DF1AC0B72
:10BA9000E7E73846FEF714FEA9460646FFF749B821
:10BAA000D946AFE4029E089B16F4007F51D093F96B
:10BAB00000400892E51722462B46FEF7FBBF029E88
:10BAC000B70547BF0892E4B2029E08920025FFF72F
:10BAD000AEBA029E089233469B054CBFE4B2029E6A
