:020000022000DC
:10600000000001204994020071940200C56E020054
:106010007594020077940200799402000000000059
:106020000000000000000000000000007B9402005F
:106030007D940200000000007F9402008194020021
:10604000517B0200839402009D7D020001850200C5
:1060500095800200839402000D7C0200E57E020020
:10606000D1840200E1840200839402008394020040
:1060700083940200839402008394020083940200BC
:1060800083940200016A0200839402008394020058
:106090009D6A020083940200318E02008394020004
:1060A000839402008394020083940200839402008C
:1060B0009D7E0200839402000000000000000000AA
:1060C00083940200AD7E0200BD7E02008394020034
:1060D0008394020083940200839402000000000075
:1060E00000000000000000000000000000000000B0
:1060F00000000000000000000000000000000000A0
:10610000000000000000000000000000000000008F
:10611000000000000000000000000000000000007F
:10612000000000000000000000000000000000006F
:10613000000000000000000000000000000000005F
:10614000000000000000000000000000000000004F
:10615000000000000000000000000000000000003F
:10616000000000000000000000000000000000002F
:10617000000000000000000000000000000000001F
:10618000000000000000000000000000000000000F
:1061900000000000000000000000000000000000FF
:1061A00000000000000000000000000000000000EF
:1061B00000000000000000000000000000000000DF
:1061C00000000000000000000000000000000000CF
:1061D00000000000000000000000000000000000BF
:1061E00000000000000000000000000000000000AF
:1061F000000000000000000000000000000000009F
:1062000010B5054C237833B9044B13B10448AFF3F0
:1062100000800123237010BD70A200200000000048
:106220002C0B030008B5034B1BB103490348AFF324
:10623000008008BD0000000074A200202C0B0300A9
:10624000154B002B08BF134B9D46A3F5803A002148
:106250008B460F461348144A121A03F0A9FC0F4B41
:10626000002B00D098470E4B002B00D09847002001
:10627000002104000D000D48002802D00C4805F054
:1062800085FD03F00FF92000290000F013F803F05A
:10629000F9F800BF00000800000001200000000025
:1062A0000000000070A2002004B200208DBD02009A
:1062B00085CF02002DE9F047574C584892B003F0C3
:1062C000D3FC94E80F000AAD103485E80F0094E881
:1062D0000F000EAE86E80F00514803F0C5FC002306
:1062E0001A463146284600F0F9FF18B14D4A2321DD
:1062F00000F032FB4C484D4E03F0B6FC284600F04F
:10630000C9F804464A4803F0AFFC2378402B74D107
:10631000A378002B71D1474C284600F045F900289E
:1063200076D0454CDFF81CA1444F002644F0010410
:10633000504603F099FC284600F092F9C378412BAF
:1063400052D143798DF8103083798DF81130C379AB
:106350008DF81230037A8DF81330437A8DF81430AB
:10636000837A8DF81530C37A8DF81630037B8DF85B
:106370001730437B8DF81830837B8DF81930C37B41
:106380008DF81A300422037C8DF81B3004A907A86D
:1063900003F074FB042205A908A803F06FFB042294
:1063A00006A909A803F06AFB079808F0D9FB324652
:1063B0003B4608F069FD80460998894608F0D0FB05
:1063C00032463B4608F060FDCDE90201089808F02E
:1063D000C7FB32463B4608F057FD4246CDE9000177
:1063E0004B46174803F040FC4FF47A784FF47A405C
:1063F000A047B8F10108F9D19AE7304603F034FC20
:10640000204603F07BF8284600F044F804467CE779
:10641000204603F029FC7FE700F5020026F5020084
:106420002EF5020038F5020042F5020061F5020087
:1064300055F5020071F5020020F5020000408F4082
:1064400084F502007BF50200014403785B0000F84C
:10645000013B8842F9D170471FB50430CDE90012E5
:10646000029300229DF818300393694601F052FF11
:1064700005B05DF804FB000038B5054D0A2445F071
:1064800001054FF47A40A847013CFAD138BD00BF5E
:10649000A0F502002DE9FF41384D394B2860042159
:1064A00003A803930024FFF7CFFF364803F0DCFB7B
:1064B00000942346042203A92868FFF7CDFF06466F
:1064C000314803F0D1FB002E44D0304A2121304620
:1064D00000F042FA204604B0BDE8F081404603F0E7
:1064E000C3FB1FB1294A2D213846F1E7FFF7C4FF4E
:1064F0003A463946009602AB2868FFF7ADFF0746DB
:106500009DF80840002CE9D0214803F0ADFB9DF830
:1065100009209DF808101F4803F0A6FB9DF808000D
:1065200002F0E4FF9DF80830009300220446034681
:1065300011462868FFF790FF28B1144A3A2100F06D
:106540000BFA0024C6E7A37862782178124803F09A
:106550008BFBBFE702241148DFF8488003F084FB7F
:106560003246314602AB00942868FFF775FF0746B4
:106570000B4803F079FB2646C2E700BF8CA200203F
:106580000502DE00D8F50200DBF50200DEF50200B0
:10659000F1F50200B6F50200F4F50200FEF5020086
:1065A00001F60200EBF50200F0B52A4D85B0142388
:1065B00006462860022102A80024ADF80830FFF743
:1065C00043FF02220094234602A93046FFF744FF0E
:1065D0000246002839D0204A492100F0BDF90020A8
:1065E00005B0F0BD1FB11C4A50213846F5E7FFF752
:1065F00043FF009603AB3A4611462868FFF72CFF8D
:106600009DF80C400746002CECD021469DF80D204B
:10661000124803F029FB9DF80C0002F067FF9DF87B
:106620000C30009300220446034611462868FFF709
:1066300013FF10B1084A5A21CFE72278402ACED161
:10664000A078B0FA80F04009CAE70226009603ABB2
:10665000D2E700BF8CA20020DEF50200B6F50200F2
:10666000F0B5314E85B002250022306029462F4812
:10667000ADF80850002403F0F7FA294602A8FFF706
:10668000E3FE00942A46234602A93068FFF7E4FEA1
:106690000246002845D0264ABA2100F05DF920467E
:1066A00005B0F0BD97B1224AC2213846F5E7615DD9
:1066B000304603F0D9FA01359DF80C30AB42F6DCD8
:1066C0001C4803F0D1FAEAE71B4EF5E7FFF7D4FECA
:1066D000009503AB3A4611463068FFF7BDFE9DF8C2
:1066E0000C400746002CDDD021469DF80D201348B4
:1066F00003F0BAFA9DF80C0002F0F8FE9DF80C3099
:10670000009300220346044611463068FFF7A4FEBA
:1067100005460028D8D0064ACD2100F01DF90024F6
:10672000BDE7009503ABD6E78CA20020A6F50200DA
:10673000DEF50200A3070300D4F50200B6F502005F
:106740000369C1688B429DBF8268D21802F1FF3293
:1067500003F1FF3394BF501A581A70472DE9F041E6
:10676000D0E9027405463E1B4068964220448846A4
:10677000144404D903F082F9EC60BDE8F08132469C
:10678000E41B03F07BF9224608EB06016868F1E799
:106790002DE9F843C5680646894617464FF00008BC
:1067A0003469B3687068A54228BFE418013C621BD5
:1067B0005C1BBC4228BF3C46944228BF1446494655
:1067C0002844224603F05AF9B3682544AB4208BF77
:1067D00000253F1BA044A144F560E1D14046BDE83F
:1067E000F883000010B5114C114AA2610223C4E9DC
:1067F0000433104BE361A2644FF400730E4A23622A
:10680000E264002310220D49A362E01D6362E3628B
:10681000A3656365E365226503F01CFB0849204618
:1068200003F018FB2023A37110BD00BF54B100205A
:1068300004F60200C0A40020B0A400200DF602005F
:1068400011F60200F8B5184C182300FB033503FBC2
:1068500000402544C46A012C0F46164611D024B1CD
:10686000022C1BD000242046F8BD2846FFF768FF05
:10687000B042F8D3324639462846FFF76FFF344618
:10688000F1E72846FFF75CFF8642344628BF0446FE
:10689000224639462846FFF761FFE4E72846BDE86F
:1068A000F840FFF775BF00BF54B1002073B50E4B21
:1068B0001B7804460D4616460BB9FFF793FF0023DD
:1068C0000DF107008DF8073000F0A4FA3246294692
:1068D0002046FFF7B7FF04469DF8070000F0CAFA0C
:1068E000204602B070BD00BF54B1002010B5114663
:1068F0001C461A460020FFF7D9FF204610BD0000B5
:1069000082B001238DF807309DF80730114B1860D5
:10691000596044F2010188429A6012D044F20201A7
:10692000884206D1DA60DA6812889A61DA685268B9
:10693000DA6172B69DF80730002BFBD162B602B067
:1069400070471A611A6992685A611A6912689A61E5
:106950001A69ECE7C0A6002000B583B00290009150
:10696000019244F2010071466A4602F007FD03B04D
:1069700000BD0000094A537891780133DBB2994297
:1069800008BF0023117899421FBF03705078182365
:1069900003FB002014BF043000207047E0A6002055
:1069A00073B5054600240DF107000E468DF807402B
:1069B00000F030FA0DF10600FFF7DCFF90B1067031
:1069C000094B9DF8062045605A709DF8070000F0BD
:1069D00051FA24B9054B4FF48012C3F80021204628
:1069E00002B070BD0424F0E7E0A6002000E100E062
:1069F000024B4FF43C6043F00103184720F60200BD
:106A0000F8B51F491F4B0025C1F84051C1F844514A
:106A1000C1F84851C1F84C51C1F80051C1F80451B6
:106A20001B684BB3D1F8044517490968641A24F070
:106A30007F442F461A68A24209D8A41A15441A7C2A
:106A4000DE691AB11F74D3E905209047AEB90F4A29
:106A50000F4B11781B788B4205D10133DBB2022B2F
:106A600008BF0023137012780A4B43F822500A4BD8
:106A70004FF48012C3F80021F8BD3346DAE700BFB7
:106A80000010014000A80020FCA70020F9A700206A
:106A9000F8A70020F0A7002000E100E02DE9F04F6A
:106AA0009F4AA049137809789F4D994285B03CD000
:106AB0000133DBB2022B08BF002313709B4912780D
:106AC0009B4B0F6853F822003B1823F07F430022B2
:106AD0000B602B6816461446944613B942B12B60DE
:106AE00006E0196881420ED902B12B60091A1960BB
:106AF0004FF001082B68DFF840A201930027BEB9D0
:106B0000DFF83CB266E0401A0C44D968C3F800C014
:106B1000D3F81CE031B13A1922F07F42C3E90121D8
:106B2000DE611E4601227346D7E70026B046E1E744
:106B30003446F6697D4A63681268DFF808C2A068C7
:106B4000991A21F07F41614500F2A580014421603E
:106B5000012222742A680023C4E90133E361002A78
:106B600040F0A2802C60CAE75A1C9BF80210D2B2F7
:106B700091428BF8002004BF00228BF800201822DD
:106B800002FB03B31A799C68022A1CD0032A12D094
:106B9000012A1FD1207CE8B9D96861601A69A26016
:106BA0005A69E2609B69A361624B1B78002B18BF96
:106BB00001466160BEE700222B681146002B66D1BA
:106BC00042B12B6006E029680A468946002A59D15D
:106BD000002323749BF800309BF801209A42C3D114
:106BE0002B682FB9019A9A4202D1B8F1000F43D015
:106BF000002B41D0D3F800A04F4D4C4BD5F8047575
:106C00001C68DFF844813E1B98F8003026F07F4670
:106C100003369BB94FF48033C5F84433C5F80433C9
:106C2000464B4FF400324FF00109C3F880211A603F
:106C3000C5F80090FFF7DCFE88F80090B2452CBF45
:106C40005444A41924F07F44C5F84045D5F80435D0
:106C5000DB1B23F07F43E41B033324F07F44A34278
:106C60000AD9D5F80435C5F84035FFF7C1FE334BD6
:106C70004FF40032C3F800212E4B00221A7005B0E9
:106C8000BDE8F08F944229D09146D2699EE71974ED
:106C90000122DB6992E7D31A23F07F43834234BF9A
:106CA000C31A0023236053E721681368994213D85D
:106CB000591A1160E26155E7091AD8691A4638B1C4
:106CC000034618688842F7D3401A186018461346DE
:106CD0002160E061DC6112E71346F2E74C4511D117
:106CE000CB692B6073B9DFF844E00120CDE90212D3
:106CF000CAF80800CEF800300E4B1870FFF778FE87
:106D0000DDE902121368D269C9F81C2012B11068BB
:106D1000034413602B68994218BF012758E700BF4E
:106D2000F8A70020F9A7002000A80020FCA7002059
:106D3000F0A70020ECA700200010014000E100E0D7
:106D4000E0A60020FEFF7F00EDA700202DE9F7431D
:106D50001E4FBB7805460E469046A3B398B3042950
:106D60002FD943697BB3437C0024012B0DF107002D
:106D70000CBF8946A1468DF8074000F04BF80DF195
:106D80000600FFF7F7FDD0B101230370104B4560FB
:106D9000D3F80435C0E90498C0E902369DF80630FE
:106DA0007B709DF8070000F065F824B9094B4FF49B
:106DB0008012C3F80021204603B0BDE8F08304240C
:106DC000EFE70724F7E70824F5E700BFE0A6002077
:106DD0000010014000E100E0064A92783AB130B17B
:106DE000426922B1002202740221FFF7D9BD0820B6
:106DF000704700BFE0A60020EFF30583C3F308034C
:106E00002BB9EFF31480C04300F00100704701205C
:106E10007047000070B50446FFF7EEFF012803D06D
:106E20001049432002F032F9EFF3108672B60E4A91
:106E30009068012398B993600C4B0D4DD3F88010E6
:106E400029401160C3F88050D3F8841051604FF08E
:106E5000FF32C3F88420207006B962B670BD23707B
:106E6000FAE700BF26F60200CCB1002000E100E006
:106E7000FC06FFBD10B50446FFF7BEFF012803D096
:106E80000949512002F002F9084B9A685AB154B9E5
:106E9000EFF3108172B6064A1868106058685060A7
:106EA0009C6001B962B610BD26F60200CCB100208C
:106EB00000E100E0024B1B680021986802F0FABE76
:106EC000B49800201EF0040F1CBFEFF309800AE005
:106ED000EFF308800549064A884201D8904202D85B
:106EE0008D464FF00000034B1847000000000120C2
:106EF00000E000201D6F0200BFF34F8F0549064BD5
:106F0000CA6802F4E0621343CB60BFF34F8F00BF47
:106F1000FDE700BF00ED00E00400FA052DE9F347AE
:106F2000054600F09BFC00F0DBFA0028FBD12F4B5C
:106F30002F4C9F6A2F4BE41AE408240444F0010408
:106F4000002D4ED0AA692C49204600F049FCEB6880
:106F50000193AB6800932949D5E90023204600F04E
:106F60005EFCEB6900932649D5E90423204600F036
:106F70004AFC1E4BDB6A980703D52249204600F0E5
:106F80002BFCDFF89490DFF894A000264FF0010866
:106F900008FA06F33B4206D059F826201AB15146AA
:106FA000204600F01DFC01361A2EF1D1390605D518
:106FB0000E4B15495A6B204600F012FC3A0405D5D9
:106FC0000A4B12499A6B204600F00AFC104B1B68D2
:106FD000DB0700D500BE2846FFF78EFF02B0BDE8F4
:106FE000F0870C49204600F0F7FBC2E700ED00E017
:106FF000A80B0300400B03007BF6020090F6020092
:10700000C5F6020020F702006FF702008FF70200BA
:10701000F0ED00E0EDF60200ACF7020064F70200CC
:1070200050E8002F0B4640E8003C9CF0000FF7D1E1
:107030001046704750E8003F43EA010240E8002C48
:107040009CF0000FF6D11046704750E8002F02EA7E
:10705000010340E8003C9CF0000FF6D11046704759
:1070600050E8003F03EB010240E8002C9CF0000FC9
:10707000F6D11046704750E8003FA3EB010240E80C
:10708000002C9CF0000FF6D1104670470121FFF74D
:10709000D1BF0021FFF7D9BF37B5054620B9144944
:1070A0004FF4927001F0F2FF00240DF107008DF80B
:1070B0000740FFF7AFFE2A68696813688B4210D952
:1070C000591E116013F8014C2A8AEB6802FB043444
:1070D0002A68AB6811685B1A1179DBB2994238BF34
:1070E00013719DF80700FFF7C5FE204603B030BDC1
:1070F000D4FC020037B50C46054620B9104940F2D1
:10710000471001F0C3FF24B90D494FF4A47001F0FA
:10711000BDFF00230DF107008DF80730FFF77AFE61
:107120002A681368591C1160EA68A41A2A8AB4FBF9
:10713000F2F41C709DF80700FFF79CFE03B030BD11
:10714000D4FC020038B5074C051E04F1080318BF33
:107150001C4623682BB11A6822605B682846984752
:10716000F7E738BD0CA8002020B9054B01225A7062
:10717000FFF7E8BF012802D1014A9070F8E7704795
:1071800004A8002020B9034B01225A70FFF7DABF90
:10719000704700BF04A8002038B50B4C237883B992
:1071A0000A486360A3602361E36000F087FC054642
:1071B00001F024FE08B900F095FC01232370284655
:1071C00038BD8525FBE700BF04A8002069710200D7
:1071D00013B5164C237823B915494FF4857001F087
:1071E00055FFE36823B9124940F20B1001F04EFF3E
:1071F00000230DF107008DF80730FFF70BFEE36861
:10720000013BE360E36853B901F0F8FD18B10849A8
:10721000792001F03BFF00F083FC0023A3709DF870
:107220000700FFF727FE02B010BD00BF04A8002032
:1072300024FD0200012813B509D018B103281CD081
:1072400002B010BD134B0122C3F88020F8E7124CA6
:1072500000230DF107008DF80730FFF7DBFD2378E1
:107260000BB9FFF799FFE3689DF807000133E3606E
:107270000123A370FFF7FEFDE2E7074B1B7823B95C
:10728000064940F2452001F001FF00F02BFCFFF71A
:107290009FFFD5E700E100E004A8002024FD0200E4
:1072A0007FB503788DF804304368029383688DF8C6
:1072B0000C30C368049303698DF81430054A064BFB
:1072C00001A853F8213052F82110984707B05DF813
:1072D00004FB00BF18A8002024A80020F0B5064633
:1072E000944616F8047B134A42F827C0124A42F823
:1072F0002730124B0D460FCB85B06C4684E80F004B
:107300002B6800932B798DF805306B798DF806305A
:10731000AB680293BCF1000FAB89ADF80C30084AA2
:107320003B4608BF00222146304600F0E5FE05B08E
:10733000F0BD00BF24A8002018A800207CFD02009A
:10734000A1720200037813F0040216D003F00303C5
:10735000012B03D0022B09D0012070470A68008856
:107360000232C0F3831002440A60F5E70B684288DA
:10737000023303EB92130B60EEE7104670470000F8
:107380002DE9F04F89B000230446851C0DF10F0054
:107390000F4690468DF80F30FFF73CFD49480668D0
:1073A0003E60D0E90132134401339B1B824600F258
:1073B0001C4600F5836900F21447AB421BD3002240
:1073C000B8F1000F77D0052363F3070264F3891245
:1073D000DAF80010DAF808309DF80F000B4003339C
:1073E0000D444AF82320CAF80050FFF743FD01205E
:1073F00009B0BDE8F08F01213046FFF731FE484665
:10740000FFF744FE3846FFF741FEDAF80400DAF8E9
:1074100008B0049000EA0B0003300AEB800004A9D6
:10742000FFF790FF03460498002BF3D10BEA00020C
:107430000AEB820200F1020CD2680592013000EAE8
:107440000B0B0AEB8B0B02F00302012ACDF810C0E4
:10745000DBF80C1026D0022A08D01B4901934FF408
:10746000BF7001F013FE019B9B4608E0BDF816209B
:10747000920903320CEB92024FEA114B0492384608
:10748000FFF707FE10B1049BCAF804305946304696
:10749000FFF7E6FDDAE901231344DAF800200133AF
:1074A0009B1A8AE7BDF81430C3F3831363444FEA91
:1074B000114B0493E3E7062363F3070264F39F523F
:1074C00086E700BF00A9002099FD0200034BD3E925
:1074D0000030C31A58425841704700BF00A900202D
:1074E0002DE9F04387B0FFF7F1FF0646002840F092
:1074F000FB807E4DC5F81804BFF34F8F6868AC68F9
:1075000002902040033005EB800002A9FFF71AFF2C
:10751000029B18B1D5F81824002A5FD004EA0302B0
:10752000991C013305EB8202234005EB8303D268EB
:10753000DB68049302F00303022B0392029162D1F1
:10754000BDF80E306A484FEA9318B8F1500FC146A3
:1075500028BF4FF0500969F38F1309F10801ADF806
:107560000E3000F0F9F90746002800F0A88000F07E
:1075700022FA03A900230822384600F02FFA0299C4
:1075800024EA01060136B600B14535D95FFA89F91A
:107590007EB3F6B2A9EB0609214003315FFA89F404
:1075A000B146544E05EB810108234A46384600F0A7
:1075B00015FA36B109F1080322463146384600F083
:1075C0000DFA029B08F1030803EB98030293D5F828
:1075D0001834002B4BD1D5F810445BE02A689A424E
:1075E00004D86A60304607B0BDE8F08304EA0300BF
:1075F00088E740493446D7E72140033108234A460B
:1076000005EB8101DAE7012B59D1BDF80C30384880
:10761000C3F38311062928BF062161F389130231C0
:107620008900ADF80C3000F097F90746002846D0E5
:1076300000F0C1F90023082203A9384600F0CEF972
:107640000026BDF80C20C2F38312B300964203F16A
:107650000803BCD202994A1C21400331029205EB77
:1076600081010422384600F0B9F90136E9E73846CD
:1076700000F0A5F9FFF72AFF80F00100C6B2B1E7DC
:10768000E3685B7923B1236839461B682046984735
:10769000E3681C68002CF3D1384600F090F90DF136
:1076A00007008DF80740FFF7B5FBD5F818340BB984
:1076B000029B6B609DF80700FFF7DCFBDAE7D5F86B
:1076C000104454B90C4B0D480D49C01AC0080004B1
:1076D00040F0020000F080F8CCE7236820469B6869
:1076E0009847E3681C68ECE700267BE700A90020C8
:1076F000D80B03000CA90020400B0300980B0300DB
:10770000F0FD02002DE9F74F2E4C80460F469146C2
:1077100001A9012218461E46D4F808A0FFF730FE42
:1077200000283CD0019D0023A81CB34203EB0001BC
:107730003FD100212448FFF773FC80F3100B234B4B
:10774000234A4FEA18499B1AB9EBD30F04D32149B6
:1077500040F2A31001F09AFC6B1C03EA0A0304EB4D
:10776000830349EA0B42DA6005EA0A03033314F89B
:10777000232068F3C50204F8232034F8232066F39D
:10778000891224F8232054F8232067F39F2244F819
:10779000232002F0F80242F0010204F8232094F8BA
:1077A00020341BB1FFF79CFE0028FBD103B0BDE8DD
:1077B000F08F0AEA010104EB810159F82320CA6025
:1077C0000133B2E700A900201CAD0020D80B030054
:1077D000400B030099FD020000231A46FFF792BFF9
:1077E00007B50123019201AAFFF78CFF03B05DF8F2
:1077F00004FB07B5CDE9002302236A46FFF782FFA9
:1078000003B05DF804FB1FB5CDE90123069B03938C
:1078100001AA0323FFF776FF05B05DF804FB1FB54F
:10782000CDE90023069B0293079B03936A4604233A
:10783000FFF768FF05B05DF804FB7FB5CDE90123D4
:10784000089B0393099B04930A9B059301AA0523B4
:10785000FFF758FF07B05DF804FB000038B5094A90
:107860000123D2F8104482F820341D4604B938BDF3
:10787000E3685D71236820465B689847E3681C688D
:10788000F4E700BF00A900202DE9F74F99469DF8C5
:107890003030019388461746054618B92249B6206C
:1078A00001F0F4FBEA8895F805B00BFB02FBABF1A5
:1078B000040BCB4503D81C49C42001F0E7FB3E680C
:1078C000B5F806A006EB09025A4509F1040188BF84
:1078D000ABEB0906B1FBFAF43E600AFB141144B9A4
:1078E000AAEB0107B74228BF37462EB903B0BDE85F
:1078F000F08F2D68013CF2E7019A043108EB040394
:10790000681872B101463A461846F61B02F0B6F8FE
:10791000B2453C442D6857464FF0000128BF37461A
:10792000E3E73A461946F0E705FE0200F8B5467966
:107930000146721E0546002393422D6803D300249E
:10794000A64202D8F8BD0133F6E70F682846FFF7D4
:10795000D1FB01343946F3E72DE9F843CD1C068A03
:107960000746FFF799FB043E35440446B5FBF6F5A0
:10797000F0B14FF48073EDB28380C680013D0760A3
:1079800081464FF00008A84512D23846FFF784FB25
:10799000064648B163790133637108F10108C9F8FB
:1079A000000007608146EEE72046FFF7BFFF344640
:1079B0002046BDE8F88301210430FFF751BB10B524
:1079C000012104460430FFF756FB10F0FF0F04D1ED
:1079D0002046BDE81040FFF7A9BF10BD1FB51446F3
:1079E00003920022009203AAFFF74EFF039BA342DB
:1079F00003D00349F62001F049FB04B010BD00BFDD
:107A000005FE020038B50D46044618B90849502055
:107A100001F03CFB1DB90649512001F037FB256000
:107A20002B6863606A68934204BF0023636038BDBB
:107A30005EFE020010B5044618B90B49632001F040
:107A400025FB23681BB90849642001F01FFB63680C
:107A500043B1226891680B4463605268934204BF4B
:107A60000023636010BD00BF5EFE020010B50D492B
:107A7000A1F59472914201D800200FE08B1ADB101F
:107A800003EBD3735B1002EBC30452F83330834231
:107A900005D802D204F10802ECE7606810BD214667
:107AA000E8E700BF0400030008B5FFF7DFFF024B63
:107AB000002808BF184608BDC7FE020010B50446DE
:107AC00018B90649A02001F0E1FA054B187918B958
:107AD00001221C609A8010BD8520FCE7BE030300D4
:107AE00024AD002008B50B4B1B791BB90A49B920FE
:107AF00001F0CCFA094B1A68D2075FBFE02283F885
:107B0000002301221A604FF080430122C3F8182598
:107B100008BD00BF24AD0020BE03030000E100E06B
:107B200008B5084B1B791BB90749F32001F0AEFAE1
:107B3000064B01221A604FF08042D2F81834DB0362
:107B4000FBD408BD24AD0020BE0303000C000040A0
:107B500007B5154B1A687AB100221A601B680093AA
:107B6000009B4FF080430122C3F808230F4B587944
:107B700010B95A711B6898470D4B1A6882B10022E0
:107B80001A601B680193019B4FF080430222C3F8E7
:107B90000823064B1B68012003B05DF804EB18476F
:107BA00003B05DF804FB00BF0001004024AD0020DD
:107BB0000401004000F1804000F5C040002382B085
:107BC000036003680193019B02B0704702494FF4C0
:107BD000F37001F05BBA00BF110403001F2838B531
:107BE00004460D4601D9FFF7F1FFA00000F1A040C7
:107BF000D0F8002722F44032C0F80027D0F8003730
:107C000043EA0543C0F8003738BD00002DE9F04FC6
:107C100087B000245D4D03944FF48072012102F17E
:107C2000804303F5C04390B21B68012B06D1D5F801
:107C300004330B4202D0FFF7BDFF0C430432B2F510
:107C4000907F4FEA4101EAD1514B1B68012B0AD1C9
:107C50004FF4BE70FFF7AEFF4FF0A04344F0004476
:107C6000D3F81035039314F0FF0F1AD0494F0025B5
:107C70000126344210D0AB0003F1804303F5C0432A
:107C8000D3F81005D3F8101557F8253023B1C1F3F8
:107C90000141C0F3042098470135082D4FEA4606FC
:107CA000E7D1002C6ADA00224FF0FF33CDE904233C
:107CB000384FDFF8E480002635464FF0A04A18F927
:107CC000014B631C4FD0E4B2012224F0C00B04F03E
:107CD000070302FA03F34FEADB0006AA111811F8B2
:107CE000042C1A423FD007EB0B02A40992F9302072
:107CF00057F82290B9F1000F0AD1032C33D10DF1BE
:107D0000100E1EF800C04CEA030C0EF800C001E093
:107D1000032CF4D0BBF11F0F05D9CDE90031FFF7DB
:107D200055FFDDE900310BF5E07011F80C1C5AF835
:107D300020001942C0F3014005D0022813D1032CC2
:107D40000BD1214604E003280DD1032C05D10221DB
:107D50005846FFF743FF0135EDB2B9F1000F02D0ED
:107D600021465846C8470136042EA8D135B14FF0F8
:107D7000A043039AD3F81035934202D107B0BDE86F
:107D8000F08F0393049B059393E700BF00600040CE
:107D90007C6100402CAD00207CAD002010B5054C6E
:107DA00022681AB90449512001F070F92368BDE82E
:107DB0001040184788AD00205F04030037B50D461A
:107DC00030B90F49772001F061F9002003B030BDD0
:107DD0000C4B9842F9D100230DF107008DF80730C4
:107DE000FFF718F8084B1C7914B901221D601A71AD
:107DF0009DF80700FFF73EF8002CE6D01120E5E7DC
:107E00005F0403000020004088AD002000234350A1
:107E100082B043580193019B02B0704770B5D0F80F
:107E2000103105460C4653B14FF48871FFF7EEFF51
:107E300063795A0703D523680BB101209847D5F819
:107E400014315BB14FF48A712846FFF7DFFF637985
:107E50001B0703D523680BB102209847D5F81C31C6
:107E60005BB128464FF48E71FFF7D0FF607910F0B8
:107E7000100002D1236803B19847D5F8043163B1EB
:107E80004FF482712846FFF7C1FF01232371236855
:107E90001BB10320BDE87040184770BD014902487E
:107EA000FFF7BCBF90AD002000C00140014902486F
:107EB000FFF7B4BF98AD002000100240014902480E
:107EC000FFF7ACBFA0AD00200020024000F18040D1
:107ED00000F5E040002382B0036003680193019B3A
:107EE00002B07047F0B5534B534C1B6885B0002B64
:107EF0003DD04FF4827094F82E20FFF7E7FF2AB3AD
:107F000094F82F3013BB4D4B1B68002B33D04FF42C
:107F10008070FFF7DBFF94F82D20638B91B28B42CA
:107F20004ED95B1A21899BB26383CB1A616801EB3E
:107F30004301434BC3F82C16C3F830264FF482702C
:107F4000FFF7C4FF3F4B01221A6014E063680293FD
:107F50002389ADF80C30E36800218DF8041023BBB1
:107F60002374236801A89847002384F82F3094F8DD
:107F70002E30002BC7D1344B1B685BB14FF4887097
:107F8000FFF7A4FF0023237402238DF8043001A817
:107F9000236898472D4B1B6813B34FF48A70FFF783
:107FA00095FF0023237405B0F0BD208B60836360D0
:107FB0002081E160002AD4D1214B01221A60D0E750
:107FC000BCD1E368012184F82F103BB1002161830B
:107FD0001B49C1F82C36C1F83026AFE76383ADE703
:107FE00066694FF000470125002EDCD0B6FA86F214
:107FF00027FA02F34632920026EA030602F1804392
:1080000003F5E0431B68002BEED01046FFF75EFF40
:10801000A2F58C72D30882F00402C2F380028DF8BC
:1080200008308DF804508DF80920236801A898477E
:10803000DAE700BF04710040A8AD002000710040E5
:108040000070004004700040107100401471004046
:1080500002494FF4F37001F019B800BF1104030096
:108060001F2810B5044601D9FFF7F2FF01234FF096
:10807000A042A340C2F80C3510BD1F2810B504461D
:1080800001D9FFF7E5FF01234FF0A042A340C2F85A
:10809000083510BD13B54FF04023D3F818310BB39A
:1080A000114B124C00221A601B680193019B23683C
:1080B00023B90F494FF4277000F0E8FFE07FFF2855
:1080C00003D0A37F5BB1FFF7CBFF0023637723725D
:1080D000D4E90031074802B0BDE810401847FFF767
:1080E000CCFFF2E702B010BD18410040D8AD00202F
:1080F000BC040300E0AD00202DE9F74F8146CDE937
:1081000000230C4619B97D49AD2000F0BFFF99F856
:1081100004607B4F242303FB06FB07EB0B0A9AF852
:108120001C10002940F0E380D9F80050754928461A
:10813000FFF744FE8046002840F0DC80009B47F8B3
:108140000B30019BCAF80430237B2078012B00F20E
:10815000BC80FFF785FF94F800A0BAF11F0F01D98A
:10816000FFF776FF0AF5E07A4FF0A043012243F8CB
:108170002A2094F801A0BAF1FF0F00F0A980504620
:10818000FFF76EFFBAF11F0FD34601D9FFF760FF6B
:108190000AF5E07A4FF0A043032243F82A20A3789F
:1081A000FF2B00F098801F2B9A4603D90093FFF70E
:1081B0004FFF009B03F5E0734FF0A042042142F80B
:1081C0002310242303FB0673A27883F82020E07891
:1081D000D877FF2817D02379002B7FD0FFF740FFF7
:1081E000E3781F2B03D90093FFF732FF009B03F5C1
:1081F000E0734FF0A042032142F82310242303FB35
:10820000067322799A772378C5F80835C5F80CB536
:10821000C5F810A5A368C5F82435637B227B00331D
:1082200018BF0123022A5CD0032A5DD0012A01D1A4
:1082300043F00203C5F85435A379C5F8C0352423AB
:108240007343FB5813B14022C5F804230722C5F835
:1082500000257BB3D9F8003064794FEA133AA31EA6
:10826000012B4FFA8AF506D9631F022B03D9264941
:108270006B2000F00BFF002DACBF05F16043234BDA
:108280004FEA4414B8BF0AF00F0AE4B2AABF03F5DC
:10829000614303F80A4083F80043D9F800301B0B10
:1082A0005AB2012103F01F0301FA03F352091849DE
:1082B00041F82230242303FB067600237377012341
:1082C0003377404603B0BDE8F08FFFF7D6FE42E7B4
:1082D0004FF0FF3B63E74FF0FF3A72E7FFF7CDFE49
:1082E0007EE743F00403A5E743F00603A2E74FF05F
:1082F0000808E6E74FF01108E3E700BFBC040300FD
:10830000D8AD0020958002000805030014ED00E0C0
:1083100000E100E02DE9F341584F0679242303FBE7
:10832000067380461B7F0D46144623B9544940F21C
:10833000322000F0ABFE2B6833B96B6823B1504993
:1083400040F2332000F0A2FEAB6833B9EB6823B1F2
:108350004B494FF40D7000F099FE98F804302BB99A
:10836000EB68FF2B02D86B68FF2B04D9444940F21D
:10837000372000F08BFE24237343FA18517F002925
:1083800079D1FB5823B114F0140F04BF01235377A4
:1083900095E80F004FF0240C0CFB067C0CF10C0E42
:1083A0008EE80F009CF81F00FF2804D09CF81E30B8
:1083B000C3B1FFF762FE2A6822B102F06043B3F155
:1083C000005F06D1AB6883B103F06043B3F1005F97
:1083D0000BD0242303FB067600237377102002B012
:1083E000BDE8F081FFF73CFEE5E7D8F800306968AA
:1083F000C3F84425C3F84815D5E90212C3F834156B
:10840000C3F838250022C3F81821D3F818210192A7
:10841000019A14F0010218BF0122C3F8502514F08C
:10842000020218BF0122C3F8402522075CBF0122C7
:108430001A6124227243BA5892B9D3F81821002A3B
:10844000FBD0242303FB0676F07FFF2803D0B47F04
:108450001CB1FFF705FE0020C1E7FFF70EFEFAE7AB
:1084600014F004004FF0400202D0C3F80823F2E7F2
:10847000C3F80423B3E71120B1E700BFD8AD002053
:10848000BC0403002DE9F743002406460F4600F51F
:10849000A0754FF48038A146A0002B6800F5A070AD
:1084A00080B26BB1D6F8043308FA04F21A4207D04E
:1084B000C5F800902B680193019BD7E900319847DC
:1084C0000134042C05F10405E6D103B0BDE8F083C6
:1084D00001490248FFF7D6BFFCAD002000800040F4
:1084E00001490248FFF7CEBF08AE002000900040CF
:1084F0000023435082B043580193019B02B0704760
:10850000F0B5504C236887B023B94F4940F245205D
:1085100000F0BCFD4D4AD2F824311546A3B14FF40A
:1085200092711046FFF7E4FFD2F8043163B9A368F3
:10853000C2F808330223A360A368C2F804330123FE
:108540001362536107B0F0BDD5F80431002B49D058
:108550003F4F3E484FF48271FFF7CAFF0FCF01AE85
:108560000FC63B68336094F82E307BB1237B012B20
:108570000CBFD5F83C25D5F84C250292022B334B85
:108580000CBFD3F83C35D3F84C3503934FF4B0719E
:108590002E48FFF7ADFF4FF4AE712C48FFF7A8FF50
:1085A00094F8303013B194F82E303BB1274B0022B1
:1085B000C3F80022A260274AC3F80823234AD2F84E
:1085C000C434C2F8C4349A0736D501238DF800307C
:1085D00094F830300BB984F82F30D4E90031684674
:1085E0009847AFE74FF4A4711848FFF781FF237B4A
:1085F00083B9174F0FCF01AE0FC63B68336094F8B5
:108600003030002BDAD1C5F80032A360114BC5F829
:108610000833D3E74FF40073C5F8003240F2022369
:10862000A36003F1CE73C5F80833A368C5F804331B
:108630000123AB602B6285E713F0040318BF02230C
:10864000C4E700BF14AE002057050300003000400F
:1086500020AE002002029C0170B5C0B14AB116885C
:108660000024B44203D305196D789D4208D0A1427D
:1086700001D800200BE0055D01352C44A4B2F0E7E1
:10868000A142F6D9A31C1380005D013880B270BDF1
:1086900013B50023ADF8063013460DF1060204466B
:1086A000FFF7DAFF10B1BDF80600204402B010BD9C
:1086B00072DF704773DF704738B5012204460D46FC
:1086C000B0F83812D0F83402FFF7E2FF00B10570BD
:1086D00004F13C0204F50D7104F15400BDE838408A
:1086E000FFF7E6BFF8B5077804460D46002F00F007
:1086F000048100F24A26A17007220021304601F0D1
:1087000057FAE38813B1A378012B04D0E3794BB176
:10871000A378022B06D1636BA3B1012284F8512206
:1087200008209847334604F5147113F8012F12B945
:108730008B42FAD117466B1E032B52D8DFE803F0A9
:10874000050B0F1284F85132ECE7A3791BB194F8B2
:10875000243003B95FB9E3790BB1002F43D1237AF9
:10876000002B42D1637A002B0CBF00250425636BDC
:10877000A570002B3BD0033D012D38D86279002A2B
:1087800035D094F8522292BB84F85422012284F806
:1087900053220720984704F13C051822002128465F
:1087A00001F006FAE36A94F82420581E01210228F9
:1087B00028BF0B4684F83C1084F8513032B188420F
:1087C00096BFA36A84F8521084F85230A17800232F
:1087D00084F8503004291BD8DFE801F0770D2235EA
:1087E00059000025C3E70225C1E70325BFE70023A1
:1087F00084F85332CFE7C4F84432C4E9106302234B
:10880000012284F83C30802384F83120A4F84830D9
:10881000A378002B5CD1636B002B6AD1002067E04A
:108820000223002A84F8313014BF0723032384F87D
:108830003C302369A4F848300023C4F84432E3688C
:1088400026646364E4E763696364A369A4F8483059
:1088500012B1062384F83C306379B3B194F85232F4
:108860009BB994F8543283B1022384F85030042128
:108870002046FFF721FF0028CAD1052384F83130B4
:1088800004F50D73C4F84432C2E70323F6E7E36945
:108890006364236AA4F8483012B1062384F83C309C
:1088A000637983B194F852326BB994F8543253B16E
:1088B000022384F8503004212046FFF7FDFE0028F3
:1088C000A6D10623DAE70423D8E784F831309FE7FE
:1088D0002A46D4F8441204F15400FFF7E9FE38B9EF
:1088E00094F8301094F85400FFF7E4FE002892D07A
:1088F000F8BD94F83100984790E70820F8E710B5E4
:108900000388112B0C460AD0262B1FD0102B05D123
:10891000C37B012B02D18388A1F8483210BD00230C
:1089200081F852328288B1F848329A42F6D10B79F6
:10893000002BF3D101212046FFF7D4FE0028EDD013
:10894000A36B002BEAD0BDE810401847037A013B27
:10895000012BE3D8897805230131B1FBF3F303EB55
:108960008303C91AC9B2E6E770470000034B1A88AF
:1089700082420CBF18460020704700BF64AE002042
:10898000024B9B6903B11847704700BF48AE0020F7
:1089900013B50B46497A0F4C024669B9D4E9011068
:1089A0001C7A002C18BF01465868FEF7CFF908B1B1
:1089B000FFF7E6FF02B010BD002119726369002BBA
:1089C000F8D00121ADF806008DF8041001A89847F1
:1089D000F0E700BF48AE00204B8802889A4213D8C7
:1089E00042889A4210D380888A8840F2F3139842D2
:1089F00094BF031AC31A934206D800F2F3109042B0
:108A000034BF0020012070470020704770B50388F4
:108A1000112B014648D002D8102B1ED070BD122B4E
:108A200052D0502BFAD12F4BC288DB899A42F5D114
:108A3000038A022BF2D186883046FFF797FF05465E
:108A40000028EBD001F1120000F050F830BB68684C
:108A5000FEF7C2F90028E1D009E0C37B012BDDD18C
:108A60004FF6FF70FFF782FF054620B90420BDE8EE
:108A70007040FFF785BF8E881B4A06800023037273
:108A80001368C5F80A300A30536843601031FFF7A5
:108A9000A3FF144B6872DB89002BBFD129463046F7
:108AA000BDE87040FFF774BF8088FFF75FFF0446A2
:108AB0000028B3D04068FEF78FF908B1FFF760FFD8
:108AC0004FF6FF732380A9E786883046FFF74EFFF5
:108AD00005460028A2D008310A30FFF77DFF6872F2
:108AE000DCE700BF48AE002078AE0020007800F040
:108AF0000100704790DF7047A5DF7047B5DF704712
:108B00007FB50023ADF80810ADF80A106A4602A937
:108B1000064603930093ADF80430FFF7EBFF0546DC
:108B200000B3124B124CE41AE408FEF7BDFF240414
:108B300044F00104034632460E492046FEF759FE32
:108B4000BDF80020BDF8023052EA030103D00A4903
:108B50002046FEF74EFEBDF804201AB10749204614
:108B6000FEF73EFE284604B070BD00BF400B030078
:108B7000B00B0300B3050300FD0503003C06030032
:108B800013B5034680880C46A0B91A88232A00F042
:108B9000A48011D8102A22D0112A51D0A37A4BB127
:108BA000E1880020FFF7A8FF002840F09C804FF4E8
:108BB0008073638102B010BD3A2A4AD0552A60D032
:108BC000242AEBD11A7A0B694A73002BE6D04DF6B2
:108BD0007A21ADF8040000918DF8042079E00A793B
:108BE0000A73DB7B012B13D0022B14D0E18823897D
:108BF0008B4205D20020FFF77FFF70B90123E3729B
:108C0000217B637B8B42C9D20020FFF779FFC5E748
:108C10000B88E380EAE74B88FBE7112802D10123A8
:108C2000A372EDE7FEF740FF374A384B38499B1AED
:108C3000DB081B04024643F00100FEF7D1FDDFE72D
:108C4000F723CB8017230B8141F6FB3348818B81BF
:108C5000A4E75B89CA88934228BF1346172B0A6989
:108C600038BF17230B814AB1C97A39B140F6772151
:108C70000091ADF804306946204690470023638197
:108C80008CE7DB88C988A072172B38BF17238B426B
:108C900028BF0B462381FFF731FF60B1FEF704FFC9
:108CA000194A1A4B1B499B1ADB081B04024643F066
:108CB0000100FEF795FDE37A002B7FF46FAF236987
:108CC000002B3FF46BAF40F6772200922289ADF87B
:108CD000042069462046984760E7197A237B994229
:108CE00028BF194691E711283FF464AFFEF7DCFE78
:108CF000054A064B06499B1ADB081B04024643F053
:108D00000100FEF76DFD55E7400B0300B00B0300BB
:108D100092060300C3060300B0DF704766DF7047AA
:108D200010B5034600214088FFF7F8FF024608B956
:108D30001A7210BD112801D10122F9E75B68BDE864
:108D40001040184728B10378DE2B04D14180002061
:108D500070470E20704708207047F0B5054685B073
:108D60000C46F1B1E8B10B78DE2B1AD182884B8822
:108D70009A4204D10B7A13B10846FFF7D1FF2B8832
:108D8000112B32D0512B0ED0012B0AD12B7A012B73
:108D900007D1A9886288914203D123722046FFF748
:108DA000BFFF05B0F0BDAE886388B342F9D1AF799B
:108DB000022FF6D1AD7B2B1F022BF2D800211022FF
:108DC000684600F0F5FE052D14BF4FF4C073002374
:108DD000694630468DF80070ADF80430FFF79CFF0F
:108DE0000028DED063689847DBE76388AA889A4248
:108DF00004BF4FF6FF736380D3E70000014B187880
:108E0000704700BF80AE002007B508496846FEF7EE
:108E1000F9FD019B13B903B05DF804FBD3E9002011
:108E200090476846FEF706FEF3E700BF0007030021
:108E3000FFF7EABF61DF704730B5134DADF5017D37
:108E40004FF4FA740DF1020103A8ADF80240FFF7E8
:108E5000F1FF70B9294601A8FEF7D4FD029B002B53
:108E6000F0D003A8D3E90021904701A8FEF7E2FD66
:108E7000F4E7052804D0054A40F23911FDF76CFDEE
:108E80000DF5017D30BD00BF680703001407030026
:108E9000024B1B780BB1FFF7CFBF704781AE0020AC
:108EA00076DF70477FDF704786DF70478ADF704765
:108EB0008FDF7047B1DF704733DF704737B5038806
:108EC0001D2B044600F0AC801DD8132B7CD00AD893
:108ED000102B3DD0112B5DD0604B13B12046AFF36A
:108EE000008003B030BD142B00F08C801B2BF3D11D
:108EF000037A012BF0D1FFF7DFFF0028ECD0584AAE
:108F00004FF4CC716DE0502B52D00ED8212B00F0D5
:108F100096803B2BE0D113218088FFF7C1FF00280A
:108F2000DAD04F4A4FF4D0715BE0522B5CD045D37E
:108F3000562BD1D18379002BCED14A4B13211888DF
:108F4000FFF7AEFF0028C7D0454A40F2A71148E01E
:108F5000444D818844482980FFF7F4FE20B1404AFF
:108F60004FF49D71FDF7F8FC00231A461946288836
:108F7000FFF7A0FF20B13A4A4FF4A171FDF7ECFCD6
:108F80003A4800F071FE3A4B002BA5D02046AFF3D3
:108F90000080A1E7334B37484FF6FF721A8000F08C
:108FA00063FE354B002B97D02046AFF3008093E74C
:108FB000324B002B90D0AFF300808DE7304B002B6D
:108FC0008AD0AFF3008087E7264800231A46852120
:108FD0000088FFF767FF00283FF47EAF204A40F289
:108FE0008111FDF7B9FC77E71E4800231A461946A0
:108FF0000088FFF75FFF00283FF46EAF184A40F289
:109000008711EEE7174800231A4619460088FFF734
:109010004BFF00283FF460AF114A40F29111E0E7A6
:10902000184B0BB1AFF3008017490020FFF73EFF4C
:1090300000283FF451AF0A4A40F2C711D1E700239C
:1090400001A98088ADF80430FFF732FF00283FF413
:1090500043AF034A40F2D111C3E700BF0000000054
:10906000A5070300D8B10020F0B00020D40703000A
:1090700000000000E4070300000000000000000002
:109080000000000000000000A898002038B50D4640
:109090000446044800F0E8FD2A4621460248FDF750
:1090A0005BFC38BD80070300EFBEADDE0C4B1B78C8
:1090B000062B10D10B4B1B681A070CD10A4B1868F2
:1090C00000F0F003302B08D000F0E000A0F14003E6
:1090D000584258417047002070470120704700BF38
:1090E000E00F00F0E40F00F0E80F00F0094B1B78F0
:1090F000062B0CD1084B1B681A0708D1074B1868C0
:1091000000F0F000A0F130035842584170470020B1
:10911000704700BFE00F00F0E40F00F0E80F00F030
:1091200008B5FFF7C3FF28B17D4B7E4A1B68C3F328
:1091300004231360FFF7DAFF10B17B4B7B4A1A6000
:10914000FFF7B4FF28B17A4B7A4A1B68C3F3423366
:109150001360FFF7CBFF20B1774AD36823F0807309
:10916000D360FFF7A3FF40B14FF080430022C3F864
:109170000C21C3F81021C3F83825FFF7B7FF10B151
:109180006E4B03221A60FFF7B1FF40B16C4B052212
:109190001A6001229A6700229A603F225A60694B46
:1091A0001B78062B50D1684B1B6819074CD1674BB5
:1091B0001B6803F0F003502B46D14FF08052644BF4
:1091C000D2F80414C3F82015D2F80814C3F82415F3
:1091D000D2F80C14C3F82815D2F81014C3F82C15C3
:1091E000D2F81414C3F83015D2F81814C3F8341593
:1091F000D2F81C14C3F84015D2F82014C3F8441553
:10920000D2F82414C3F84815D2F82814C3F84C1522
:10921000D2F82C14C3F85015D2F83014C3F85415F2
:10922000D2F83414C3F86015D2F83814C3F86415B2
:10923000D2F83C14C3F86815D2F84014C3F86C1582
:10924000D2F84424C3F87025FFF730FF28B1414B12
:10925000414A1B6803F04F031360FFF727FF48B133
:109260004FF08043D3F80024D20744BF6FF00102CF
:10927000C3F80024394B1B68062B08D1384B1B68F8
:10928000062B01BF374A136843F480631360364AE4
:10929000D2F8883043F47003C2F88830BFF34F8FA0
:1092A000BFF36F8F4FF01023D3F80022002A03DBA7
:1092B000D3F80432002B2FDA2C4B0122C3F80425FB
:1092C000D3F80024002AFBD04FF010221521C2F859
:1092D0000012D3F80024002AFBD04FF010231522EF
:1092E000C3F80422214B1A46D3F800140029FBD0FE
:1092F0000021C3F80415D2F80034002BFBD0BFF3D3
:109300004F8F19491A4BCA6802F4E0621343CB60CD
:10931000BFF34F8F00BFFDE7164B174A1A6008BD19
:10932000240300104035014074C007400DF0ADBA71
:10933000440200103C050040F0ED00E0A0050040B4
:1093400010560040E00F00F0E40F00F0E80F00F0CE
:1093500000C0004058020010E40E00403001001030
:10936000340100103C17004000ED00E000E0014037
:109370000400FA05B09800200090D0032DE9FF41C9
:1093800006460F46154672B6FEF768FAFEF7A8F8CD
:109390000028FBD1234B244CE41AE40841F20103DA
:1093A00024049E4244F0010428D007D8012E14D092
:1093B0003A461E492046FEF713FA12E044F2010332
:1093C0009E421DD044F202039E42F1D12B886A686E
:1093D00017492046FEF70DFA03E016492046FEF72E
:1093E000FBF9154B1B68DB0700D500BE2A46394642
:1093F000304604B0BDE8F041FDF782BA0F49EDE711
:10940000D5F808804046FEF74FFB2B680297019382
:109410006B6800930A49034642462046FEF70DFA60
:109420000849DBE7400B0300980B030089080300A1
:1094300035080300F6070300F0ED00E01308030011
:109440004F080300750803000649074A074B9B1A9B
:1094500003DD043BC858D050FBDCFFF761FEFCF78E
:10946000EFFE0000540C0300A898002070A200201A
:10947000FEE7FEE7FEE7FEE7FEE7FEE7FEE7FEE7C4
:10948000FEE7FEE708B50021044602F027FC044B86
:109490001868C36B03B19847204605F00DFA00BF6A
:1094A000A809030070B50D4E0D4D761BB61006D001
:1094B0000024013455F8043B9847A642F9D1094EDF
:1094C000094D761B06F010F8B61006D000240134C2
:1094D00055F8043B9847A642F9D170BD60A2002020
:1094E00060A200206CA2002060A20020024B014676
:1094F000186800F00BB800BFB4980020024B01467A
:10950000186803F0A9BD00BFB49800202DE9F04F02
:1095100001F10B05162D83B0064623D8102900F261
:10952000B98000F095FB102518230220BA4F3B4468
:10953000A3F108025C68944200F0B980636823F0EC
:1095400003032344D4E902515A68E96042F001025E
:1095500030468D605A6000F081FB0834204603B02D
:10956000BDE8F08F35F0070500F19480A94200F2C4
:10957000918000F06DFBB5F5FC7FC0F0A2816B0A15
:1095800000F08F80042B00F27881AB0903F13900E1
:1095900003F1380CC300A04F3B44A3F108015C6801
:1095A000A14206D10CE0002A80F22781E468A142A2
:1095B00006D0636823F003035A1B0F2AF3DD6046CD
:1095C0003C69DFF868C264457CD0636823F003031C
:1095D0005A1B0F2A00F38381002AC7E904CC80F2CA
:1095E0007481B3F5007F80F02581DB08591C7A680F
:1095F00057F83180C4F808804FF0010E9B100EFA26
:1096000003F307EBC10E1343AEF10802E2607B6087
:1096100047F83140C8F80C408210012494409C4225
:1096200056D81C4206D120F0030064001C4200F111
:109630000400FAD007EBC009CE468046DEF80C30B5
:109640009E4507D125E1002A80F22C81DB689E45EA
:1096500000F01F81596821F003014A1B0F2AF2DD37
:10966000D3E9028E5C1945F001055D6042F0010509
:10967000C8F80CE03046CEF80880C7E90444C4E9D5
:1096800002CC65605A50009300F0E8FA009B03F1A9
:10969000080402E00C2333600024204603B0BDE838
:1096A000F08F4FF4007340204FF03F0C73E7DC68FD
:1096B000A34208BF02307FF441AF3C69DFF86CC1C0
:1096C000644582D17B688210012494409C42A8D9D1
:1096D000BC68636823F00308A84503D3A8EB05031F
:1096E0000F2B7ADCDFF848914C4BD9F800201B682F
:1096F00001322B4404EB080A00F03C8103F580534F
:109700000F3323F47F6B2BF00F0B5946304600F0DC
:10971000BFFA411C024600F0FC80824500F2F7804F
:109720003F4B186858441860014600F05781D9F83B
:109730000000019301301BBFA2EB0A0A5144C9F893
:109740000020196012F0070A00F02081CAF1080118
:109750000A44CAF5805193440831A1EB0B01C1F3CF
:109760000B0949463046009200F092FA421CDDE9AE
:10977000002300F05881801A00EB090B1868BA60CA
:109780004BF001014844BC425160186000F0328146
:10979000B8F10F0F40F230816168A8F10C0C2CF089
:1097A000070C01F0010104EB0C0E41EA0C014FF033
:1097B0000508BCF10F0F6160CEE9018800F23B8122
:1097C00051681446174B1A68824238BF1860164B0E
:1097D0001A68824238BF18609DE0621943F00103A5
:1097E00045F0010565603046BA60536000F036FA16
:1097F0000834204603B0BDE8F08F2344E1685A687E
:10980000A56842F00102E96030468D605A6000F0C0
:1098100025FA083441E700BFE09C00204CB100204D
:109820001CB1002044B1002048B10020E89C002079
:10983000E8A000205A0A042A63D9142A00F2B7804B
:1098400002F15C01C9005B3207EB010E7958AEF101
:10985000080E8E4500F091804A6822F003029A4279
:1098600002D989688E45F7D1D1F80CE07B68C4E94C
:10987000021ECEF80840CC60CEE6142B59D9542BEA
:1098800000F29D802B0B03F16F0003F16E0CC300FF
:1098900081E608F1010818F0030F0EF1080E7FF4BD
:1098A000CDAE51E019441C464A68DB6854F8085FA5
:1098B00042F001024A603046EB609D6000F0CEF954
:1098C000EBE6E80805F1080330E6234430465A6821
:1098D00042F001025A60083400F0C0F9DDE6611977
:1098E00045F0010E42F00105C4F804E03046C7E936
:1098F0000411C1E902CC4D60E25000F0AFF9083428
:10990000CBE69A0902F13901C90038329CE7BC4222
:109910005FD0BC68616821F0030BAB45ABEB05037E
:1099200002D30F2B3FF759AF304600F097F90024D0
:10993000B3E603F15C0003F15B0CC3002BE659F8BE
:1099400008394B4540F0968010F0030F00F1FF30CE
:10995000F5D17B6823EA04037B6064009C423FF6F8
:10996000B7AE1CB9B4E6640008F104081C42FAD092
:1099700040465FE603F1100BC7E67B6892104FF09C
:10998000010808FA02F213437B6070E702EB0B0058
:109990004042C0F30B0949463046009200F078F986
:1099A000431CDDE900237FF4E6AED146E6E6542A07
:1099B00025D81A0B02F16F01C9006E3244E7B3F5E6
:1099C000AA7F25D8EB0B03F1780003F1770CC300D5
:1099D000E1E5294B196859441960A8E6CAF30B0C54
:1099E000BCF1000F7FF4A3AEC344BC684BF001018F
:1099F0006160E7E61446E5E60123536094E7B2F5BB
:109A0000AA7F23D8DA0B02F17801C90077321BE76D
:109A100040F25452934223D8AB0C03F17D0003F182
:109A20007C0CC300B7E5AAF1080AD344ABEB020BE8
:109A30004FF00009A2E604F108013046009303F05C
:109A40000BFBBC68009B61681868BBE640F2545190
:109A50008A420BD89A0C02F17D01C9007C32F3E6F0
:109A60004FF47E737F204FF07E0C94E54FF47E71AF
:109A70007E22E9E67B6870E71CB10020844641EA5B
:109A8000000313F003036DD1403A41D351F8043B76
:109A900040F8043B51F8043B40F8043B51F8043BC8
:109AA00040F8043B51F8043B40F8043B51F8043BB8
:109AB00040F8043B51F8043B40F8043B51F8043BA8
:109AC00040F8043B51F8043B40F8043B51F8043B98
:109AD00040F8043B51F8043B40F8043B51F8043B88
:109AE00040F8043B51F8043B40F8043B51F8043B78
:109AF00040F8043B51F8043B40F8043B51F8043B68
:109B000040F8043B51F8043B40F8043B403ABDD2D6
:109B1000303211D351F8043B40F8043B51F8043B78
:109B200040F8043B51F8043B40F8043B51F8043B37
:109B300040F8043B103AEDD20C3205D351F8043B07
:109B400040F8043B043AF9D2043208D0D2071CBFD3
:109B500011F8013B00F8013B01D30B8803806046FC
:109B6000704700BF082A13D38B078DD010F0030372
:109B70008AD0C3F10403D21ADB071CBF11F8013BE2
:109B800000F8013B80D331F8023B20F8023B7BE731
:109B9000043AD9D3013A11F8013B00F8013BF9D25C
:109BA0000B7803704B7843708B78837060467047F6
:109BB000F0B4860746D0541E002A3CD0CAB20346F1
:109BC00002E014F1FF3436D303F8012B9D07F8D1DE
:109BD000032C29D9CDB245EA05250F2C45EA0545C8
:109BE00033D9A4F11006360903F1200707EB061755
:109BF00003F1100242E9045542E902551032BA421B
:109C0000F8D1721C14F00C0F03EB021204F00F06D3
:109C100013D0331F23F003030433134442F8045BCF
:109C20009342FBD106F003042CB1C9B21C4403F8E3
:109C3000011B9C42FBD1F0BC704734461346002CFC
:109C4000F3D1F8E714460346C2E71A462646E0E792
:109C5000014803F029BB00BFECB10020014803F02C
:109C600025BB00BFECB100200FB400B5074983B09D
:109C700004AB086853F8042B8168019300F0D0F915
:109C800003B05DF804EB04B0704700BFB498002047
:109C900038B5074C002305460846236004F0FEFD56
:109CA000431C00D038BD2368002BFBD02B6038BD8F
:109CB00000B2002000290CBF022200224FF4806372
:109CC00000F000B82DE9F043614C256883B00446EC
:109CD0000F4690461E4615B1AB6B002B7BD0B8F1FA
:109CE000020F06D0B8F1010F00F2AF80002EC0F2D3
:109CF000AC80636EDA0755D52146284603F0B0F8EC
:109D0000216B41B104F14003994202D0284603F08F
:109D1000A3F900232363B4F90C3000221806A261D2
:109D2000626066D423F44A6323F00303B8F1020FA0
:109D3000A38165D001AB6A462146284603F0B8FAF4
:109D4000A3891843A081002E33D0002F32D0AB6BF3
:109D5000002B3CD0009AB4F90C302760B2421CBFF3
:109D600043F40063A381B8F1010F04BF43F0010382
:109D7000A3819BB213F00802C4E904762FD0DA075E
:109D800051D5656E7642002215F00105A661A260EC
:109D90002AD19B0529D4A06D03F088FA284603B088
:109DA000BDE8F083A3899B05A6D4A06D03F07CFADF
:109DB000A2E7009E3046FFF799FB0746002834D003
:109DC000A38943F08003A381AB6B002BC2D128464B
:109DD00003F0A2F8BEE7284603F09EF87FE7A260F2
:109DE000656E15F00105D4D00025284603B0BDE806
:109DF000F0832169284603F02FF9B4F90C3091E77C
:109E00000025616E002004F1430243F00203A060CC
:109E1000C9074FF00100A3812260C4E90420E4D403
:109E20009B05E2D4B7E7A660DAE7DDF80090B1451C
:109E300006D04846FFF75AFB074608B14E46BFE733
:109E4000B4F90C304FF0FF35DBE74FF0FF35CCE7CE
:109E5000B498002080EA0102844612F0030F4FD12B
:109E600011F0030F32D14DF8044D11F0040F51F8E9
:109E7000043B0BD0A3F101329A4312F0803F04BFA0
:109E80004CF8043B51F8043B16D100BF51F8044B89
:109E9000A3F101329A4312F0803FA4F101320BD1B9
:109EA0004CF8043BA24312F0803F04BF51F8043B3E
:109EB0004CF8044BEAD023460CF8013B13F0FF0F9B
:109EC0004FEA3323F8D15DF8044B704711F0010FCE
:109ED00006D011F8012B0CF8012B002A08BF70479F
:109EE00011F0020FBFD031F8022B12F0FF0F16BF96
:109EF0002CF8022B8CF8002012F47F4FB3D170475E
:109F000011F8012B0CF8012B002AF9D1704700BF82
:109F10000000000000000000000000000000000041
:109F20000000000000000000000000000000000031
:109F30000000000000000000000000000000000021
:109F400090F800F06DE9024520F007016FF0000C79
:109F500010F0070491F820F040F049804FF0000421
:109F60006FF00700D1E9002391F840F000F10800FC
:109F700082FA4CF2A4FA8CF283FA4CF3A2FA8CF334
:109F80004BBBD1E9022382FA4CF200F10800A4FA9B
:109F90008CF283FA4CF3A2FA8CF3E3B9D1E90423EF
:109FA00082FA4CF200F10800A4FA8CF283FA4CF326
:109FB000A2FA8CF37BB9D1E9062301F1200182FAE0
:109FC0004CF200F10800A4FA8CF283FA4CF3A2FAE6
:109FD0008CF3002BC6D0002A04BF04301A4612BAF4
:109FE000B2FA82F2FDE8024500EBD2007047D1E9F7
:109FF000002304F00305C4F100004FEAC50514F086
:10A00000040F91F840F00CFA05F562EA05021CBF56
:10A0100063EA050362464FF00004A9E70000000070
:10A020002DE9F04FD5B01C468946174605460590E8
:10A0300003F032F9036815931846FFF781FF08947F
:10A0400013901DB1AB6B002B00F01184D9F8641094
:10A05000B9F90C20CD0793B202D4980540F154878A
:10A0600099040AD4D9F8641042F4005321F4005141
:10A07000A9F80C30C9F864109BB21A0740F1BF80F0
:10A08000D9F81020002A00F0BA8003F01A020A2A38
:10A0900000F0C38000239FED9C7B1293CDE9293310
:10A0A00014931693CDE91833179304932BAB28938D
:10A0B0009B463B78CDF81C908DED107B002B00F07B
:10A0C0006782252B01F0AB803D4603E0252B00F095
:10A0D000BB8025466B786C1C002BF7D1E61B00F08B
:10A0E0005782DDE9293201333244072BCBF8007067
:10A0F000CBF80460CDE9293200F3AA800BF1080BFC
:10A10000049A6B7832440492002B00F041820023C1
:10A1100094F8018006938DF88330029304F1010ACC
:10A120004FF0FF392B2620210AF1010AA8F1200364
:10A130005A2B00F2A183DFE813F082029F039F03F2
:10A140007B029F039F039F0301039F039F03F6026C
:10A15000DF009F03C4002B039F0324039600960097
:10A1600096009600960096009600960096009F0333
:10A170009F039F039F039F039F039F0345039F0329
:10A18000A80162014503450345039F039F039F0305
:10A190009F035B019F039F034E019F039F039F0348
:10A1A00023019F0315019F039F03CB009F039F0380
:10A1B0009F039F039F039F039F039F0345039F03E9
:10A1C000A801EF004503450345037002EF005B0063
:10A1D0009F03EB029F03D102BD028C025B009F0331
:10A1E00023015F0087039F039F03A5009F035F0078
:10A1F000029B43F0200302939AF8008094E74946BB
:10A20000059801F0F9FC002841F08183B9F80C3081
:10A2100003F01A020A2A7FF43DAFB9F90E20002A92
:10A22000FFF638AFD9F86420D60702D49D0541F176
:10A23000908123463A464946059801F09BFC0490DC
:10A24000049855B0BDE8F08FE61B3FF460AF48E7D7
:10A2500028AA0799059803F0EFFC002841F027840D
:10A260000DF1AC0B4CE7A8F1300300221AF8018B7A
:10A2700002EB820203EB4202A8F13003092BF5D96D
:10A28000069253E7224B1493029B9F0625D5089C08
:10A29000073424F00703F3E802450893029AD10734
:10A2A0000AD554EA050307D0302342F002028DF8A4
:10A2B000858002928DF88430029B23F4806602230D
:10A2C000D9E19AF80080029B43F0040302932BE744
:10A2D000104B1493029B9F06D9D4089B53F8044B50
:10A2E0000893029BDE0600F14F86029B5D0640F15B
:10A2F0004786A4B20025D1E78DF883609AF80080E4
:10A3000012E700BFAFF30080000000000000000073
:10A31000D0090300BC090300029EB00640F10B8780
:10A32000089C073424F007031946F1E8022308913A
:10A3300014461D46002A73F1000371DBB9F1FF3F9B
:10A3400000F0C58226F08003029354EA050340F032
:10A35000BD82B9F1000F41F00E814FF000094E4669
:10A3600054AFBFE2029B9D0643F0100600F18F82BE
:10A37000089B1A1D089B08921C68002501237AE19E
:10A38000089C54F8047B00258DF88350002F00F0C2
:10A390003787B9F1FF3F00F0BC874A462946384667
:10A3A00002F0FEFF0990002801F04A82099BA946AD
:10A3B000DE1BCDE90E9926EAE6739DF8832008940A
:10A3C0000393CDF82490CDF83090002A6FD0039BF2
:10A3D000013303936BE0029B9C0643F0100600F1EF
:10A3E0005F82089B1A1D089B08921C6800255EE28C
:10A3F000029B9AF8008043F00803029394E6029BC4
:10A400009C0643F010068BD4089B1A1D089B0892EB
:10A410001C68E51722462B46002A73F100038DDAEB
:10A4200064424FF02D0365EB4505B9F1FF3F8DF810
:10A4300083304FF0010340F02581012B00F047826B
:10A44000022B00F0798454A900E03946E20842EA80
:10A450004572E80804F0070305461446303354EA11
:10A46000050201F8013C01F1FF37EED1F20740F19E
:10A470008882302B00F085823023023907F8013CB6
:10A4800054AB02960F465E1A2CE2089C002354F847
:10A49000042B8DF8EC2001261A4603960894CDE98A
:10A4A0000E228DF88330099291460C923BAF029BAD
:10A4B00013F002030A9302D0039B02330393029B1F
:10A4C0002A9C13F084030B9304D1069B03995D1A15
:10A4D000002D66DC72B1299A013201340DF183003E
:10A4E0000121072ACDE92924CBE9000100F3B1833A
:10A4F0000BF1080B0A9B6BB1299B0133023421A994
:10A500000222072BCDE92934CBE9001200F3AD83F9
:10A510000BF1080B0B9B802B00F09582A9EB060535
:10A52000002D00F3D382029BDB0500F12E82299BD4
:10A53000CBF8007001333444072B2A94CBF8046025
:10A54000299300F325830BF1080B029B5D0705D5CA
:10A55000069B039A9D1A002D00F3AE83049B069A76
:10A5600003998A42ACBF9B185B180493002C40F0FF
:10A57000E78200232993099B1BB10999059802F0F2
:10A580006BFD0DF1AC0B57463B78002B7FF499AD7A
:10A590002A9BDDF81C90002B40F0F58600232993C0
:10A5A00075E3102D299A29DD594620461E96102361
:10A5B000059C079EBB4604E0103D102D01F10801EB
:10A5C00018DD0132BC4F1030072ACDE92920C1E93E
:10A5D0000073F1DD28AA3146204603F02DFB002848
:10A5E00040F04F83103D102DDDE929202BA94FF0BD
:10A5F0001003E6DC1E9E5F4604468B460132AE4BDE
:10A600002C44072ACDE92924CBE9003500F32A861A
:10A610000BF1080B9DF883205CE79AF80080029B01
:10A62000B8F1680F00F0E38543F0400302937BE547
:10A63000029B9AF8008043F00103029374E59DF8B1
:10A6400083309AF80080002B7FF46EAD8DF8831074
:10A650006AE5089C47F6300254F8043BADF88420C4
:10A66000029A08941C46954B149342F0020600256A
:10A6700002234FF078080022B9F1FF3F8DF88320C4
:10A680003FF4DBAE26F08002029254EA050240F06D
:10A69000DD82B9F1000F40F04883002B7FF45DAEFE
:10A6A00016F0010600F06A8430238DF84F310DF268
:10A6B0004F1717E1029EB00600F1F280029B089A44
:10A6C000D90652F8044B01F14382029E33465B06E1
:10A6D00040F135860892A4B20025E8E00299089A74
:10A6E000890602F1040300F15284029AD70600F1B0
:10A6F000E185029A560600F16486029A950540F1BA
:10A70000D985089A08931268049B137057463BE753
:10A710009AF80080029BB8F16C0F00F05F8543F05F
:10A720001003029300E5089B9AF8008053F8042B6D
:10A730000692002AC0F213850893F5E4059D284689
:10A7400002F0AAFD436817931846FFF7F9FB19902A
:10A750000446284602F0A0FD836818932021002CAF
:10A760003FF44AAD189B9AF80080002B3FF4DCAC14
:10A770001B78002B3FF4D8AC029B43F48063029318
:10A78000D2E4029B9AF8008043F080030293CBE46A
:10A79000524612F8018BB8F12A0F01F0BE81A8F1E0
:10A7A0003003092B92464FF000093FF6BFAC1AF870
:10A7B000018B09EB890903EB4909A8F13003092B47
:10A7C000F5D9B3E4089C073424F00703B3EC027B0B
:10A7D00055EC174B089325F000431B938DED1A7A27
:10A7E000DDE91A014FF0FF32354B8DED107B04F09F
:10A7F000BBFC002840F0DC834FF0FF32304BDDE93A
:10A800001A0104F093FC002840F0D28300220023B8
:10A810002046294604F080FC002840F080879DF8FF
:10A820008320284F284B02980021032620F0800027
:10A83000039609910290B8F1470FC8BF1F46894699
:10A840000C91CDE90E11C0E5029EB4061FD4029B07
:10A85000089AD80652F8044B01F17481029E7106E1
:10A8600040F177850892A4B20025012303E70598FB
:10A8700002F052FBFFF7EABBB8F1000F3FF488AEDD
:10A88000002301261A4603968DF8EC8007E6089C03
:10A89000073424F00703F3E8024508930123EAE6AE
:10A8A000089C073424F00703F3E80245089326F4D4
:10A8B00080660023DFE600BFF0090300D009030033
:10A8C000FFFFEF7FAC090300B0090300029E002DDB
:10A8D00008BF0A2C13D2303402968DF84F4101265E
:10A8E0000DF24F1700234E4509930C93CDE90E331B
:10A8F0003346B8BF4B469DF88320039365E506F4C5
:10A9000080630022CDE902A8CDF824B054AFCB4635
:10A910009246B146DDF860801E4607E004F062FC16
:10A92000002D08BF0A2C20D304460D460A2200231E
:10A930002046294604F056FC02F1300C07F801CC01
:10A94000204629460A2200230AF1010A013F002E6F
:10A95000E4D098F800C0E245E0D1BAF1FF0FDDD0B5
:10A960009D4208BF944280F01E87CDF848A04E4615
:10A97000CDF86080D946DDF808A0DDF80C80DDF860
:10A9800024B0029654ABDE1BACE7B8F1650F40F380
:10A990000A8100220023DDE9100104F0B3FB002846
:10A9A00000F0DE81299BC24ACBF80020013301343C
:10A9B0000122072BCDE92934CBF8042000F363846E
:10A9C0000BF1080B229B129A2A9C934280F2A582DB
:10A9D000299B159ACBF80020139ACBF80420013359
:10A9E0001444072BCDE9293400F3EC830BF1080B59
:10A9F000129B5D1E002D7FF7A8AD102D299AAD4B3F
:10AA000040F34E841026059FDDF81C80994605E032
:10AA10000BF1080B103D102D40F34184013210342E
:10AA2000072ACDE92924CBE90096F1DD28AA414681
:10AA3000384603F001F9002840F02384DDE9292499
:10AA40000DF1AC0BE6E7069B039A9D1A002D7FF7EC
:10AA500065AD102D299A974B28DD0A965946204658
:10AA6000BB46059C079E1F4604E0103D102D01F1DA
:10AA7000080116DD013210301023072ACDE9292004
:10AA80000F604B60F1DD28AA3146204603F0D4F870
:10AA9000002840F0F680103D102DDDE929202BA97B
:10AAA000E8DC0A9E3B4604465F468B4601322C4456
:10AAB000072ACDE92924CBE9003500F35583A9EB1A
:10AAC0000605002D0BF1080B7FF72DAD102D299AEF
:10AAD000784B29DD0A9659462046BB464FF01009AF
:10AAE000059C079E1F4604E0103D102D01F1080152
:10AAF00015DD01321030072ACDE92920C1E900799E
:10AB0000F2DD28AA3146204603F096F8002840F0EE
:10AB1000B880103D102DDDE929202BA9E9DC0A9E23
:10AB20003B4604465F468B4601322C44072ACDE95A
:10AB30002924CBE9003500F3DA810BF1080BF2E4AC
:10AB400028AA0799059803F077F800283FF411AD7B
:10AB5000DDF81C9096E0299A1599CBF8001013990E
:10AB6000CBF8041001320C44072A2A94299200F3EE
:10AB7000E1840BF1080B002BC0F2A286129B01327C
:10AB80001C44072ACDE92924CBE900737FF7DBAC0D
:10AB900028AA0799059803F04FF80028D8D12A9CD5
:10ABA0000DF1AC0BD1E4129A299B012A04F10104A6
:10ABB00003F101050BF1080640F358810123072D2D
:10ABC000CBF80070CDE92954CBF8043000F32A8388
:10ABD000139B159A691C1C4407290B91CDE9291474
:10ABE000C6E9002300F32A8308360B9A129D02F16E
:10ABF000010900230022DDE91001CDF8289006F1BB
:10AC0000080B05F1FF3804F07DFA002840F041817F
:10AC10000A9BC6F8048001374444072B37602A9406
:10AC2000299300F3BF820B9A06F1100302325E46AD
:10AC30000A929B46169A726014440A9A2A9424AB8C
:10AC4000072A299233607FF780ACA1E7029EFFF7C5
:10AC5000F4BB28AA0799059802F0EEFF00287FF4BC
:10AC600077AF2A9C0DF1AC0B44E428AA079905980C
:10AC700002F0E2FF00287FF46BAF2A9C0DF1AC0BD1
:10AC800048E4B146099911B1059802F0E5F9D9F8FF
:10AC90006420B9F80C30D40702D4980540F1DB8267
:10ACA000590600F14086049855B0BDE8F08F00BF0A
:10ACB000EC090300000A0300102D299B21DD10265A
:10ACC000059FDDF81C8004E0103D102D0BF1080BF2
:10ACD00017DD0133B34A1034072BCDE92934CBE912
:10ACE0000026F1DD28AA4146384602F0A5FF0028DB
:10ACF00040F0C782103D102DDDE929340DF1AC0B79
:10AD0000E7DC0133A74A2C44072BCDE92934CBE9F2
:10AD100000257FF723AC28AA0799059802F08CFF3D
:10AD200000287FF415AF2A9C18E4012B00F023843F
:10AD3000022B029E7FF487AB149854AF230904F0D2
:10AD40000F0143EA05732A091C461546435C07F8C0
:10AD5000013D54EA0503F1D154AB0296DE1BC1E577
:10AD6000229B002B40F3DF800E9B129A9342A8BFD8
:10AD70001346002B1D460DDD299BCBF800700133D7
:10AD80002C44072B2A94CBF80450299300F3FE841B
:10AD90000BF1080B0E9B002DA8BF5B1B002B1D4663
:10ADA00000F390820E9B3B449946029B580500F1AC
:10ADB0001384229B129A934203DB029AD10740F13B
:10ADC000F782299A1599CBF800101399CBF8041043
:10ADD00001320C44072A2A94299200F323850BF1AF
:10ADE000080B129ABD18A5EB0905D31A9D42A8BFFE
:10ADF0001D46002D0DDD299ACBF8009001322C4420
:10AE0000072A2A94CBF80450299200F346850BF1C7
:10AE1000080B002DACBF5D1B1D46002D7FF795ABC9
:10AE2000102D299A604B40F33B821026059FDDF8D8
:10AE30001C80994605E00BF1080B103D102D40F3E6
:10AE40002E8201321034072ACDE92924CBE900965D
:10AE5000F1DD28AA4146384602F0EEFE002840F017
:10AE60001082DDE929240DF1AC0BE6E7029AD20746
:10AE70003FF5A4AE0122072DCBF80070CDE929548F
:10AE8000CBF8042000F38E8102330A930BF1100BF0
:10AE9000D0E6B8F1000F7FF7CDAEB8F1100F424BFE
:10AEA00040F335861A464D4623461027DDF81CB080
:10AEB000DDF81490144607E00836A8F11008B8F140
:10AEC000100F40F35E8101351033072DCDE9295372
:10AED000C6E90047F0DD28AA5946484602F0ACFE14
:10AEE000002840F01D82DDE929532BAEE5E728AAB2
:10AEF0000799059802F0A0FE00287FF429AE2A9C4D
:10AF00000DF1AC0BFFF70FBBD9F8580002F0CCF9EC
:10AF1000B9F90C2093B2FFF7A3B8029BDD073FF508
:10AF200057ADFFF712BB299A2049CBF80010013228
:10AF300001340121072ACDE92924CBF8041000F3BC
:10AF400009840BF1080B002B7FF405AE029B129ACB
:10AF500003F0010313433FF4F8AA299A159BCBF899
:10AF60000030139BCBF8043001321C44072A2A948A
:10AF7000299200F3DF820BF1080BFFE554AFB1E437
:10AF8000029B980500F12D820025FFF787B90499EF
:10AF900012680893CD1708462946C2E900015746B2
:10AFA000FFF7F2BAF0090300000A0300EC090300FE
:10AFB000DDE9100102460B4604F0D6F8002840F007
:10AFC0003A85B8F1610F00F0D084B8F1410F00F07C
:10AFD0000C8228F02003B9F1FF3F039300F00085B5
:10AFE000472B04D1B9F1000F08BF4FF00109DDE98B
:10AFF00010450299002D41F48072C0F29583002320
:10B00000CDE90931CDE91C451E930292039B462BE5
:10B0100000F0DF83452B00F0D28426AA23ABCDE9D4
:10B020000032022122AB4A469DED1C0B059800F030
:10B0300047FF039B472B074640F08D850A9BDB07A4
:10B0400000F13B84269EF31B1293229B0E93039BDD
:10B05000472B00F09382039B462B00F0FD8303995E
:10B060000E9B412903F1FF325FFA88F303BF0F33D0
:10B07000DBB201210021002A8DF89030B8BF0E9B71
:10B080002292B6BFC3F101022B232D23092A8DF88A
:10B09000913040F3C1840DF19F042046BE4D01E084
:10B0A00008461A4685FB0231D317C3EBA10303EB15
:10B0B0008301A2EB41013031632A00F8011C00F149
:10B0C000FF31EDDC3033821EDBB2944201F8013CEB
:10B0D00040F244850DF1920201E011F8013B02F8C3
:10B0E000013BA142F9D10DF1A1030DF192021B1A0E
:10B0F000134424AA9B1A1693129B169A012B03EB56
:10B10000020640F3EE84139B1E440A9B002223F4A4
:10B11000806343F48073CDE90E22029326EAE6733E
:10B120000C9203931E9B002B40F04F8299469DF892
:10B130008320FFF74AB9089B1A1D029BD90600F12C
:10B140000485029E33465B0640F1EC80089B089222
:10B15000B3F90040E51722462B46FFF7EBB8524201
:10B1600006920893FFF7AFB828AA0799059802F04E
:10B1700063FD00287FF4ECAC2A9C0DF1AC0BFFF7CB
:10B18000CDB922461C4613462A4601320A9206F1E0
:10B190000802C6E900380A9B29934444072B2A94E5
:10B1A00040F3008128AA0799059802F045FD002880
:10B1B0007FF4CEACDDE9293401330A930DF1B40BF1
:10B1C0002BAE37E528AA0799059802F035FD00282F
:10B1D0007FF4BEAC2A9C0DF1AC0B09E443F02003D4
:10B1E0009AF8018002930AF1010AFEF79DBF43F429
:10B1F00000739AF8018002930AF1010AFEF794BFE6
:10B200004E46062E28BF0626B9460C97CDE90E7786
:10B2100009973A4603960894604FFFF7D6B83C4624
:10B22000FEF775BF28AA0799059802F005FD0028CA
:10B230007FF48EACDDE929542BAEC9E428AA079926
:10B24000059802F0F9FC00287FF482ACDDE929348E
:10B250002BAE0B93C9E4D9F8580002F027F8B9F8DF
:10B260000C301DE528AA0799059802F0E5FC002896
:10B270007FF46EAC9DF883202A9C0DF1AC0BFFF798
:10B2800029B9C146FEE428AA0799059802F0D4FC22
:10B2900000287FF45DAC0DF1AC0BFFF793BB4B4680
:10B2A00001322C44072ACDE92924CBE900357FF768
:10B2B0004AA96DE4089A12680893049B13605746E4
:10B2C000FFF762B9102D299A354B50DD194610262B
:10B2D0002346DDF81480DDF81C900C4604E00BF1E9
:10B2E000080B103D102D3FDD01321033072ACDE948
:10B2F0002923CBE90046F2DD28AA4946404602F060
:10B300009BFC00287FF4BEACDDE929230DF1AC0BDA
:10B31000E7E73846FEF714FEA9460646FFF749B8A8
:10B32000D946AFE4029E089B16F4007F51D093F9F2
:10B3300000400892E51722462B46FEF7FBBF029E0F
:10B34000B70547BF0892E4B2029E08920025FFF7B6
:10B35000AEBA029E089233469B054CBFE4B2029EF1
:10B3600000250123FFF787B921461C460B46013211
:10B370002C44072ACDE92924CBE9003500F3EF80DE
:10B380000BF1080B0EE5059828AA494602F054FC7B
:10B3900000283FF403A97AE467666666E4090300BF
:10B3A000000A030001330A9302F1080B164641E438
:10B3B000129ABD18A5EB0905D31A9D42A8BF1D46D8
:10B3C00027E5089A08931268049B13805746FFF7F5
:10B3D000DBB81C680892E517029E22462B46FEF752
:10B3E000A9BFE4B20025FEF759BF30238DF88430A1
:10B3F00058238DF88530029BB9F1630F43F00203A7
:10B400000A9300F3B782002309933BAF029A119B82
:10B4100042F481720292002B28F020020392C0F2C3
:10B4200088819DED107B8DED1C7B00231E93B8F170
:10B43000610F00F0D982B8F1410F7FF4E7AD22A887
:10B440009DED1C0B02F006FB00224FF07F5351ECE8
:10B45000100B03F0EFFB00220023CDE90C0103F0F9
:10B4600051FE08B101232293B64B0B93CDE90E8A0E
:10B4700009F1FF35CDF84890CDF87CB0DDE90C89B5
:10B48000DDF82CB00C97BA4603E003F03BFE20BB7E
:10B49000B2460022AC4B4046494603F0CBFB8946FE
:10B4A000804603F077FE074603F05AFB02460B4640
:10B4B0004046494603F006FA56461BF8074006F890
:10B4C000014BB5F1FF3F2C46804689464FF0000204
:10B4D0004FF0000305F1FF35D7D140464946002221
:10B4E0009A4BDDF83880DDF87CB0CDF838A03D46C9
:10B4F000DDF848900C9FDDF83CA0CDE90C0103F08D
:10B5000029FE002840F01482DDE90C0100228F4B57
:10B5100003F0F8FD18B12B46DB0700F10982002C7F
:10B52000FFF691AD631C3344302206F8012B9E4296
:10B53000FBD188E528AA0799059802F07DFB002831
:10B540007FF406AB229BDDE929240DF1AC0BFFF75C
:10B5500012BBD9F8580001F0A9FEFEF76ABE28AA6E
:10B560000799059802F068FB00287FF4F1AA2A9C4D
:10B570000DF1AC0B16E4029EFFF7ADB90E9BDE1C7D
:10B5800001DB994505DAA8F1020828F020030393AE
:10B5900065E5129B19460E9B994200F374810A9A45
:10B5A000D40740F15482139A9E180A9B580503D57C
:10B5B0000E9B002B00F34D8226EAE67303934FF0B7
:10B5C000670800230C930F93ACE52D228DF88320A0
:10B5D0004FF00009FEF7FBBE129BCDF82CA0FB1824
:10B5E0000A930F9B0E975A464F46594EDDF86080DE
:10B5F000DDF814A0DDF81CB0DDF864902146002BC6
:10B6000032D00C9B002B6ED10F9B013B08F1FF3811
:10B610000F93299B1798106001334944072B2A91F7
:10B62000C2F80490299362DC08320A9898F8003036
:10B63000C51B9D42A8BF1D46002D0BDD299B176031
:10B6400001332944072B2A91556029935ADC98F835
:10B6500000300832002DACBF5D1B1D46002D15DCEF
:10B660001F440F9B002BCCD10C9B002B3BD1B94628
:10B67000129B0E9FDDF82CA0CDF86080FB18994539
:10B6800093460C4628BF9946FFF793BB102D299887
:10B690001CDD102404E0103D102D02F1080215DD20
:10B6A000013010310728CDE92901C2E90064F2DD3B
:10B6B00028AA5946504602F0BFFA00287FF430AE5F
:10B6C000103D102DDDE929012BAAE9DC01302944C8
:10B6D0000728CDE92901C2E9006549DC98F8003066
:10B6E00008321F44BDE70C9B013B0C9391E728AA4D
:10B6F0005946504602F0A0FA00287FF411AE2A996C
:10B700002BAA92E728AA5946504602F095FA00283B
:10B710007FF406AE98F800302A992BAA9AE72D22DA
:10B720008DF88320FFF77DB8029B0A9300230993CD
:10B730000292DDE9101202F100431D932D231C91AA
:10B740001E9374E6BC090300000030400000E03F97
:10B75000000A030028AA0799059802F06DFA00284C
:10B760007FF4F6A9229B2A9C0DF1AC0BFFF7EBBBF3
:10B7700028AA5946504602F05FFA00287FF4D0AD5F
:10B7800098F800302A992BAA1F446AE728AA07993B
:10B79000059802F051FA00287FF4DAA92A9C0DF1ED
:10B7A000AC0BFFF7F7BA199B1799FF1A1A463846E0
:10B7B00002F0CCF998F801300BB108F101080A2227
:10B7C0000023204629464FF0000A03F00BFDFFF747
:10B7D000ABB826AA23ABCDE90032032122AB4A46FF
:10B7E0009DED1C0B059800F06BFB0378302B074692
:10B7F00000F06181229B4B44FC1800220023DDE90C
:10B800001C0103F07FFC08B126461CE4269EA642DC
:10B81000BFF419AC3022731C26933270269EB442BA
:10B82000F9D810E428AA0799059802F005FA00282B
:10B830007FF48EA9229B2A9C0DF1AC0BFFF7D1BAA5
:10B840004E46CDF80C90089481460C90CDE90E0040
:10B850009DF88320FEF7B9BD0A9B0E9A03F0010301
:10B86000002A43EA090340F34281002B40F019818A
:10B870000E9E4FF066080A9B5A0500F1EC8026EAFE
:10B88000E67303939DE6DDE912329E180E9B002BB2
:10B8900040F31E814FF06708EDE728AA0799059845
:10B8A00002F0CAF900287FF453A9229B129A2A9C1D
:10B8B000D31A0DF1AC0BFFF7ACBA07EB09049CE708
:10B8C0005D421033A74B63DA194610262346DDF894
:10B8D0001480DDF81C900C4604E00BF1080B103DC1
:10B8E000102D52DD01321033072ACDE92923CBE98F
:10B8F0000046F2DD28AA4946404602F09DF900289C
:10B900007FF4C0A9DDE929230DF1AC0BE7E7D9F8F5
:10B910006430DB0707D4B9F80C309F0503D4D9F89D
:10B92000580001F0C3FC4FF0FF330493FFF7BBB99D
:10B930000E9B26930B9B16F8012CD97B8A4233462B
:10B9400009D1302003F8010C269B5A1E269213F8C9
:10B95000012C9142F6D0392A0BBF0B9A0132927A10
:10B96000D2B203F8012CFFF76EBB30238DF8843080
:10B9700078233EE509F101010598FDF7C7FD07466B
:10B98000002800F0D580099040E521461C460B4672
:10B9900001322C44072ACDE92924CBE900357FF771
:10B9A000EAAA28AA0799059802F046F900287FF428
:10B9B000CFA8DDE929240DF1AC0BFFF7DFB809F1C1
:10B9C000010426A923ABCDE90031224622AB022196
:10B9D0009DED1C0B059800F073FA07463C440CE7FC
:10B9E0004FF00609FFF703BB22A89DED1C0B02F0E8
:10B9F00031F800224FF07F5351EC100B03F01AF98D
:10BA000000220023CDE90C0103F07CFB08B10123E7
:10BA10002293554B0B9329E500297BD130238DF8D8
:10BA200092300DF19303303203F8012B24AA9B1AB4
:10BA30001693FFF761BB119B4C4F002BB6BF2D2215
:10BA40009DF883208DF88320494BFEF7ECBE0E9EB7
:10BA5000ABE54FF06708189800220C920F9203781C
:10BA60000E9AFF2B0CD093420ADA4178D21AA1B178
:10BA70000F9B01330F930B46FF2B00F10100F2D116
:10BA80000E920F9B0C9A18901344199A02FB0366AE
:10BA900026EAE6730393FFF745BB0C9901310C913D
:10BAA000DFE7139BD6184E444FF06608E3E6DDF857
:10BAB0001C90FFF7ECB800220023DDE91C0103F025
:10BAC00021FB00287FF496AEC9F10103229392E690
:10BAD000C3F101031E4426EAE67303934FF067089F
