:020000022000DC
:1060000000000120658D02008D8D0200996A02005A
:10601000918D0200938D0200958D0200000000001A
:10602000000000000000000000000000978D02004A
:10603000998D0200000000009B8D02009D8D0200E2
:106040007D7602009F8D02007D7A0200017E0200B3
:10605000217D02009F8D0200F1780200757B020015
:10606000D17D0200E17D02009F8D02009F8D020024
:106070009F8D02009F8D02009F8D02009F8D020068
:106080009F8D0200E56502009F8D02009F8D02003A
:10609000816602009F8D02004D8702009F8D0200E5
:1060A0009F8D02009F8D02009F8D02009F8D020038
:1060B0002D7B02009F8D0200000000000000000008
:1060C0009F8D02003D7B02004D7B02009F8D0200F0
:1060D0009F8D02009F8D02009F8D02000000000036
:1060E00000000000000000000000000000000000B0
:1060F00000000000000000000000000000000000A0
:10610000000000000000000000000000000000008F
:10611000000000000000000000000000000000007F
:10612000000000000000000000000000000000006F
:10613000000000000000000000000000000000005F
:10614000000000000000000000000000000000004F
:10615000000000000000000000000000000000003F
:10616000000000000000000000000000000000002F
:10617000000000000000000000000000000000001F
:10618000000000000000000000000000000000000F
:1061900000000000000000000000000000000000FF
:1061A00000000000000000000000000000000000EF
:1061B00000000000000000000000000000000000DF
:1061C00000000000000000000000000000000000CF
:1061D00000000000000000000000000000000000BF
:1061E00000000000000000000000000000000000AF
:1061F000000000000000000000000000000000009F
:1062000010B5054C237833B9044B13B10448AFF3F0
:1062100000800123237010BD70A200200000000048
:106220009402030008B5034B1BB103490348AFF3C5
:10623000008008BD0000000074A20020940203004A
:10624000154B002B08BF134B9D46A3F5803A002148
:106250008B460F461348144A121A02F093FE0F4B56
:10626000002B00D098470E4B002B00D09847002001
:10627000002104000D000D48002802D00C4804F055
:1062800001FF02F09DFD2000290000F013F802F04C
:1062900087FD00BF00000800000001200000000092
:1062A0000000000070A20020C8AF002085B00200EE
:1062B00055C2020073B501F083FA30B901F04AFA11
:1062C00018B1164A202100F039F90023ADF8043046
:1062D0008DF8063001A9012307208DF8053001F063
:1062E00079FA18B10D4A262100F028F90C4D4FF02B
:1062F000A04445F00105FA264FF47A40A847013E34
:10630000FAD1D4F80435DA4302F0800203F08003B6
:10631000C4F80825C4F80C35EDE700BF66ED0200AF
:1063200060ED02000369C1688B429DBF8268D2188C
:1063300002F1FF3203F1FF3394BF501A581A70472D
:106340002DE9F041D0E902670446F61B4068964209
:1063500088461546384405D902F07AFD3D44E5608B
:10636000BDE8F0813246AD1B02F072FD2A4608EB13
:106370000601606802F06CFDF1E72DE9F843C5689D
:106380000646894617464FF000083469B3687068BE
:10639000A54228BFE418013C621B5C1BBC4228BF1D
:1063A0003C46944228BF144649462844224602F0FF
:1063B0004FFDB3682544AB4208BF00253F1BA044F6
:1063C000A144F560E1D14046BDE8F88310B5114C19
:1063D000114AA2610223C4E90433104BE361A264B1
:1063E0004FF400730E4A2362E264002310220D4929
:1063F000A362E01D6362E362A3656365E3652265F2
:1064000002F0E6FE0849204602F0E2FE2023A371D6
:1064100010BD00BF18AF00206DED02009CA200204F
:106420008CA2002076ED02007AED0200F8B5184C3F
:10643000182300FB033503FB00402544C46A012CEC
:106440000F46164611D003D3022C1BD000240AE0BD
:106450002846FFF767FF864205D832463946284668
:10646000FFF76EFF34462046F8BD2846FFF75AFF77
:106470008642344628BF0446224639462846FFF75E
:106480005FFFF0E72846BDE8F840FFF776BF00BFA2
:1064900018AF002073B50D4B1B7804460D46164609
:1064A0000BB9FFF793FF02A8002300F8013D00F0AD
:1064B0009BFA324629462046FFF7B8FF04469DF86E
:1064C000070000F0C1FA204602B070BD18AF0020EE
:1064D00010B511461C461A460020FFF7DBFF204688
:1064E00010BD000082B001238DF807309DF8073001
:1064F000114B1860596044F2010188429A6012D031
:1065000044F20201884206D1DA60DA6812889A61A0
:10651000DA685268DA6172B69DF80730002BFBD159
:1065200062B602B070471A611A6992685A611A69B4
:1065300012689A611A69ECE79CA4002000B583B048
:1065400002900091019244F2010071466A4602F005
:10655000A3FB03B000BD0000094A537891780133D2
:10656000DBB2994208BF0023117899421FBF037024
:106570005078182303FB002014BF0430002070471C
:10658000BCA4002073B5054602A8002400F8014D04
:106590000E4600F029FA0DF10600FFF7DDFF90B17D
:1065A00006700A4B9DF8062045605A709DF807005A
:1065B00000F04AFA24B9064B4FF48012C3F80021C8
:1065C000204602B070BD0424F0E700BFBCA4002048
:1065D00000E100E0024B4FF43C6043F00103184738
:1065E00090ED0200F8B51F491F4B0025C1F840513E
:1065F000C1F84451C1F84851C1F84C51C1F800519B
:10660000C1F804511B684BB3D1F804451749096818
:10661000641A24F07F442F461A68A24209D8A41AAB
:1066200015441A7CDE691AB11F74D3E9052090471E
:10663000AEB90F4B0F4A197813788B4205D101334D
:10664000DBB2022B08BF0023137012780A4B43F809
:1066500022500A4B4FF48012C3F80021F8BD334694
:10666000DAE700BF00100140DCA50020D8A500201B
:10667000D4A50020D5A50020CCA5002000E100E095
:106680002DE9F74F9C4A9D49137809789C4D994212
:106690003CD00133DBB2022B08BF002313709949B1
:1066A0001278994B0F6853F822003B1823F07F4370
:1066B00000220B602B6816461446944613B942B16B
:1066C0002B6006E0196881420ED902B12B60091ACD
:1066D00019604FF001082B68DFF834A200930027FF
:1066E000BEB9DFF834B260E0401A0C44D968C3F890
:1066F00000C0D3F81CE031B13A1922F07F42C3E95F
:106700000121DE611E4601227346D7E70026B0460E
:10671000E1E73446F6697B4A63681268DFF8FCC13A
:10672000A068991A21F07F41614500F2A5800144DB
:106730002160012222742A680023C4E90133E36145
:10674000002A40F0A2802C60CAE75A1C9BF8021075
:10675000D2B291428BF8002004BF00228BF80020B7
:10676000182202FB03B32A6819799C68022974D0A5
:1067700003297ED0012918D1217CB1B9DA68626081
:106780001A69A2605A69E2609B69A3615F4B1B783A
:10679000002BC0D06160BEE79C4200F0908099461B
:1067A000DB69002BF8D1002323749BF800309BF8A1
:1067B00001209A42C9D12B682FB9009A934202D185
:1067C000B8F1000F43D0002B41D0D3F800A0504DBA
:1067D0004C4BD5F804751C68DFF844813E1B98F8D3
:1067E000003026F07F4603369BB94FF48033C5F85E
:1067F0004433C5F80433474B4FF400324FF00109DE
:10680000C3F880211A60C5F80090FFF7E3FE88F80E
:106810000090B2452CBF5444A41924F07F44C5F81D
:106820004045D5F80435DB1B23F07F43E41B0333DD
:1068300024F07F44A3420AD9D5F80435C5F8403581
:10684000FFF7C8FE334B4FF40032C3F800212F4B43
:1068500000221A7003B0BDE8F08F13469146A0E7FE
:106860001174D2690123002AFAD1002B9DD02A602D
:106870009BE700231946F6E7D31A23F07F438342B0
:1068800034BFC31A0023236053E721681368994279
:1068900013D8591A1160E26155E7091AD8691A46E6
:1068A00038B1034618688842F7D3401A1860184672
:1068B00013462160E061DC6112E71346F2E74C45C4
:1068C0000DD1D3692B6053B90E4801920121CAF84A
:1068D000081003600D4B1970FFF77CFE019AE16907
:1068E0002368C9F81C1011B1086803440B602B68B9
:1068F0009A4218BF012756E7D4A50020D5A500204D
:10690000DCA50020D8A50020CCA50020C8A500202B
:106910000010014000E100E0BCA40020FEFF7F0069
:10692000C9A500202DE9F7431D4FBB7805460E464B
:1069300090469BB390B304292ED9436973B3437C2B
:1069400002A80024012B00F8014D0CBF8946A14686
:1069500000F04AF80DF10600FFF7FEFDD0B101236B
:106960000370104B4560D3F80435C0E90498C0E9C2
:1069700002369DF806307B709DF8070000F064F841
:1069800024B9094B4FF48012C3F80021204603B00C
:10699000BDE8F0830424EFE70724F7E70824F5E7D0
:1069A000BCA400200010014000E100E0064A9278FB
:1069B0003AB130B1426922B1002202740221FFF7DC
:1069C000E1BD0820704700BFBCA40020EFF30583A1
:1069D000C3F308032BB9EFF31480C04300F00100A8
:1069E000704701207047000070B50446FFF7EEFFC6
:1069F000012803D01049432001F0D6FFEFF31086A1
:106A000072B60E4A9068012398B993600C4B0D4DF5
:106A1000D3F8801029401160C3F88050D3F8841057
:106A200051604FF0FF32C3F88420207006B962B67F
:106A300070BD2370FAE700BF96ED020090AF002012
:106A400000E100E0FC06FFBD10B50446FFF7BEFF05
:106A5000012803D00949512001F0A6FF084B9A688C
:106A60005AB154B9EFF3108172B6064A1868106033
:106A7000586850609C6001B962B610BD96ED020086
:106A800090AF002000E100E0024B1B6800219868F5
:106A900002F0D6BAB49800201EF0040F1CBFEFF32A
:106AA00009800AE0EFF308800549064A884201D8C8
:106AB000904202D88D464FF00000034B184700006B
:106AC0000000012000E00020F16A0200BFF34F8FB8
:106AD0000549064BCA6802F4E0621343CB60BFF37A
:106AE0004F8F00BFFDE700BF00ED00E00400FA0596
:106AF0002DE9F347054600F043FC00F07FFA00283B
:106B0000FBD12F4B2F4C9F6A2F4BE41AE40824042F
:106B100044F00104002D4ED0AA692C49204600F013
:106B2000F1FBEB680193AB6800932949D5E9002399
:106B3000204600F007FCEB6900932649D5E90423C1
:106B4000204600F0F3FB1E4BDB6A980703D5224971
:106B5000204600F0D3FBDFF89490DFF894A00026E5
:106B60004FF0010808FA06F33B4206D059F82620F8
:106B70001AB15146204600F0C5FB01361A2EF1D15C
:106B8000390605D50E4B15495A6B204600F0BAFB65
:106B90003A0405D50A4B12499A6B204600F0B2FB25
:106BA000104B1B68DB0700D500BE2846FFF78EFFA1
:106BB00002B0BDE8F0870C49204600F09FFBC2E719
:106BC00000ED00E010030300A8020300EBED02005B
:106BD00000EE020035EE020090EE0200DFEE020051
:106BE000FFEE0200F0ED00E05DEE02001CEF02009F
:106BF000D4EE020050E8002F0B4640E8003C9CF029
:106C0000000FF7D11046704750E8003F43EA0102F9
:106C100040E8002C9CF0000FF6D11046704750E879
:106C2000002F02EA010340E8003C9CF0000FF6D17F
:106C30001046704750E8003F03EB010240E8002C8B
:106C40009CF0000FF6D11046704750E8003FA3EBD0
:106C5000010240E8002C9CF0000FF6D1104670476E
:106C60000121FFF7D1BF0021FFF7D9BF37B5054696
:106C700020B914494FF4927001F096FE02A8002446
:106C800000F8014DFFF7B0FE2A68696813688B426F
:106C900010D9591E116013F8014C2A8AEB6802FBC7
:106CA00004342A68AB6811685B1A1179DBB2994227
:106CB00038BF13719DF80700FFF7C6FE204603B0EA
:106CC00030BD00BF44F4020037B50C46054620B97C
:106CD000104940F2471001F067FE24B90D494FF406
:106CE000A47001F061FE02A8002300F8013DFFF747
:106CF0007BFE2A681368591C1160EA68A41A2A8A64
:106D0000B4FBF2F41C709DF80700FFF79DFE03B082
:106D100030BD00BF44F4020038B5084C04F108034C
:106D20000546002818BF1C4623682BB11A6822604C
:106D30005B6828469847F7E738BD00BFE8A5002004
:106D400020B9054B01225A70FFF7E6BF012802D196
:106D5000014A9070F8E77047E0A5002020B9034B86
:106D600001225A70FFF7D8BF704700BFE0A500208E
:106D700038B50B4C237883B90A486360A36023615C
:106D8000E36000F02FFC054601F0C6FC08B900F0F6
:106D90003FFC01232370284638BD8525FBE700BF53
:106DA000E0A50020416D020013B5154C237823B9EE
:106DB00014494FF4857001F0F7FDE36823B91149D8
:106DC00040F20B1001F0F0FD02A8002300F8013D95
:106DD000FFF70AFEE368013BE360E36853B901F0A3
:106DE0009BFC18B10749792001F0DEFD00F02EFC74
:106DF0000023A3709DF80700FFF726FE02B010BD28
:106E0000E0A5002094F40200012813B509D003D3B3
:106E100003281BD002B010BD134B0122C3F8802001
:106E2000F8E702A80023114C00F8013DFFF7DCFD54
:106E300023780BB9FFF79CFFE3689DF80700013347
:106E4000E3600123A370FFF7FFFDE3E7074B1B7827
:106E500023B9074940F2452001F0A6FD00F0D8FB18
:106E6000FFF7A2FFD6E700BF00E100E0E0A50020A9
:106E700094F40200037813F0040216D003F0030325
:106E8000012B03D0022B09D0012070470A6800882B
:106E90000232C0F3831002440A60F5E70B684288AF
:106EA000023303EB92130B60EEE7104670470000CD
:106EB0002DE9F04F89B00646871C08A8484C00927F
:106EC00000230D4600F8113DFFF78EFD23682B606F
:106ED000D4E901231344226801339B1A04F21C48AD
:106EE00004F5836B04F21449BB421AD3009A0023C1
:106EF000002A6DD0012262F3010343F0040366F31C
:106F000089132168A2689DF80F000A4003320F44DC
:106F100044F822302760FFF797FD012009B0BDE853
:106F2000F08F01214046FFF785FE5846FFF798FE97
:106F30000DF1200A4846FFF793FE60684AF8100DED
:106F4000A5682840033004EB80005146FFF792FF0C
:106F500002460498002AF4D105EA000304EB8303F7
:106F6000811CDB6805930130054004EB850503F0C7
:106F70000303012B0491ED6823D0022B08D019499B
:106F800001924FF4BF7001F00FFD019A154607E022
:106F9000BDF816309B0903332D0C01EB93030493CA
:106FA0004846FFF760FE08B1049B636029464046EF
:106FB000FFF740FED4E901231344226801339B1AF2
:106FC00092E7BDF81430C3F383132D0C0B44E6E7AE
:106FD000022262F3010343F0040366F39F5390E738
:106FE000C4A60020F6F40200034BD3E90030C31A14
:106FF00058425841704700BFC4A600202DE9F04315
:1070000087B0FFF7F1FF0646002840F0FC807F4D77
:10701000C5F81804BFF34F8F6868AC6806AF47F82F
:10702000100D2040033005EB80003946FFF722FFAA
:10703000029B18B1D5F81824002A5FD004EA030295
:10704000991C013305EB8202234005EB8303D268D0
:10705000DB68049302F00303022B0392029162D1D6
:10706000BDF80E306A484FEA9318B8F1500FC14688
:1070700028BF4FF0500969F38F1309F10801ADF8EB
:107080000E3000F0FBF90746002800F0A78000F062
:1070900024FA03A900230822384600F031FA0299A5
:1070A00024EA01060136B600B14535D95FFA89F9FF
:1070B0007EB3F6B2A9EB0609214003315FFA89F4E9
:1070C000B146544E05EB810108234A46384600F08C
:1070D00017FA36B109F1080322463146384600F066
:1070E0000FFA029B08F1030803EB98030293D5F80B
:1070F0001834002B4BD1D5F810445BE02A689A4233
:1071000004D86A60304607B0BDE8F08304EA0300A3
:1071100088E740493446D7E72140033108234A46EF
:1071200005EB8101DAE7012B58D1BDF80C30384866
:10713000C3F38311062928BF062161F389130231A5
:107140008900ADF80C3000F099F90746002845D0C9
:1071500000F0C3F90023082203A9384600F0D0F953
:107160000026BDF80C20C2F38312B31C96424FEAEE
:107170008303BCD202994A1C21400331029205EBE1
:1071800081010422384600F0BBF90136E9E73846B0
:1071900000F0A7F9FFF728FF80F00100C6B2B1E7C1
:1071A000E3685B7923B1236839461B68204698471A
:1071B000E3681C68002CF3D1384600F092F906A869
:1071C00000F8114DFFF710FCD5F818340BB9029BED
:1071D0006B609DF80700FFF737FCDBE7D5F810443C
:1071E00054B90D4B0D480E49C01AC008000440F0B8
:1071F000020000F083F8CDE7236820469B6898479B
:10720000E3681C68ECE700267CE700BFC4A600200A
:1072100040030300D0A60020A802030000030300DF
:107220004DF502002DE9F74F2F4C80460F46914651
:1072300001A9012218469B46D4F808A0FFF738FEA2
:1072400000283DD0019D0026A91C5E4506EB0102E9
:1072500040D100212548FFF7CDFC80F3100B244BD3
:10726000244A4FEA18499B1AB9EBD30F04D3224999
:1072700040F2A31001F098FB6B1C03EA0A0304EB35
:10728000830349EA0B42DA6005EA0A03033301216A
:1072900014F8232068F3C50204F8232034F82320CF
:1072A00066F3891224F8232054F8232067F39F22E1
:1072B00044F8232061F301026FF3820204F82320D3
:1072C00094F820341BB1FFF799FE0028FBD103B0DE
:1072D000BDE8F08F0AEA020204EB820259F8263078
:1072E000D3600136B1E700BFC4A60020E0AA0020A9
:1072F00040030300A8020300F6F4020000231A462C
:10730000FFF790BF13B502AC012344F8042D2246C9
:10731000FFF788FF02B010BD07B5CDE900230223B7
:107320006A46FFF77FFF03B05DF804FB1FB5CDE9A8
:107330000123069B039301AA0323FFF773FF05B004
:107340005DF804FB1FB5CDE90023069B0293079B64
:1073500003936A460423FFF765FF05B05DF804FB5D
:107360007FB5CDE90123089B0393099B04930A9BF6
:10737000059301AA0523FFF755FF07B05DF804FB4D
:1073800038B5094A0123D2F8104482F820341D464A
:1073900004B938BDE3685D71236820465B6898478F
:1073A000E3681C68F4E700BFC4A600202DE9F74F8E
:1073B00099469DF83030019388461746054618B91E
:1073C0002249B62001F0F0FAEA8895F805B00BFBE7
:1073D00002FBABF1040BCB4503D81C49C42001F0E0
:1073E000E3FA3E68B5F806A006EB09025A4509F132
:1073F000040188BFABEB0906B1FBFAF43E600AFB5F
:10740000141144B9AAEB0107B74228BF37462EB979
:1074100003B0BDE8F08F2D68013CF2E7019A04311A
:1074200008EB0403681872B101463A461846F61B89
:1074300001F00EFDB2453C442D6857464FF0000167
:1074400028BF3746E3E73A461946F0E762F50200FF
:10745000F8B546790146721E0546002393422D6811
:1074600003D30024A64202D8F8BD0133F6E70F6823
:107470002846FFF729FC01343946F3E72DE9F843A4
:10748000CD1C068A0746FFF7F1FB043E354404464F
:10749000B5FBF6F5F0B14FF48073EDB28380C68092
:1074A000013D076081464FF00008A84512D23846DA
:1074B000FFF7DCFB064648B163790133637108F1DD
:1074C0000108C9F8000007608146EEE72046FFF793
:1074D000BFFF34462046BDE8F88301210430FFF7A2
:1074E000A9BB10B5012104460430FFF7AEFB10F034
:1074F000FF0F04D12046BDE81040FFF7A9BF10BD23
:1075000030B585B0144604AA002542F8044D009514
:10751000FFF74CFF039BA34203D00349F62001F081
:1075200043FA05B030BD00BF62F5020038B50D4624
:10753000044618B90849502001F036FA1DB9064929
:10754000512001F031FA25602B6863606A6893422C
:1075500004BF0023636038BDBBF5020010B50446CC
:1075600018B90B49632001F01FFA23681BB90849B9
:10757000642001F019FA636843B1226891680B44F2
:1075800063605268934204BF0023636010BD00BF74
:10759000BBF502000D4930B5A1F594720225914268
:1075A00001D800200EE08B1ADB1093FBF5F302EB01
:1075B000C30452F83330834205D802D204F10802E2
:1075C000EDE7606830BD2146E9E700BF60F70200E3
:1075D00008B5FFF7DFFF024B002808BF184608BDBB
:1075E00024F6020010B5044618B90749A02001F09E
:1075F000DBF9064B187920B901221C601A71587109
:1076000010BD8520FCE700BF1AFB0200E8AA00209D
:1076100008B50B4B1B791BB90A49B92001F0C4F915
:10762000094B1A68D2075FBFE02283F800230122CA
:107630001A604FF080430122C3F8182508BD00BF2F
:10764000E8AA00201AFB020000E100E008B5084BA0
:107650001B791BB90749F32001F0A6F9064B01225B
:107660001A604FF08042D2F81834DB03FBD408BD17
:10767000E8AA00201AFB02000C00004007B5154BD9
:107680001A687AB100221A601B680093009B4FF0C1
:1076900080430122C3F808230F4B587910B95A715F
:1076A0001B6898470D4B1A6882B100221A601B684C
:1076B0000193019B4FF080430222C3F80823064B3D
:1076C0001B68012003B05DF804EB184703B05DF8B8
:1076D00004FB00BF00010040E8AA002004010040B4
:1076E00000F1804000F5C040002382B003600368D1
:1076F0000193019B02B07047054B4FF0FF32072802
:1077000043F8202084BF1B1883F84820704700BF2F
:10771000F0AA002002494FF4F37001F045B900BF10
:107720006DFB02001F2838B504460D4601D9FFF74E
:10773000F1FFA00000F1A040D0F8003723F440335F
:10774000C0F80037D0F8003743EA0543C0F80037E7
:1077500038BD000010B5164C94F8583033BBFF21EB
:10776000E2180133202B82F83010F9D10021C8B281
:10777000FFF7C2FF01310C29F9D1042200210D4885
:1077800001F000FC0C4BE02283F8062340221A6033
:107790004FF4BE70FFF7A4FF084B4FF00042C3F850
:1077A0000423012384F85830002010BD0820FCE792
:1077B000F0AA002044AB002000E100E0006000409F
:1077C000034B93F85800003018BF0120704700BFEA
:1077D000F0AA00201F2870B504460D4604D941497F
:1077E0004FF4987001F0E0F83F4E96F85830012BB6
:1077F00004D03C4940F2311001F0D6F825B939499E
:107800004FF4997001F0D0F8331993F93020013218
:1078100065D1AA78002A54D0002356F823100131EC
:107820004FEA830248D1311902F1804281F83030A9
:10783000002102F5C04246F82310D2F810052B783B
:10784000697820F498101B04090520F4F85001F41D
:10785000801103F44033C2F810050B432102D2F823
:10786000100501F4F8510B430343C2F810356B784F
:10787000012B4FF0010528D11F2C01D9FFF74AFF3A
:107880004FF0A043A540C3F808551F2C01D9FFF7BE
:1078900041FF04F5E0724FF0A043032143F82210AA
:1078A000E2081249012304F0070403FA04F48B5C94
:1078B0001C438C54002003E00133082BADD104207D
:1078C00070BDFE2283F83020D1E71F2C01D9FFF7CD
:1078D00021FF4FF0A043A540C3F80C55D5E7082081
:1078E000EEE700BFB0FB0200F0AA002044AB00208E
:1078F0002DE9F04F87B000245B4A5C4E5C4D039449
:1079000001211368A2F5C040012B80B206D1D6F840
:1079100004330B4202D0FFF7E3FE0C430432AA42C9
:107920004FEA4101EDD1534B1B68012B0AD14FF4B3
:10793000BE70FFF7D5FE4FF0A04344F00044D3F8EB
:107940001035039314F0FF0F1AD04B4F002501267A
:10795000344210D0AB0003F1804303F5C043D3F8A9
:107960001005D3F8101557F82530C0F30420C1F3E3
:10797000014103B198470135082D4FEA4606E7D18A
:10798000002C6EDA00224FF0FF33CDE904233A4F8A
:107990004FF0000A56464FF0A04907EB0A0393F94F
:1079A0005040631C46D0E4B2012224F0C00504F02C
:1079B000070B02FA0BFBEB0806AAD11811F8042CEE
:1079C00012EA0B0F36D07A19A40992F9302057F831
:1079D0002280B8F1000F0AD1032C2BD10DF1100C2D
:1079E0001CF8030040EA0B000CF8030001E0032C34
:1079F000F4D01F2D03D90191FFF78CFE019911F8E6
:107A00000C1C05F5E07311EA0B0F59F82330C3F392
:107A1000014320D0022B0DD1032C05D1214628464D
:107A2000FFF780FE0136F6B2B8F1000F02D0214612
:107A30002846C0470AF1010ABAF1040FADD186B158
:107A40004FF0A043039AD3F810359A4209D003931C
:107A5000049B05939CE7032BECD1032CE4D102217A
:107A6000DDE707B0BDE8F08F006100400060004036
:107A7000206100407C610040F0AA002010B5054C58
:107A800022681AB90449512000F08EFF2368BDE82E
:107A9000104018474CAB002009FC02000023435063
:107AA00082B043580193019B02B0704770B5D0F883
:107AB000103105460C4653B14FF48871FFF7EEFFC5
:107AC00063795A0703D523680BB101209847D5F88D
:107AD00014315BB14FF48A712846FFF7DFFF6379F9
:107AE0001B0703D523680BB102209847D5F81C313A
:107AF0005BB128464FF48E71FFF7D0FF607910F02C
:107B0000100002D1236803B19847D5F8043163B15E
:107B10004FF482712846FFF7C1FF012323712368C8
:107B20001BB10320BDE87040184770BD01490248F1
:107B3000FFF7BCBF54AB002000C001400149024820
:107B4000FFF7B4BF5CAB00200010024001490248BF
:107B5000FFF7ACBF64AB00200020024000F1804082
:107B600000F5E040002382B0036003680193019BAD
:107B700002B07047F0B5514B514C1B6885B0DBB17A
:107B80004FF4827094F82E20FFF7E8FF12B194F8BA
:107B90002F30A3B1636802932389ADF80C30E368FA
:107BA00000218DF80410002B44D12374236801A810
:107BB0009847002384F82F3094F82E3003B3414BBC
:107BC0001B68EBB14FF48070FFF7C8FF94F82D20CD
:107BD000638B91B28B4238D95B1A21899BB2638344
:107BE000CB1A616801EB4301374BC3F82C16C3F87D
:107BF00030264FF48270FFF7B1FF344B01221A6038
:107C0000334B1B685BB14FF48870FFF7A7FF00236D
:107C100004A82374022300F80C3D236898472D4BD9
:107C20001B6813B34FF48A70FFF798FF0023237487
:107C300005B0F0BD208B608363602081E160002A85
:107C4000B4D1214B01221A60B0E7D2D1E3680121FF
:107C500084F82F103BB1002161831B49C1F82C36F9
:107C6000C1F83026C5E76383C3E766694FF0004774
:107C70000125002EDCD0B6FA86F227FA02F346324E
:107C8000920026EA030602F1804303F5E0431B68F5
:107C9000002BEED01046FFF761FFA2F58C72D308DF
:107CA00082F00402C2F380028DF808308DF804508F
:107CB0008DF80920236801A89847DAE7047100408D
:107CC0006CAB002000710040007000400470004068
:107CD000107100401471004002494FF4F37000F03D
:107CE00063BE00BF6DFB02001F2810B5044601D91A
:107CF000FFF7F2FF012303FA04F44FF0A043C3F8A7
:107D00000C4510BD1F2810B5044601D9FFF7E4FF4C
:107D1000012303FA04F44FF0A043C3F8084510BD53
:107D200013B54FF04023D3F818310BB3114B124C5D
:107D300000221A601B680193019B236823B90F4935
:107D40004FF4277000F030FEE07FFF2803D0A37FC0
:107D50005BB1FFF7C9FF002363772372D4E90031D9
:107D6000074802B0BDE810401847FFF7CBFFF2E725
:107D700002B010BD184100409CAB002066FC020020
:107D8000A4AB00202DE9F743002406460F4600F57A
:107D9000A0754FF48038A14604F150002B68800094
:107DA00080B26BB1D6F8043308FA04F21A4207D055
:107DB000C5F800902B680193019BD7E900319847E3
:107DC0000134042C05F10405E6D103B0BDE8F083CD
:107DD00001490248FFF7D6BFC0AB00200080004039
:107DE00001490248FFF7CEBFCCAB00200090004015
:107DF0000023435082B043580193019B02B0704767
:107E0000F0B5504C236887B023B94F4940F2452064
:107E100000F0CAFD4D4AD2F824311546A3B14FF403
:107E200092711046FFF7E4FFD2F8043163B9A368FA
:107E3000C2F808330223A360A368C2F80433012305
:107E40001362536107B0F0BDD5F80431002B49D05F
:107E50003F4F3E484FF48271FFF7CAFF0FCF01AE8C
:107E60000FC63B68336094F82E307BB1237B012B27
:107E70000CBFD5F83C25D5F84C250292022B334B8C
:107E80000CBFD3F83C35D3F84C3503934FF4B071A5
:107E90002E48FFF7ADFF4FF4AE712C48FFF7A8FF57
:107EA00094F8303013B194F82E303BB1274B0022B8
:107EB000C3F80022A260274AC3F80823234AD2F855
:107EC000C434C2F8C4349A0736D501238DF8003083
:107ED00094F830300BB984F82F30D4E9003168467B
:107EE0009847AFE74FF4A4711848FFF781FF237B51
:107EF00083B9174F0FCF01AE0FC63B68336094F8BC
:107F00003030002BDAD1C5F80032A360114BC5F830
:107F10000833D3E74FF40073C5F8003240F2022370
:107F2000A36003F1CE73C5F80833A368C5F8043322
:107F30000123AB602B6285E713F0040318BF022313
:107F4000C4E700BFD8AB0020BDFC020000300040F9
:107F5000E4AB002002029C0170B5C0B14AB11688A2
:107F60000024B44203D305196D789D4208D0A14284
:107F700001D800200BE0055D01352C44A4B2F0E7E8
:107F8000A142F6D9A31C1380005D013880B270BDF8
:107F900037B502AC002324F8023D134622460546BD
:107FA000FFF7DAFF10B1BDF80600284403B030BD7A
:107FB00072DF704773DF704738B5012204460D4603
:107FC000B0F83812D0F83402FFF7E2FF00B10570C4
:107FD00004F13C0204F50D7104F15400BDE8384091
:107FE000FFF7E6BFF8B5077804460D46002F00F00E
:107FF000058100F24A26A17007220021304600F0D8
:10800000C1FFE38813B1A378012B04D0E3794BB10E
:10801000A378022B06D1636BA3B1012284F851220D
:1080200008209847334604F5147113F8012F12B94C
:108030009942FAD117466B1E032B53D8DFE803F0A1
:10804000050B0F1284F85132ECE7A3791BB194F8B9
:10805000243003B95FB9E3790BB1002F44D1237AFF
:10806000002B43D1637A002B0CBF00250425636BE2
:10807000A570002B3CD0033D012D39D86279002A30
:1080800036D094F85222002A32D184F854220122A8
:1080900084F853220720984704F13C051822002158
:1080A000284600F06FFFE36A94F824200121581E4F
:1080B000884288BF0B4684F83C1084F8513032B1B6
:1080C000884296BFA36A84F8521084F85230A1788F
:1080D000002384F8503004291BD8DFE801F0770D25
:1080E000223559000025C2E70225C0E70325BEE777
:1080F000002384F85332CFE7C4F84432C4E9106354
:108100000223012284F83C30802384F83120A4F833
:108110004830A378002B5CD1636B002B6AD1002020
:1081200067E0022384F8313062B1072384F83C30E1
:108130002369A4F848300023C4F84432E368266475
:108140006364E6E70323F1E763696364A369A4F862
:10815000483012B1062384F83C306379B3B194F807
:1081600052329BB994F8543283B1022384F85030D0
:1081700004212046FFF720FF0028CAD1052384F8F8
:10818000313004F50D73C4F84432C2E70323F6E737
:10819000E3696364236AA4F8483012B1062384F8C3
:1081A0003C30637983B194F852326BB994F854320D
:1081B00053B1022384F8503004212046FFF7FCFE1F
:1081C0000028A6D10623DAE70423D8E784F8313063
:1081D0009FE72A46D4F8441204F15400FFF7E8FE62
:1081E00038B994F8301094F85400FFF7E3FE0028F3
:1081F00092D0F8BD94F83100984790E70820F8E74E
:1082000010B50388112B0C460AD0262B1FD0102B3B
:1082100005D1C37B012B02D18388A1F8483210BD60
:10822000002381F852328288B1F848329A42F6D15E
:108230000B79002BF3D101212046FFF7D3FE002854
:10824000EDD0A36B002BEAD0BDE810401847037AAD
:10825000013B012BE3D889780523013191FBF3F32E
:1082600003EB8303C91AC9B2E6E77047034B1A88C8
:1082700082420CBF18460020704700BF28AC002087
:10828000024B9B6903B11847704700BF0CAC00203C
:1082900013B50B46497A0F4C024669B9D4E901106F
:1082A0001C7A002C18BF01465868FEF73BFB08B14A
:1082B000FFF7E6FF02B010BD002119726369002BC1
:1082C000F8D00121ADF806008DF8041001A89847F8
:1082D000F0E700BF0CAC002030B583880588B3F50B
:1082E000FA7F24BF6FF4F9729C184A8838BF0024C3
:1082F00095420CD84088904209D38A88A24206D37E
:1083000003F2F310904234BF0020012030BD002062
:10831000FCE7000070B50388112B014648D002D855
:10832000102B1ED070BD122B52D0502BFAD12F4BD8
:10833000C288DB899A42F5D1038A022BF2D1868862
:108340003046FFF793FF05460028EBD001F11200FD
:1083500000F050F830BB6868FEF728FB0028E1D039
:1083600009E0C37B012BDDD14FF6FF70FFF77EFFE5
:10837000054620B90420BDE87040FFF781BF8E8814
:108380001B4A0680002303721368C5F80A300A30BE
:10839000536843601031FFF79FFF144B6872DB890D
:1083A000002BBFD129463046BDE87040FFF770BFB3
:1083B0008088FFF75BFF04460028B3D04068FEF7D3
:1083C000F5FA08B1FFF75CFF4FF6FF732380A9E7CA
:1083D00086883046FFF74AFF05460028A2D00831BC
:1083E0000A30FFF779FF6872DCE700BF0CAC0020B1
:1083F0003CAC0020007800F00100704790DF70472F
:10840000A5DF7047B5DF70477FB50023ADF80810D2
:10841000ADF80A106A4602A9064603930093ADF828
:108420000430FFF7EBFF0546F8B1114B114CE41A8D
:10843000E408FFF7CDF8240444F001040346324673
:108440000D492046FEF768FFBDF80020BDF8023058
:1084500002B91BB109492046FEF75EFFBDF80420B2
:108460001AB107492046FEF74DFF284604B070BDFB
:10847000A80203001803030019FD020063FD0200B7
:10848000A2FD020013B5034680880C46A0B91A88E5
:10849000232A00F0AF8011D8102A25D0112A54D0F9
:1084A000A37A4BB1E1880020FFF7AAFF002840F033
:1084B000A7800123A072E37202B010BD3A2A4ED009
:1084C000552A68D0242AEBD11A7A0B694A73002BFB
:1084D000E6D04DF67A21ADF80400ADF80010ADF805
:1084E00002008DF8042081E00A790A73DB7B012BFE
:1084F00013D0022B14D0E18823898B4205D20020AF
:10850000FFF77EFF70B90123E372217B637B8B420F
:10851000C6D20020FFF778FFC2E70B88E380EAE7C6
:108520004B88FBE7112802D10123A372EDE7FFF787
:108530004FF83C4A3C4B3D499B1ADB081B04024662
:1085400043F00100FEF7DEFEDFE7F723CB801723C1
:108550000B8141F6FB338872C8728B81A0E75B897F
:10856000CA88934228BF1346172B0A6938BF1723BE
:108570000B8162B1C97A51B140F67721ADF8001094
:10858000ADF80200ADF8043069462046904700235C
:10859000E372A37284E7DB88C988A072172B38BF07
:1085A00017238B4228BF0B462381FFF72BFF60B1B7
:1085B000FFF70EF81B4A1C4B1D499B1ADB081B04D6
:1085C000024643F00100FEF79DFEE27A002A7FF4A6
:1085D00067AF2369002B3FF463AF40F67721ADF816
:1085E00002202289ADF80010ADF80420694620462B
:1085F000984755E7197A237B994228BF194689E79E
:1086000011283FF459AFFEF7E3FF064A064B07492E
:108610009B1ADB081B04024643F00100FEF772FEC2
:108620004AE700BFA802030018030300F8FD020098
:1086300029FE0200B0DF704766DF704710B50346C1
:1086400000214088FFF7F8FF024608B91A7210BDF2
:10865000112801D10122F9E75B68BDE810401847F5
:1086600028B10378DE2B04D14180002070470E2012
:10867000704708207047F0B5054685B00C46F1B14B
:10868000E8B10B78DE2B1AD182884B889A4204D14C
:108690000B7A13B10846FFF7D1FF2B88112B32D08C
:1086A000512B0ED0012B0AD12B7A012B07D1A9888F
:1086B0006288914203D123722046FFF7BFFF05B0C5
:1086C000F0BDAE886388B342F9D1AF79022FF6D1FD
:1086D000AD7B2B1F022BF2D800211022684600F040
:1086E00051FC052D14BF4FF4C0730023694630467A
:1086F0008DF80070ADF80430FFF79CFF0028DED045
:1087000063689847DBE76388AA889A4204BF4FF6FC
:10871000FF736380D3E70000014B1878704700BFF8
:1087200044AC002007B508496846FEF7FFFE019BF0
:1087300013B903B05DF804FBD3E900209047684605
:10874000FEF70CFFF3E700BF68FE0200FFF7EABF89
:1087500061DF704730B5134DADF5017D4FF4FA740C
:108760000DF1020103A8ADF80240FFF7F1FF70B967
:10877000294601A8FEF7DAFE029B002BF0D003A8E1
:10878000D3E90021904701A8FEF7E8FEF4E70528A9
:1087900004D0054A40F23911FDF7D0FE0DF5017DF8
:1087A00030BD00BFD0FE02007CFE0200024B1B78F1
:1087B0000BB1FFF7CFBF704745AC002076DF7047A5
:1087C0007FDF704786DF70478ADF70478FDF704733
:1087D000B1DF704733DF704737B503881D2B044680
:1087E00000F0AC801DD8132B7CD00AD8102B3DD0C4
:1087F000112B5DD0604B13B12046AFF3008003B066
:1088000030BD142B00F08C801B2BF3D1037A012B8D
:10881000F0D1FFF7DFFF0028ECD0584A4FF4CC71BD
:108820006DE0502B52D00ED8212B00F096803B2BC0
:10883000E0D113218088FFF7C1FF0028DAD04F4A2A
:108840004FF4D0715BE0522B5CD045D3562BD1D185
:108850008379002BCED14A4B13211888FFF7AEFF46
:108860000028C7D0454A40F2A71148E0444D81880E
:1088700044482980FFF7F4FE20B1404A4FF49D712F
:10888000FDF75CFE00231A4619462888FFF7A0FF73
:1088900020B13A4A4FF4A171FDF750FE3A4800F07A
:1088A000BBFB3A4B002BA5D02046AFF30080A1E7DD
:1088B000334B37484FF6FF721A8000F0ADFB354B53
:1088C000002B97D02046AFF3008093E7324B002B6C
:1088D00090D0AFF300808DE7304B002B8AD0AFF300
:1088E000008087E7264800231A4685210088FFF785
:1088F00067FF00283FF47EAF204A40F28111FDF768
:108900001DFE77E71E4800231A4619460088FFF728
:108910005FFF00283FF46EAF184A40F28711EEE780
:10892000174800231A4619460088FFF74BFF002816
:108930003FF460AF114A40F29111E0E7184B0BB1E0
:10894000AFF3008017490020FFF73EFF00283FF4F7
:1089500051AF0A4A40F2C711D1E702A9002321F81A
:10896000043D8088FFF732FF00283FF443AF034AFD
:1089700040F2D111C3E700BF000000000DFF02006C
:108980009CAF0020B4AE00203CFF020000000000BD
:108990004CFF02000000000000000000000000008A
:1089A00000000000A898002038B50D460446044891
:1089B00000F032FB2A4621460248FDF7BFFD38BDD4
:1089C000E8FE0200EFBEADDE0C4B1B78062B10D18B
:1089D0000B4B1B681A070CD10A4B186800F0F00308
:1089E000302B08D000F0E000A0F14003584258417D
:1089F0007047002070470120704700BFE00F00F073
:108A0000E40F00F0E80F00F0094B1B78062B0CD1A7
:108A1000084B1B681A0708D1074B186800F0F000D4
:108A2000A0F130035842584170470020704700BF02
:108A3000E00F00F0E40F00F0E80F00F008B5FFF7DA
:108A4000C3FF28B17D4B7E4A1B68C3F30423136028
:108A5000FFF7DAFF10B17B4B7B4A1A60FFF7B4FFD8
:108A600028B17A4B7A4A1B68C3F342331360FFF78D
:108A7000CBFF20B1774AD36823F08073D360FFF730
:108A8000A3FF40B14FF080430022C3F80C21C3F88C
:108A90001021C3F83825FFF7B7FF10B16E4B032242
:108AA0001A60FFF7B1FF40B16C4B05221A6001223A
:108AB0009A6700229A603F225A60694B1B78062B06
:108AC00050D1684B1B6819074CD1674B1B6803F0EA
:108AD000F003502B46D14FF08052644BD2F804146F
:108AE000C3F82015D2F80814C3F82415D2F80C14D2
:108AF000C3F82815D2F81014C3F82C15D2F81414A2
:108B0000C3F83015D2F81814C3F83415D2F81C1471
:108B1000C3F84015D2F82014C3F84415D2F8241431
:108B2000C3F84815D2F82814C3F84C15D2F82C1401
:108B3000C3F85015D2F83014C3F85415D2F83414D1
:108B4000C3F86015D2F83814C3F86415D2F83C1491
:108B5000C3F86815D2F84014C3F86C15D2F8442451
:108B6000C3F87025FFF730FF28B1414B414A1B681D
:108B700003F04F031360FFF727FF48B14FF0804326
:108B8000D3F80024D20744BF6FF00102C3F80024D9
:108B9000394B1B68062B08D1384B1B68062B01BFCD
:108BA000374A136843F480631360364AD2F888303A
:108BB00043F47003C2F88830BFF34F8FBFF36F8F59
:108BC0004FF01023D3F80022002A03DBD3F804323D
:108BD000002B2FDA2C4B0122C3F80425D3F80024F4
:108BE000002AFBD04FF010221521C2F80012D3F852
:108BF0000024002AFBD04FF010231522C3F80422D2
:108C0000214B1A46D3F800140029FBD00021C3F8E9
:108C10000415D2F80034002BFBD0BFF34F8F194955
:108C20001A4BCA6802F4E0621343CB60BFF34F8F64
:108C300000BFFDE7164B174A1A6008BD2403001059
:108C40004035014074C007400DF0ADBA4402001039
:108C50003C050040F0ED00E0A0050040105600404B
:108C6000E00F00F0E40F00F0E80F00F000C000405B
:108C700058020010E40E00403001001034010010D2
:108C80003C17004000ED00E000E001400400FA0560
:108C9000B09800200090D0032DE9FF4106460F4612
:108CA000154672B6FEF76CFBFEF7A8F90028FBD15B
:108CB000234B244CE41AE40841F2010324049E42AD
:108CC00044F0010428D007D8012E14D03A461E499A
:108CD0002046FEF717FB12E044F201039E421DD02E
:108CE00044F202039E42F1D12B886A68174920465C
:108CF000FEF712FB03E016492046FEF7FFFA154B7C
:108D00001B68DB0700D500BE2A463946304604B052
:108D1000BDE8F041FDF7E6BB0F49EDE7D5F8088067
:108D20004046FEF755FC2B68029701936B68009351
:108D30000A49034642462046FEF712FB0849DBE794
:108D4000A802030000030300F1FF02009DFF0200E0
:108D50005EFF0200F0ED00E07BFF0200B7FF0200C3
:108D6000DDFF02000649074A074B9B1A03DD043B5F
:108D7000C858D050FBDCFFF761FEFDF761FA000038
:108D800094030300A898002070A20020FEE7FEE7ED
:108D9000FEE7FEE7FEE7FEE7FEE7FEE7FEE7FEE7AB
:108DA00008B50021044602F0F9F8044B1868C36BBB
:108DB00003B19847204605F0ABF900BF0C00030053
:108DC00070B50D4E0D4D761BB61006D00024013443
:108DD00055F8043B9847A642F9D1094E094D761B38
:108DE00005F0ACFFB61006D00024013455F8043B62
:108DF0009847A642F9D170BD60A2002060A2002071
:108E00006CA2002060A20020044B054A1B685B6B2B
:108E1000002B08BF134693F828017047B498002030
:108E2000E09C002082B049B15AB16BB113780B605D
:108E30001278101C18BF012002B0704701A9002A47
:108E4000F3D1104602B070476FF00100F4E700BFA5
:108E5000844641EA000313F003036DD1403A41D345
:108E600051F8043B40F8043B51F8043B40F8043B04
:108E700051F8043B40F8043B51F8043B40F8043BF4
:108E800051F8043B40F8043B51F8043B40F8043BE4
:108E900051F8043B40F8043B51F8043B40F8043BD4
:108EA00051F8043B40F8043B51F8043B40F8043BC4
:108EB00051F8043B40F8043B51F8043B40F8043BB4
:108EC00051F8043B40F8043B51F8043B40F8043BA4
:108ED00051F8043B40F8043B51F8043B40F8043B94
:108EE000403ABDD2303211D351F8043B40F8043B34
:108EF00051F8043B40F8043B51F8043B40F8043B74
:108F000051F8043B40F8043B103AEDD20C3205D343
:108F100051F8043B40F8043B043AF9D2043208D03B
:108F2000D2071CBF11F8013B00F8013B01D30B88AD
:108F300003806046704700BF082A13D38B078DD08B
:108F400010F003038AD0C3F10403D21ADB071CBF5D
:108F500011F8013B00F8013B80D331F8023B20F8C7
:108F6000023B7BE7043AD9D3013A11F8013B00F800
:108F7000013BF9D20B7803704B7843708B78837088
:108F800060467047F0B4860743D0541E002A3ED096
:108F9000CAB2034602E014F1FF3438D303F8012BC0
:108FA0009D07F8D1032C2BD9CDB245EA05250F2C0E
:108FB00045EA054516D9A4F110073F0903F120063B
:108FC00006EB071603F1100242E9045542E9025587
:108FD0001032B242F8D104F00F040137032C03EB36
:108FE00007130DD91E462246043A032A46F8045BAD
:108FF000FAD8221F22F003020432134404F00304BF
:109000002CB1C9B21C4403F8011B9C42FBD1F0BC3B
:10901000704714460346C5E70FB400B5074983B04F
:1090200004AB086853F8042B8168019300F0B8F989
:1090300003B05DF804EB04B0704700BFB4980020A3
:1090400000290CBF022200224FF4806300F000B818
:109050002DE9F0435D4C256883B0044688461646EA
:109060001F4615B1AB6B002B7ED0022E05D0012E12
:1090700000F2A980002FC0F2A680636EDA0735D512
:109080002146284603F052F8216B41B104F1400318
:10909000994202D0284603F047F900232363B4F92C
:1090A0000C3000221806A261626061D423F44A6386
:1090B00023F00303022EA3811FD10025616E00203F
:1090C00004F1430243F00203A060C9074FF001001E
:1090D000A3812260C4E9042004D49B0502D4A06DBE
:1090E00003F054FA284603B0BDE8F083A3899B053A
:1090F000C6D4A06D03F048FAC2E701AB6A46214628
:10910000284603F045FAA3891843A081002F36D1E1
:10911000009F384603F0B4FA8046002842D0A38965
:1091200043F08003A381AB6B7BB3009AB4F90C309E
:10913000C4F80080BA421CBF43F40063A381012E2F
:1091400004BF43F00103A3819BB213F00802C4E9FA
:1091500004871ED1A260656E15F00105BDD0002503
:10916000284603B0BDE8F083284603F03BF87CE7CF
:109170002169284603F0D8F8B4F90C3096E7B8F125
:10918000000FC6D0AB6B002BCFD1284603F02AF8D6
:10919000CBE7DA0704D57F420022A761A260DAE7B5
:1091A000A760D8E7DDF80090B94504D1B4F90C30D8
:1091B0004FF0FF3582E7484603F062FA8046002808
:1091C000F4D04F46ABE74FF0FF358BE7B498002063
:1091D00080EA0102844612F0030F4FD111F0030F11
:1091E00032D14DF8044D11F0040F51F8043B0BD06F
:1091F000A3F101329A4312F0803F04BF4CF8043BC4
:1092000051F8043B16D100BF51F8044BA3F10132D1
:109210009A4312F0803FA4F101320BD14CF8043B89
:10922000A24312F0803F04BF51F8043B4CF8044BBA
:10923000EAD023460CF8013B13F0FF0F4FEA33232B
:10924000F8D15DF8044B704711F0010F06D011F80A
:10925000012B0CF8012B002A08BF704711F0020FF8
:10926000BFD031F8022B12F0FF0F16BF2CF8022BE3
:109270008CF8002012F47F4FB3D1704711F8012B06
:109280000CF8012B002AF9D1704700BF0000000044
:1092900000000000000000000000000000000000CE
:1092A00000000000000000000000000000000000BE
:1092B00000000000000000000000000000000000AE
:1092C00090F800F06DE9024520F007016FF0000C06
:1092D00010F0070491F820F040F049804FF00004AE
:1092E0006FF00700D1E9002391F840F000F1080089
:1092F00082FA4CF2A4FA8CF283FA4CF3A2FA8CF3C1
:109300004BBBD1E9022382FA4CF200F10800A4FA27
:109310008CF283FA4CF3A2FA8CF3E3B9D1E904237B
:1093200082FA4CF200F10800A4FA8CF283FA4CF3B2
:10933000A2FA8CF37BB9D1E9062301F1200182FA6C
:109340004CF200F10800A4FA8CF283FA4CF3A2FA72
:109350008CF3002BC6D0002A04BF04301A4612BA80
:10936000B2FA82F2FDE8024500EBD2007047D1E983
:10937000002304F00305C4F100004FEAC50514F012
:10938000040F91F840F00CFA05F562EA05021CBFE3
:1093900063EA050362464FF00004A9E700000000FD
:1093A0002DE9F04FD7B01C46894617460546039075
:1093B00003F0D8F8036816931846FFF781FF089466
:1093C00015901DB1AB6B002B00F00781D9F864102C
:1093D000B9F90C20C80793B202D4990540F11F8156
:1093E0009E040AD4D9F8641042F4005321F40051C9
:1093F000A9F80C30C9F864109BB21D0740F1B28087
:10940000D9F81020002A00F0AD8003F01A020A2AD1
:1094100000F0C98000239FED867B1093CDE92B33AC
:109420001793CDE919331B93189305932DAB2A930A
:109430009B463B78CDF81C908DED127B002B00F005
:109440005982252B3C4602D11DE0252B03D014F870
:10945000013F002BF9D1E51B8DB1DDE92B32013342
:109460002A44072BCBF80070CBF80450CDE92B32FF
:1094700000F3CA800BF1080B059B2B44059323785E
:10948000002B00F0378200236678069398468DF80B
:109490008B3004F1010A4FF0FF392B250AF1010A44
:1094A000A6F120035A2B00F22A84DFE813F0AA0366
:1094B000280428049C02280428042804A70228045D
:1094C0002804C602D2022804D702DC022804F602CD
:1094D0006D026D026D026D026D026D026D026D0214
:1094E0006D022804280428042804280428042804D9
:1094F000FB0228043C03F303FB02FB02FB022804EB
:10950000280428042804EE03280428049A002804C8
:10951000280428045003280479032804280490030D
:1095200028042804280428042804280428042804DB
:10953000FB0228043C03C500FB02FB02FB02D10333
:10954000C50070002804B5032804C2039C00DE0394
:1095500070002804500372002C02280428047C02A6
:10956000280472004946039801F0A8FCA0B1D9F87C
:109570006430D80704D4B9F80C30990540F1B783AA
:109580004FF0FF330593059857B0BDE8F08F48F0D2
:1095900020089AF8006081E7B9F80C3003F01A024D
:1095A0000A2A7FF437AFB9F90E20002AFFF632AF4E
:1095B000D9F86420D20705D49B0503D4D9F8580004
:1095C00002F0E4FF23463A464946039801F026FCA0
:1095D0000590059857B0BDE8F08F039802F002FEA1
:1095E000F4E648F0100818F0200F00F06C83089C97
:1095F000073424F00703D3E9004503F10802089279
:1096000028F4806300228CE12AAA0799039803F0CA
:109610004DFF002841F076830DF1B40B2CE7D9F80B
:10962000580002F0B1FFB9F90C2093B2D8E600BFA0
:10963000000000000000000043469F0640F12F8319
:10964000089C073424F00704D4E9000104F108025F
:10965000089204460D46002871F1000205DA2D2219
:10966000644265EB45058DF88B2056AAB9F1FF3FA2
:10967000049200F0B284012254EA050123F080082C
:1096800040F05981B9F1000F40F01986002A40F0EE
:10969000088513F0010356AF099302D0302307F871
:1096A000013D00230A930F9314931193099B9DF896
:1096B0008B204B45B8BF4B46049312B1049B01333A
:1096C000049318F002030B9302D0049B023304931B
:1096D00018F084032C9C0E933FD1069B04995D1ACD
:1096E000002D3ADD102D2B9A29DD59462046209673
:1096F0001023039C079EBB4604E0103D102D01F192
:10970000080118DD0132BA4F1030072ACDE92B20AD
:10971000C1E90073F1DD2AAA314620460C9303F01B
:10972000C5FE002840F03D84103D102DDDE92B20C2
:109730002DA90C9BE6DC209E5F4604468B46013239
:10974000AB4B2C44072ACDE92B24CBE9003500F3A1
:10975000FF849DF88B200BF1080B72B12B9A01321C
:1097600001340DF18B000121072ACDE92B24CBE92F
:10977000000100F318840BF1080B0B9B6BB12B9BC2
:109780000133023423A90222072BCDE92B34CBE984
:10979000001200F315840BF1080B0E9B802B00F0D8
:1097A0003183099BA9EB0305002D37DD102D2B9A82
:1097B000904B28DD59462046BB464FF010093746EE
:1097C0001C46079E04E0103D102D01F1080115DD37
:1097D00001321030072ACDE92B20C1E90049F2DD22
:1097E0002AAA3146039803F061FE002840F0D9838D
:1097F000103D102DDDE92B202DA9E9DC3E46234646
:109800005F4604468B4601322C44072ACDE92B24BF
:10981000CBE9003500F3EF830BF1080B18F4807FE0
:1098200040F080822B9B099ACBF8007001331444DE
:10983000072B2C94CBF804202B9300F392830BF18D
:10984000080B18F0040F3BD0069B049A9D1A002DBC
:1098500036DD102D2B9B21DD1026039FDDF81C80AB
:1098600004E0103D102D0BF1080B17DD0133604AA9
:109870001034072BCDE92B34CBE90026F1DD2AAAE1
:109880004146384603F012FE002840F06C85103D3A
:10989000102DDDE92B340DF1B40BE7DC0133544A14
:1098A0002C44072BCDE92B34CBE9002508DD2AAA6F
:1098B0000799039803F0FAFD002840F0E9822C9CF8
:1098C0000499DDE905328A42ACBF9B185B18059309
:1098D000002C40F0D58200232B930A9B1BB10A99E0
:1098E000039802F021FD0DF1B40B57463B78002B95
:1098F0007FF4A7AD2C9BDDF81C90002B41F0E78096
:1099000000232B93CBE243469A0640F14E81089CFC
:10991000073424F0070202F10801D2E9004508915A
:10992000012200218DF88B10B9F1FF3F56A9049157
:109930007FF4A2AE9846012A00F05083022A00F07C
:109940001B8356A900E03946E20842EA4572E8085E
:1099500004F0070305461446303354EA050201F8C3
:10996000013C01F1FF37EED118F0010F00F0148334
:10997000302B00F01183049A02393023521A07F871
:10998000013C09920F468CE6A6F1300300221AF83A
:10999000016B02EB820203EB4202A6F13003092BBA
:1099A000F5D906927CE5144B179318F0200F00F0C0
:1099B0001481089C073424F00703D3E9004503F120
:1099C0000802089218F0010F09D054EA050306D0E6
:1099D00030238DF88D6048F002088DF88C3028F423
:1099E000806302229DE748F001089AF8006055E57F
:1099F000640003007400030030000300039E30463F
:109A000002F0B0FD436818931846FFF759FC1B900D
:109A10000446304602F0A6FD83681A93002C3FF4FA
:109A2000B8AD9AF80060002B3FF438AD1B78002BDE
:109A30003FF434AD48F4806830E5089B9AF8006044
:109A40001A680692002A03F10403C0F2978608936D
:109A500024E58DF88B509AF800601FE59AF80060B5
:109A600048F004081AE59AF800602A2E0AF101026B
:109A700001F0B081A6F13003092B92464FF00009A6
:109A80003FF60EAD1AF8016B09EB890903EB4909A2
:109A9000A6F13003092BF5D902E548F080089AF8C1
:109AA0000060FBE4089C073424F0070494ED007B7D
:109AB00052EC171B22F000431D938DED1C7A0834E5
:109AC000DDE91C014FF0FF32BA4B08948DED127B9B
:109AD00004F076FF002840F06F844FF0FF32B54B62
:109AE000DDE91C0104F04EFF002840F065840022EF
:109AF0000023DDE9120104F03BFF002840F05B8504
:109B00009DF88B20AC4FAD4B0020032104910A90AF
:109B100028F08008472ED8BF1F46099181460F9034
:109B200014901190C9E50898002301688DF88B30D6
:109B30001A468DF8F4100123011D04930A929146F0
:109B40000F9214921192CDE908133DAFB9E5089B2D
:109B50001F6800258DF88B501C1D002F00F03986E2
:109B6000B9F1FF3F00F011874A462946384603F015
:109B70003FF80A90002800F0E7850A9BDB1B099359
:109B8000A94623EAE37308940493CDF82890CDF80E
:109B90003C90CDF85090CDF844909DF88B208CE50A
:109BA00048F010039A063FF5B2AE089ADF0602F1BC
:109BB000040100F17E835D06089A00F1E4849C05AF
:109BC00040F177831478089100250122A9E67C4BA7
:109BD000179318F0200F7FF4ECAE089A18F0100FCE
:109BE00002F1040340F0548318F0400F089A40F04B
:109BF000D08418F4007F00F04B831478089300257C
:109C0000E0E69DF88B309AF80060002B7FF446ACBC
:109C100020238DF88B3041E49AF800606C2E03BF4E
:109C20009AF8016048F020080AF1010A48F010088B
:109C300034E4089A18F0200F52F8043B089200F020
:109C4000A183059A1046D117C3E9000157464DE696
:109C50009AF80060682E03BF9AF8016048F4007813
:109C60000AF1010A48F0400818E40899554B0C68BD
:109C7000179347F630020431ADF88C2048F0020308
:109C800008910025022278264BE648F008089AF849
:109C9000006003E448F010039F063FF5D1AC08993B
:109CA000DD0601F1040200F1FD825C06089900F175
:109CB0007584980540F1F68291F900400892E51705
:109CC00020462946C7E4089A18F0100F02F1040351
:109CD00040F0E38218F0400F089A40F0678418F4CF
:109CE000007F00F0DA8214780893002588E4D9F820
:109CF000580002F04BFC4FF0FF33059343E4002E75
:109D00003FF4F8AD002301211A4604918DF8F46068
:109D10008DF88B300A9399460F9314931193099100
:109D20003DAFCEE4652E40F3CA8000220023DDE97A
:109D3000120104F013FE002800F069812B9B224AD7
:109D4000CBF80020013301340122072BCDE92B345D
:109D5000CBF8042000F306840BF1080B249B109A27
:109D60002C9C934203DB18F0010F3FF46AAD2B9B50
:109D7000169ACBF80020159ACBF80420013314442E
:109D8000072BCDE92B3400F317850BF1080B109B43
:109D90005D1E002D7FF755AD102D2B9A0B4B40F318
:109DA000E782194610262346039FDDF81C900C46D7
:109DB00014E000BFFFFFEF7F24000300200003003A
:109DC000440003003000030060000300740003003F
:109DD0000BF1080B103D102D40F3C78201321033F8
:109DE000072ACDE92B23CBE90046F1DD2AAA494613
:109DF000384603F05BFB00284CD1DDE92B230DF145
:109E0000B40BE7E7069B049A9D1A002D7FF7C9ACB7
:109E1000102D2B9ABC4B27DD59462046BB461C46CD
:109E20003746079E04E0103D102D01F1080116DDB4
:109E3000013210301023072ACDE92B200C604B6033
:109E4000F1DD2AAA3146039803F030FB002840F0E8
:109E5000A880103D102DDDE92B202DA9E8DC3E4621
:109E600023465F4604468B4601322C44072ACDE93F
:109E70002B24CBE9003500F392820BF1080B90E420
:109E80002AAA0799039803F011FB00283FF423AD99
:109E9000DDF81C900A9911B1039802F045FAD9F83F
:109EA0006420B9F80C30D00702D4990540F1D08174
:109EB0005A063FF565AB059857B0BDE8F08F109A8C
:109EC0002B9B012A04F1010403F101050BF10806A3
:109ED00040F31C810123072DCBF80070CDE92B54F2
:109EE000CBF8043000F3BB81159B169A691C1C4407
:109EF00007290B91CDE92B14C6E9002300F3BB81A0
:109F000008360B9A531C1D460995109D0E9300228E
:109F10000023DDE9120105F1FF3906F1080B04F019
:109F20001DFD002840F0C280099DC6F8049001374D
:109F30004C44072D37602C942B9500F3F9800B9A35
:109F400006F1100302325E4609929B46199A72602E
:109F50001444099A2C9426AB072A2B9233607FF77E
:109F600070AC2AAA0799039803F0A0FA00288FD1B1
:109F70002C9C0DF1B40B64E4179856AF230904F040
:109F80000F0143EA05732A091C461546435C07F88E
:109F9000013D54EA0503F1D1049BDB1B0993FFF754
:109FA00080BBB14676E72AAA0799039803F07EFAA8
:109FB00000287FF46DAF2C9C0DF1B40BFFF7DDBBD7
:109FC0002AAA0799039803F071FA00287FF460AF7A
:109FD0002C9C0DF1B40BFFF7E0BB9846002D08BF99
:109FE0000A2C80F0708156AF3034012307F8014D00
:109FF0000993FFF756BB2AAA0799039803F056FA6C
:10A0000000287FF445AF2C9C0DF1B40B06E4249B93
:10A01000002B40F37382DDE910239342A8BF13465F
:10A02000002B1D460DDD2B9BCBF8007001332C441B
:10A03000072B2C94CBF804502B9300F3C1820BF127
:10A04000080B119B002DA8BF5B1B002B1D4640F386
:10A050009980102D2B9A2C4B40F3DB831846214618
:10A060005B461026BB46DDF80C90079C074604E0D3
:10A070000833103D102D40F3C78301321031072AF9
:10A08000CDE92B21C3E90076F2DD2AAA2146484614
:10A0900003F00CFA002840F0A584DDE92B212DAB5C
:10A0A000E7E7CDF8249056AFFFF7FBBAB9F1000F00
:10A0B0007FF74CAFB9F1100F134B40F35986194697
:10A0C000224633461027DDF80CB0079C0E9D0E4645
:10A0D00007E00833A9F11009B9F1100F40F35383D9
:10A0E00001351032072DCDE92B52C3E90067F0DDB1
:10A0F0002AAA2146584603F0D9F9002840F0728474
:10A10000DDE92B522DABE5E77400030018F0010FD9
:10A110007FF4E0AE0122072DCBF80070CDE92B547F
:10A12000CBF8042004DC023309930BF1100B0DE78C
:10A130002AAA0799039803F0B9F900287FF4A8AE7A
:10A14000DDE92B34013309930DF1BC0B2DAEFDE697
:10A150002AAA0799039803F0A9F900287FF498AE7A
:10A160009DF88B202C9C0DF1B40BFFF7F6BA2AAAB0
:10A170000799039803F09AF900287FF489AE2C9C84
:10A180000DF1B40B119B18F4806F3B44994640F0DD
:10A190005783249B109A934249DB18F0010F46D154
:10A1A000109ABD18A5EB0905D31A9D42A8BF1D46FC
:10A1B000002D0DDD2B9ACBF8009001322C44072A9C
:10A1C0002C94CBF804502B9200F362840BF1080B13
:10A1D000002DACBF5D1B1D46002D7FF732AB102D4F
:10A1E0002B9AC54B40F3C480194610262346039F83
:10A1F000DDF81C900C4605E00BF1080B103D102D0E
:10A2000040F3B38001321033072ACDE92B23CBE989
:10A210000046F1DD2AAA4946384603F047F90028EE
:10A220007FF438AEDDE92B230DF1B40BE6E72B9A72
:10A230001699CBF800101599CBF8041001320C4494
:10A24000072A2C942B9200F38C820BF1080BA7E7C2
:10A25000D9F8580002F09AF9B9F80C3028E62AAA81
:10A260000799039803F022F900287FF411AEDDE985
:10A270002B542DAE38E62AAA0799039803F016F955
:10A2800000287FF405AEDDE92B342DAE0B9338E6C4
:10A29000146808930025FFF795BB14680893002500
:10A2A000FFF7AEB90C680892E51720462946FFF77C
:10A2B000D2B91468089101220025FFF732BB012AA8
:10A2C0007FF43CAB8FE608F480630022CDE909A659
:10A2D000CDF82C8056AF9246DDF868801E460AE025
:10A2E0000023204629460A2204F0A8FB04460D4616
:10A2F00054EA050329D00A2200232046294604F007
:10A300009DFB303207F8012C0AF1010A013F002EB3
:10A31000E6D098F800309A45E2D1BAF1FF0FDFD0CD
:10A32000002D08BF0A2CDBD31B9B1899FF1A1A4675
:10A33000384603F04DF898F80130002B00F0968471
:10A3400008F101084FF0000ACAE7049BCDF86880C5
:10A35000DB1BCDF840A00A9EDDF824A0DDF82C80A0
:10A360000993FFF79EB9C14694E521461C460B466A
:10A3700001322C44072ACDE92B24CBE900357FF7A5
:10A380005EAAEEE518F0100F40F0F88018F0400FCC
:10A3900000F05183059A1A805746FFF7A7BA2AAAF8
:10A3A0000799039803F082F800287FF471AD2C9C84
:10A3B0000DF1B40BFFF7F5B9DDE9120102460B46CA
:10A3C00004F0FEFA002840F09184612E00F0118123
:10A3D000412E00F0778348F4807326F02002B9F113
:10A3E000FF3F0E930492139B00F02D84472A00F048
:10A3F0002484002BC0F2F9829DED127BCDE90A0086
:10A400008DED1E7B662E00F0EB83462E00F07E84E1
:10A41000049B0398452B0CBF09F101054D4628AA62
:10A4200025ABCDE90032022124AB2A469DED1E0B5F
:10A4300000F0C2FE672E074640F09C8418F0010F22
:10A4400040F0F983289B4046DB1BDDF838801093F1
:10A45000249B1193049B472B00F0E781049B462B20
:10A4600000F000830499119BF2B2412908BF0F321A
:10A4700003F1FF3306BFD2B201210021002B249348
:10A48000B8BF119B8DF89820BABFC3F101032D22EC
:10A490002B22092B8DF8992000F3F983002940F035
:10A4A000878430228DF89A200DF19B02303313708F
:10A4B000531C26AA9B1A109A1993012A1344099334
:10A4C00040F34284099B159A1344099300230F9388
:10A4D00014931193099B20F4806023EAE37340F402
:10A4E000807804930B9B002B40F0758299469DF871
:10A4F0008B20FFF7E2B800BF740003002B9ABD4920
:10A50000CBF80010013201340121072ACDE92B24B8
:10A51000CBF8041060DC0BF1080B2BB9109A1AB9B8
:10A5200018F0010F3FF48DA92B9A1699CBF8001063
:10A530001599CBF8041001320C44072A2C942B9265
:10A5400000F382820BF1080B002BC0F2E782109B14
:10A5500001321C44072ACDE92B24CBE900737FF795
:10A560006EA9FEE42AAA0799039802F09FFF00282B
:10A570007FF48EAC0DF1B40BFFF7F0BB059A1A60B7
:10A580005746FFF7B3B91488089100250122FFF759
:10A59000C8B9148808930025FFF714BAB1F9004030
:10A5A0000892E51720462946FFF755B81488089306
:10A5B0000025FFF725B82D228DF88B20FFF7A2BAD2
:10A5C0002AAA0799039802F071FF00287FF460AC73
:10A5D0002C9C0DF1B40B34E52AAA0799039802F0DC
:10A5E00065FF00287FF454AC249B2C9C0DF1B40B28
:10A5F00093E730238DF88C307823B9F1630F8DF811
:10A600008D3048F0020400F3B08248F481730E9359
:10A6100026F0200304930022139B0A92A0463DAF2C
:10A62000002BC0F2E3819DED127B8DED1E7B00239C
:10A630000B93612E00F05582412E7FF4E3AE24A8E7
:10A640009DED1E0B02F03AFE00224FF07F5351ECBD
:10A65000100B03F01BFF00220023CDE90C0104F0D6
:10A660007DF9002840F00583634B0993CDE90FA6DF
:10A6700009F1FF34CDF850902197B946CDF844B098
:10A68000CDF88080DDF824A0DDE90C6703E004F05C
:10A6900065F920BBA9460022584B3046394603F0E5
:10A6A000F5FE0F46064604F0A1F9804603F084FE4D
:10A6B00002460B463046394603F030FD4D461AF847
:10A6C00008C005F801CBB4F1FF3FA34606460F468C
:10A6D0004FF000024FF0000304F1FF34D7D13046B1
:10A6E00039460022464BDDF83CA0109ECDF83CB028
:10A6F0004446CDF84090DDF88080DDF85090DDF8DC
:10A7000044B0219FCDE90C0104F050F9002840F03D
:10A710007681DDE90C010022394B04F01FF910B1FC
:10A72000E20700F16C810F9B002B07DB0F9B0133CD
:10A730002B44302205F8012BAB42FBD1EB1B4046EA
:10A740001093DDF8388083E6CDF81090CDF8249092
:10A75000089481460F90149011909DF88B20FEF77D
:10A76000ACBF2AAA0799039802F0A0FE00287FF444
:10A770008FAB249B2C9C0DF1B40B11E55242069239
:10A780000893FFF76DB9144632461E4613462A4613
:10A790000132099206F10802C6E90039099B2B93A0
:10A7A0004C44072B2C943FF7C3AC0133099302F1BF
:10A7B000080B1646FFF7CABB2AAA0799039802F0AE
:10A7C00075FE00287FF464AB2C9C0DF1B40BFFF7F1
:10A7D000DEBA4B46062B28BF0623B9460F971497BF
:10A7E00011970A973A460493CDE90843054FFEF7BF
:10A7F00064BF00BF6000030044000300000030405D
:10A800000000E03F580003000C4639465F469B4677
:10A810000B4601322C44072ACDE92B24CBE9003525
:10A820003FF7A5AC0BF1080BACE4119BDA1C02DB83
:10A83000994580F2B580023E26F02003049311E68C
:10A84000109BCDF838805A46DDE91A8BFB18CDF8FD
:10A850002CA00C97AF4EDDF81CA009934F46DDF8F5
:10A860000C902146149B002B5BD00F9B002B54D1E6
:10A87000149B013B08F1FF3814932B9B1898106030
:10A8800001335944072B2C91C2F804B02B9368DC98
:10A890000832099898F80030C51B9D42A8BF1D4694
:10A8A000002D0BDD2B9B176001332944072B2C91C6
:10A8B00055602B935EDC98F800300832002DACBF59
:10A8C0005D1B1D46002D26DD102D2B983CDD102430
:10A8D00003E00832103D102D36DD0130103107281D
:10A8E000CDE92B01C2E90064F3DD2AAA51464846AE
:10A8F00002F0DCFD002850D1DDE92B012DAAE9E7AB
:10A900002AAA5146484602F0D1FD002845D198F8C0
:10A9100000302C992DAA1F44A4E70F9B013B0F93F5
:10A92000ABE70F9B002BF8D1B946109B0C9FCDF8DD
:10A930006880FB189945DDF82CA0DDF83880934637
:10A940000C4628BF994624E4013029440728CDE964
:10A950002B01C2E90065D3DC98F8003008321F44AF
:10A9600080E72AAA5146484602F0A0FDA8B92C99D2
:10A970002DAA8EE72AAA5146484602F097FD60B9F3
:10A9800098F800302C992DAA98E73846FEF798FCE5
:10A99000A94603460990FFF7F4B8D146FFF77ABA03
:10A9A000109B1946119B994200F38280C40740F125
:10A9B0006B81159A13440993410503D5119B002B14
:10A9C00000F3E680099B23EAE373049367260023E0
:10A9D0000F93149386E52D228DF88B204FF00009FC
:10A9E000FEF76CBEA146FFF755BA0A90DDE91212D8
:10A9F00002F100431F932D231E910B9319E6109B28
:10AA00002893099B15F8012CD97B91422B4609D13B
:10AA1000302003F8010C289B5A1E289213F8012CB1
:10AA20009142F6D0392A0BBF099A0132927AD2B2FA
:10AA300003F8012C82E618F4007F3FF49FAD059ADD
:10AA40001A705746FEF752BF2AAA0799039802F0D8
:10AA50002DFD00287FF41CAA249BDDE92B240DF199
:10AA6000B40B71E5119B002B40F36481119BB9F18C
:10AA7000000F40F00381C60700F1008109936626AC
:10AA8000430500F18680099B23EAE37304939EE764
:10AA90002AAA0799039802F009FD00287FF4F8A973
:10AAA000249B109A2C9CD31A0DF1B40BFFF790BB8A
:10AAB000109B159A13440993119B002B40F3498175
:10AAC0006726DDE730238DF88C30582395E5039811
:10AAD0002AAA494602F0EAFC00287FF4E0A9FEF722
:10AAE0000FBF24A89DED1E0B02F0E8FB00224FF0E3
:10AAF0007F5351EC100B03F0C9FC00220023CDE979
:10AB00000C0103F02BFF08B101232493024B09939E
:10AB1000ACE500BF74000300300003005D42103359
:10AB2000B94B80F29780194610262346DDF80C9029
:10AB30000C4605E00BF1080B103D102D40F387800B
:10AB400001321033072ACDE92B23CBE90046F1DD92
:10AB50002AAA0799484602F0A9FC00287FF498A980
:10AB6000DDE92B230DF1B40BE6E709F101010398B0
:10AB700001F096FD0746002800F03B8148F4817300
:10AB80000E9326F020030493A046139B0A9047E5FA
:10AB900067261A9800220F9214920378119AFF2BBD
:10ABA0000CD093420ADA4178D21AA9B1149B01332E
:10ABB00014930B46FF2B00F10100F2D11192149B6C
:10ABC0000F9A09991A9013441B9A02FB03130993D5
:10ABD00023EAE373049385E40F9901310F91DEE7D3
:10ABE00028AA25ABCDE90032032124AB4A469DEDCE
:10ABF0001E0B039800F0E0FA4D46074600EB0904EF
:10AC00003B78302B00F0BE80249D2C440022002392
:10AC1000DDE91E0103F0A2FE08B1234613E4289BE0
:10AC2000A342BFF410AC30215A1C28921970289B03
:10AC30009C42F9D807E47C19E8E7B9F1000F00F06D
:10AC400092800A90ECE40A904FF00609E8E421466D
:10AC50001C460B4601322C44072ACDE92B24CBE9B4
:10AC6000003500F3A9800BF1080B70E49A46FFF75A
:10AC700037BB01232493654B0993F7E4159A1344DA
:10AC80004B4409936626FBE6119B099394E60DF16C
:10AC9000A70C64465E4D00E01446A5FB0312D208E3
:10ACA00002EB8201A3EB410303F130011346092BB0
:10ACB00004F8011C04F1FF32EEDC3033023CDBB25D
:10ACC000A44502F8013C40F290800DF19A0411462F
:10ACD00001E011F8013B04F8013B8C45F9D12AABA6
:10ACE0009B1A0DF19A021344FFF7E3BB139B494FE4
:10ACF000002BB6BF2D229DF88B208DF88B20464B64
:10AD0000FEF702BFDDF81C90FFF7C9B828AA25ABF3
:10AD1000CDE90032032124AB4A469DED1E0B03987A
:10AD200000F04AFA4D460746462E07EB05043FF46D
:10AD300067AF6BE7B9F1000F31D1C5072FD40123FD
:10AD400004930993662642E6C3077FF5BFABFFF77E
:10AD5000B9BB099AC3F101031A4422EAE2730992CA
:10AD60000493672633E6CDF828904FF0010957E4A5
:10AD70005A4611E5472E7FF45EAF18F0010F3FF4FD
:10AD800061ABD1E700220023DDE91E0103F0E6FDFF
:10AD900000287FF439AFC5F10105249535E7159BEF
:10ADA00001334B44099323EAE373049366260EE6CA
:10ADB0000DF19A02FFF77ABB2AAA0799039802F0CD
:10ADC00075FB00287FF464A8DDE92B240DF1B40B9A
:10ADD000FFF7BDBB08999AF801600B6843EAE37975
:10ADE0000B1D92460893FEF759BB0DF19A03FFF72E
:10ADF00060BBDDF81C90B9F80C3043F04003A9F8B3
:10AE00000C30FFF74CB800BF74000300440003008F
:10AE1000CDCCCCCC2C000300280003002DE9F04160
:10AE20000C46ADF58D6D8989666EE589199621F020
:10AE300002010646E069ADF80C1017464FF4806138
:10AE4000626AADF80E5098461AAD0023079016A816
:10AE500009920693009504950291059101F090FBEB
:10AE600043463A4669463046FEF79AFA051E07DB26
:10AE70003046694601F05AF9002818BF4FF0FF35F7
:10AE8000BDF80C305B0603D5A38943F04003A381D2
:10AE9000169801F077FB28460DF58D6DBDE8F08121
:10AEA00021B1FF2A04D80A70012070470846704774
:10AEB0008A2303604FF0FF30704700BF38B5314B35
:10AEC0001B6805460C4613B19A6B002A3AD0B4F9B8
:10AED0000C2093B218070CD52069A8B113F0010219
:10AEE00020D0636900225B42A361A26000B300200E
:10AEF00038BDD9063ED5580728D4206942F008034A
:10AF0000A3819BB20028E9D103F42072B2F5007F3F
:10AF1000E4D02846214601F069FBA389206913F09B
:10AF20000102DED1990758BF6269A2600028DED114
:10AF3000B4F90C301A06DBD543F04003A3814FF07F
:10AF4000FF3038BD184601F04DF9C0E7216B51B113
:10AF500004F14003994204D0284601F0E5F9B4F920
:10AF60000C200023236300232069636022F0240265
:10AF70002060C3E742F0400209232B604FF0FF300E
:10AF8000A28138BDB4980020024B13B1024800F0F2
:10AF900079B870470000000055C202002DE9F04F5B
:10AFA000354B85B00F460390186801F0EDFA334B2E
:10AFB0001B68019303F5A4730293B946019BD3F870
:10AFC00048613EB3DDF808A04FF001087468651EC3
:10AFD0000FD4013406EB84040027B9F1000F20D010
:10AFE000D4F800314B451CD0013D6B1CA4F1040486
:10AFF000F3D1234B73B1D6E90032002A34D1002BB0
:10B0000032D03046CAF8003001F042FBDAF8006076
:10B01000002EDBD1184B186805B0BDE8F04F01F0E9
:10B02000B5BA73682268013BAB420CBF75602760FC
:10B03000002AD9D0D6F88811D6F804B008FA05F35A
:10B040000B4208D1904773685B45B7D1DAF80030FE
:10B05000B342C9D0B2E7D6F88C01D4F880100342CD
:10B0600007D103989047EEE7B2461E46002EADD1B9
:10B07000D0E708469047E6E74C9E00200C0003000E
:10B0800091C60200002301461A46184602F018BA7B
:10B090002DE9F04F03690F69BB4283B0C0F286808F
:10B0A000013F01F1140900F1140A59F827205AF858
:10B0B0002730BC000132B3FBF2F80AEB0403009422
:10B0C00009EB040B0193B8F1000F38D000252E4690
:10B0D000CE46D4465EF8044BDCF80030A2B208FB42
:10B0E0000255220C2C0C08FB0242ADB2751B96B225
:10B0F000C6EB134615FA83F306EB23469BB243EAED
:10B100000643F3454FEA12454CF8043B4FEA264606
:10B11000E0D2009B5AF803308BB9019A131F9A456D
:10B120000CD252F8043C4BB9A2F1080302E01A68B1
:10B13000043B1AB99A4507F1FF37F8D30761044673
:10B1400001F0C8FF00282DDB08F101085546002357
:10B1500059F8041B28688AB29A1A0B0C12FA80F26A
:10B16000C3EB104303EB224392B242EA0342CB45C6
:10B1700045F8042B4FEA2343EAD25AF827200AEB7A
:10B1800087037AB91A1F92450BD253F8042C42B99F
:10B19000083B02E01A68043B1AB99A4507F1FF37E9
:10B1A000F8D32761404603B0BDE8F08F002003B01C
:10B1B000BDE8F08F000000002DE9F04F55EC104B7A
:10B1C0009BB0066C0291814607920593CDE900453C
:10B1D00056B1426C726001239340B360314601F076
:10B1E00089FD0023C9F84030B5F10008249AB4BFA6
:10B1F000012300231360764BBCBF28F00048CDF834
:10B20000048033EA080300F0A680DDE9006700222D
:10B2100000233046394603F0A1FB054678B1059A74
:10B2200001231360259B002B00F0C080694B259AF9
:10B2300003F1FF3B136058461BB0BDE8F08F18AA1E
:10B2400019A947EC106B484601F0D6FF5FEA185485
:10B25000824640F0A080DDE918542C4404F23243C9
:10B26000202B40F32C84C3F1400308FA03F8009B21
:10B2700004F2124023FA00F048EA000003F08CF8D0
:10B2800001230646013CA1F1F8770F933046394679
:10B290000022514B02F042FF47A3D3E9002303F001
:10B2A000F5F847A3D3E9002302F03AFF064620460B
:10B2B0000F4603F081F844A3D3E9002303F0E6F836
:10B2C00002460B463046394602F02AFF06460F4634
:10B2D00003F08CFB0022069000233046394603F031
:10B2E00047FB002840F07382069E162E00F25D8216
:10B2F0003A4B03EBC603D3E90001DDE9002303F079
:10B3000055FB002800F0D783731E069300230D938E
:10B310002C1BB4F1010800F1548200230893069B12
:10B32000002BC0F2458298440C9300230B93029BA0
:10B33000092B5BD8052B40F3C083043B0293002507
:10B34000029B023B032B00F29884DFE813F0DF033B
:10B35000BF03E803F504059A42F20F731360009BE4
:10B3600083B9C8F313036BB9259BDFF874B0002BC6
:10B370003FF461AF0BF10803259A584613601BB0E8
:10B38000BDE8F08F259BDFF85CB0002B3FF453AF96
:10B390000BF10303F0E7C7F3130343F07F570F9557
:10B3A000A4F2FF3447F44017189D6FE7DFF838B078
:10B3B00058461BB0BDE8F08F61436F63A787D23F4B
:10B3C000B3C8608B288AC63FFB799F501344D33F94
:10B3D0000000F07F610003000000F83FC00103009F
:10B3E0008801030094010300600003004FF0FF3464
:10B3F0000125CDE909450023029307930021C9F8EF
:10B4000044100E94484601F04FFC0E2C8346C9F8B8
:10B41000400000F2FB80002D00F0F8809DED007BE5
:10B42000069900298DED107B40F3E5839D4B01F0DB
:10B430000F0203EBC20393ED007B0C11E2068DEDCE
:10B44000007B40F19E84984BDDE91001D3E908238D
:10B4500003F046F9CDE9120104F00F0403267CB194
:10B46000DDE90001904DE30704D5D5E9002303F0A1
:10B470000DF80136641005F10805F4D1CDE900019D
:10B48000DDE90023DDE9120103F02AF9CDE900012D
:10B490000D9B43B10022854BDDE9000103F068FA02
:10B4A000002840F0FF84304602F086FFDDE90023EB
:10B4B00002F0ECFF7E4B002202F032FE099B0646B2
:10B4C000A1F15077002B00F01C84069B1693099B7A
:10B4D0001293DDE9000103F089FA129A714B03EB34
:10B4E000C20313ED027B00F130058DED147B02F0F9
:10B4F00063FF0B460246DDE90001CDE9006702F07B
:10B500000DFE0A9BEDB206460F460BF10104002B1F
:10B5100000F05884DDE914230020664903F0E0F8C8
:10B52000DDE9002302F0FAFD8BF8005032463B467D
:10B53000CDE9000103F03AFA002840F002853246D6
:10B540003B460020594902F0E9FD02460B46DDE981
:10B55000000103F02BFA002840F0FB84129A012A24
:10B5600050D05A44CDF85C80CDF848A0CDF850B00A
:10B570009246CB46DDE900890CE000204B4902F001
:10B58000CDFD42464B4603F0F3F9002840F0DC8441
:10B59000544530D0404649460022474B02F076FFE2
:10B5A0000022454B804689463046394602F06EFF00
:10B5B0000F46064603F01AFA054602F0FDFE024663
:10B5C0000B463046394602F0A9FD3035EDB2424611
:10B5D0004B4604F8015B06460F4603F0C9F93246B4
:10B5E0003B460028C9D0169BDDF848A00693D946F3
:10B5F000DDF850B036E2D946DDF85C80DDF848A0D1
:10B60000DDF850B0DDE91034CDE90034199B002B92
:10B61000C0F2AE80069A0E2A00F3AA80214B03EBFB
:10B62000C20393ED007B079B002B8DED027BC0F2E4
:10B63000BE82DDE90067DDE902233046394603F0CA
:10B640004FF803F0D3F9054602F0B6FEDDE9022318
:10B6500002F01CFF0B4602463946304602F05EFD02
:10B6600005F130038BF80030099B012B06460F468D
:10B670000BF1010453D000220F4B02F007FF002210
:10B68000002306460F4603F069F9002840F0EA81DE
:10B69000CDF800A0CDF81C90DDF82480DDE9029AF9
:10B6A00017E000BFC0010300980103000000F03F55
:10B6B00000001C400000E03F0000244002F0E6FED5
:10B6C0000022002306460F4603F048F9002840F008
:10B6D0003D834A4653463046394603F001F803F0AD
:10B6E00085F9054602F068FE4A46534602F0CEFE52
:10B6F00002460B463046394602F010FD05F1300C8B
:10B7000004F801CBA4EB0B0CE04506460F464FF0C6
:10B710000002C14BD2D1DDF800A0DDF81C9032460A
:10B720003B463046394602F0FBFCDDE90223064683
:10B730000F4603F03BF958B9DDE90223304639469C
:10B7400003F00CF9002800F08D81E90740F18A81AF
:10B7500014F8015C05E09B4500F0738313F8015C6D
:10B760001C46392D04F1FF33F5D001351D7079E108
:10B770000A9A002A3BD0029A012A40F30B82099BC5
:10B780005F1E0B9BBB42C0F2E682DF1B099B002BB6
:10B79000C0F20B83089A14461A4498440892012177
:10B7A000484601F041FB054624E001230D93AFE537
:10B7B000089A069BD21A5B420B93002308920C93C3
:10B7C000B5E5C4F1010308934FF00008A7E5DDF8E3
:10B7D0001880404602F0F0FD32463B4603F0BEF8CA
:10B7E00000287FF481AD08F1FF3306937CE50B9FC1
:10B7F000089C0A9D002C0CDDB8F1000F09DD4445C2
:10B80000089A2346A8BF4346D21A0892E41AA8EB26
:10B8100003080B9B6BB10A9A002A00F09082DE1B92
:10B82000002F40F09B8151463246484601F0ACFB68
:10B8300082460121484601F0F7FA0C9A0646002A92
:10B8400040F02581029B012B40F36C810120404494
:10B8500010F01F0000F01981C0F12003042B40F309
:10B86000AC83C0F11C00089B03440893044480444B
:10B87000089B002B05DD51461A46484601F0D4FBD3
:10B880008246B8F1000F05DD31464246484601F0D8
:10B89000CBFB06460D9B002B77D1099B002B40F379
:10B8A00009820A9B002B00F08980002C00F36B8139
:10B8B0000C9B002B40F0CD81A846009ACDF82CB00F
:10B8C00002F001020A92099A0BF1FF331A445F4613
:10B8D0000992B34659465046FFF7DAFB294604461B
:10B8E000504601F0F7FB594606464246484601F0ED
:10B8F0000DFC04F130030093C3680146002B40F0B7
:10B90000D4810890504601F0E5FB089A0790114653
:10B91000484601F0EFF9079B33B9029A22B90A9B16
:10B92000002B00F01983029B002EC0F21C8205D16F
:10B93000029A1AB90A9A002A00F01582002B07F120
:10B94000010400F32582009B3B70099BBB4200F081
:10B950003082514600230A22484601F0D5F9454578
:10B96000824629464FF000034FF00A02484600F095
:10B97000968101F0C9F94146054600230A2248464E
:10B9800001F0C2F927468046A4E73146504601F04F
:10B99000A1FB002881DA069F514600230A2248466F
:10B9A000013F069701F0B0F90A9B8246002B40F058
:10B9B000EB820E9B002B40F3F38209935C46DDF88B
:10B9C000248002E001F0A0F9824631465046FFF79C
:10B9D0005FFB00F1300704F8017BA4EB0B039845F3
:10B9E0004FF00A024FF0000351464846EADC0023BC
:10B9F0000097029351460122484601F015FB31465B
:10BA0000824601F067FB002814F8012C14DC08D1F1
:10BA1000009BDB0710D404E00000244014F8022C43
:10BA20001C46302A04F1FF33F8D00BE09B4500F0B0
:10BA30004E8113F8012C1C46392A04F1FF33F5D04E
:10BA400001321A703146484601F054F955B1029955
:10BA500021B1A94202D0484601F04CF92946484696
:10BA600001F048F95146484601F044F90022069B8E
:10BA70002270059A01331360259B002B3FF4DBAB4A
:10BA800058461C601BB0BDE8F08F1C20EBE6014659
:10BA9000484601F079FA029B012B064640F3D48018
:10BAA00000230C93336906EB8303186901F06CF9EA
:10BAB000C0F12000CBE60D902AE4012540E4C3F15B
:10BAC0002008009B03FA08F0FFF7D8BB00230A9375
:10BAD000DDE9063213440E930133012B1E46099310
