:020000022000DC
:1060000000000120F59602001D970200E16A0200DF
:10601000219702002397020025970200000000004C
:1060200000000000000000000000000027970200B0
:1060300029970200000000002B9702002D97020014
:106040001D8002002F97020025840200AD87020008
:10605000CD8602002F970200958202001D85020066
:106060007D8702008D8702002F9702002F97020084
:106070002F9702002F9702002F9702002F97020000
:106080002F9702001D6602002F9702002F97020033
:10609000B96602002F970200DD9002002F970200E0
:1060A0002F9702002F9702002F9702002F970200D0
:1060B000D58402002F9702000000000000000000BD
:1060C0002F970200E5840200F58402002F9702005A
:1060D0002F9702002F9702002F9702000000000068
:1060E00000000000000000000000000000000000B0
:1060F00000000000000000000000000000000000A0
:10610000000000000000000000000000000000008F
:10611000000000000000000000000000000000007F
:10612000000000000000000000000000000000006F
:10613000000000000000000000000000000000005F
:10614000000000000000000000000000000000004F
:10615000000000000000000000000000000000003F
:10616000000000000000000000000000000000002F
:10617000000000000000000000000000000000001F
:10618000000000000000000000000000000000000F
:1061900000000000000000000000000000000000FF
:1061A00000000000000000000000000000000000EF
:1061B00000000000000000000000000000000000DF
:1061C00000000000000000000000000000000000CF
:1061D00000000000000000000000000000000000BF
:1061E00000000000000000000000000000000000AF
:1061F000000000000000000000000000000000009F
:1062000010B5054C237833B9044B13B10448AFF3F0
:1062100000800123237010BD78A200200000000040
:10622000CC0E030008B5034B1BB103490348AFF381
:10623000008008BD000000007CA20020CC0E0300FE
:10624000154B002B08BF134B9D46A3F5803A002148
:106250008B460F461348144A121A03F037FB0F4BB4
:10626000002B00D098470E4B002B00D09847002001
:10627000002104000D000D48002802D00C4805F054
:10628000E5FB03F065FA2000290000F013F803F0A5
:106290004FFA00BF000008000000012000000000CD
:1062A0000000000078A20020ACB000204DBA02002F
:1062B00045CC020073B54FF40041002001F0B2F963
:1062C000044618B1204A1F2100F054F901F0CEF81D
:1062D0001E4803F04BFB01F045FF10B901F00AFF27
:1062E000044624B1184A2721204600F043F9002330
:1062F000ADF804308DF8063001A9012307208DF890
:10630000053001F039FF18B10F4A2D2100F032F9A4
:106310000F4C104D44F00104284603F027FB4FF4C6
:106320007A764FF47A40A047013EFAD14FF0A0426E
:10633000D2F80435D94301F0800103F08003C2F89C
:106340000815C2F80C35E7E786F702008DF7020062
:1063500080F702009FF702000369C1688B429DBF6E
:106360008268D21802F1FF3203F1FF3394BF501A52
:10637000581A70472DE9F041D0E9027405463E1BDA
:106380004068964220448846144404D903F004FA35
:10639000EC60BDE8F0813246E41B03F0FDF92246D3
:1063A00008EB06016868F1E72DE9F843C568064681
:1063B000894617464FF000083469B3687068A542F3
:1063C00028BFE418013C621B5C1BBC4228BF3C4652
:1063D000944228BF144649462844224603F0DCF97B
:1063E000B3682544AB4208BF00253F1BA044A1442D
:1063F000F560E1D14046BDE8F883000010B5114CCE
:10640000114AA2610223C4E90433104BE361A26480
:106410004FF400730E4A2362E264002310220D49F8
:10642000A362E01D6362E362A3656365E3652265C1
:1064300003F080FB0849204603F07CFB2023A37176
:1064400010BD00BFFCAF0020A6F70200A4A20020F0
:1064500094A20020AFF70200B3F70200F8B5184C81
:10646000182300FB033503FB00402544C46A012CBC
:106470000F46164611D024B1022C1BD00024204612
:10648000F8BD2846FFF768FFB042F8D332463946D8
:106490002846FFF76FFF3446F1E72846FFF75CFF19
:1064A0008642344628BF0446224639462846FFF72E
:1064B00061FFE4E72846BDE8F840FFF775BF00BF7D
:1064C000FCAF002073B50E4B1B7804460D461646F4
:1064D0000BB9FFF793FF00230DF107008DF807308C
:1064E00000F0A6FA324629462046FFF7B7FF0446D9
:1064F0009DF8070000F0CCFA204602B070BD00BF46
:10650000FCAF0020FFF77ABF10B511461C461A46B3
:106510000020FFF7D7FF204610BD000082B0012306
:106520008DF807309DF80730114B1860596044F220
:10653000010188429A6012D044F20201884206D1D9
:10654000DA60DA6812889A61DA685268DA6172B6DB
:106550009DF80730002BFBD162B602B070471A617C
:106560001A6992685A611A6912689A611A69ECE7A5
:10657000A4A4002000B583B002900091019244F2DF
:10658000010071466A4603F04FF803B000BD0000F9
:10659000094A537891780133DBB2994208BF00234E
:1065A000117899421FBF03705078182303FB002015
:1065B00014BF043000207047C4A4002073B5054602
:1065C00000240DF107000E468DF8074000F030FA68
:1065D0000DF10600FFF7DCFF90B10670094B9DF846
:1065E000062045605A709DF8070000F051FA24B962
:1065F000054B4FF48012C3F80021204602B070BD55
:106600000424F0E7C4A4002000E100E0024B4FF4B2
:106610003C6043F001031847C0F70200F8B51F497A
:106620001F4B0025C1F84051C1F84451C1F84851F1
:10663000C1F84C51C1F80051C1F804511B684BB36B
:10664000D1F8044517490968641A24F07F442F469D
:106650001A68A24209D8A41A15441A7CDE691AB134
:106660001F74D3E905209047AEB90F4A0F4B11783C
:106670001B788B4205D10133DBB2022B08BF00230C
:10668000137012780A4B43F822500A4B4FF48012D1
:10669000C3F80021F8BD3346DAE700BF001001401F
:1066A000E4A50020E0A50020DDA50020DCA5002059
:1066B000D4A5002000E100E02DE9F04F9F4AA04959
:1066C000137809789F4D994285B03CD00133DBB2F5
:1066D000022B08BF002313709B4912789B4B0F6855
:1066E00053F822003B1823F07F4300220B602B68F5
:1066F00016461446944613B942B12B6006E0196859
:1067000081420ED902B12B60091A19604FF00108BD
:106710002B68DFF840A201930027BEB9DFF83CB236
:1067200066E0401A0C44D968C3F800C0D3F81CE0F6
:1067300031B13A1922F07F42C3E90121DE611E46E0
:1067400001227346D7E70026B046E1E73446F669F2
:106750007D4A63681268DFF808C2A068991A21F0C0
:106760007F41614500F2A58001442160012222742D
:106770002A680023C4E90133E361002A40F0A280C3
:106780002C60CAE75A1C9BF80210D2B291428BF8D7
:10679000002004BF00228BF80020182202FB03B364
:1067A0001A799C68022A1CD0032A12D0012A1FD110
:1067B000207CE8B9D96861601A69A2605A69E26010
:1067C0009B69A361624B1B78002B18BF0146616077
:1067D000BEE700222B681146002B66D142B12B6028
:1067E00006E029680A468946002A59D10023237405
:1067F0009BF800309BF801209A42C3D12B682FB937
:10680000019A9A4202D1B8F1000F43D0002B41D037
:10681000D3F800A04F4D4C4BD5F804751C68DFF839
:1068200044813E1B98F8003026F07F4603369BB922
:106830004FF48033C5F84433C5F80433464B4FF466
:1068400000324FF00109C3F880211A60C5F80090AA
:10685000FFF7DCFE88F80090B2452CBF5444A41921
:1068600024F07F44C5F84045D5F80435DB1B23F000
:106870007F43E41B033324F07F44A3420AD9D5F8B5
:106880000435C5F84035FFF7C1FE334B4FF40032F5
:10689000C3F800212E4B00221A7005B0BDE8F08F1E
:1068A000944229D09146D2699EE719740122DB698E
:1068B00092E7D31A23F07F43834234BFC31A0023E5
:1068C000236053E721681368994213D8591A11605D
:1068D000E26155E7091AD8691A4638B103461868C3
:1068E0008842F7D3401A1860184613462160E061C9
:1068F000DC6112E71346F2E74C4511D1CB692B60FE
:1069000073B9DFF844E00120CDE90212CAF80800AB
:10691000CEF800300E4B1870FFF778FEDDE902125A
:106920001368D269C9F81C2012B1106803441360BF
:106930002B68994218BF012758E700BFDCA500204B
:10694000DDA50020E4A50020E0A50020D4A50020BE
:10695000D0A500200010014000E100E0C4A4002008
:10696000FEFF7F00D1A500202DE9F7431E4FBB7825
:1069700005460E469046A3B398B304292FD9436920
:106980007BB3437C0024012B0DF107000CBF89462B
:10699000A1468DF8074000F04BF80DF10600FFF717
:1069A000F7FDD0B101230370104B4560D3F80435D7
:1069B000C0E90498C0E902369DF806307B709DF866
:1069C000070000F065F824B9094B4FF48012C3F8B2
:1069D0000021204603B0BDE8F0830424EFE707243C
:1069E000F7E70824F5E700BFC4A400200010014029
:1069F00000E100E0064A92783AB130B1426922B132
:106A0000002202740221FFF7D9BD0820704700BFA1
:106A1000C4A40020EFF30583C3F308032BB9EFF3FD
:106A20001480C04300F0010070470120704700004F
:106A300070B50446FFF7EEFF012803D0104943204C
:106A400002F07AFCEFF3108672B60E4A90680123CA
:106A500098B993600C4B0D4DD3F88010294011600C
:106A6000C3F88050D3F8841051604FF0FF32C3F860
:106A70008420207006B962B670BD2370FAE700BFAB
:106A8000C6F7020074B0002000E100E0FC06FFBD84
:106A900010B50446FFF7BEFF012803D00949512075
:106AA00002F04AFC084B9A685AB154B9EFF31081CE
:106AB00072B6064A18681060586850609C6001B948
:106AC00062B610BDC6F7020074B0002000E100E01D
:106AD000024B1B680021986802F05CBFBC98002044
:106AE0001EF0040F1CBFEFF309800AE0EFF30880EB
:106AF0000549064A884201D8904202D88D464FF097
:106B00000000034B184700000000012000E00020B7
:106B1000396B0200BFF34F8F0549064BCA6802F478
:106B2000E0621343CB60BFF34F8F00BFFDE700BFB0
:106B300000ED00E00400FA052DE9F347054600F0FA
:106B4000B3FF00F0C9FD0028FBD12F4B2F4C9F6AEB
:106B50002F4BE41AE408240444F00104002D4ED025
:106B6000AA692C49204600F037FFEB680193AB6817
:106B700000932949D5E90023204600F04CFFEB693A
:106B800000932649D5E90423204600F038FF1E4B28
:106B9000DB6A980703D52249204600F019FFDFF889
:106BA0009490DFF894A000264FF0010808FA06F34D
:106BB0003B4206D059F826201AB15146204600F033
:106BC0000BFF01361A2EF1D1390605D50E4B1549AA
:106BD0005A6B204600F000FF3A0405D50A4B1249D3
:106BE0009A6B204600F0F8FE104B1B68DB0700D5BF
:106BF00000BE2846FFF78EFF02B0BDE8F0870C49C3
:106C0000204600F0E5FEC2E700ED00E0480F03007B
:106C1000E00E03001BF8020030F8020065F80200E5
:106C2000C0F802000FF902002FF90200F0ED00E0B9
:106C30008DF802004CF9020004F9020050E8002F20
:106C40000B4640E8003C9CF0000FF7D1104670471F
:106C500050E8003F43EA010240E8002C9CF0000F9E
:106C6000F6D11046704750E8002F02EA010340E8D1
:106C7000003C9CF0000FF6D11046704750E8003FF2
:106C800003EB010240E8002C9CF0000FF6D1104607
:106C9000704750E8003FA3EB010240E8002C9CF055
:106CA000000FF6D1104670470121FFF7D1BF002138
:106CB000FFF7D9BF10B50446002834D003681BB9CC
:106CC0001A49FF2002F038FB636823B917494FF4D3
:106CD000807002F031FBA36823B9144940F201101F
:106CE00002F02AFBE36823B910494FF4817002F0E7
:106CF00023FB238A23B90D4940F2031002F01CFB49
:106D0000D4E9012321689B1ADBB20A60013BDBB2A4
:106D1000FF2B226802D10020107110BD1168481CA1
:106D200010600B70F2E70E20F7E700BF74FE020060
:106D300037B5054620B914494FF4927002F0FCFAB9
:106D400000240DF107008DF80740FFF771FE2A6857
:106D5000696813688B4210D9591E116013F8014CF1
:106D60002A8AEB6802FB04342A68AB6811685B1A54
:106D70001179DBB2994238BF13719DF80700FFF714
:106D800087FE204603B030BD74FE020037B50C46C6
:106D9000054620B9104940F2471002F0CDFA24B957
:106DA0000D494FF4A47002F0C7FA00230DF107005B
:106DB0008DF80730FFF73CFE2A681368591C1160F4
:106DC000EA68A41A2A8AB4FBF2F41C709DF8070042
:106DD000FFF75EFE03B030BD74FE020038B5074C0D
:106DE000051E04F1080318BF1C4623682BB11A685E
:106DF00022605B6828469847F7E738BDF0A5002079
:106E000020B9054B01225A70FFF7E8BF012802D1D3
:106E1000014A9070F8E77047E8A5002020B9034BBD
:106E200001225A70FFF7DABF704700BFE8A50020C3
:106E300038B50B4C237883B90A486360A36023619B
:106E4000E36001F0A1F8054602F02EF908B901F05F
:106E5000AFF801232370284638BD8525FBE700BF26
:106E6000E8A50020016E020013B5164C237823B963
:106E700015494FF4857002F05FFAE36823B91249AF
:106E800040F20B1002F058FA00230DF107008DF8C4
:106E90000730FFF7CDFDE368013BE360E36853B9DA
:106EA00002F002F918B10849792002F045FA01F020
:106EB0009DF80023A3709DF80700FFF7E9FD02B0DD
:106EC00010BD00BFE8A50020C4FE0200012813B5D4
:106ED00009D018B103281CD002B010BD134B0122F9
:106EE000C3F88020F8E7124C00230DF107008DF85D
:106EF0000730FFF79DFD23780BB9FFF799FFE36893
:106F00009DF807000133E3600123A370FFF7C0FD84
:106F1000E2E7074B1B7823B9064940F2452002F00F
:106F20000BFA01F045F8FFF79FFFD5E700E100E01D
:106F3000E8A50020C4FE020010B5044618B90649B1
:106F4000312002F0F9F9A2682AB163692168206949
:106F500098470023A36010BD19FF02000EB433B59B
:106F6000059D044618B91149422002F0E5F963690C
:106F70001BB90E49432002F0DFF923681BB90B4906
:106F8000442002F0D9F963681BB90849452002F092
:106F9000D3F935B106AB01AA29462046019300F08A
:106FA0006FF802B0BDE8304003B0704719FF02002F
:106FB000826830B40468551C8560A154D0E9013260
:106FC0009A4202D330BCFFF7B7BF30BC7047000015
:106FD0002DE9F84F9946DDE90A431746824688466F
:106FE0000A460126BA420FD24E4538BF4E4613F02C
:106FF000010B01D164B900240125B9F1010F1AD99F
:1070000009F1FF397D43F8E7B2FBF7F20136E9E712
:107010009B070ED5B9F1000F0CBF30252025A642E5
:10702000EAD2013C29465046FFF7C2FF002CF6D1B8
:10703000E1E72025F3E7B8FBF5F39F42E2D9DFF85B
:107040003C90B8FBF5F3504619F8031005FB138884
:10705000FFF7AEFFB5FBF7F3BD4207D2BBF1000F60
:1070600002D00CB1A64203D3BDE8F88F1D46E8E775
:1070700020215046013CFFF79BFFF2E75FFF020033
:107080002DE9F74F88461746054620B9A8494FF421
:10709000A27002F051F96B6923B9A5494FF4A370AE
:1070A00002F04AF92B6823B9A14940F2471002F0D7
:1070B00043F96B6823B99E494FF4A47002F03CF980
:1070C000B8F1000F00F0318118F8011B49B92B7B92
:1070D000002B00F02A81284603B0BDE8F04FFFF7EF
:1070E0002BBF252940F0C080002698F800302D2BBA
:1070F000424608F1010823D0302B24D02B2B25D079
:1071000000242A2B02F1010123D13B681A1D3A60A9
:107110001B680A461C4413782E2B26D101324FF0EF
:10712000000A104610F8011BA1F1300CBCF1090F48
:107130001DD80A2303FB0A13A3F1300A0246F0E725
:1071400046F00106D1E746F00206CEE746F0040617
:10715000CBE711F8013CA3F130000928DBD80A2263
:1071600002FB0434303C0A46CBE74FF0000A12F829
:10717000011B01F0FB0068289046F8D069290ED069
:107180004AD8582964D006D825296DD098F80030FF
:10719000002B99D19BE7632962D06429F6D13A6824
:1071A000111D3960D2F8009089EAE972A2EBE97208
:1071B0004FF0010B092A5BDCD34538BFD3462CB115
:1071C000B9F1000F01DB710700D5013CB20702D510
:1071D000BAF1000F04D0F30702D4002C4ED10024E2
:1071E000B9F1000F52DAC9F100092D212846FFF745
:1071F000DFFE06F00302022A05D1BAF1000F02D128
:10720000002C47D10024CDE9004653460A224946C6
:107210002846FFF7DDFEB9E773294CD014D8702952
:10722000B4D13B681A1D3A60302128461C68FFF72C
:10723000BFFE78212846FFF7BBFE00220823CDE9D8
:10724000003221461022E3E775292BD078299DD101
:1072500039680A1D3A60CDE900465346102228E0FD
:107260003B681A1D3A6019782846FFF7A1FE8DE7A2
:107270000A230BF1010BB2FBF3F29BE7A345AFD25C
:1072800020212846013CFFF793FEA6E77007B0D502
:107290002B21ABE7A345B6D230212846013CFFF7AE
:1072A00087FEADE73968CDE900460A1D3A605346CE
:1072B0000A220968ACE73B681A1D3A60F107D3F867
:1072C000009020D4B9F1000F25D0484602F098FC78
:1072D0000646B44200D9C4B909F1FF3920E0284676
:1072E0000136FFF765FE19F806100029F7D1A6420E
:1072F000BFF44CAF002C3FF449AF20212846013C9D
:10730000FFF756FEF3E70026EDE720212846013C73
:10731000FFF74EFEDDE74E46DBE72846FFF748FE67
:1073200019F8011F0029F8D130E703B0BDE8F08F4C
:107330006FFF02007047000007B5044B0093044A3A
:10734000402300F032F803B05DF804FB55730200EF
:10735000FDA500202DE9F84389461446B2B10F4B34
:107360000F4E0325002743F00108224609EB0701D1
:107370000020FFF773F80744241A48B933782BB17B
:107380004FF47A40C047013D02D13570BDE8F88323
:1073900001233370002CE8D1F8E700BFD0FF0200D2
:1073A000FCA500207047FFF7ADB8F0B595B01C46BE
:1073B000164608460D4600F042FD1A9B0D93CDE996
:1073C000086400242346082205A928460A948DF85B
:1073D0002C400C9400F05AFD079B0293069B0393EC
:1073E0009DF814308DF8114003F00302012A1DD1DD
:1073F000BDF81440059EC3F3C203C4F383148DF893
:107400001030A20008230EA9284600F03FFDC6F365
:10741000952608AB0093224602AB0EA9304600F039
:10742000B3FB284600F00FFD15B0F0BD022AF8D1DD
:10743000BDF81640C3F3C203A4098DF81030082725
:10744000082C264628BF08263B4632460EA9284669
:1074500000F01CFDA41B08AB02AA31460EA837445D
:1074600000F0F6FB002CEBD1DBE7000008B5FFF7DE
:107470009AFF0421064800F0EDFA002803DA0549D6
:10748000412001F059FF044B01225A7108BD00BF91
:10749000C40F0300E4FF0200A8980020037813F053
:1074A000040216D003F00303012B03D0022B09D0F2
:1074B000012070470A6800880232C0F3831002443A
:1074C0000A60F5E70B684288023303EB92130B6006
:1074D000EEE71046704700002DE9F04F89B0002319
:1074E0000446851C0DF10F000F4690468DF80F30B5
:1074F000FFF79EFA494806683E60D0E9013213441E
:1075000001339B1B824600F21C4600F5836900F2A2
:107510001447AB421BD30022B8F1000F77D00523EC
:1075200063F3070264F38912DAF80010DAF808301E
:107530009DF80F000B4003330D444AF82320CAF88E
:107540000050FFF7A5FA012009B0BDE8F08F012136
:107550003046FFF793FB4846FFF7A6FB3846FFF798
:10756000A3FBDAF80400DAF808B0049000EA0B0094
:1075700003300AEB800004A9FFF790FF034604984C
:10758000002BF3D10BEA00020AEB820200F1020C9D
:10759000D2680592013000EA0B0B0AEB8B0B02F06C
:1075A0000302012ACDF810C0DBF80C1026D0022A05
:1075B00008D01B4901934FF4BF7001F0BDFE019B41
:1075C0009B4608E0BDF81620920903320CEB9202AC
:1075D0004FEA114B04923846FFF769FB10B1049B48
:1075E000CAF8043059463046FFF748FBDAE9012370
:1075F0001344DAF8002001339B1A8AE7BDF81430EF
:10760000C3F3831363444FEA114B0493E3E7062368
:1076100063F3070264F39F5286E700BF10A70020C0
:10762000530003000B4B0C48FF2210B59A60002258
:10763000C3F81824C3E90022C3F81424012283F8F4
:10764000202400F0B5FB044610B9044800F032FCD9
:10765000204610BD10A70020780F0300AC000300E7
:1076600030B50A4C71B10A4A0A49121BD2080023EC
:107670009A4201D1002030BD31F82350854202D01A
:107680000133F5E7034654F83300F4E7E00E030056
:10769000780F030078A20020094B013903EBC000EA
:1076A000032909D8DFE801F00A0204060420704724
:1076B000007970474079704700207047022070477A
:1076C000E00E0300034BD3E90030C31A584258417F
:1076D000704700BF10A700202DE9F04387B0FFF7E7
:1076E000F1FF0646002840F0FB807E4DC5F81804E7
:1076F000BFF34F8F6868AC6802902040033005EB01
:10770000800002A9FFF7CAFE029B18B1D5F8182421
:10771000002A5FD004EA0302991C013305EB8202C0
:10772000234005EB8303D268DB68049302F0030374
:10773000022B0392029162D1BDF80E306A484FEAE3
:107740009318B8F1500FC14628BF4FF0500969F3A4
:107750008F1309F10801ADF80E3000F041FB074628
:10776000002800F0A88000F06AFB03A9002308228B
:10777000384600F077FB029924EA01060136B6008C
:10778000B14535D95FFA89F97EB3F6B2A9EB06099E
:10779000214003315FFA89F4B146544E05EB810173
:1077A00008234A46384600F05DFB36B109F108036C
:1077B00022463146384600F055FB029B08F103088B
:1077C00003EB98030293D5F81834002B4BD1D5F86E
:1077D00010445BE02A689A4204D86A60304607B0D9
:1077E000BDE8F08304EA030088E740493446D7E760
:1077F0002140033108234A4605EB8101DAE7012BDA
:1078000059D1BDF80C303848C3F38311062928BF7D
:10781000062161F3891302318900ADF80C3000F0C4
:10782000DFFA0746002846D000F009FB00230822B3
:1078300003A9384600F016FB0026BDF80C20C2F361
:107840008312B300964203F10803BCD202994A1C8A
:1078500021400331029205EB81010422384600F0F9
:1078600001FB0136E9E7384600F0EDFAFFF72AFFA1
:1078700080F00100C6B2B1E7E3685B7923B1236809
:1078800039461B6820469847E3681C68002CF3D1F2
:10789000384600F0D8FA0DF107008DF80740FFF7E1
:1078A000C7F8D5F818340BB9029B6B609DF8070038
:1078B000FFF7EEF8DAE7D5F8104454B90C4B0D4851
:1078C0000D49C01AC008000440F0020000F080F822
:1078D000CCE7236820469B689847E3681C68ECE780
:1078E00000267BE710A70020780F03001CA70020CC
:1078F000E00E0300380F0300B80003002DE9F74F36
:107900002E4C80460F46914601A9012218461E467C
:10791000D4F808A0FFF7E0FD00283CD0019D00232B
:10792000A81CB34203EB00013FD100212448FFF71C
:1079300085F980F3100B234B234A4FEA18499B1A11
:10794000B9EBD30F04D3214940F2A31001F0F4FCAA
:107950006B1C03EA0A0304EB830349EA0B42DA6077
:1079600005EA0A03033314F8232068F3C50204F878
:10797000232034F8232066F3891224F8232054F8B6
:10798000232067F39F2244F8232002F0F80242F0FC
:10799000010204F8232094F820341BB1FFF79CFE69
:1079A0000028FBD103B0BDE8F08F0AEA010104EB27
:1079B000810159F82320CA600133B2E710A70020E3
:1079C0002CAB0020780F0300E00E030053000300EF
:1079D00000231A46FFF792BF07B50123019201AABF
:1079E000FFF78CFF03B05DF804FB07B5CDE900237A
:1079F00002236A46FFF782FF03B05DF804FB1FB560
:107A0000CDE90123069B039301AA0323FFF776FF29
:107A100005B05DF804FB1FB5CDE90023069B02937A
:107A2000079B03936A460423FFF768FF05B05DF8E0
:107A300004FB7FB5CDE90123089B0393099B0493C5
:107A40000A9B059301AA0523FFF758FF07B05DF8CD
:107A500004FB000030B5134AD2F81044002321463D
:107A600051B9C4682371D2F810445CB9C2F810044B
:107A7000C2681160184630BDC9680D799D420AD0B0
:107A80000968EDE7E468C16824680C60D2F8102446
:107A9000D2681060EEE701330A2BE0D14FF0FF33DC
:107AA000E8E700BF10A7002038B5094A0123D2F843
:107AB000104482F820341D4604B938BDE3685D7176
:107AC000236820465B689847E3681C68F4E700BFBA
:107AD00010A7002010B5037A052B0C460FD0437A6F
:107AE00023B1084A08492046FFF738FA07492046DB
:107AF000FFF734FA2046BDE81040FFF71DBA002A10
:107B0000F8D0F3E703010300080103002801030094
:107B100073B5C38804460D4633B1144A0092144924
:107B2000144A2846FFF71AFA217A05291CD0637AED
:107B30004BB1A088FFF7B0FD0F4B104953F8202040
:107B40002846FFF70BFA227A0D4BA08853F82260E3
:107B50000021FFF785FD0B4903463246284602B057
:107B6000BDE87040FFF7FAB902B070BD0301030031
:107B7000130103000B010300D00003000801030000
:107B8000380103002B0103002DE9F04385B01F46A7
:107B90000C9D002306460C46904695F80C902B73DE
:107BA00029463846FFF7B4FFB8F1060F09D8DFE8D9
:107BB00008F00412181F2833400031462846FFF70A
:107BC000CDF9002229463846FFF784FF85F80C904E
:107BD00005B0BDE8F083226831462846FFF7BEF9BC
:107BE000EFE7D4E9002331462846FFF7B7F9E8E785
:107BF000A36800933146D4E900232846FFF7AEF985
:107C0000DFE7E3680193A36800933146D4E90023DA
:107C10002846FFF7A3F9D4E723690293E3680193A9
:107C2000A36800933146D4E900232846FFF796F96C
:107C3000C7E76369039323690293E3680193A36829
:107C400000933146D4E900232846FFF787F9B8E7C7
:107C500008292DE9F84F80460E4617461C463BD8AA
:107C6000002593F80C901D7319461046FFF750FF3E
:107C7000DFF88CA0DFF88CB0AE422FD918F80520C1
:107C800059462046FFF76AF90135082DF4D1194904
:107C9000194DDFF874B02046FFF760F94FF0000A85
:107CA000564522D918F80A207E2A1CD812F80B1043
:107CB00011F0970F08BF2E2210492046FFF74EF90A
:107CC0000AF1010ABAF1080FEAD101222146384629
:107CD000FFF700FF84F80C90BDE8F88F514620466E
:107CE000FFF73CF9D0E72E22E6E729462046FFF7CA
:107CF00035F9E5E7FE000300FC0003000001030086
:107D0000FA000300F4000300410C03002DE9F74FD3
:107D100099469DF83030019388461746054618B9B4
:107D20002249B62001F008FBEA8895F805B00BFB64
:107D300002FBABF1040BCB4503D81C49C42001F076
:107D4000FBFA3E68B5F806A006EB09025A4509F1B0
:107D5000040188BFABEB0906B1FBFAF43E600AFBF5
:107D6000141144B9AAEB0107B74228BF37462EB910
:107D700003B0BDE8F08F2D68013CF2E7019A0431B1
:107D800008EB0403681872B101463A461846F61B20
:107D900001F002FDB2453C442D6857464FF000010A
:107DA00028BF3746E3E73A461946F0E79701030054
:107DB000FEF780BFF8B546790146721E05460023DE
:107DC00093422D6803D30024A64202D8F8BD0133A4
:107DD000F6E70F682846FEF7D9FF01343946F3E786
:107DE0002DE9F843CD1C068A0746FEF7A1FF043EA5
:107DF00035440446B5FBF6F5F0B14FF48073EDB2AF
:107E00008380C680013D076081464FF00008A84589
:107E100012D23846FEF78CFF064648B1637901332B
:107E2000637108F10108C9F8000007608146EEE7B8
:107E30002046FFF7BFFF34462046BDE8F883012106
:107E40000430FEF71BBF10B5012104460430FEF7D5
:107E500020FF10F0FF0F04D12046BDE81040FFF7CF
:107E6000A9BF10BD1FB5144603920022009203AAB9
:107E7000FFF74CFF039BA34203D00349F62001F018
:107E80005BFA04B010BD00BF970103001FB5144694
:107E900003920122009203AAFFF738FF039BA3423B
:107EA00004D003494FF4807001F046FA04B010BDCD
:107EB00097010300826800239360826813618268DF
:107EC00053618268D3608268536082681360704730
:107ED00038B50D46044618B90849502001F02CFA6F
:107EE0001DB90649512001F027FA25602B6863600F
:107EF0006A68934204BF0023636038BDF001030049
:107F000010B5044618B90B49632001F015FA23682F
:107F10001BB90849642001F00FFA636843B1226875
:107F200091680B4463605268934204BF002363600E
:107F300010BD00BFF001030010B50D49A1F594720A
:107F4000914201D800200FE08B1ADB1003EBD373B2
:107F50005B1002EBC30452F83330834205D802D2DF
:107F600004F10802ECE7606810BD2146E8E700BFB5
:107F70009403030008B5FFF7DFFF024B002808BF9A
:107F8000184608BD5902030010B5044618B9064941
:107F9000A02001F0D1F9054B187918B901221C6015
:107FA0009A8010BD8520FCE74E070300CCAB002073
:107FB00008B50B4B1B791BB90A49B92001F0BCF974
:107FC000094B1A68D2075FBFE02283F80023012221
:107FD0001A604FF080430122C3F8182508BD00BF86
:107FE000CCAB00204E07030000E100E008B5084BD1
:107FF0001B791BB90749F32001F09EF9064B0122BA
:108000001A604FF08042D2F81834DB03FBD408BD6D
:10801000CCAB00204E0703000C00004007B5154B09
:108020001A687AB100221A601B680093009B4FF017
:1080300080430122C3F808230F4B587910B95A71B5
:108040001B6898470D4B1A6882B100221A601B68A2
:108050000193019B4FF080430222C3F80823064B93
:108060001B68012003B05DF804EB184703B05DF80E
:1080700004FB00BF00010040CCAB00200401004025
:1080800000F1804000F5C040002382B00360036827
:108090000193019B02B07047054B4FF0FF32072858
:1080A00043F8202084BF1B1883F84820704700BF86
:1080B000D4AB002002494FF4F37001F03DB900BF8A
:1080C000A10703001F2838B504460D4601D9FFF764
:1080D000F1FFA00000F1A040D0F8002722F44032C8
:1080E000C0F80027D0F8003743EA0543C0F800374E
:1080F00038BD000010B5174C94F8583043BB04F15C
:1081000030032021FF22013911F0FF0103F8012B78
:10811000F9D1C8B2FFF7C0FF01310C29F9D104220F
:1081200000210D4801F0D2FB0C4BE02283F806231E
:1081300040221A604FF4BE70FFF7A2FF084B4FF0C9
:108140000042C3F80423012384F85830002010BDF6
:108150000820FCE7D4AB002028AC002000E100E0C0
:1081600000600040034B93F85800003018BF012016
:10817000704700BFD4AB00201F2870B504460D46E1
:1081800004D941494FF4987001F0D6F83F4E96F863
:108190005830012B04D03C4940F2311001F0CCF8AA
:1081A00025B939494FF4997001F0C6F8331993F99C
:1081B0003020013265D1AA78002A54D0334B0022F6
:1081C00053F8041B013149D1331983F830200023BF
:1081D00046F82230920002F1804202F5C0422B782C
:1081E000D2F81005697820F498101B04090520F4D2
:1081F000F85001F4801103F44033C2F810050B432A
:108200002102D2F8100501F4F8510B430343C2F8E0
:1082100010356B78012B4FF0010528D11F2C01D9A7
:10822000FFF748FF4FF0A043A540C3F808551F2CA7
:1082300001D9FFF73FFF04F5E0724FF0A04303219F
:1082400043F822101249E208012304F0070003FA60
:1082500000F08B5C18438854002003E00132082AA8
:10826000AED1042070BDFE2283F83020D1E71F2C50
:1082700001D9FFF71FFF4FF0A043A540C3F80C55ED
:10828000D5E70820EEE700BFE4070300D4AB0020E9
:1082900028AC00202DE9F04F87B000245D4D0394F9
:1082A0004FF48072012102F1804303F5C04390B284
:1082B0001B68012B06D1D5F804330B4202D0FFF71F
:1082C000DFFE0C430432B2F5907F4FEA4101EAD160
:1082D000514B1B68012B0AD14FF4BE70FFF7D0FE43
:1082E0004FF0A04344F00044D3F81035039314F04A
:1082F000FF0F1AD0494F00250126344210D0AB00A1
:1083000003F1804303F5C043D3F81005D3F81015EB
:1083100057F8253023B1C1F30141C0F30420984739
:108320000135082D4FEA4606E7D1002C6ADA002213
:108330004FF0FF33CDE90423384FDFF8E480002607
:1083400035464FF0A04A18F9014B631C4FD0E4B2F8
:10835000012224F0C00B04F0070302FA03F34FEAF2
:10836000DB0006AA111811F8042C1A423FD007EBC3
:108370000B02A40992F9302057F82290B9F1000FAE
:108380000AD1032C33D10DF1100E1EF800C04CEAB7
:10839000030C0EF800C001E0032CF4D0BBF11F0F5A
:1083A00005D9CDE90031FFF785FEDDE900310BF598
:1083B000E07011F80C1C5AF820001942C0F301407B
:1083C00005D0022813D1032C0BD1214604E0032849
:1083D0000DD1032C05D102215846FFF773FE01355C
:1083E000EDB2B9F1000F02D021465846C847013618
:1083F000042EA8D135B14FF0A043039AD3F810351D
:10840000934202D107B0BDE8F08F0393049B05931C
:1084100093E700BF006000407C610040D4AB0020C7
:1084200024AC002010B5054C22681AB9044951202B
:1084300000F082FF2368BDE81040184730AC0020F0
:108440003D0803000023435082B043580193019B31
:1084500002B0704770B5D0F8103105460C4653B1E4
:108460004FF48871FFF7EEFF63795A0703D523684D
:108470000BB101209847D5F814315BB14FF48A71E4
:108480002846FFF7DFFF63791B0703D523680BB18D
:1084900002209847D5F81C315BB128464FF48E7105
:1084A000FFF7D0FF607910F0100002D1236803B10C
:1084B0009847D5F8043163B14FF482712846FFF72D
:1084C000C1FF0123237123681BB10320BDE8704065
:1084D000184770BD01490248FFF7BCBF38AC002007
:1084E00000C0014001490248FFF7B4BF40AC002082
:1084F0000010024001490248FFF7ACBF48AC002021
:108500000020024000F1804000F5E040002382B0EE
:10851000036003680193019B02B07047F0B5534BB1
:10852000534C1B6885B0002B3DD04FF4827094F8FB
:108530002E20FFF7E7FF2AB394F82F3013BB4D4BE3
:108540001B68002B33D04FF48070FFF7DBFF94F8EB
:108550002D20638B91B28B424ED95B1A21899BB23D
:108560006383CB1A616801EB4301434BC3F82C16BC
:10857000C3F830264FF48270FFF7C4FF3F4B01224F
:108580001A6014E0636802932389ADF80C30E36845
:1085900000218DF8041023BB2374236801A8984799
:1085A000002384F82F3094F82E30002BC7D1344BA1
:1085B0001B685BB14FF48870FFF7A4FF002323749E
:1085C00002238DF8043001A8236898472D4B1B68BF
:1085D00013B34FF48A70FFF795FF0023237405B09F
:1085E000F0BD208B608363602081E160002AD4D1DC
:1085F000214B01221A60D0E7BCD1E368012184F845
:108600002F103BB1002161831B49C1F82C36C1F802
:108610003026AFE76383ADE766694FF00047012579
:10862000002EDCD0B6FA86F227FA02F34632920028
:1086300026EA030602F1804303F5E0431B68002BA2
:10864000EED01046FFF75EFFA2F58C72D30882F0E1
:108650000402C2F380028DF808308DF804508DF8C2
:108660000920236801A89847DAE700BF0471004099
:1086700050AC0020007100400070004004700040C9
:10868000107100401471004002494FF4F37000F083
:1086900053BE00BFA10703001F2810B5044601D92F
:1086A000FFF7F2FF01234FF0A042A340C2F80C35C0
:1086B00010BD1F2810B5044601D9FFF7E5FF0123BF
:1086C0004FF0A042A340C2F8083510BD13B54FF0DB
:1086D0004023D3F818310BB3114B124C00221A600F
:1086E0001B680193019B236823B90F494FF427703E
:1086F00000F022FEE07FFF2803D0A37F5BB1FFF7ED
:10870000CBFF002363772372D4E90031074802B01E
:10871000BDE810401847FFF7CCFFF2E702B010BDEC
:108720001841004080AC00209A08030088AC00206B
:108730002DE9F743002406460F4600F5A0754FF4D7
:108740008038A146A0002B6800F5A07080B26BB104
:10875000D6F8043308FA04F21A4207D0C5F800909C
:108760002B680193019BD7E9003198470134042C11
:1087700005F10405E6D103B0BDE8F08301490248E4
:10878000FFF7D6BFA4AC002000800040014902489A
:10879000FFF7CEBFB0AC0020009000400023435054
:1087A00082B043580193019B02B07047F0B5504C22
:1087B000236887B023B94F4940F2452000F0BCFD43
:1087C0004D4AD2F824311546A3B14FF492711046A8
:1087D000FFF7E4FFD2F8043163B9A368C2F80833A5
:1087E0000223A360A368C2F8043301231362536118
:1087F00007B0F0BDD5F80431002B49D03F4F3E48BB
:108800004FF48271FFF7CAFF0FCF01AE0FC63B686E
:10881000336094F82E307BB1237B012B0CBFD5F84D
:108820003C25D5F84C250292022B334B0CBFD3F8D4
:108830003C35D3F84C3503934FF4B0712E48FFF715
:10884000ADFF4FF4AE712C48FFF7A8FF94F830301D
:1088500013B194F82E303BB1274B0022C3F800220D
:10886000A260274AC3F80823234AD2F8C434C2F8C6
:10887000C4349A0736D501238DF8003094F830308F
:108880000BB984F82F30D4E9003168469847AFE738
:108890004FF4A4711848FFF781FF237B83B9174F6A
:1088A0000FCF01AE0FC63B68336094F83030002B19
:1088B000DAD1C5F80032A360114BC5F80833D3E70D
:1088C0004FF40073C5F8003240F20223A36003F1B5
:1088D000CE73C5F80833A368C5F804330123AB6031
:1088E0002B6285E713F0040318BF0223C4E700BF1F
:1088F000BCAC0020F108030000300040C8AC0020F0
:1089000002029C0170B5C0B14AB116880024B4427D
:1089100003D305196D789D4208D0A14201D80020EB
:108920000BE0055D01352C44A4B2F0E7A142F6D975
:10893000A31C1380005D013880B270BD13B5002305
:10894000ADF8063013460DF106020446FFF7DAFFD4
:1089500010B1BDF80600204402B010BD72DF7047B0
:1089600073DF704738B5012204460D46B0F838125F
:10897000D0F83402FFF7E2FF00B1057004F13C02C9
:1089800004F50D7104F15400BDE83840FFF7E6BF6F
:10899000F8B5077804460D46002F00F0048100F278
:1089A0004A26A17007220021304600F08FFFE3889D
:1089B00013B1A378012B04D0E3794BB1A378022B38
:1089C00006D1636BA3B1012284F851220820984795
:1089D000334604F5147113F8012F12B98B42FAD102
:1089E00017466B1E032B52D8DFE803F0050B0F125E
:1089F00084F85132ECE7A3791BB194F8243003B921
:108A00005FB9E3790BB1002F43D1237A002B42D118
:108A1000637A002B0CBF00250425636BA570002B27
:108A20003BD0033D012D38D86279002A35D094F827
:108A3000522292BB84F85422012284F85322072048
:108A4000984704F13C0518220021284600F03EFF1B
:108A5000E36A94F82420581E0121022828BF0B46FF
:108A600084F83C1084F8513032B1884296BFA36A32
:108A700084F8521084F85230A178002384F85030E2
:108A800004291BD8DFE801F0770D223559000025B5
:108A9000C3E70225C1E70325BFE7002384F853326B
:108AA000CFE7C4F84432C4E910630223012284F8FA
:108AB0003C30802384F83120A4F84830A378002B80
:108AC0005CD1636B002B6AD1002067E00223002A8F
:108AD00084F8313014BF0723032384F83C30236922
:108AE000A4F848300023C4F84432E3682664636481
:108AF000E4E763696364A369A4F8483012B106230C
:108B000084F83C306379B3B194F852329BB994F84D
:108B1000543283B1022384F8503004212046FFF7F9
:108B200021FF0028CAD1052384F8313004F50D73E4
:108B3000C4F84432C2E70323F6E7E3696364236AB7
:108B4000A4F8483012B1062384F83C30637983B12D
:108B500094F852326BB994F8543253B1022384F82A
:108B6000503004212046FFF7FDFE0028A6D1062341
:108B7000DAE70423D8E784F831309FE72A46D4F8AF
:108B8000441204F15400FFF7E9FE38B994F83010AC
:108B900094F85400FFF7E4FE002892D0F8BD94F852
:108BA0003100984790E70820F8E710B50388112BAB
:108BB0000C460AD0262B1FD0102B05D1C37B012BCE
:108BC00002D18388A1F8483210BD002381F85232C7
:108BD0008288B1F848329A42F6D10B79002BF3D152
:108BE00001212046FFF7D4FE0028EDD0A36B002B17
:108BF000EAD0BDE810401847037A013B012BE3D8C7
:108C0000897805230131B1FBF3F303EB8303C91A20
:108C1000C9B2E6E770470000034B1A8882420CBFD6
:108C200018460020704700BF0CAD0020024B9B6926
:108C300003B11847704700BFF0AC002013B50B46D6
:108C4000497A0F4C024669B9D4E901101C7A002C0C
:108C500018BF01465868FDF787FE08B1FFF7E6FF29
:108C600002B010BD002119726369002BF8D00121F8
:108C7000ADF806008DF8041001A89847F0E700BF92
:108C8000F0AC00204B8802889A4213D842889A425E
:108C900010D380888A8840F2F313984294BF031A55
:108CA000C31A934206D800F2F310904234BF00205A
:108CB000012070470020704770B50388112B0146D2
:108CC00048D002D8102B1ED070BD122B52D0502B82
:108CD000FAD12F4BC288DB899A42F5D1038A022B45
:108CE000F2D186883046FFF797FF05460028EBD083
:108CF00001F1120000F050F830BB6868FDF77AFE11
:108D00000028E1D009E0C37B012BDDD14FF6FF70D5
:108D1000FFF782FF054620B90420BDE87040FFF749
:108D200085BF8E881B4A0680002303721368C5F82E
:108D30000A300A30536843601031FFF7A3FF144B29
:108D40006872DB89002BBFD129463046BDE87040F0
:108D5000FFF774BF8088FFF75FFF04460028B3D099
:108D60004068FDF747FE08B1FFF760FF4FF6FF735D
:108D70002380A9E786883046FFF74EFF0546002886
:108D8000A2D008310A30FFF77DFF6872DCE700BF30
:108D9000F0AC002020AD0020007800F0010070470A
:108DA00090DF7047A5DF7047B5DF70477FB50023C0
:108DB000ADF80810ADF80A106A4602A906460393FA
:108DC0000093ADF80430FFF7EBFF054600B3124BFC
:108DD000124CE41AE408FFF7CDF8240444F001042F
:108DE000034632460E492046FEF7FFFDBDF800203F
:108DF000BDF8023052EA030103D00A492046FEF7CB
:108E0000F4FDBDF804201AB107492046FEF7E4FD41
:108E1000284604B070BD00BFE00E0300500F0300F1
:108E20004D09030097090300D609030013B5034653
:108E300080880C46A0B91A88232A00F0A48011D893
:108E4000102A22D0112A51D0A37A4BB1E1880020F8
:108E5000FFF7A8FF002840F09C804FF480736381E7
:108E600002B010BD3A2A4AD0552A60D0242AEBD14C
:108E70001A7A0B694A73002BE6D04DF67A21ADF8C9
:108E8000040000918DF8042079E00A790A73DB7BF5
:108E9000012B13D0022B14D0E18823898B4205D2F9
:108EA0000020FFF77FFF70B90123E372217B637B12
:108EB0008B42C9D20020FFF779FFC5E70B88E3801A
:108EC000EAE74B88FBE7112802D10123A372EDE703
:108ED000FFF750F8374A384B38499B1ADB081B0418
:108EE000024643F00100FEF777FDDFE7F723CB8072
:108EF00017230B8141F6FB3348818B81A4E75B8903
:108F0000CA88934228BF1346172B0A6938BF172314
:108F10000B814AB1C97A39B140F677210091ADF899
:108F20000430694620469047002363818CE7DB8844
:108F3000C988A072172B38BF17238B4228BF0B4656
:108F40002381FFF731FF60B1FFF714F8194A1A4B7C
:108F50001B499B1ADB081B04024643F00100FEF785
:108F60003BFDE37A002B7FF46FAF2369002B3FF4C6
:108F70006BAF40F6772200922289ADF80420694653
:108F80002046984760E7197A237B994228BF194603
:108F900091E711283FF464AFFEF7ECFF054A064B5A
:108FA00006499B1ADB081B04024643F00100FEF74A
:108FB00013FD55E7E00E0300500F03002C0A0300D9
:108FC0005D0A0300B0DF704766DF704710B50346E7
:108FD00000214088FFF7F8FF024608B91A7210BD59
:108FE000112801D10122F9E75B68BDE8104018475C
:108FF00028B10378DE2B04D14180002070470E2079
:10900000704708207047F0B5054685B00C46F1B1B1
:10901000E8B10B78DE2B1AD182884B889A4204D1B2
:109020000B7A13B10846FFF7D1FF2B88112B32D0F2
:10903000512B0ED0012B0AD12B7A012B07D1A988F5
:109040006288914203D123722046FFF7BFFF05B02B
:10905000F0BDAE886388B342F9D1AF79022FF6D163
:10906000AD7B2B1F022BF2D800211022684600F0A6
:109070002DFC052D14BF4FF4C07300236946304604
:109080008DF80070ADF80430FFF79CFF0028DED0AB
:1090900063689847DBE76388AA889A4204BF4FF663
:1090A000FF736380D3E70000014B1878704700BF5F
:1090B00028AD002007B508496846FEF709FF019B67
:1090C00013B903B05DF804FBD3E90020904768466C
:1090D000FEF716FFF3E700BF9C0A0300FFF7EABFA5
:1090E00061DF704730B5134DADF5017D4FF4FA7473
:1090F0000DF1020103A8ADF80240FFF7F1FF70B9CE
:10910000294601A8FEF7E4FE029B002BF0D003A83D
:10911000D3E90021904701A8FEF7F2FEF4E7052805
:1091200004D0054A40F23911FDF724FA0DF5017D0E
:1091300030BD00BF040B0300B00A0300024B1B78D4
:109140000BB1FFF7CFBF704729AD002076DF704726
:109150007FDF704786DF70478ADF70478FDF704799
:10916000B1DF704733DF704737B503881D2B0446E6
:1091700000F0AC801DD8132B7CD00AD8102B3DD02A
:10918000112B5DD0604B13B12046AFF3008003B0CC
:1091900030BD142B00F08C801B2BF3D1037A012BF4
:1091A000F0D1FFF7DFFF0028ECD0584A4FF4CC7124
:1091B0006DE0502B52D00ED8212B00F096803B2B27
:1091C000E0D113218088FFF7C1FF0028DAD04F4A91
:1091D0004FF4D0715BE0522B5CD045D3562BD1D1EC
:1091E0008379002BCED14A4B13211888FFF7AEFFAD
:1091F0000028C7D0454A40F2A71148E0444D818875
:1092000044482980FFF7F4FE20B1404A4FF49D7195
:10921000FDF7B0F900231A4619462888FFF7A0FF8A
:1092200020B13A4A4FF4A171FDF7A4F93A4800F091
:109230009DFB3A4B002BA5D02046AFF30080A1E761
:10924000334B37484FF6FF721A8000F08FFB354BD7
:10925000002B97D02046AFF3008093E7324B002BD2
:1092600090D0AFF300808DE7304B002B8AD0AFF366
:10927000008087E7264800231A4685210088FFF7EB
:1092800067FF00283FF47EAF204A40F28111FDF7CE
:1092900071F977E71E4800231A4619460088FFF740
:1092A0005FFF00283FF46EAF184A40F28711EEE7E7
:1092B000174800231A4619460088FFF74BFF00287D
:1092C0003FF460AF114A40F29111E0E7184B0BB147
:1092D000AFF3008017490020FFF73EFF00283FF45E
:1092E00051AF0A4A40F2C711D1E7002301A9808893
:1092F000ADF80430FFF732FF00283FF443AF034AD4
:1093000040F2D111C3E700BF00000000410B030091
:1093100080B0002098AF0020700B03000000000018
:10932000800B0300000000000000000000000000AF
:1093300000000000B098002038B50D4604460448EF
:1093400000F014FB2A4621460248FDF713F938BD08
:109350001C0B0300EFBEADDE0C4B1B78062B10D1AF
:109360000B4B1B681A070CD10A4B186800F0F0036E
:10937000302B08D000F0E000A0F1400358425841E3
:109380007047002070470120704700BFE00F00F0D9
:10939000E40F00F0E80F00F0094B1B78062B0CD10E
:1093A000084B1B681A0708D1074B186800F0F0003B
:1093B000A0F130035842584170470020704700BF69
:1093C000E00F00F0E40F00F0E80F00F008B5FFF741
:1093D000C3FF28B17D4B7E4A1B68C3F3042313608F
:1093E000FFF7DAFF10B17B4B7B4A1A60FFF7B4FF3F
:1093F00028B17A4B7A4A1B68C3F342331360FFF7F4
:10940000CBFF20B1774AD36823F08073D360FFF796
:10941000A3FF40B14FF080430022C3F80C21C3F8F2
:109420001021C3F83825FFF7B7FF10B16E4B0322A8
:109430001A60FFF7B1FF40B16C4B05221A600122A0
:109440009A6700229A603F225A60694B1B78062B6C
:1094500050D1684B1B6819074CD1674B1B6803F050
:10946000F003502B46D14FF08052644BD2F80414D5
:10947000C3F82015D2F80814C3F82415D2F80C1438
:10948000C3F82815D2F81014C3F82C15D2F8141408
:10949000C3F83015D2F81814C3F83415D2F81C14D8
:1094A000C3F84015D2F82014C3F84415D2F8241498
:1094B000C3F84815D2F82814C3F84C15D2F82C1468
:1094C000C3F85015D2F83014C3F85415D2F8341438
:1094D000C3F86015D2F83814C3F86415D2F83C14F8
:1094E000C3F86815D2F84014C3F86C15D2F84424B8
:1094F000C3F87025FFF730FF28B1414B414A1B6884
:1095000003F04F031360FFF727FF48B14FF080438C
:10951000D3F80024D20744BF6FF00102C3F800243F
:10952000394B1B68062B08D1384B1B68062B01BF33
:10953000374A136843F480631360364AD2F88830A0
:1095400043F47003C2F88830BFF34F8FBFF36F8FBF
:109550004FF01023D3F80022002A03DBD3F80432A3
:10956000002B2FDA2C4B0122C3F80425D3F800245A
:10957000002AFBD04FF010221521C2F80012D3F8B8
:109580000024002AFBD04FF010231522C3F8042238
:10959000214B1A46D3F800140029FBD00021C3F850
:1095A0000415D2F80034002BFBD0BFF34F8F1949BC
:1095B0001A4BCA6802F4E0621343CB60BFF34F8FCB
:1095C00000BFFDE7164B174A1A6008BD24030010C0
:1095D0004035014074C007400DF0ADBA44020010A0
:1095E0003C050040F0ED00E0A005004010560040B2
:1095F000E00F00F0E40F00F0E80F00F000C00040C2
:1096000058020010E40E0040300100103401001038
:109610003C17004000ED00E000E001400400FA05C6
:10962000B89800200090D0032DE9FF4106460F4670
:10963000154672B6FEF738FAFEF74EF80028FBD151
:10964000234B244CE41AE40841F2010324049E4213
:1096500044F0010428D007D8012E14D03A461E4900
:109660002046FEF7B9F912E044F201039E421DD0F4
:1096700044F202039E42F1D12B886A6817492046C2
:10968000FEF7B3F903E016492046FEF7A1F9154BA2
:109690001B68DB0700D500BE2A463946304604B0B9
:1096A000BDE8F041FCF73ABF0F49EDE7D5F8088077
:1096B0004046FEF75FFC2B68029701936B680093AE
:1096C0000A49034642462046FEF7B3F90849DBE75C
:1096D000E00E0300380F0300250C0300D10B03003C
:1096E000920B0300F0ED00E0AF0B0300EB0B030067
:1096F000110C03000649074A074B9B1A03DD043B84
:10970000C858D050FBDCFFF761FEFCF799FD000064
:10971000DC0F0300A898002078A20020FEE7FEE7F7
:10972000FEE7FEE7FEE7FEE7FEE7FEE7FEE7FEE711
:1097300008B50021044602F031F9044B1868C36BE8
:1097400003B19847204605F0F5F900BF440D03002A
:1097500070B50D4E0D4D761BB61006D000240134A9
:1097600055F8043B9847A642F9D1094E094D761B9E
:1097700005F0F8FFB61006D00024013455F8043B7C
:109780009847A642F9D170BD68A2002068A20020C7
:1097900074A2002068A20020844641EA000313F06E
:1097A00003036DD1403A41D351F8043B40F8043BE8
:1097B00051F8043B40F8043B51F8043B40F8043BAB
:1097C00051F8043B40F8043B51F8043B40F8043B9B
:1097D00051F8043B40F8043B51F8043B40F8043B8B
:1097E00051F8043B40F8043B51F8043B40F8043B7B
:1097F00051F8043B40F8043B51F8043B40F8043B6B
:1098000051F8043B40F8043B51F8043B40F8043B5A
:1098100051F8043B40F8043B51F8043B40F8043B4A
:1098200051F8043B40F8043B403ABDD2303211D3EA
:1098300051F8043B40F8043B51F8043B40F8043B2A
:1098400051F8043B40F8043B51F8043B40F8043B1A
:10985000103AEDD20C3205D351F8043B40F8043BEA
:10986000043AF9D2043208D0D2071CBF11F8013BE8
:1098700000F8013B01D30B8803806046704700BFAE
:10988000082A13D38B078DD010F003038AD0C3F1BD
:109890000403D21ADB071CBF11F8013B00F8013B9F
:1098A00080D331F8023B20F8023B7BE7043AD9D35E
:1098B000013A11F8013B00F8013BF9D20B78037033
:1098C0004B7843708B78837060467047F0B486079E
:1098D00046D0541E002A3CD0CAB2034602E014F11E
:1098E000FF3436D303F8012B9D07F8D1032C29D977
:1098F000CDB245EA05250F2C45EA054533D9A4F13B
:109900001006360903F1200707EB061703F11002D2
:1099100042E9045542E902551032BA42F8D1721CAC
:1099200014F00C0F03EB021204F00F0613D0331FD8
:1099300023F003030433134442F8045B9342FBD146
:1099400006F003042CB1C9B21C4403F8011B9C426D
:10995000FBD1F0BC704734461346002CF3D1F8E736
:1099600014460346C2E71A462646E0E70FB400B5A0
:10997000074983B004AB086853F8042B816801934E
:1099800000F0AEF903B05DF804EB04B0704700BF1F
:10999000BC98002000290CBF022200224FF48063F3
:1099A00000F000B82DE9F043614C256883B004460F
:1099B0000F4690461E4615B1AB6B002B7BD0B8F11D
:1099C000020F06D0B8F1010F00F2AF80002EC0F2F6
:1099D000AC80636EDA0755D52146284603F0A0F81F
:1099E000216B41B104F14003994202D0284603F0B3
:1099F00093F900232363B4F90C3000221806A26106
:109A0000626066D423F44A6323F00303B8F1020FC3
:109A1000A38165D001AB6A462146284603F0A8FA27
:109A2000A3891843A081002E33D0002F32D0AB6B16
:109A3000002B3CD0009AB4F90C302760B2421CBF16
:109A400043F40063A381B8F1010F04BF43F00103A5
:109A5000A3819BB213F00802C4E904762FD0DA0781
:109A600051D5656E7642002215F00105A661A2600F
:109A70002AD19B0529D4A06D03F078FA284603B0BB
:109A8000BDE8F083A3899B05A6D4A06D03F06CFA12
:109A9000A2E7009E304603F0E3FA0746002834D0E0
:109AA000A38943F08003A381AB6B002BC2D128466E
:109AB00003F092F8BEE7284603F08EF87FE7A26035
:109AC000656E15F00105D4D00025284603B0BDE829
:109AD000F0832169284603F01FF9B4F90C3091E7AF
:109AE0000025616E002004F1430243F00203A060F0
:109AF000C9074FF00100A3812260C4E90420E4D427
:109B00009B05E2D4B7E7A660DAE7DDF80090B1453F
:109B100006D0484603F0A4FA074608B14E46BFE710
:109B2000B4F90C304FF0FF35DBE74FF0FF35CCE7F1
:109B3000BC98002080EA0102844612F0030F4FD146
:109B400011F0030F32D14DF8044D11F0040F51F80C
:109B5000043B0BD0A3F101329A4312F0803F04BFC3
:109B60004CF8043B51F8043B16D100BF51F8044BAC
:109B7000A3F101329A4312F0803FA4F101320BD1DC
:109B80004CF8043BA24312F0803F04BF51F8043B61
:109B90004CF8044BEAD023460CF8013B13F0FF0FBE
:109BA0004FEA3323F8D15DF8044B704711F0010FF1
:109BB00006D011F8012B0CF8012B002A08BF7047C2
:109BC00011F0020FBFD031F8022B12F0FF0F16BFB9
:109BD0002CF8022B8CF8002012F47F4FB3D1704781
:109BE00011F8012B0CF8012B002AF9D1704700BFA6
:109BF0000000000000000000000000000000000065
:109C000090F800F06DE9024520F007016FF0000CBC
:109C100010F0070491F820F040F049804FF0000464
:109C20006FF00700D1E9002391F840F000F108003F
:109C300082FA4CF2A4FA8CF283FA4CF3A2FA8CF377
:109C40004BBBD1E9022382FA4CF200F10800A4FADE
:109C50008CF283FA4CF3A2FA8CF3E3B9D1E9042332
:109C600082FA4CF200F10800A4FA8CF283FA4CF369
:109C7000A2FA8CF37BB9D1E9062301F1200182FA23
:109C80004CF200F10800A4FA8CF283FA4CF3A2FA29
:109C90008CF3002BC6D0002A04BF04301A4612BA37
:109CA000B2FA82F2FDE8024500EBD2007047D1E93A
:109CB000002304F00305C4F100004FEAC50514F0C9
:109CC000040F91F840F00CFA05F562EA05021CBF9A
:109CD00063EA050362464FF00004A9E700000000B4
:109CE0002DE9F04FD5B01C4689461746054605902C
:109CF00003F032F9036815931846FFF781FF0894C3
:109D000013901DB1AB6B002B00F01184D9F86410D7
:109D1000B9F90C20CD0793B202D4980540F15487CD
:109D200099040AD4D9F8641042F4005321F4005184
:109D3000A9F80C30C9F864109BB21A0740F1BF8033
:109D4000D9F81020002A00F0BA8003F01A020A2A7B
:109D500000F0C38000239FED9C7B1293CDE9293353
:109D600014931693CDE91833179304932BAB2893D0
:109D70009B463B78CDF81C908DED107B002B00F0BE
:109D80006782252B01F0AB803D4603E0252B00F0D8
:109D9000BB8025466B786C1C002BF7D1E61B00F0CE
:109DA0005782DDE9293201333244072BCBF80070AA
:109DB000CBF80460CDE9293200F3AA800BF1080B3F
:109DC000049A6B7832440492002B00F04182002305
:109DD00094F8018006938DF88330029304F1010A10
:109DE0004FF0FF392B2620210AF1010AA8F12003A8
:109DF0005A2B00F2A183DFE813F082029F039F0336
:109E00007B029F039F039F0301039F039F03F602AF
:109E1000DF009F03C4002B039F03240396009600DA
:109E200096009600960096009600960096009F0376
:109E30009F039F039F039F039F039F0345039F036C
:109E4000A80162014503450345039F039F039F0348
:109E50009F035B019F039F034E019F039F039F038B
:109E600023019F0315019F039F03CB009F039F03C3
:109E70009F039F039F039F039F039F0345039F032C
:109E8000A801EF004503450345037002EF005B00A6
:109E90009F03EB029F03D102BD028C025B009F0374
:109EA00023015F0087039F039F03A5009F035F00BB
:109EB000029B43F0200302939AF8008094E74946FE
:109EC000059801F0F9FC002841F08183B9F80C30C5
:109ED00003F01A020A2A7FF43DAFB9F90E20002AD6
:109EE000FFF638AFD9F86420D60702D49D0541F1BA
:109EF000908123463A464946059801F09BFC049020
:109F0000049855B0BDE8F08FE61B3FF460AF48E71A
:109F100028AA0799059803F0CDFF002841F027846F
:109F20000DF1AC0B4CE7A8F1300300221AF8018BBD
:109F300002EB820203EB4202A8F13003092BF5D9B0
:109F4000069253E7224B1493029B9F0625D5089C4B
:109F5000073424F00703F3E802450893029AD10777
:109F60000AD554EA050307D0302342F002028DF8E7
:109F7000858002928DF88430029B23F48066022350
:109F8000D9E19AF80080029B43F0040302932BE787
:109F9000104B1493029B9F06D9D4089B53F8044B93
:109FA0000893029BDE0600F14F86029B5D0640F19E
:109FB0004786A4B20025D1E78DF883609AF8008027
:109FC00012E700BFAFF300800000000000000000B7
:109FD0006C0D0300580D0300029EB00640F10B8784
:109FE000089C073424F007031946F1E8022308917E
:109FF00014461D46002A73F1000371DBB9F1FF3FDF
:10A0000000F0C58226F08003029354EA050340F075
:10A01000BD82B9F1000F41F00E814FF000094E46AC
:10A0200054AFBFE2029B9D0643F0100600F18F8201
:10A03000089B1A1D089B08921C68002501237AE1E1
:10A04000089C54F8047B00258DF88350002F00F005
:10A050003787B9F1FF3F00F0BC874A4629463846AA
:10A0600003F0BEFA0990002801F04A82099BA94634
:10A07000DE1BCDE90E9926EAE6739DF8832008944D
:10A080000393CDF82490CDF83090002A6FD0039B35
:10A09000013303936BE0029B9C0643F0100600F132
:10A0A0005F82089B1A1D089B08921C6800255EE2CF
:10A0B000029B9AF8008043F00803029394E6029B07
:10A0C0009C0643F010068BD4089B1A1D089B08922F
:10A0D0001C68E51722462B46002A73F100038DDA2F
:10A0E00064424FF02D0365EB4505B9F1FF3F8DF854
:10A0F00083304FF0010340F02581012B00F04782AF
:10A10000022B00F0798454A900E03946E20842EAC3
:10A110004572E80804F0070305461446303354EA54
:10A12000050201F8013C01F1FF37EED1F20740F1E1
:10A130008882302B00F085823023023907F8013CF9
:10A1400054AB02960F465E1A2CE2089C002354F88A
:10A15000042B8DF8EC2001261A4603960894CDE9CD
:10A160000E228DF88330099291460C923BAF029BF0
:10A1700013F002030A9302D0039B02330393029B62
:10A180002A9C13F084030B9304D1069B03995D1A58
:10A19000002D66DC72B1299A013201340DF1830081
:10A1A0000121072ACDE92924CBE9000100F3B1837D
:10A1B0000BF1080B0A9B6BB1299B0133023421A9D7
:10A1C0000222072BCDE92934CBE9001200F3AD833D
:10A1D0000BF1080B0B9B802B00F09582A9EB060579
:10A1E000002D00F3D382029BDB0500F12E82299B18
:10A1F000CBF8007001333444072B2A94CBF8046069
:10A20000299300F325830BF1080B029B5D0705D50D
:10A21000069B039A9D1A002D00F3AE83049B069AB9
:10A2200003998A42ACBF9B185B180493002C40F042
:10A23000E78200232993099B1BB10999059802F035
:10A240006BFD0DF1AC0B57463B78002B7FF499ADBD
:10A250002A9BDDF81C90002B40F0F5860023299303
:10A2600075E3102D299A29DD594620461E961023A4
:10A27000059C079EBB4604E0103D102D01F108012E
:10A2800018DD0132BC4F1030072ACDE92920C1E981
:10A290000073F1DD28AA3146204603F00BFE0028AA
:10A2A00040F04F83103D102DDDE929202BA94FF000
:10A2B0001003E6DC1E9E5F4604468B460132AE4B21
:10A2C0002C44072ACDE92924CBE9003500F32A865E
:10A2D0000BF1080B9DF883205CE79AF80080029B45
:10A2E000B8F1680F00F0E38543F0400302937BE58B
:10A2F000029B9AF8008043F00103029374E59DF8F5
:10A3000083309AF80080002B7FF46EAD8DF88310B7
:10A310006AE5089C47F6300254F8043BADF8842007
:10A32000029A08941C46954B149342F002060025AD
:10A3300002234FF078080022B9F1FF3F8DF8832007
:10A340003FF4DBAE26F08002029254EA050240F0B0
:10A35000DD82B9F1000F40F04883002B7FF45DAE41
:10A3600016F0010600F06A8430238DF84F310DF2AB
:10A370004F1717E1029EB00600F1F280029B089A87
:10A38000D90652F8044B01F14382029E33465B0624
:10A3900040F135860892A4B20025E8E00299089AB7
:10A3A000890602F1040300F15284029AD70600F1F3
:10A3B000E185029A560600F16486029A950540F1FD
:10A3C000D985089A08931268049B137057463BE797
:10A3D0009AF80080029BB8F16C0F00F05F8543F0A3
:10A3E0001003029300E5089B9AF8008053F8042BB1
:10A3F0000692002AC0F213850893F5E4059D2846CD
:10A4000002F0AAFD436817931846FFF7F9FB19906D
:10A410000446284602F0A0FD836818932021002CF2
:10A420003FF44AAD189B9AF80080002B3FF4DCAC57
:10A430001B78002B3FF4D8AC029B43F4806302935B
:10A44000D2E4029B9AF8008043F080030293CBE4AD
:10A45000524612F8018BB8F12A0F01F0BE81A8F123
:10A460003003092B92464FF000093FF6BFAC1AF8B3
:10A47000018B09EB890903EB4909A8F13003092B8A
:10A48000F5D9B3E4089C073424F00703B3EC027B4E
:10A4900055EC174B089325F000431B938DED1A7A6A
:10A4A000DDE91A014FF0FF32354B8DED107B04F0E2
:10A4B00099FF002840F0DC834FF0FF32304BDDE99C
:10A4C0001A0104F071FF002840F0D283002200231B
:10A4D0002046294604F05EFF002840F080879DF862
:10A4E0008320284F284B02980021032620F080006B
:10A4F000039609910290B8F1470FC8BF1F468946DD
:10A500000C91CDE90E11C0E5029EB4061FD4029B4A
:10A51000089AD80652F8044B01F17481029E710624
:10A5200040F177850892A4B20025012303E705983E
:10A5300002F052FBFFF7EABBB8F1000F3FF488AE20
:10A54000002301261A4603968DF8EC8007E6089C46
:10A55000073424F00703F3E8024508930123EAE6F1
:10A56000089C073424F00703F3E80245089326F417
:10A5700080660023DFE600BF8C0D03006C0D030036
:10A58000FFFFEF7F480D03004C0D0300029E002DDE
:10A5900008BF0A2C13D2303402968DF84F410126A1
:10A5A0000DF24F1700234E4509930C93CDE90E335E
:10A5B0003346B8BF4B469DF88320039365E506F408
:10A5C00080630022CDE902A8CDF824B054AFCB4679
:10A5D0009246B146DDF860801E4607E004F040FF79
:10A5E000002D08BF0A2C20D304460D460A22002362
:10A5F0002046294604F034FF02F1300C07F801CC64
:10A60000204629460A2200230AF1010A013F002EB2
:10A61000E4D098F800C0E245E0D1BAF1FF0FDDD0F8
:10A620009D4208BF944280F01E87CDF848A04E4658
:10A63000CDF86080D946DDF808A0DDF80C80DDF8A3
:10A6400024B0029654ABDE1BACE7B8F1650F40F3C3
:10A650000A8100220023DDE9100104F091FE0028A8
:10A6600000F0DE81299BC24ACBF80020013301347F
:10A670000122072BCDE92934CBF8042000F36384B1
:10A680000BF1080B229B129A2A9C934280F2A5821E
:10A69000299B159ACBF80020139ACBF8042001339C
:10A6A0001444072BCDE9293400F3EC830BF1080B9C
:10A6B000129B5D1E002D7FF7A8AD102D299AAD4B82
:10A6C00040F34E841026059FDDF81C80994605E076
:10A6D0000BF1080B103D102D40F341840132103472
:10A6E000072ACDE92924CBE90096F1DD28AA4146C5
:10A6F000384603F0DFFB002840F02384DDE92924FD
:10A700000DF1AC0BE6E7069B039A9D1A002D7FF72F
:10A7100065AD102D299A974B28DD0A96594620469B
:10A72000BB46059C079E1F4604E0103D102D01F11D
:10A73000080116DD013210301023072ACDE9292047
:10A740000F604B60F1DD28AA3146204603F0B2FBD2
:10A75000002840F0F680103D102DDDE929202BA9BE
:10A76000E8DC0A9E3B4604465F468B4601322C4499
:10A77000072ACDE92924CBE9003500F35583A9EB5D
:10A780000605002D0BF1080B7FF72DAD102D299A32
:10A79000784B29DD0A9659462046BB464FF01009F2
:10A7A000059C079E1F4604E0103D102D01F1080195
:10A7B00015DD01321030072ACDE92920C1E90079E1
:10A7C000F2DD28AA3146204603F074FB002840F051
:10A7D000B880103D102DDDE929202BA9E9DC0A9E67
:10A7E0003B4604465F468B4601322C44072ACDE99E
:10A7F0002924CBE9003500F3DA810BF1080BF2E4F0
:10A8000028AA0799059803F055FB00283FF411ADDD
:10A81000DDF81C9096E0299A1599CBF80010139951
:10A82000CBF8041001320C44072A2A94299200F331
:10A83000E1840BF1080B002BC0F2A286129B0132BF
:10A840001C44072ACDE92924CBE900737FF7DBAC50
:10A8500028AA0799059803F02DFB0028D8D12A9C37
:10A860000DF1AC0BD1E4129A299B012A04F10104E9
:10A8700003F101050BF1080640F358810123072D70
:10A88000CBF80070CDE92954CBF8043000F32A83CB
:10A89000139B159A691C1C4407290B91CDE92914B7
:10A8A000C6E9002300F32A8308360B9A129D02F1B1
:10A8B000010900230022DDE91001CDF8289006F1FE
:10A8C000080B05F1FF3804F05BFD002840F04181E2
:10A8D0000A9BC6F8048001374444072B37602A944A
:10A8E000299300F3BF820B9A06F1100302325E46F1
:10A8F0000A929B46169A726014440A9A2A9424ABD0
:10A90000072A299233607FF780ACA1E7029EFFF708
:10A91000F4BB28AA0799059803F0CCFA00287FF425
:10A9200077AF2A9C0DF1AC0B44E428AA079905984F
:10A9300003F0C0FA00287FF46BAF2A9C0DF1AC0B3A
:10A9400048E4B146099911B1059802F0E5F9D9F842
:10A950006420B9F80C30D40702D4980540F1DB82AA
:10A96000590600F14086049855B0BDE8F08F00BF4D
:10A97000880D03009C0D0300102D299B21DD10265E
:10A98000059FDDF81C8004E0103D102D0BF1080B35
:10A9900017DD0133B34A1034072BCDE92934CBE955
:10A9A0000026F1DD28AA4146384603F083FA002844
:10A9B00040F0C782103D102DDDE929340DF1AC0BBC
:10A9C000E7DC0133A74A2C44072BCDE92934CBE936
:10A9D00000257FF723AC28AA0799059803F06AFAA7
:10A9E00000287FF415AF2A9C18E4012B00F0238483
:10A9F000022B029E7FF487AB149854AF230904F016
:10AA00000F0143EA05732A091C461546435C07F803
:10AA1000013D54EA0503F1D154AB0296DE1BC1E5BA
:10AA2000229B002B40F3DF800E9B129A9342A8BF1B
:10AA30001346002B1D460DDD299BCBF8007001331A
:10AA40002C44072B2A94CBF80450299300F3FE845E
:10AA50000BF1080B0E9B002DA8BF5B1B002B1D46A6
:10AA600000F390820E9B3B449946029B580500F1EF
:10AA70001384229B129A934203DB029AD10740F17E
:10AA8000F782299A1599CBF800101399CBF8041086
:10AA900001320C44072A2A94299200F323850BF1F2
:10AAA000080B129ABD18A5EB0905D31A9D42A8BF41
:10AAB0001D46002D0DDD299ACBF8009001322C4463
:10AAC000072A2A94CBF80450299200F346850BF10B
:10AAD000080B002DACBF5D1B1D46002D7FF795AB0D
:10AAE000102D299A604B40F33B821026059FDDF81C
:10AAF0001C80994605E00BF1080B103D102D40F32A
:10AB00002E8201321034072ACDE92924CBE90096A0
:10AB1000F1DD28AA4146384603F0CCF9002840F080
:10AB20001082DDE929240DF1AC0BE6E7029AD20789
:10AB30003FF5A4AE0122072DCBF80070CDE92954D2
:10AB4000CBF8042000F38E8102330A930BF1100B33
:10AB5000D0E6B8F1000F7FF7CDAEB8F1100F424B41
:10AB600040F335861A464D4623461027DDF81CB0C3
:10AB7000DDF81490144607E00836A8F11008B8F183
:10AB8000100F40F35E8101351033072DCDE92953B5
:10AB9000C6E90047F0DD28AA5946484603F08AF97D
:10ABA000002840F01D82DDE929532BAEE5E728AAF5
:10ABB0000799059803F07EF900287FF429AE2A9CB6
:10ABC0000DF1AC0BFFF70FBBD9F8580002F0CCF930
:10ABD000B9F90C2093B2FFF7A3B8029BDD073FF54C
:10ABE00057ADFFF712BB299A2049CBF8001001326C
:10ABF00001340121072ACDE92924CBF8041000F300
:10AC000009840BF1080B002B7FF405AE029B129A0E
:10AC100003F0010313433FF4F8AA299A159BCBF8DC
:10AC20000030139BCBF8043001321C44072A2A94CD
:10AC3000299200F3DF820BF1080BFFE554AFB1E47A
:10AC4000029B980500F12D820025FFF787B9049932
:10AC500012680893CD1708462946C2E900015746F5
:10AC6000FFF7F2BA8C0D03009C0D0300880D030062
:10AC7000DDE9100102460B4604F0B4FB002840F069
:10AC80003A85B8F1610F00F0D084B8F1410F00F0BF
:10AC90000C8228F02003B9F1FF3F039300F00085F8
:10ACA000472B04D1B9F1000F08BF4FF00109DDE9CE
:10ACB00010450299002D41F48072C0F29583002363
:10ACC000CDE90931CDE91C451E930292039B462B29
:10ACD00000F0DF83452B00F0D28426AA23ABCDE918
:10ACE0000032022122AB4A469DED1C0B059800F074
:10ACF00047FF039B472B074640F08D850A9BDB07E8
:10AD000000F13B84269EF31B1293229B0E93039B20
:10AD1000472B00F09382039B462B00F0FD830399A1
:10AD20000E9B412903F1FF325FFA88F303BF0F3313
:10AD3000DBB201210021002A8DF89030B8BF0E9BB4
:10AD40002292B6BFC3F101022B232D23092A8DF8CD
:10AD5000913040F3C1840DF19F042046BE4D01E0C7
:10AD600008461A4685FB0231D317C3EBA10303EB58
:10AD70008301A2EB41013031632A00F8011C00F18C
:10AD8000FF31EDDC3033821EDBB2944201F8013C2E
:10AD900040F244850DF1920201E011F8013B02F806
:10ADA000013BA142F9D10DF1A1030DF192021B1A51
:10ADB000134424AA9B1A1693129B169A012B03EB99
:10ADC000020640F3EE84139B1E440A9B002223F4E8
:10ADD000806343F48073CDE90E22029326EAE67382
:10ADE0000C9203931E9B002B40F04F8299469DF8D6
:10ADF0008320FFF74AB9089B1A1D029BD90600F170
:10AE00000485029E33465B0640F1EC80089B089265
:10AE1000B3F90040E51722462B46FFF7EBB8524244
:10AE200006920893FFF7AFB828AA0799059803F090
:10AE300041F800287FF4ECAC2A9C0DF1AC0BFFF735
:10AE4000CDB922461C4613462A4601320A9206F123
:10AE50000802C6E900380A9B29934444072B2A9428
:10AE600040F3008128AA0799059803F023F80028E9
:10AE70007FF4CEACDDE9293401330A930DF1B40B34
:10AE80002BAE37E528AA0799059803F013F8002898
:10AE90007FF4BEAC2A9C0DF1AC0B09E443F0200317
:10AEA0009AF8018002930AF1010AFEF79DBF43F46C
:10AEB00000739AF8018002930AF1010AFEF794BF29
:10AEC0004E46062E28BF0626B9460C97CDE90E77CA
:10AED00009973A4603960894604FFFF7D6B83C4668
:10AEE000FEF775BF28AA0799059802F0E3FF00282E
:10AEF0007FF48EACDDE929542BAEC9E428AA07996A
:10AF0000059802F0D7FF00287FF482ACDDE92934F0
:10AF10002BAE0B93C9E4D9F8580002F027F8B9F822
:10AF20000C301DE528AA0799059802F0C3FF0028F8
:10AF30007FF46EAC9DF883202A9C0DF1AC0BFFF7DB
:10AF400029B9C146FEE428AA0799059802F0B2FF84
:10AF500000287FF45DAC0DF1AC0BFFF793BB4B46C3
:10AF600001322C44072ACDE92924CBE900357FF7AB
:10AF70004AA96DE4089A12680893049B1360574627
:10AF8000FFF762B9102D299A354B50DD194610266E
:10AF90002346DDF81480DDF81C900C4604E00BF12C
:10AFA000080B103D102D3FDD01321033072ACDE98B
:10AFB0002923CBE90046F2DD28AA4946404602F0A3
:10AFC00079FF00287FF4BEACDDE929230DF1AC0B3D
:10AFD000E7E73846FEF714FEA9460646FFF749B8EC
:10AFE000D946AFE4029E089B16F4007F51D093F936
:10AFF00000400892E51722462B46FEF7FBBF029E53
:10B00000B70547BF0892E4B2029E08920025FFF7F9
:10B01000AEBA029E089233469B054CBFE4B2029E34
:10B0200000250123FFF787B921461C460B46013254
:10B030002C44072ACDE92924CBE9003500F3EF8021
:10B040000BF1080B0EE5059828AA494602F032FFDD
:10B0500000283FF403A97AE467666666800D030062
:10B060009C0D030001330A9302F1080B164641E4DC
:10B07000129ABD18A5EB0905D31A9D42A8BF1D461B
:10B0800027E5089A08931268049B13805746FFF738
:10B09000DBB81C680892E517029E22462B46FEF795
:10B0A000A9BFE4B20025FEF759BF30238DF88430E4
:10B0B00058238DF88530029BB9F1630F43F00203EA
:10B0C0000A9300F3B782002309933BAF029A119BC6
:10B0D00042F481720292002B28F020020392C0F207
:10B0E00088819DED107B8DED1C7B00231E93B8F1B4
:10B0F000610F00F0D982B8F1410F7FF4E7AD22A8CB
:10B100009DED1C0B02F0D2FD00224FF07F5351EC5D
:10B11000100B03F0CDFE00220023CDE90C0104F05A
:10B120002FF908B101232293B64B0B93CDE90E8A78
:10B1300009F1FF35CDF84890CDF87CB0DDE90C89F8
:10B14000DDF82CB00C97BA4603E004F019F920BBE7
:10B15000B2460022AC4B4046494603F0A9FE894660
:10B16000804604F055F9074603F038FE02460B46C8
:10B170004046494603F0E4FC56461BF8074006F8F3
:10B18000014BB5F1FF3F2C46804689464FF0000247
:10B190004FF0000305F1FF35D7D140464946002264
:10B1A0009A4BDDF83880DDF87CB0CDF838A03D460C
:10B1B000DDF848900C9FDDF83CA0CDE90C0104F0CF
:10B1C00007F9002840F01482DDE90C0100228F4BC2
:10B1D00004F0D6F818B12B46DB0700F10982002CE9
:10B1E000FFF691AD631C3344302206F8012B9E42DA
:10B1F000FBD188E528AA0799059802F05BFE002894
:10B200007FF406AB229BDDE929240DF1AC0BFFF79F
:10B2100012BBD9F8580001F0A9FEFEF76ABE28AAB1
:10B220000799059802F046FE00287FF4F1AA2A9CAF
:10B230000DF1AC0B16E4029EFFF7ADB90E9BDE1CC0
:10B2400001DB994505DAA8F1020828F020030393F1
:10B2500065E5129B19460E9B994200F374810A9A88
:10B26000D40740F15482139A9E180A9B580503D5BF
:10B270000E9B002B00F34D8226EAE67303934FF0FA
:10B28000670800230C930F93ACE52D228DF88320E3
:10B290004FF00009FEF7FBBE129BCDF82CA0FB1867
:10B2A0000A930F9B0E975A464F46594EDDF8608021
:10B2B000DDF814A0DDF81CB0DDF864902146002B09
:10B2C00032D00C9B002B6ED10F9B013B08F1FF3855
:10B2D0000F93299B1798106001334944072B2A913B
:10B2E000C2F80490299362DC08320A9898F800307A
:10B2F000C51B9D42A8BF1D46002D0BDD299B176075
:10B3000001332944072B2A91556029935ADC98F878
:10B3100000300832002DACBF5D1B1D46002D15DC32
:10B320001F440F9B002BCCD10C9B002B3BD1B9466B
:10B33000129B0E9FDDF82CA0CDF86080FB1899457C
:10B3400093460C4628BF9946FFF793BB102D2998CA
:10B350001CDD102404E0103D102D02F1080215DD63
:10B36000013010310728CDE92901C2E90064F2DD7E
:10B3700028AA5946504602F09DFD00287FF430AEC1
:10B38000103D102DDDE929012BAAE9DC013029440B
:10B390000728CDE92901C2E9006549DC98F80030A9
:10B3A00008321F44BDE70C9B013B0C9391E728AA90
:10B3B0005946504602F07EFD00287FF411AE2A99CE
:10B3C0002BAA92E728AA5946504602F073FD00289E
:10B3D0007FF406AE98F800302A992BAA9AE72D221E
:10B3E0008DF88320FFF77DB8029B0A930023099311
:10B3F0000292DDE9101202F100431D932D231C91EE
:10B400001E9374E6580D0300000030400000E03F3A
:10B410009C0D030028AA0799059802F04BFD00280F
:10B420007FF4F6A9229B2A9C0DF1AC0BFFF7EBBB36
:10B4300028AA5946504602F03DFD00287FF4D0ADC1
:10B4400098F800302A992BAA1F446AE728AA07997E
:10B45000059802F02FFD00287FF4DAA92A9C0DF14F
:10B46000AC0BFFF7F7BA199B1799FF1A1A46384623
:10B4700002F0AAFC98F801300BB108F101080A2289
:10B480000023204629464FF0000A03F0E9FFFFF7AA
:10B49000ABB826AA23ABCDE90032032122AB4A4642
:10B4A0009DED1C0B059800F06BFB0378302B0746D5
:10B4B00000F06181229B4B44FC1800220023DDE94F
:10B4C0001C0103F05DFF08B126461CE4269EA6423F
:10B4D000BFF419AC3022731C26933270269EB442FE
:10B4E000F9D810E428AA0799059802F0E3FC00288F
:10B4F0007FF48EA9229B2A9C0DF1AC0BFFF7D1BAE9
:10B500004E46CDF80C90089481460C90CDE90E0083
:10B510009DF88320FEF7B9BD0A9B0E9A03F0010344
:10B52000002A43EA090340F34281002B40F01981CD
:10B530000E9E4FF066080A9B5A0500F1EC8026EA41
:10B54000E67303939DE6DDE912329E180E9B002BF5
:10B5500040F31E814FF06708EDE728AA0799059888
:10B5600002F0A8FC00287FF453A9229B129A2A9C7F
:10B57000D31A0DF1AC0BFFF7ACBA07EB09049CE74B
:10B580005D421033A74B63DA194610262346DDF8D7
:10B590001480DDF81C900C4604E00BF1080B103D04
:10B5A000102D52DD01321033072ACDE92923CBE9D2
:10B5B0000046F2DD28AA4946404602F07BFC0028FE
:10B5C0007FF4C0A9DDE929230DF1AC0BE7E7D9F839
:10B5D0006430DB0707D4B9F80C309F0503D4D9F8E1
:10B5E000580001F0C3FC4FF0FF330493FFF7BBB9E1
:10B5F0000E9B26930B9B16F8012CD97B8A4233466F
:10B6000009D1302003F8010C269B5A1E269213F80C
:10B61000012C9142F6D0392A0BBF0B9A0132927A53
:10B62000D2B203F8012CFFF76EBB30238DF88430C3
:10B6300078233EE509F10101059801F019FD07465F
:10B64000002800F0D580099040E521461C460B46B5
:10B6500001322C44072ACDE92924CBE900357FF7B4
:10B66000EAAA28AA0799059802F024FC00287FF48A
:10B67000CFA8DDE929240DF1AC0BFFF7DFB809F104
:10B68000010426A923ABCDE90031224622AB0221D9
:10B690009DED1C0B059800F073FA07463C440CE73F
:10B6A0004FF00609FFF703BB22A89DED1C0B02F02B
:10B6B000FDFA00224FF07F5351EC100B03F0F8FB22
:10B6C00000220023CDE90C0103F05AFE08B101234A
:10B6D0002293554B0B9329E500297BD130238DF81C
:10B6E00092300DF19303303203F8012B24AA9B1AF8
:10B6F0001693FFF761BB119B4C4F002BB6BF2D2259
:10B700009DF883208DF88320494BFEF7ECBE0E9EFA
:10B71000ABE54FF06708189800220C920F9203785F
:10B720000E9AFF2B0CD093420ADA4178D21AA1B1BB
:10B730000F9B01330F930B46FF2B00F10100F2D159
:10B740000E920F9B0C9A18901344199A02FB0366F1
:10B7500026EAE6730393FFF745BB0C9901310C9180
:10B76000DFE7139BD6184E444FF06608E3E6DDF89A
:10B770001C90FFF7ECB800220023DDE91C0103F068
:10B78000FFFD00287FF496AEC9F10103229392E6F3
:10B79000C3F101031E4426EAE67303934FF06708E2
:10B7A0006FE50A9BDD077FF510ABFFF70CBB2BB9EC
:10B7B000012303931E464FF0660862E5139B5E1C4F
:10B7C0004E4426EAE67303934FF0660859E55A465D
:10B7D000FFF73FBB0DF1920385E7089B9AF80180C4
:10B7E00053F8040B0893924640EAE079FEF7FCBA5E
:10B7F000DDF81C90B9F80C3043F04003A9F80C3088
:10B80000FFF7A5B81E46FEF715BC1E46FEF75EBC48
:10B810001E46FEF748BC4C463C444EE602231693B7
:10B82000FFF7CABA9C0D03006C0D0300500D030016
:10B83000540D03002DE9F0410C46ADF58D6D89895D
:10B84000666EE589199621F002010646E069ADF8B9
:10B850000C1017464FF48061626AADF80E5098469E
:10B860001AAD0023079016A8099206930095049537
:10B870000291059101F074FB43463A466946304611
:10B88000FEF72EFA051E07DB3046694601F048F93F
:10B89000002818BF4FF0FF35BDF80C305B0603D50C
:10B8A000A38943F04003A381169801F05BFB28466F
:10B8B0000DF58D6DBDE8F08138B5324B1B6805463E
:10B8C0000C460BB19A6B12B3B4F90C2093B2180763
:10B8D00025D5206900282DD013F0010207D0636917
:10B8E00000225B42A361A26038B1002038BD9907F5
:10B8F00058BF6269A2600028F7D1B4F90C301A066B
:10B90000F4D543F04003A3814FF0FF3038BD184613
:10B9100001F062F9B4F90C2093B21807D9D4D90612
:10B9200028D5580712D4206942F00803A3819BB29E
:10B930000028D1D103F42072B2F5007FCCD0284684
:10B94000214601F043FBA3892069C5E7216B51B172
:10B9500004F14003994204D0284601F0DDF9B4F91E
:10B960000C200023236300232069636022F024025B
:10B970002060D9E742F0400209232B604FF0FF30EE
:10B98000A28138BDBC980020024B13B1024800F0E0
:10B990005DB870470000000045CC02002DE9F04F73
:10B9A000284B83B00F460190186801F0DDFA264B52
:10B9B000D3F800A04FF00009DAF848618EB174683E
:10B9C000651E0ED4013406EB84044FF001087FB1EC
:10B9D000D4F80031BB420BD0013D6B1CA4F1040430
:10B9E000F5D1184B186803B0BDE8F04F01F0BEBAAE
:10B9F00073682268013BAB420CBF7560C4F80090CD
:10BA0000002AE9D0D6F88811D6F804B008FA05FC67
:10BA10001CEA010F08D1904772685A45CCD1DAF878
:10BA20004831B342D8D0C7E7D6F88C31D4F880106B
:10BA30001CEA030F02D101989047EDE708469047B2
:10BA4000EAE700BFE89C0020440D03000023014604
:10BA50001A46184602F038BA2DE9F04F03690F690B
:10BA6000BB4283B0C0F28680013F01F1140600F1B1
:10BA7000140A56F827305AF82720BC0001330094E6
:10BA800006EB04099A425444B2FBF3F801943AD30A
:10BA900000252A46B646D4465EF8044BDCF8003052
:10BAA0001FFA84FB08FB0B554FEA154B240C08FBCF
:10BAB00004B4ADB2551BA2B2C2EB134215FA83F324
:10BAC00002EB23429BB243EA0243F1454FEA14459D
:10BAD0004CF8043B4FEA2242DED2009B5AF8033076
